:020000040801F1
:10280000008000208929010800000000000000006D
:1028100000000000000000000000000000000000B8
:1028200000000000000000000000000000000000A8
:102830000000000000000000000000000000000098
:102840000000000000000000000000000000000088
:102850000000000000000000000000000000000078
:102860000000000000000000000000000000000068
:102870000000000000000000000000000000000058
:102880000000000000000000000000000000000048
:102890000000000000000000000000000000000038
:1028A0000000000000000000000000000000000028
:1028B0000000000000000000000000000000000018
:1028C0000000000000000000000000000000000008
:1028D00000000000000000000000000000000000F8
:1028E00000000000000000000000000000000000E8
:1028F00000000000000000000000000000000000D8
:1029000000000000000000000000000000000000C7
:1029100000000000000000000000000000000000B7
:1029200000000000000000000000000000000000A7
:102930000000000000000000000000000000000097
:102940000000000000000000000000000000000087
:102950000000000000000000000000000000000077
:102960000000000000000000000000000000000067
:102970000000000000000000000000000000000057
:10298000000000000000000082B00190019802B039
:1029900000F000B882B00D4A0D4B0E4901908B42F9
:1029A00004D252F8040F43F8040BF8E70A4B0B4A21
:1029B0000021934202D243F8041BFAE7084B094A6C
:1029C0009A60019802B003F05DBD00BFBC4D0208E3
:1029D0000000002020000020200000208817002098
:1029E00000ED00E0002A01080000000000000000E7
:1029F00000000000000000000000000000000000D7
:102A00000080002089290108799F01087B9F010827
:102A10007D9F01087F9F0108819F01080000000041
:102A2000000000000000000000000000839F01087B
:102A3000859F0108000000001D5F01084D6101082D
:102A4000FD710108FD710108FD710108FD710108AA
:102A5000FD710108FD710108FD710108FD7101089A
:102A60002D5F0108FD710108FD710108FD7101086C
:102A7000FD710108FD710108FD710108FD7101087A
:102A8000FD710108FD710108FD710108FD7101086A
:102A9000FD710108FD710108FD710108A15F0108C8
:102AA000FD710108FD710108FD710108FD7101084A
:102AB000FD710108FD710108FD710108FD7101083A
:102AC000FD710108FD710108FD710108FD7101082A
:102AD000FD710108DD570108FD710108FD71010854
:102AE000052C0108FD710108FD710108FD71010847
:102AF000FD710108FD710108FD710108FD710108FA
:102B0000FD710108FD710108FD710108FD710108E9
:102B1000FD710108FD710108FD710108FD710108D9
:102B2000FD710108FD710108FD710108FD710108C9
:102B3000FD710108FD710108FD710108FD710108B9
:102B4000FD710108FD710108FD710108215F010897
:102B5000FD710108FD710108FD710108FD71010899
:102B6000FD710108FD710108FD710108FD71010889
:102B7000FD710108FD710108FD71010800000000F0
:102B8000FD710108FD7101088007054B48BF41F444
:102B90008071D9609A689207FCD50020704700BF09
:102BA00000380040F8B507460D4601202A21164698
:102BB0001C46FFF7E9FF390A0220FFF7E5FFF9B2EB
:102BC0000220FFF7E1FF310A0220FFF7DDFFF1B23B
:102BD0000220FFF7D9FF2B210120FFF7D5FF290A9B
:102BE0000220FFF7D1FFE9B20220FFF7CDFF210A53
:102BF0000220FFF7C9FFE1B20220BDE8F840FFF76D
:102C0000C3BF000030B58BB04FF48063009308233E
:102C10000DEB03024C213A4805F0FEFC9DF808300C
:102C2000522B66D19DF809403648FF2C0BD1038802
:102C30001A045ED443881B045BD472B6324A13680C
:102C400043F4806353E021019DF80A309DF80C2085
:102C50009DF80D5001F47061194324029DF80B306A
:102C600004F470641C43130103F470632B431D05CB
:102C70004FEA02229DF80E5002F4706242EA050209
:102C800044BF6FEA03536FEA1353150548BF6FEA59
:102C900002524FF0000548BF6FEA1252058103B996
:102CA0008AB10B4422441BB212B24025C3EB03137A
:102CB00002EB820293FBF5F3202592FBF5F201254E
:102CC0001BB212B20581C1EB011104EB840489111E
:102CD000C3F5F0736411C1F5F0711BB2048041803B
:102CE0008280C38072B6084A136843F002031360FF
:102CF00062B6064B4FF400625A610BB030BD00BFA4
:102D000044000020DC08002070090020000401407D
:102D100008B50E4B5A69120504D54FF400625A618A
:102D2000FFF770FF0A490B6840F202421A4062B98D
:102D3000084B188900B240B11A819A881A80DA8843
:102D40005A800B6843F002030B6008BD0004014089
:102D500070090020DC080020D04B2DE9F04F4FF621
:102D6000FF721A805A80CE4ACE4FDFF85C83CE4C79
:102D7000DFF858B34FF0000AC2F800A0CB4A8DB07C
:102D8000C2F800A020214FF480620646C84808F02F
:102D9000CBFD01254FF4806207A9384607920895BC
:102DA000CDF824A0CDF828A005F048FA4FF4006330
:102DB000C04A079307A938460892099505F03EFADC
:102DC00003234FF440720A9307A9042340464FF0AF
:102DD00012090B930792CDF82090099505F02EFA71
:102DE000A26D42F40012A265A26D02F400120392D9
:102DF0005146039A58463C2208F096FDAE4BAF4A26
:102E0000CBF80C5058468BE80C0005F0BAFB514645
:102E1000584605F081FC7B6923F480637B61002EBA
:102E200040F01982E36C43F00203E364E36C03F0C7
:102E300002030493049BE36C43F00403E364E36C38
:102E400003F004030593059BA36D43F48043A3653E
:102E5000A36D099603F480430693069B4FF4204329
:102E600002244FF0050B079307A9032340460A935A
:102E70000894CDF82CB005F0E1F94FF4804307A990
:102E800040460793089509960A9605F0D7F9D8F8B1
:102E9000143043F48043C8F8143007A93846079427
:102EA000089509960A9605F0C9F97B69844A854810
:102EB00023F002037B61136823F0400313604FF497
:102EC000827343604FF40063C3604FF400734FF0AC
:102ED0000A0A8361082300934363019202608660BB
:102EE00006614661C661066246628662C0F82CA031
:102EF000066306F028FA019A116841F0400111605A
:102F00007A6922437A613C2004F0BCFAD8F8142094
:102F100022F48042C8F8142011212120FFF734FE4A
:102F2000C82004F0AFFAB9212846FFF72DFEFF2193
:102F30002046FFF729FE83212046FFF725FE572173
:102F40002220FFF721FE504604F09CFAB1212846CA
:102F5000FFF71AFE31462046FFF716FE4946204687
:102F6000FFF712FE49462046FFF70EFE494620466F
:102F7000FFF70AFEC3212046FFF706FE4421222068
:102F8000FFF702FE504604F07DFAB4212846FFF711
:102F9000FBFD21462046FFF7F7FD40212046FFF7C5
:102FA000F3FD31462046FFF7EFFD2A212046FFF7CB
:102FB000EBFD2A212046FFF7E7FD20212046FFF701
:102FC000E3FD91212220FFF7DFFD504604F05AFA7D
:102FD000B6212846FFF7D8FD38212220FFF7D4FD7F
:102FE000504604F04FFAB0212846FFF7CDFD682186
:102FF0002046FFF7C9FDE3212846FFF7C5FD2F2135
:103000002046FFF7C1FD1F212046FFF7BDFDB5217A
:103010002846FFF7B9FD29462046FFF7B5FD2946AA
:103020002046FFF7B1FD67212046FFF7ADFDC02127
:103030002846FFF7A9FD70212046FFF7A5FD702166
:103040002046FFF7A1FD29462046FFF79DFD3C21C4
:103050002046FFF799FDC8212046FFF795FD009B0C
:1030600022201946FFF790FD504604F00BFAC221CA
:103070002846FFF789FD31462046FFF785FD009B76
:1030800020461946FFF780FD04212220FFF77CFD32
:10309000504604F0F7F9CC21284619E0DC0800205E
:1030A0008404002000080048001002408004002032
:1030B0008000002000002110912970000054004081
:1030C00000380040080900200004004844000020A7
:1030D000FFF75AFD59462220FFF756FD504604F0EF
:1030E000D1F9E0212846FFF74FFD29462046FFF79A
:1030F0004BFD21462046FFF747FD03212046FFF701
:1031000043FD59462046FFF73FFD0E212046FFF7BD
:103110003BFD22212046FFF737FD32212046FFF7F5
:1031200033FD3B212046FFF72FFD5C212046FFF7B2
:103130002BFD54212046FFF727FD4C212046FFF7A9
:1031400023FD41212046FFF71FFD3D212046FFF7CB
:103150001BFD37212046FFF717FD31212046FFF7E1
:1031600013FD21212046FFF70FFD29462046FFF7DA
:103170000BFD21462046FFF707FD03212046FFF700
:1031800003FD59462046FFF7FFFC0E212046FFF7BE
:10319000FBFC22212046FFF7F7FC32212046FFF7F7
:1031A000F3FC3B212046FFF7EFFC5C212046FFF7B4
:1031B000EBFC54212046FFF7E7FC4C212046FFF7AB
:1031C000E3FC41212046FFF7DFFC3D212046FFF7CD
:1031D000DBFC37212046FFF7D7FC31212046FFF7E3
:1031E000D3FC21212046FFF7CFFC31462046FFF7D4
:1031F000CBFC29462046FFF7C7FC504604F042F9B5
:103200003A212846FFF7C0FC55212046FFF7BCFCB9
:1032100036212846FFF7B8FC31462046FFF7B4FCBC
:10322000B0212846FFF7B0FC99212046FFF7ACFCFF
:1032300029462046FFF7A8FC22212846FFF7A4FCD8
:1032400029212120FFF7A0FC504604F01BF911486A
:1032500000F042FF02E0C82004F014F90E4C63694C
:1032600043F4806363610A2004F00CF9636923F47A
:10327000806363610A2004F005F9636943F48063A5
:103280006361064B4FF48072C3F884210DB0BDE832
:10329000F08F00BFF9F9F9000008004800E100E0F4
:1032A00010B51D4B9AB0044618603C2200210BA8B3
:1032B00008F03AFB4FF080430B930BA8174B0E938B
:1032C00006F03EFA10220021684608F02DFB4FF46C
:1032D000805369460BA8009306F07CFB0BA806F010
:1032E00049FA1C22002104A808F01EFB40F6C41075
:1032F00060436023002204A90493059004230BA8D3
:10330000089306F0BBFC0BA806F0A9F900210BA856
:1033100006F026FC1AB010BD2000002090D003005B
:103320002DE9F84F0C9F0B9CDDF83490DDF83880C8
:10333000DFF8B0A00126BE40A4F1040E013E002437
:103340000A9DAC421DD0102C1BD05EF8045F4FEAE2
:10335000154C2CF0070CC5F342354CEA05050AF86C
:103360001450DEF800504FEA551C0AEB440B2CF0C9
:103370001F0CC5F3C4054CEA05058BF80150013458
:10338000DEE7013B013A0B4402449BB292B2FFF7E5
:1033900009FC2C210120FFF7F7FB124CB8F1000FBC
:1033A0001DD019F801AB3D46EB1B2AFA03F333405D
:1033B0004FEA430BA34414F813100220FFF7E4FB79
:1033C0009BF801100220FFF7DFFB072DC7EB080871
:1033D000E4D83D44B8F1000FE6D1BDE8F88FBDE870
:1033E000F88F00BF24000020F8B50446270C1E46C5
:1033F00007F0F807C4F34233BDF818501F436309C0
:1034000003F0E003C4F3C4041C436B1E08461344DA
:103410001146721E02449BB292B2FFF7C3FB2C21ED
:103420000120FFF7B1FB7543FFB20026E4B2AE42C4
:1034300009D039460220FFF7A7FB21460220FFF7FB
:10344000A3FB0136F3E7F8BD30B5254C236887B000
:1034500005467BB12349244A00231360A1F14000B3
:103460004FF47072236008F0FBF9402220211F48BE
:1034700008F05AFA0A2D15D14FF480620123049204
:103480001B4A23600392002340F25F104FF4A071A7
:1034900081228DE807000593164A1946184600F068
:1034A000E5F91AE00D2D07D110484022202107B080
:1034B000BDE8304008F038BAA5F120035F2B0CD8E6
:1034C00009490B4A0B681A4401333E2B0B6088BF35
:1034D000012382F8C05388BF236007B030BD00BF0E
:1034E00080040020C000002084040020400400204C
:1034F00080000020F9F9F90038B504464518AC42BF
:1035000004D014F8010BFFF79FFFF8E738BD000067
:103510000FB42DE9F04F87B0109C002C00F077819C
:1035200011ABB24DB24E01932378002B00F06F81A6
:103530002346C4EB03091F4613F8012B252A08D1A3
:1035400049462046FFF7D8FF3B78252B04D03C4660
:10355000EAE7002AEDD1F3E70022019B781C9446AC
:103560004FF0200E904617464FF00A0A017858296E
:1035700000F1010400F0DE8016D82E2957D00BD8B8
:103580002A2967D02D2903D14FF0000C2046EDE702
:10359000252940F035812FE13029C0F031813929CA
:1035A00020D9482961D02BE1702916D007D8642989
:1035B0002DD068295ED0632940F022811DE0752955
:1035C00000F0AD80782908D0732940F0198102B14C
:1035D00001934FF0000A0A2351E002B101934FF02A
:1035E000000CABE0302903D1002F08BF4FF0300EA4
:1035F0000AFB0711A1F13007C8E702B10193019B53
:1036000006A81A1D1B68019240F8183DF6E002B1A9
:103610000193019B1A1D1B680192002B80F285808B
:103620005B4200934FF0000C01230A228DE04178A9
:103630002A2940F0E5808178732904D001F0DF0168
:10364000482940F0DD800122D3F80080841C043337
:1036500094469BE74178732940F0D280D3F80080EC
:10366000012204334FF0020C90E702B101934FF0B6
:10367000010A03E002B101934FF0000A1023019AFE
:10368000BCF1010F02F104010191106818D0BCF1E6
:10369000020F07D00246C0EB020812F8011B0029F6
:1036A000F9D10DE00378002B40F0AC8001215148A6
:1036B000FFF722FF434608F1FF38002BF6D122E046
:1036C000102B02D10746804414E04146FFF714FF57
:1036D000C14618E017F8019B4FEA191309F00F09CA
:1036E000BAF1000F09D1F05CFFF7AEFE16F8090041
:1036F000FFF7AAFE4745EDD116E7E85CFFF7A4FE09
:1037000015F80900F4E7B945BFF40EAFC9EB070798
:1037100001213848FFF7F0FE013FF9D104E702B17B
:103720000193019B1A1D1B6801924FF0000C00933E
:1037300063467AE702B101934FF0010C019B1A1D19
:103740001B680192009310220023DDF80080012005
:1037500002FB00F1414502D943B9194613E0B1FB20
:10376000F2F94845F8D1013F0846F1E7BEF1300FC4
:1037700004BF2D238DF8083007F1FF3707BF002362
:10378000012101230021A7F10209B9F10D0F0DD884
:1037900001F1FF390DF1080B07F1FF3AD944BAF1F5
:1037A000010A09F801EFFAD1394401392BB106AB0E
:1037B0000B442D2703F8107C013102AB4F1C0B4446
:1037C000791E88B1B8FBF0F1B1FBF2FE02FB1E11CD
:1037D000BCF1000F01D1895D00E0495D1970B0FBBB
:1037E000F2F001370133EBE702A80DE0ADBB0108B1
:1037F0009CBB0108D34A020802B10193012103E0F6
:1038000002B1019304480521FFF776FE8CE607B06C
:10381000BDE8F04F04B07047BEBB0108C0F30B0019
:103820000828F0B51FD8104C54F82040DCB1A77818
:10383000134400209A4213D012F8015BA688B542C7
:103840000FD3B4F806E075450BD8AD1BA66816F883
:10385000355046198E4206DC3D44284480B2E9E7E3
:10386000F0BD0020F0BDF0BD64F001082DE9F04F7F
:10387000C0F30B0B8FB0BBF1080F9A46BDF8605038
:10388000BDF870800C920D9160D8324951F82B3000
:10389000002B5BD0BDF864201E789B7809935244BE
:1038A00092B20892BDF868201B9B0A912A4492B2FA
:1038B00003F1FF39B3B2079254460B93B8F1000FEE
:1038C00041D00A9A19F8013F52F82B2091888B4277
:1038D00002D3D08883420AD9093B012B33D835441F
:1038E000ADB2079A731993422DDC544626E09268D4
:1038F00008985B1A02EBC30112F8333049681A19B1
:10390000824206DD3544ADB20798721982421ADC54
:1039100054469FB213FB06F30493012302930CABAE
:1039200001930223039100933A460B9B20462946BC
:10393000FFF7F6FC099B1F443C44A4B208F1FF3892
:103940001FFA88F8BAE744EA054420460FB0BDE8FC
:10395000F08F00BF64F001082DE9F04F8DB0914663
:103960000593059D9DF858300693179BC5F10102FC
:1039700008920746EA1A1BB1002AD4BF002301238C
:10398000039393B20293029A8EB2731C9B1A9BB25A
:103990000A93C2F101039BB2079304930A9B099314
:1039A000069B03F001034FF000080B9301244545EB
:1039B000C0F234810B9BFBB1039B09EB08021FFA99
:1039C00085FB93B1079B00941FFA82FA5B449BB27C
:1039D000524631461898FFF707FD0A9B00940BEBFF
:1039E00003015246029B89B203E000945B4692B207
:1039F00031463846FFF7F8FC069B99071ED5039B16
:103A000005EB090293B1059BAB4206D00094049BE1
:103A1000189892B23146FFF7E7FC049B009499197D
:103A200005EB0902029B92B289B204E000941FFAEE
:103A300088F392B231463846FFF7D6FC069B5A0708
:103A400021D5039909EB0802ABB2A9B11FFA82FB99
:103A5000079A0094C3EB060A1FFA8AFA13449BB232
:103A60005A4651461898FFF7BFFC079B00940AEB93
:103A700003015A46029B02E0F11A009492B289B205
:103A80003846FFF7B1FC069B1B071FD5039B05EBD0
:103A9000090293B1059BAB4208D0C8EB0601009424
:103AA000049B189892B289B2FFF79EFC05EB0902BD
:103AB0000094029B099992B205E01FFA88F3F11A6B
:103AC000009492B289B23846FFF78EFC069BD80666
:103AD0001FD5039B1FFA85FBC8EB090293B1079B17
:103AE00000941FFA82FA5B449BB252463146189802
:103AF000FFF77AFC0A9B00940BEB03015246029BF2
:103B000089B203E000945B4692B231463846FFF733
:103B10006BFC069B99061ED5039BC5EB090293B16E
:103B2000059BAB4206D00094049B189892B2314694
:103B3000FFF75AFC049B00949919C5EB0902029BFC
:103B400092B289B204E000941FFA88F392B231462F
:103B50003846FFF749FC069B5A0621D50399ABB2BC
:103B6000C8EB0902A9B11FFA82FB079A0094C3EBC4
:103B7000060A1FFA8AFA13449BB25A46514618980D
:103B8000FFF732FC079B00940AEB03015A46029BA5
:103B900002E0F11A009492B289B23846FFF724FC91
:103BA000069B1B061FD5039BC5EB090293B1059B22
:103BB000AB4208D0C8EB06010094049B189892B25F
:103BC00089B2FFF711FCC5EB09020094029B099929
:103BD00092B205E01FFA88F3F11A009492B289B20A
:103BE0003846FFF701FC089B0595002B08F10108FA
:103BF000C3BF089A05F1FF35C5EB080303EB480383
:103C0000C8BF02EB430301330893099B013B9BB2FE
:103C10000993049B01339BB20493C8E60DB0BDE841
:103C2000F08F00002DE9F04F077889B00446154663
:103C3000079327F08007894600294AD0002A4BD0F5
:103C4000052F00F0D681068B06F44043B3F5804F74
:103C500011D0B3F5004F1BD1B0F80680079B00933D
:103C60003046D3B20A464146FFF7D8FDC0F34F00B5
:103C7000C0EB580A0EE0B0F806A0079B0093304650
:103C8000D3B20A465146FFF7C9FDC0EB0A0A01E06C
:103C90004FF0000A06F44053B3F5805F0ED0B3F541
:103CA000005F1CD1C6F30B06A54BB4F8088053F88F
:103CB00026305B785B08C3EB580812E0C6F30B06AE
:103CC0009F4BB4F8088053F826305B78C3EB0808A4
:103CD00007E088468A4604E09046924601E04FF0AD
:103CE0000008013F052F00F2EC81DFE817F0190012
:103CF0000600190073018201D401237B012B07D137
:103D00002089E388A288618800906069FFF76CFBD6
:103D1000B9F1000F40F03581A37A002B00F0D1817A
:103D2000E388E67A20895A08964202D8B6EB500F0B
:103D300003D94608964228BF1646227B6188B7B24F
:103D40004FEA470B012ACBEB03033944A2880090CA
:103D50009BB289B25AD06069FFF746FB2389A288DB
:103D60006188CBEB03039BB200933A443B4692B28B
:103D70006069FFF739FBE3886188A28819442389C9
:103D8000CBEB03039BB2013900933A44C91B3B467A
:103D900092B289B26069FFF727FBE3886188A07A55
:103DA000A2880090CBEB030339449BB289B220690F
:103DB000FFF71AFBA1882289E388A07A0A44618868
:103DC0000090CBEB0303013A39449BB292B289B223
:103DD0002069FFF709FB2089A288A37A6188CBEBD1
:103DE000000080B200903A4492B22069FFF7FCFADA
:103DF0006088E188A288A37A01442089CBEB000B7C
:103E00001FFA8BF03A44013900901CE02069FFF75B
:103E1000EBFA2389A2886188CBEB03039BB2009362
:103E20003A443B4692B22069FFF7DEFAE3886188A4
:103E3000A28819442389CBEB030B1FFA8BF3009361
:103E40003A44C91B3B4692B289B22069FFF7CCFACB
:103E5000012E4AD9237B012B04D0A77ABE4201D977
:103E6000F71B00E000276369A28861880293C023E2
:103E7000009301973346324431442069FFF76CFDCB
:103E8000E3886188A07AA288194463690293302389
:103E900000930197891B091A334632442069FFF7C2
:103EA0005BFD2389A28861881A44636902930C230D
:103EB00000930197013A3346921B31442069FFF782
:103EC0004BFD2389A2886188A07A1A44E3881944AB
:103ED0006369029303230093013A891B0197091A2E
:103EE0003346921B2069FFF737FDB9F1000F00F050
:103EF0008080002D7DD0237B22696169B4F804E0C5
:103F0000E688A77A208B012B1EBF13460A46194666
:103F10006388B8F1020F2CBFC6440EF1020EBAF14D
:103F2000020F2CBF53440233CAEB060A1FFA83FB6D
:103F30001FFA8EFE1FFA8AFA27B17E00043602E0CD
:103F400064F001080626B4F808C0C6EB0A06C8EB00
:103F50000C08B6B21FFA88F817B17F00043700E0EA
:103F60000627C7EB0807079B0593BFB20495CDF85A
:103F70000C9002970196CDF800E05B46FFF776FCC7
:103F800037E0002D3FF4C8AE079994F80AE0638843
:103F9000208B05910495CDF80C9021894FEA4E07AE
:103FA0001FFA88F2C91B891A89B20291E1881FFAA7
:103FB0008AF6CF1B73443344BE1BB6B20196A18868
:103FC00071440A4492B200929BB262692169FFF780
:103FD0004DFCA1E601232373E37A002B7FF4A0AE0E
:103FE0002089E388A288618800902069FFF7FCF9A6
:103FF00067E0A37E002B64D02278052A07D1079AB8
:104000002AB1314A126812B13049096811B9304AEF
:104010001168304A994254D91BB26DB103EB830148
:1040200002EB8101886804218140A94249D1AD0891
:1040300002D0B9F1000F0AD103EB830102EB810139
:1040400001208D68D1F80C9000FA05F5ADB203EBB4
:1040500083039B00D6182089D258A1887368B7685B
:10406000B4F806E001EB5001608803FB02F47C43E6
:1040700000EB5E00049434690394A1EB5301A0EBC0
:10408000520002978DE820029BB292B289B280B2B0
:10409000FFF746F915E0257BE37A6188A28820695D
:1040A000012D19441A4404D0A57AAB4201D95D1BF5
:1040B00000E0002564690294FF2401950094FFF755
:1040C0004BFC09B0BDE8F08F88040020900400206C
:1040D000E04402086C1E020810B588B004461C2299
:1040E000002101A807F020FC03238DF804300B4BBE
:1040F00005941C604FF4A073ADF80A304FF4F073D0
:10410000ADF80C3001238DF8103000231A46194603
:1041100001A8FFF787FD08B010BD00BF8C04002088
:1041200000231A461946FFF77DBD30B58BB002ACAF
:104130008DF804008DF805108DF806200021072267
:1041400020461D4603F058F81822002104A803F069
:1041500053F83F23ADF810308A23ADF8123001AB8D
:104160000693032307930021072304A808940993C7
:1041700000F0BCFB002814DB9DF8080090B9029AFF
:104180009DF80B30C2F30F222A809DF80C2043EAE1
:1041900002230E9A1380039B0F9AC3F30F231380FD
:1041A00000E0FF200BB030BDF0B595B01F469DF884
:1041B0006C409DF87460ADF80610A3191A2BADF889
:1041C000042056DC8DF8280002220DF106010DF1C5
:1041D000290003F00FF8022201A90DF12B0003F0D2
:1041E00009F89DF868301C998DF82E3022460CA8ED
:1041F0008DF82F408DF82D7002F0FCFF04F10803BC
:1042000014AA52FA83F30AAD03F8286C04F10903E7
:10421000DCB228193444E4B232461E9902F0EAFFB7
:1042200002221FA9281902F0E5FFA01C022220A9E2
:1042300055FA80F002F0DEFF1822002104A802F0F7
:10424000DBFF3F23ADF810308323ADF81230043488
:104250000DF10F030893E4B20123002104A8069591
:104260000794099300F042FB002804DB9DF80F003F
:1042700002E0422000E0FF2015B0F0BD30B58FB065
:1042800015468DF81C008DF81D10102229460DF1E1
:104290001E001C4602F0AEFF9DF848308DF82F300E
:1042A0009DF84C308DF83030149BCDF83130182209
:1042B0009DF854308DF83530002101A88DF82E403E
:1042C00002F09AFF3F23ADF804308623ADF80630A4
:1042D00007AB03931A2304930DF103030593002105
:1042E000012301A8069300F001FB0028ACBF9DF854
:1042F0000300FF200FB030BD00B589B018228DF843
:104300000400002102A802F077FF3F23ADF8083037
:104310008F23ADF80A3001AB04930DF1070201239E
:10432000002102A805930692079300F0DFFA002807
:10433000ACBF9DF80700FF2009B05DF804FB00B595
:1043400089B01822002102A802F056FF3F23ADF8E1
:10435000083040F20113ADF80A300DF1070306935F
:104360000021012302A8079300F0C0FA0028ACBF87
:104370009DF80700FF2009B05DF804FBF0B58DB093
:1043800001280CAD0CBF0224102405F82C0D174693
:104390000DF1050022461E4602F02CFF0CAB234413
:1043A000002103F82B7C0CAB1A19684602F82A6C22
:1043B000032202F021FF182200210DEB020002F07F
:1043C0001BFF3F23ADF818304FF48173ADF81A305E
:1043D00003340323002106A808950994CDF828D0BA
:1043E0000B9300F083FA002808DB9DF8000030B939
:1043F000009B129AC3F30F23138000E0FF200DB03F
:10440000F0BDF0B591B00C4610A909AE21F83A0DF7
:104410001746304602221D4602F0ECFE012C8DF8B4
:1044200026400CBF02241024224639460DF12700F5
:1044300002F0E0FE10AB1A19134602F8195C9DF861
:10444000582003F8182C10AB23449DF85C2003F887
:10445000172C10AB23449DF8602003F8162C10ABEA
:1044600023449DF8642003F8152C10AB23449DF8D9
:10447000682003F8142C02AD03220021284602F024
:10448000BBFE1822002103A802F0B6FE3F23ADF8C0
:104490000C304FF48273ADF80E3009340323002141
:1044A00003A8059606940795089300F01FFA0028C4
:1044B00008DB9DF8080030B9029B1B9AC3F30F2359
:1044C000138000E0FF2011B0F0BD70B5AAB07A2BC8
:1044D00016461C46ADF80600ADF8041034DC0AADF3
:1044E00002220DF10601284602F084FE022201A9F3
:1044F0000DF12A0002F07EFE22462E998DF82D4005
:104500000DF12E008DF82C6002F074FE18220021AF
:1045100004A802F071FE3F23ADF810304FF483730E
:10452000ADF8123006340DF10F030893E4B2012305
:10453000002104A806950794099300F0D7F90028F4
:1045400004DB9DF80F0002E0422000E0FF202AB0CB
:1045500070BDF0B5ABB017469DF8C040ADF8060091
:10456000792C1E46ADF8041036DC0AAD02220DF19E
:104570000601284602F03EFE022201A90DF12A00A2
:1045800002F038FE224631998DF82E400DF12F00B1
:104590008DF82C708DF82D6002F02CFE1822002171
:1045A00004A802F029FE3F23ADF810304FF49373B6
:1045B000ADF8123007340DF10F030893E4B2012374
:1045C000002104A806950794099300F08FF90028AC
:1045D00004DB9DF80F0002E0422000E0FF202BB03A
:1045E000F0BD10B50C467E2CA8B0114626DC224644
:1045F0008DF820000DF122008DF8214002F0FAFD27
:104600001822002102A802F0F7FD3F23ADF8083080
:104610000C23ADF80A3008AB049302340DF1070304
:104620000693E4B20123002102A80594079300F049
:104630005DF9002804DB9DF8070002E0422000E05D
:10464000FF2028B010BD00B589B018228DF80400F5
:104650008DF8051002A8002102F0CEFD3F23ADF831
:1046600008300F23ADF80A3001AB04930223059301
:104670000DF1030306930021012302A8079300F024
:1046800035F90028ACBF9DF80300FF2009B05DF8A4
:1046900004FB0000F7B515460D4A1C4606460A23E2
:1046A0000F4668461168B1FBF3F100F019F8E4B267
:1046B000EDB223462A463946304602F061FE20B16B
:1046C000684600F014F80028F3D003B0F0BD00BF36
:1046D000504C0208014B1868704700BF18170020A3
:1046E00010B541600446FFF7F5FF206010BD10B51E
:1046F0000446FFF7EFFF2368C3F10103034460683A
:10470000834294BF0020012010BD000013B5044671
:10471000204601F03AFB40B901A9204601F04EFBCA
:104720000199034801F03DFBF2E702B010BD00BF64
:104730005C07002038B50A480A4D01F023FB0A48FF
:1047400001F020FB0024291905488C3401F029FBD5
:10475000B4F52F7FF7D1054B00221A7038BD00BF8A
:1047600054070020980400205C07002094040020D7
:10477000037A042B08D1837A90F8880003388342A7
:1047800014BF0220002070470120704710B5A2B06E
:1047900000230193194B1B7873BB02F0EEFD184800
:1047A00001F0F3FA80B901A9154801F007FB02F006
:1047B000E1FD0198083000F03DFF02F0DEFD0199B7
:1047C000104801F0EEFAEAE70F4B1A781C468AB15E
:1047D00040210E4803F010FE012809D1802102A8D3
:1047E00002F040FD0028F3D002A800F023FFEFE71D
:1047F0000023237002F0BEFD22B010BD94040020FF
:104800005C070020540700206407002000040048D3
:10481000014801F0BABA00BF5C07002013B50023BD
:104820001748019301F0B1FAC8B901A9144801F081
:10483000C5FA01988021083002F014FD0199044660
:1048400048B181F888000846FFF792FF18B90D4873
:1048500001F0A7FA09E00A4801F09CFA05E00A4BCA
:1048600001221A7002F000FE07E0084A536843F084
:104870008053536002F0F8FD204602B010BD00BF27
:10488000540700205C0700206407002000ED00E0D2
:1048900008B502F0E9FD4021044803F0ADFD012810
:1048A00002D1FFF7BBFFF6E708BD00BF00040048D8
:1048B00037B5C1F3090141EA802014461D46ADF821
:1048C00000008DF802200123694603220DF1050046
:1048D0008DF8043002F08EFC0422234629460DEBAD
:1048E0000200FFF7D7FE03B030BD00002DE9F04114
:1048F00086B004460023478805884D4E009304A8DF
:10490000884601F03FFA01233370227BA368618857
:104910002088FFF7CDFFB8F1000F7AD1454B0A216F
:104920001B68B3FBF1F1C7F30907002947EA8525A6
:1049300008BF012102A8ADB2FFF7D2FE02A8FFF71F
:10494000D6FE00285BD1FFF763FF0028F6D102F006
:1049500014FD6946384801F031FA00990B7A042BAE
:1049600001D004A846E04B7A91F888200F2B08D09C
:1049700002D80E2B17D030E0102B40D03E2B1DD08C
:104980002BE0B1F80D30AB4239D163680F2B02D068
:10499000CB7A13B333E06369033A9A42A8BF1A464D
:1049A00062610B3115E08B89AB4228D16369063A0D
:1049B0009A42A8BF1A4662610E310AE0C87A63685B
:1049C00098420AD16369043A9A42A8BF1A466261C2
:1049D0000C31206902F00EFC1BE004A801F0E1F9A3
:1049E000164801F0D2F938B101A9134801F0E6F9EF
:1049F0000199124801F0D5F902F0BCFC9EE704A829
:104A0000FFF784FE0023337002F0B4FC4FF0FF3058
:104A10000BE00099094801F0BDF9002404A8FFF754
:104A200075FE347002F0A6FC204606B0BDE8F081A9
:104A300094040020504C02085C070020540700201A
:104A400070B590B008AC05460E46202200212046E5
:104A500002F0D2FB1F2D2A46314628BF1F220DF13E
:104A600021008DF8205002F0C5FB1822002102A879
:104A700002F0C2FB0823ADF808300923ADF80A3074
:104A8000202305930DF1070306930021012302A8BB
:104A900004940793FFF72AFF0028ACBF9DF8070096
:104AA000FF2010B070BD000010B502F066FC054894
:104AB00001F06BF9044602F05DFCB4FA84F04009A1
:104AC00010BD00BF5C07002030B5274B87B001AA9E
:104AD00003F1100518685968144603C40833AB4243
:104AE0002246F7D11B782370204B1A68043306A99D
:104AF0001B6853401E4A1268534001EB13711D4A54
:104B000011F8141C117206A8C3F303610144009349
:104B100011F8141C5172C3F30351014411F8141C11
:104B20009172C3F30341014411F8141CD172C3F311
:104B30000331014411F8141C1173C3F30321014420
:104B400011F8141C5173C3F3031103F00F03034452
:104B5000014413F8143C11F8141CD3730098064B4D
:104B60009173186007B030BDADBB01089075FF1F91
:104B70009875FF1F0000002012000020084B1A68E3
:104B8000043382B01B685A40064B1B685A4002AB84
:104B900043F8042D1868044B186002B0704700BF3A
:104BA0009075FF1F9875FF1F120000202DE9F0413E
:104BB000294B8AB0044638B993F83C22012A06D022
:104BC00006468046254C06E00026B04603E0244E0B
:104BD000244C4FF0030800210846C3F83842FFF781
:104BE0002FFFC5B21C4F002D32D1B888F9881E4B5B
:104BF00000932A46062389B280B2FFF766FC0AAB0F
:104C00004FF4107223F8022DB888398900932A4690
:104C100089B2022380B2FFF758FCFF20FFF76CFB3C
:104C2000204697F83C3206F04BFF3E23C0B2069375
:104C30000723059301900496CDF80C80029400950B
:104C40002B4640F253724FF49C712846FFF7ACFAA2
:104C50000AB0BDE8F08100BF04130020000000206E
:104C6000D34902081800002021480208F0B587B097
:104C7000174C00940723012216490220FFF77EFB00
:104C800010BB34F80A79144A029004F10C03102581
:104C900001260593019004960395009514230221A3
:104CA000B8B2FFF7AEFB78B967890C4A01900823C8
:104CB0000E34022100930594049603950291142367
:104CC000B8B2FFF79EFB00B1472007B0F0BD00BFB0
:104CD0000E130020A0490208EA490208C34902084D
:104CE0002DE9F0416048614C86B0FEF711FC0122CD
:104CF00000940A235E491046FFF740FB0646002851
:104D000040F0AB80A4F242245A48FEF701FCB4F80C
:104D10004202029604F5117301250196102702261E
:104D200005930495039700961423534A294680B2AD
:104D3000FFF767FB8046002840F08F804F48FEF762
:104D4000E7FBB4F84202B4F844124D4B00934246DC
:104D5000062389B280B2FFF7B8FB804600287CD1D9
:104D60004848FEF7D5FBB4F84202474ACDF8088020
:104D700004F2462305938DE840010495039714231C
:104D8000294680B2FFF73DFB8046002865D13F48A9
:104D9000FEF7BEFBB4F84202B4F846123C4B009357
:104DA0004246062389B280B2FFF78FFB8046002877
:104DB00053D13848FEF7ACFBB4F84202364ACDF87E
:104DC000088004F5127305938DE84001049503975C
:104DD0001423294680B2FFF714FB804600283CD1FB
:104DE0002E48FEF795FBB4F84202B4F848122C4B5B
:104DF00000934246032389B280B2FFF766FB8046E8
:104E000058BB2848FEF784FBB4F84202264A0495B2
:104E100004F24A23059329460397CDF808808DE8CC
:104E20004001142380B2FFF7ECFA0546A8B91F48E9
:104E3000FEF76EFBB4F84202B4F84A121C4B009322
:104E40002A46032389B280B2FFF73FFB044620B90C
:104E50001848FEF75DFB204603E01748FEF758FBB5
:104E6000472006B0BDE8F08128480208461500201A
:104E7000E64902083148020805480208404802088D
:104E80000D480208594802081F48020870480208E5
:104E90001748020884480208154802089648020884
:104EA000C0490208AB4802089E490208BE480208F1
:104EB0000A480208D3480208E64802082DE9F043F0
:104EC0004848494C87B0FEF723FB012200940A238F
:104ED00046491046FFF752FA054600287BD1444860
:104EE000FEF716FB34F80A09424A029504F10C0356
:104EF000102701264FF006080593049603978DE8C6
:104F000080011423022180B2FFF77BFA002862D1CE
:104F10003948FEF7FDFA6089049604F10E03059303
:104F20000822302302258DE82C0003971423334AEE
:104F3000294680B2FFF765FA814600284BD13048F8
:104F4000FEF7E6FA60892F4A049604F23E230593A1
:104F50008DE8200303971423294680B2FFF751FA06
:104F60008146002837D12848FEF7D2FA6089B4F884
:104F70003E12264B00934A462B4689B280B2FFF779
:104F8000A4FA814638BB2248FEF7C2FA6089214A5A
:104F9000049604F5107305938DE8200303971423FA
:104FA000314680B2FFF72DFA0546A0B91A48FEF740
:104FB000AFFA6089B4F84012184B00932A460323D5
:104FC00089B280B2FFF781FA044620B91448FEF78F
:104FD0009FFA204603E01348FEF79AFA472007B0ED
:104FE000BDE8F083074902080E130020E8490208D3
:104FF00031480208D649020810490208B04902089F
:105000001E490208F54702082B4902081348020806
:105010003F4902081D480208514902080748020892
:10502000684902087D4902082DE9F04F924E93B07D
:10503000336804910546174613B1002840F07D817E
:10504000012F02D1FFF79AFD01E0FFF73DFD8B4CE8
:1050500089484FF41472002106F066FCE36C43F0BB
:105060000803E364E36C03F008030693069BE36C18
:1050700043F00203E364E36C03F002030793079B2E
:10508000E36C43F00203E364E36C03F00203089370
:10509000089BE36C43F00203E364E36C03F0020358
:1050A0000993099BE36C43F00203E364E36C03F0B0
:1050B00002030A930A9BE36C43F00203E364E36C8C
:1050C00003F002030B930B9B3560002D00F0E6808C
:1050D000FFF730FB236EDFF8C08143F48053236673
:1050E000236E03F480530C930025012440460C9B4F
:1050F0000E9404230DA90D930F951095119503F0AF
:105100009DF8D8F814305E4823F00403C8F8143032
:105110004FF0020A4FF0030808234FF005090DA9CC
:105120000D93CDF838A00F94CDF84080CDF8449081
:105130004FF0100B03F082F80DA95148CDF834B0B0
:10514000CDF838A00F95CDF84080CDF8449003F00D
:1051500075F820230DA94A480D93CDF838A00F9477
:10516000CDF84080CDF8449003F068F880230DA975
:1051700043480D9305930E940F94CDF840801195FC
:1051800003F05CF8059B3E482246194603F03AF9C5
:1051900040230DA93A480D933A4B0E93CDF83CA00D
:1051A000CDF84080119503F049F8374B4FF40002D9
:1051B000C3F88021302283F8172302F021F802F08F
:1051C0003DF8172003F020F8484602F05BF92F4A1B
:1051D00006212846FFF705FA002840F0AE80FFF7C9
:1051E000AEF80146002840F0A880294B01939A1E92
:1051F0000092043B07222046FEF797FF0246002854
:1052000040F09B80A7420ED1224B029301900146B1
:105210000397CDF800B007233846FFF72FF8002892
:1052200040F08B800FE040F23953029303900190DD
:10523000CDF800B007230146FFF720F800287CD105
:10524000FFF714FD05E0FFF739FE044610B9FFF73C
:1052500047FD044686F83C72002C6ED107210120E0
:10526000FFF7F1F9002868D1034B049883F8254033
:10527000FFF79CFC61E000BF041300200010024017
:10528000000400480000111000E100E012000020BE
:105290000C13002040E20100000C0048172002F02F
:1052A000BFFF236E23F480532366254C10950423FF
:1052B00020460D930DA901230E930F95119502F031
:1052C000BDFF63691F4823F0040363610DA908242F
:1052D0000D9402F0B3FF2A4621461A4803F092F8D3
:1052E00020260DA917480D9602F0A8FF2A46314640
:1052F000144803F087F880230DA912480D9302F09B
:105300009DFF2A4621460F4803F07CF840240DA952
:105310000C480D9402F092FF2A462146094803F0FA
:1053200071F810240DA907480E950D9402F086FF20
:105330002A462146034803F065F813B0BDE8F08F14
:10534000000C004800040048F7B5084F04460E461C
:105350001546788900962B460022214680B2FFF739
:10536000B4F80028F5D103B0F0BD00BF041300204D
:1053700007B5084B188E598E93F8342035338DE8D5
:105380000C0000231A4689B280B2FFF7E2F803B09E
:105390005DF804FB04130020034B012283F8252051
:1053A000002283F8242070470413002030B5564CA7
:1053B000637F85B00246002B40F0A4800B78052B5C
:1053C00000F28680DFE803F059716B848403207F4C
:1053D0004D4B002840F09680988A4D78C0F3072006
:1053E000854204D1988A8D78C0B2854201D00023CD
:1053F00060E0988A80B292B2F0B9CD78087900EB7B
:10540000052080B2588241489861588A80B2D88479
:105410003F48008880B2B0F5827F01D9012349E07E
:10542000053A95B25A8A92B2954288BF5D8A01F1D7
:10543000050188BFADB20AE0033A95B25A8A92B22A
:10544000954288BF5D8A01F1030188BFADB22A464B
:10545000A06906F005FAA3692B44A361638A5D1B6A
:10546000ADB26582A38A01339BB2A382638A9BB2E9
:10547000002B47D1FFF790FF44E04B780BB98B78B6
:105480000BB1032316E0029301938DF80C30042333
:105490008DF80830A08909220DEB03012FE04B782D
:1054A0000BB98B7893B1042304E04B780BB98B785C
:1054B00013B105230B700BE01448A3826382A06133
:1054C00013482377637784F825300380A08916E09A
:1054D00000230E4AA3826382A2610D4A23770193BF
:1054E00063778DF8083084F8253013800E238DF80B
:1054F0000430A0890B788DF80530052201A980B20F
:10550000FFF722FF05B030BD04130020780900200A
:1055100094160020F0B53A4C227F054687B002F081
:10552000FF030120002A68D1364A20772746A5616B
:1055300005266182A3821380608A314B80B20028E5
:1055400059D0BB8A8DF80460C3F307238DF805306A
:10555000BB8A8DF80630BB8A9BB2F3B97B8A9BB2BB
:105560000F2B98BF7D8A638A94BFADB20F25C3F31A
:1055700007238DF807302A46638AA1698DF8083021
:105580000DF1090006F06CF9A3692B44A361638A4D
:105590005B1B9BB26382053515E07B8A9BB2112BA6
:1055A00098BF7D8AA16994BFADB211252A460DF13D
:1055B000070006F055F9A3692B44A361638A5B1BBE
:1055C0009BB263820335A38A01339BB2A38201237A
:1055D0006377237FAAB203F0FF011BB9084B0220B7
:1055E00059770AE0B889D2B201A980B2FFF7ACFEC0
:1055F00000237B77A0E79882187707B0F0BD00BF43
:105600000413002094160020044B00221A74044A4C
:10561000136843F480731360704700BF04130020C5
:1056200070090020024A136843F400731360704746
:105630007009002037B50378042B04466DD14378F8
:105640003E2B08D0FF2B11D0052B66D103B0BDE84F
:105650003040FFF7E7BFC378012B5ED1B0F80510EB
:10566000093003B0BDE83040FFF7CEBFB0F80330DB
:1056700040F60142934204D040F6134293421AD0BE
:105680004BE0274AB0F8070093899BB20233984257
:1056900043D1217B012940D1637B002B3DD1108573
:1056A0002048036843F0400303601F4B1B78002B26
:1056B00033D0117431E0B0F807201948C3899BB288
:1056C00001339A4229D1184B1B789BB1037C23B339
:1056D00004F10A052946607AFFF768FE637A0093B1
:1056E0000023B4F80710B4F8050001951A46FEF738
:1056F00030FF12E0B4F8053003864286637A80F802
:10570000343090F8342004F10A01353006F0A8F85E
:10571000044A136843F00403136003B030BD00BFB4
:10572000041300207009002000130020064B1A68A3
:10573000136823F001031360136823F0050343F09B
:1057400001031360704700BF980A0020084B1B68D4
:105750009A8C82B0D2B28DF807201A6822F001022A
:105760001A601A6842F005021A6002B0704700BF62
:10577000980A00200D4B0E491A68136810B523F0E3
:10578000010304091360138A31F8141000F00F00AC
:10579000013841FA00F0DBB240005B004343D360C4
:1057A000136843F00103136010BD00BF980A002086
:1057B000FA490208084B1B681A6822F001021A60B5
:1057C0001A8AD2B2490052004A43DA601A6842F09B
:1057D00001021A60704700BF980A0020184BF7B505
:1057E0002022C3F88421174B17481B68174C184F09
:1057F0006FF02001196217490E684FF49675D96948
:1058000089061BD51A62A6B90168B1F5967F10D238
:10581000D4F800E0998CC9B207F80E102168013164
:10582000B1FBF5FE05FB1E1121600168013101602D
:10583000E5E7998CC9B28DF80710E0E703B0F0BD39
:1058400000E100E0980A0020CC0800206807002052
:105850009C070020D8080020014B186880B27047D0
:10586000CC080020F0B5124E124CDFF84CC00144B9
:1058700037464FF4967E884219D0336823B9531CBB
:10588000FBD0013AF9D1F0BD8AB172B63B68013B59
:105890003B6062B623681CF8033000F8013B2368C4
:1058A0000133B3FBFEF50EFB15332360E3E7F0BDD8
:1058B000CC080020980700209C07002038B505463A
:1058C0004FF0FF320321FFF7CDFF6C78AB7843EA4E
:1058D0000424E81C4FF0FF322146FFF7C3FFE01C11
:1058E00080B238BD10B5B9B1FFF720FF0B4B1B6874
:1058F0004FF6FF72013989B2914206D0DC69240665
:10590000FCD510F8014B1C85F4E7DA695206FCD58A
:10591000BDE81040FFF71ABF10BD00BF980A002075
:10592000FFF7E0BF2DE9F04F914D924CDFF84C822C
:10593000914E002785B0282239464FF00209824651
:10594000284688F80070A4F8009005F0EDFF1120BB
:10595000FFF710FF736923F480537361642001F033
:1059600091FD736943F4805373614FF4803249466B
:105970002846FFF777FF2B786E78A4F8009003F0A5
:10598000FB033B2B40F0D3808DF80C708DF80D702D
:10599000B946FBB2019316F0F00B4BD0F10615D5CA
:1059A00020884FF0FF3201212844FFF75BFF019B65
:1059B000012B08D86F4B6E4A1B880199D25C04AB4F
:1059C0000B4403F8042C238801332380B20609D545
:1059D00020884FF0FF3201212844FFF743FF23883E
:1059E00001332380730609D520884FF0FF3201214F
:1059F0002844FFF737FF23880133238073B2002642
:105A0000B342C8DA20884FF0FF3201212844FFF763
:105A100029FF2388EE5C01332380B9F1000F05D103
:105A200016F00F0918BF4FF0010901E04FF001090E
:105A30000137AEE769784E4E012211F00F0188F868
:105A400000200BD020884FF0FF323044FFF70AFFD0
:105A5000727802F00F0122880A442280022288F81C
:105A60000020B9F1000F06D1032288F800209DF82C
:105A70000D2092B917E020884FF0FF320121284411
:105A8000FFF7F0FE2288013292B222800021C8B2D4
:105A9000824201F10101FAD8E6E7802A5ED0374A56
:105AA0000421117060E09DF80C30112B00D013B967
:105AB000BAF1000F56D03248324C304D4FEA1A122C
:105AC0000AF00F0130F81220013942FA01F11A09E7
:105AD00003F00F0330F812202B48013B42FA03F386
:105AE00099424FF0FF03C8BF8DF80CA0037010233C
:105AF00043709DF80C308370042183F0EF03C37072
:105B0000FFF7F0FE05234FF0FF320221204688F810
:105B10000030FFF7A7FE2378FF2B08D111238DF863
:105B20000C30637833B1102B0DD006232B704FF05F
:105B3000000B19E007234FF0FF320121A01C2B704E
:105B4000FFF790FE0AE0022108234FF0FF326018B1
:105B50002B70FFF787FEA3788DF80C309DF80C00B2
:105B6000FFF708FE4FF0010B584605B0BDE8F08F77
:105B70006C070020D408002000080048940700208B
:105B8000FA490208C8080020D00800202DE9F04199
:105B90004D4C86B0002875D00323002502264FF413
:105BA0008077049301A907234FF09040DFF83481F8
:105BB000059301970296039502F040FB4FF40073A2
:105BC00001A94FF0904001930296039502F036FB35
:105BD0004FF48053019301A9012340460293039699
:105BE000049502F02BFBD8F8143023F48053C8F846
:105BF0001430236E43F480432366236E334C03F446
:105C000080432946009348222046009B05F08CFEE5
:105C10002F4B23604FF44053E3604FF480632361C4
:105C200020460C236361276204F0E0F823681A68B9
:105C300022F001021A601A6842F480521A605A680F
:105C400042F400625A609A6842F4401242F40262DE
:105C50009A601E821A6842F020021A60252002F023
:105C6000D3FA1C4B22681D601B4B1D601B4B1D6033
:105C70001B4B1D60136843F0010313609720FFF76F
:105C800051FE1DE0174D252002F0CAFA6B6923F47E
:105C900080536B61236E23F4804323664FF440737B
:105CA000019301A903234FF09040029302F0C6FA3A
:105CB0004FF48053284601A9019302F0BFFA012056
:105CC00006B0BDE8F08100BF00100240980A002035
:105CD00000380140D80800209807002068070020FD
:105CE000CC0800200008004804292DE9F7430646A7
:105CF0000F4600D8FEE7214CDFF8849090F8018031
:105D000005210025FFF7EEFD25804FF0FF32012130
:105D10000DF10700FFF7A6FD65B1002DF5D0238832
:105D20009DF80710164A581C80B22080D15403B049
:105D3000BDE8F0839DF8073003F0F002602A01D03F
:105D4000902A08D1602BE0D02288511C218009F8CC
:105D500002300125D9E798450ED1052F317903D0BE
:105D6000701DFFF7BFFDD0E789B24FF0FF32044846
:105D70002180FFF777FDC8E7FEE700BF94160020FB
:105D80007809002000604060704703681B1A584281
:105D90005841704703680B60486001600B685960A8
:105DA000704743684B60086041604B6819607047FA
:105DB00090E80C001A6002685360704708B50368E9
:105DC0000B600068FFF7F4FF0A68002313600A689D
:105DD000536008BDBFF34F8F0449054BCA6802F4F6
:105DE000E0621343CB60BFF34F8FFEE700ED00E0AE
:105DF0000400FA0570470000024B14201860FDF7FC
:105E00004FBA00BF7C0A002070B418B3144C154977
:105E1000226847F22F539A422546134B134A09D85A
:105E20001E6844F61F60864204D800200860206087
:105E300018600AE01C680C4844F61F639C424FF04F
:105E400000030B602B60036002D81368462B04D05C
:105E50004620106070BCFDF723BA70BC704700BFCD
:105E6000AC16002098160020A41600207C0A002002
:105E700030B5002287B04FF400414FF0904002F05F
:105E8000C1FA012300244FF40045029301A9032322
:105E90004FF0904004930195039402F0CFF922460D
:105EA00029464FF0904002F0ADFA22464FF40071BF
:105EB000024802F0A7FA07B030BD00BF0008004852
:105EC00008B572B6FFF7D4FF00224FF48071024884
:105ED00002F098FAFFF77EFF0008004830B587B05F
:105EE000012304468025029301A900230948019556
:105EF00003930493059302F0A1F904F001022946EB
:105F0000044802F07FFA14B1034B19221A7007B04B
:105F100030BD00BF000800486C090020FEF736BC09
:105F2000014802F048BE00BF000B002008B5194B25
:105F30005A6951072DD5042159614FF0904002F064
:105F40005BFA154B78B1002201201A609A601A6141
:105F500058605A61114A136843F480231360BDE806
:105F60000840FFF751BF5A689AB19A681968D2067B
:105F700005D541F28732914204D9FFF7A1FF40F6DF
:105F8000C312F8E700225A60044A136843F48023DE
:105F9000136008BD00040140800A00207009002041
:105FA00008B5054B1B695B0601D5FEF771FC034B79
:105FB00040225A6108BD00BF0004004800040140AF
:105FC00030B5ABB000240123402505A95C480693F9
:105FD000019405950794089402F030F92246294669
:105FE000574802F00FFA574B4FF47A721B68B3FB15
:105FF000F2F30A22534340F6B832B3FBF2F30393B1
:10600000039C631E0393002CFAD12023059305A95A
:106010000B234B48069302F011F940F61C4321462E
:10602000682210A8029305F07FFC214604F1804409
:1060300004F5043418220AA805F076FCD4F8883058
:1060400043F04053C4F88830E36C43F40053E364F6
:10605000E36C03F400530493049B3B4B1093042321
:1060600015934FF480531E931C230125209310A8F1
:106070008023179518951A951B951F95219301F06C
:106080000DFA014600284DD110A802F048F800286A
:106090004BD10E230A930D9006230E900F900AA960
:1060A00010A80B950C9301F0A1FB002840D110A87B
:1060B00001F080FE00283ED142F2107110A801F0DC
:1060C00005FB10A801F0EAFD83050CD510A801F02E
:1060D00089FB0190019A029B5343AB404FF6F0724B
:1060E000B3FBF2F3019310A801F0FAFF10A801F03E
:1060F00011FFE36A124843F40053E362E36A23F4B6
:106100000053E362E36C23F40053E36460230593DC
:106110000323069305A900230793089302F08EF842
:1061200001980AE06FF0010007E06FF0020004E060
:106130006FF0030001E06FF004002BB030BD00BF32
:1061400000080048740900200000045070B58A4D12
:106150002B6808332B60894B187898B028B1013828
:10616000C0B2187008B9FFF7B9FE854B1B687BB148
:10617000844B1A6808321A60834A1968126891427F
:1061800006D382490A6842F400620A6000221A605B
:106190007F4C6368002B5CD02368083323606369FD
:1061A000083363616369632B06D9784A136843F443
:1061B0008023136000236361A268754B12F0100FF7
:1061C000196840F2DC5222D0914209D99A68D2076C
:1061D00006D49A686F4842F001029A60FDF798F978
:1061E00021686B4B40F6B832914209D99A689607FC
:1061F00006D49A68684842F002029A60FDF788F96E
:106200002168634B41F28832914222D918E09142D1
:106210000DD99A6850060AD4DA6860480132DA600B
:106220009A6842F040029A60D968FDF771F92168D6
:10623000574B40F6C41291420BD99A68D10608D444
:106240009A68520705D49A6842F004029A60FFF7F0
:106250000FFE534A116891B1524803680833036036
:10626000E06860B142F21070834208D9012906D17A
:106270000223136003214C4A4C48FDF749F94C4A6C
:106280002968136899424ED94A4B1B78002B4AD093
:106290006668002E47D1384B47491B68474D03F5C8
:1062A0001C53103308A8136005F0ACFBFFF788FE01
:1062B0000A234FF47A72B0FBF2F2B2FBF3F103FB64
:1062C000112230328DF82F202E228DF830206422BA
:1062D000B0FBF2F2B2FBF3F103FB11223032B0FB60
:1062E000F3F08DF83120B0FBF3F203FB12003030F5
:1062F00056238DF8320032498DF8333008A88DF8D6
:10630000346005F05FFB0FCD01AC0FC495E80700CA
:1063100084E8070008A805F0D3FB334682B208A939
:1063200001A8FDF77FFC274B1A6808321A601A682B
:10633000254B9A4201D9FFF7C3FD244B1A6844F656
:106340001F618A4207D81A6808321A601B688B429C
:1063500001D9FFF751FD1E4B1A6847F22F518A42AF
:1063600008D81A6808321A601B688B4202D90020CC
:10637000FCF796FF18B070BD181700206C090020BC
:10638000A816002090160020541500207009002047
:10639000800A0020634A0208764A0208824A0208FC
:1063A000D40E002058150020D00E00209A4A020872
:1063B000CC0E0020D80E0020C54A02081C4A020854
:1063C000D54A020898160020C0270900A41600200C
:1063D000AC160020704700002DE9F041114C074633
:1063E000884604F58076E569A5B1012D03D0022D1C
:1063F00006D1414600E039460B480B4D05F002FB43
:10640000284605F05DFB002382B229462046FDF7B1
:1064100009FC02E02046FDF783FE2034B442E2D1BD
:10642000BDE8F081444B0208E608002038B5104B67
:1064300000221A600F4B01221A6004460D46032207
:1064400001460D4805F00CFA0C4BDB68012B08D90E
:10645000FF2D224694BF29464FF480710848FDF76E
:1064600057F829462046BDE83840FFF759BA00BF23
:1064700058150020D40E0020D00E0020800A0020E5
:10648000E44A02082DE9F04FAF4A00231361B3B08C
:1064900053609360D36072B6AC4AAD49116062B686
:1064A000AC4AAD4F136040F2DB5398428CBF0223DD
:1064B00000230093A94BDFF8EC82FF1A3B0E0293F6
:1064C000C7F307430393C7F3072304934546002408
:1064D0000120A34EDFF8D092FCF73EFCFFF78AFCC8
:1064E000224621462046347089F80040FEF79CFD84
:1064F0000120FFF74BFB9B4B1B88052B00F0C8804E
:10650000994B0DAA03F110071546186859681446EF
:1065100003C40833BB422246F7D11B782370012401
:1065200000222946204689F80040FEF77DFD4FF401
:10653000FA7000F0A7FF8D498D48FFF74DFF00224C
:106540008C498D48347004F0C9FC8C498A488C4CC5
:1065500004F0DAFC8B49884805F07AF8864804F0A4
:10656000DAFC04F097FB2646DFF8408223689905A1
:106570000DD5236800221146104623F400732360D2
:10658000FEF752FD002229460120FEF74DFD33683B
:106590005A0306D52368012023F480232360FFF7E4
:1065A00033FCFCF7B5FB33689B0742BF236823F03D
:1065B0000203236033685F050CD5236823F48063EE
:1065C0002360D8F8002047F22F539A4202D80120C6
:1065D000FFF71AFC6C4F97F8253073B30120FFF7D3
:1065E00013FC72B6002387F8253062B600BF00BFE7
:1065F00066480278FE2A0FD14278FE2A0CD18278B2
:10660000FE2A09D1C278FE2A06D190220221027008
:106610004370FEF77FFF2EE0F98C5C4889B2FFF7EC
:1066200063FB01465948FEF775FFFEF73DFA20B1BE
:10663000574A536843F0805353600021084604F0E2
:1066400047FC002892D00120FFF7DEFB4F4B1A7861
:10665000FE2A12D15A78FE2A0FD19A78FE2A0CD13E
:10666000DA78FE2A09D190221A7002210022A02095
:106670005A7004F02DFCFFF7ADFB464B43481988D8
:1066800089B2FFF731FB0146202004F021FC6BE7C3
:10669000414E9DF800304FF001090421304686F844
:1066A0000090747086F80290F370FFF7BFFE3B4BCA
:1066B000C8F800905C60324CD8F80030022B05D04E
:1066C000032B00F03383012BF6D12FE3FFF7C4F83F
:1066D000ADF81E00BDF81E309BB2022B73D9DFF857
:1066E000B8904FF496714846FFF7E8F8ADF81E00F1
:1066F00099F8012099F80230012043EA0223099316
:10670000FFF782FB99F80030662B02D109F1030AEA
:1067100010E00D4BDB68002B55D0099B1E4A20482A
:106720000333FF2B96BF09994FF480710331FCF7B7
:10673000EFFE48E0099B5A1E0992CBB31AF8010BF1
:10674000FCF782FEF6E700BF800A002074090020F3
:10675000006CDC02D40E0020B0FF0308000000082B
:10676000D80E0020D4080020384A0208EC4A02085B
:10677000FE4A02083C4D0208DC1000205C4D020875
:1067800070090020AC4D0208041300207809002095
:1067900000ED00E094160020611500209C160020FA
:1067A0000E4B0208B016002000130020AC1600208B
:1067B0000D220321B34889F8002089F8013089F8B7
:1067C0000230FFF733FEFCF7A3FA2368DFF8DC9210
:1067D000002B3FF471AF432001F022FD00230C9306
:1067E0002368980208D5A84B1968A84B1868FEF7CB
:1067F000E1FF4FF4001349E02368236813F480118C
:1068000046D0DFF880B2DFF888A212238BF8003080
:10681000DAF80030C3F307238BF80130DAF80030E0
:106820000321DBB258468BF80230FFF7FFFDDAF8A0
:106830000430BBB9DAF80030043BCAF800309DF8E8
:1068400008308BF800309DF80C308BF801309DF843
:1068500010308BF802300421FBB258468BF803301D
:10686000FFF75EF8DAF80020894B32B15A688948A0
:106870001968104489B2FFF753F8DAF80020DAF803
:1068800004301344CAF804304FF480130C9334E2FC
:10689000236813F4800212D07A480B2303704FF060
:1068A000010A7D4B417080F802A0D3F84C320421DC
:1068B000DBB2C370FFF7BAFD4FF4800325E0236815
:1068C00013F480730FD06F4811234FF0010A042195
:1068D0000370427080F802A080F803A0FFF7A6FDC5
:1068E0004FF4807311E0216811F400710FD06548F6
:1068F00011224FF0010A04210270437080F802A0B7
:10690000C370FFF793FD4FF400730C9376E1236897
:1069100013F004033AD05B4BDFF87CA15F480322FD
:106920001A709AF834200332C2F307225A709AF888
:1069300034200332D2B29A7008915146089A1F2A25
:106940000DD8089A10F802E04A8E92B29645089A3D
:1069500002D1D2B2DA7002E001320892EEE79AF880
:106960003420484800221A719AF834200621D2B205
:106970005A71FFF75BFD9AF834104948FEF7D0FFD3
:1069800001232B60FEF7F4FC04235CE1226811076D
:106990001AD5424A40490893089B1F2B0DD8089BE3
:1069A000D05CCB8D9BB29842089B03D13D4ADBB2B1
:1069B000137002E001330893EEE703232B60314BA1
:1069C00004221A7008233EE123685A0601D54023A9
:1069D00039E123681B0601D5802334E1D9F8003062
:1069E00013F400530ED027484FF400530C930F2399
:1069F00003704FF0010A0023437080F802A080F872
:106A000003A0F8E0226812F400410DD01D484FF4B5
:106A100000420C924FF0010A0F22042102704370D1
:106A200080F802A0C170E7E0226812F480320CD036
:106A300014484FF480330C934FF0010A0F23037076
:106A40004170082380F802A0D4E0236813F02003EB
:106A50002ED00C4820230C93102303704FF0080B0A
:106A60000B234FF0010A062142708370C27080F838
:106A700004A080F805B0FFF7D9FC59460A48FEF794
:106A80004FFFBBE0611500205C150020C80E002000
:106A90009C1600200000000804130020E00A0020DB
:106AA0003913002060150020840E0020700900209A
:106AB000206810F0100A3BD0BE4A5168002900F04F
:106AC00086800120D2F804E0DFF8E8A200FA03FB98
:106AD0001BEA0E0FD9B227D010223270002272703A
:106AE0000322B2700222134441F080010AEB8303B7
:106AF000F17032715B68B048DBB206217371FFF749
:106B000095FC0123C8F8003072B6DAF8043023EAA5
:106B10000B03CAF80430DAF80430002B40F001818E
:106B2000236823F010034BE00133072BCAD14EE05A
:106B3000236813F400324DD09E4B9A68002A46D049
:106B40001A460120D2F808E0DFF868B200FA0AF32A
:106B500013EA0E0F5FFA8AF134D00AF10A0296485E
:106B60005BF8222005935FFA82F91022027009F186
:106B70000302C2F3072ED2B280F801E08270C17026
:106B800004220621027180F80590FFF74FFC0BEB01
:106B90008A1049464430FEF7C3FE0122C8F800209F
:106BA00072B6DBF80820059B22EA0303CBF8083015
:106BB000DBF80830002B40F0B480236823F4003366
:106BC0002360AEE00AF1010ABAF1070FBAD14FF41F
:106BD000003338E0236813F4804312D076484FF432
:106BE00080430C934FF0010A0F230370427002237D
:106BF00080F802A0C3700421FFF718FCC5F800A0BC
:106C000087E02268500320D56C4A116847F22F5262
:106C1000914203D90120FFF7F7F812E066480522F8
:106C200002704FF0010A4370654B80F802A05B6868
:106C300003FA0AF3DBB20421C370FFF7F7FBC5F8D0
:106C400000A04FF480230C9363E02368590517D507
:106C50004FF480630C93594B1A6847F22F539A42B2
:106C60004ED8584A13881BB20A9353881BB20B9311
:106C7000514B0221D9704FF6FF731380538014E0FB
:106C800023689A0728D502230C934C4B1A6847F2C5
:106C90002F539A4234D84B4A13881BB20A93538815
:106CA0001BB20B93444B0122DA7043480C23037050
:106CB00000234370052383700A9BC3F307230371EA
:106CC0000A9BDBB243710B9BC3F3072383710B9BBE
:106CD000DBB2C37108210EE0D9F800301B057FF547
:106CE000EBAC35484FF400630C930E230370002384
:106CF000437003218370FFF799FB01232B6008E0A9
:106D000072B60C9AD9F8003023EA0203C9F80030B1
:106D100031E272B60C9AD9F8003023EA0203C9F8BE
:106D2000003062B60120FFF76FF8C5E4FEF794FD6E
:106D3000ADF81E00BDF81E309BB2022B7FF6BCAC36
:106D4000DFF874A04FF496715046FEF7B7FDADF82A
:106D50001E009AF801209AF8023043EA02230993B0
:106D6000194B002201201A60FFF74EF8144BDB6824
:106D7000012BD1460BD9099B0F4A14480333FF2B33
:106D800096BF09994FF480710331FCF7C1FB9AF863
:106D900000300949DBB24F2B00F0148121D8442B7D
:106DA00036D015D8312B00F01382322B00F0BE8183
:106DB00082E400BFD80E002061150020AC16002030
:106DC000800A0020DC08002058150020244B02080F
:106DD0004B2B5AD04E2B5AD0462B7FF46DACFFF77D
:106DE00076BB642B35D009D8602B00F0CF80632BA5
:106DF00000F0BC80502B7FF45FAC44E1662B04D0E4
:106E000063D3672B00F0BA8156E401F103094FE028
:106E1000C8788B78DFF8E092012B88BF0A7900F000
:106E200002008CBFD2B20022C0B20021FEF7FCF8F3
:106E300020220021484604F077FDAE4A9389DBB258
:106E400089F80130D389013303F0FF0389F8023058
:106E500032E4099B032B09D9CB78A74ADBB2063170
:106E6000D05C099A033AD2B2FEF76EFA9AF8033070
:106E7000A04ADBB2C2F84C3272B6236843F48003F6
:106E8000236062B602232B6016E4FFF719F8099B12
:106E9000022B7FF411ACCA780B7943EA0223974A9C
:106EA00013601368964A003318BF0123136003E48C
:106EB000099B5A1E099223B119F8010BFCF7C4FA79
:106EC000F6E70D228AF8002046E0099B1B2B7FF68F
:106ED000F3AB099B019A9A420AD1099B8949802BFD
:106EE00094BF099A802212A804F0EEFB00282FD04C
:106EF000099B8449802B94BF099A802212A804F030
:106F000015FC099B0193099B1C3B0A2B18D90B22EA
:106F10007D497E4804F0D8FB834688B9754A1368DA
:106F20005BB1D2F83892D2F83802013004F0C8FDD3
:106F30005B4682B209F1010107E01922744904E0BD
:106F4000099A72491C3A002392B212A8FCF76AFE11
:106F50000D238AF80030002303216E488AF801309F
:106F60008AF80230FFF762FAFFF7A6BB2B68032B03
:106F70007FF4A2AB684B187811F8042B043AD2B214
:106F8000FEF7E2F90223C8F800301CE1DDF824A086
:106F9000BAF1020F7FF490AB91F803900B7953EAAA
:106FA000092905D0B9F1010F00F00D81FFF784BB6D
:106FB000432001F029F9594BC5F800A0C3F800900F
:106FC000FFF77ABBCB78013B032B3FF675ABDFE8CD
:106FD00003F0020F141BDFF8489100234846C9F85C
:106FE000143203F087FD484603F0ACFDFFF764BBA5
:106FF0004B4803F0AEFDFFF75FBB9AF8041048481A
:1070000003F0EEFDFFF758BB0023DFF808A1DFF81F
:1070100018B1099399F80420099B9A427FF64CAB6A
:10702000099B03EB430306331AF803304BB9099B62
:107030003B4803EB430305331AF8031003F0A8FDA4
:107040001DE0099B364803EB430306331AF803306F
:10705000013BDBB2032B98BF1BF80320099B03EB1A
:10706000430303F1050388BFFF2219F80310099BAE
:1070700003EB4303073319F8033003F071FD099B59
:1070800001330993C6E70B79DBB2302B22D00ED83F
:10709000102B1FD0202B7FF40FAB9AF80310214A3E
:1070A0009AF805301E4803F0A2FDFFF705BB402B00
:1070B00009D0802B7FF400AB9AF80310184803F036
:1070C00075FDFFF7F9BA9AF80310154803F067FD4C
:1070D000FFF7F2BA9AF803109AF805301048402BDF
:1070E00098BF0C4BC9B294BF5A79402203F08EFD71
:1070F000FFF7E2BA04130020E00A00205415002034
:10710000A816002064150020444C020880150020B9
:10711000494A02086115002060150020D40E0020A5
:10712000DC10002067150020404B02084B792A49EB
:107130000BB100234B604A68DFF8B4E09AF803C053
:10714000264B9AF80490264872449A1A49EA0C2C65
:10715000624535BF204A90F803E0526803793ABF90
:107160009644CEEB030343EA0E230B6072B623680A
:1071700043F48013236062B6FFF79EBA1323C878E6
:107180000A790B704FF0030E00234B7081F802E078
:10719000DDF824E0BEF1020FC0B2D2B20CD101235F
:1071A0004B71104B1860104B1A6072B6236843F491
:1071B0000013236062B600E04B7106210848FFF718
:1071C00035F902232B60094B00221A60FFF774BACD
:1071D00033B0BDE8F08F00BF9C160020F8FF030815
:1071E00061150020C80E00205C150020D40E002080
:1071F0000000000804F09ABA04F096BBFEE7000015
:107200000C480D4B4FF4E062C2604FF400724FF433
:10721000827C8261072280E80810C262002330224B
:1072200083600361436103624362C261836202F06F
:107230008AB800BFB41600200030014010B5084CD9
:10724000636923F004036361052000F01BF963699F
:1072500043F0040363610520BDE8104000F012B95B
:10726000000C0048F0B589B000220B2306460D46FD
:1072700024488DF8103080214FF0FF378DF8112011
:107280008DF812208DF813208DF8142001F0BAF833
:107290000097052306AA04A91B4802F0ABF800B129
:1072A000FEE79DF81830022B19D19DF81C409DF87F
:1072B0001B1051EA042413D0AC4228BF2C462246AE
:1072C000FF21304604F030FB00972346324631461A
:1072D0000D4802F08FF800B1FEE7E4B200E004468A
:1072E00001228021074801F08DF800230393039BBE
:1072F000012B03DC00BF039B0133F7E7204609B0F5
:10730000F0BD00BF00040048B416002070B50A4C60
:1073100086B0032340250126049301A900232046BB
:1073200003930195029600F089FF324629462046D4
:1073300001F068F806B070BD0004004830B587B0B1
:1073400040230193094C0A4B029303230225049323
:1073500001A9002320460593039500F06FFF01A9C2
:107360002046039500F06AFF07B030BD00040048D6
:1073700000001110172000F047BF172000F050BF89
:107380002DE9F041C8B00A2615461C46AA22002362
:1073900080460F468DF811308DF812308DF813307D
:1073A0008DF814308DF818208DF819308DF81A30BA
:1073B0008DF81B308DF81C308DF81060FFF7DDFF65
:1073C000FFF7A4FF0396039A531E03930AB100BF6D
:1073D000F9E7224B2248402159614FF0FF368021C6
:1073E00001F010F80096052306AA04A91D4802F032
:1073F00001F800B1FEE7FFF7A1FF9DF81830022B5E
:107400001DD19DF819202B199A421ADB45B100961F
:107410002B4608AA4146134801F0ECFF00B1FEE7F5
:107420000CB900240EE04FF0FF33009308AA234666
:1074300039460C4801F0DEFF0028F2D0FEE7FF24B9
:1074400000E0FE2401228021054800F0DBFFFFF769
:1074500091FF204648B0BDE8F08100BF0004014024
:1074600000040048B4160020014B40225A617047C6
:107470000004014070470000014B1868704700BFCE
:107480001817002038B50446FFF7F6FF0546FFF74A
:10749000F3FF401BA042FAD338BD7047F8B504464D
:1074A000002800F0D980856D25B9FFF7F6FFE56566
:1074B00084F85450226893689B0042BF936823F07D
:1074C000005393609368DF0005D4936843F08053C2
:1074D0009360774B1B689368DE005FBFA36D43F03A
:1074E0001003A365E36D5CBF43F00103E365A36D87
:1074F00054BF01200020DD0600F1AA8093685907DF
:1075000000F1A680A36D43F00203A365936803F026
:107510000303012B02D11368DB071AD46549664DBA
:107520008A4240F0A380AB6803F00303012B40F0D4
:1075300095802968CF0740F1918083F0010303F023
:10754000010333B15D4DAB6823F47C1163680B43D9
:10755000AB604FF4005797FAA7F7B7FA87F74FF4E5
:1075600080365FFA87FE96FAA6F6B6FA86F64FF4EC
:107570006021F6B291FAA1F1B1FA81F1E368A76B4B
:10758000CDB2616A1F43A36801FA06F6A16A3B43C4
:10759000E7690139A94007FA0EF7E56A3B4333432F
:1075A000012D43EA010303D0216B09B129430B43A9
:1075B000D568434929400B43D360936813F00C0FFF
:1075C00031D14FF4804393FAA3F3B3FA83F3022546
:1075D000DBB295FAA5F5B5FA85F5A669D16806FA84
:1075E00003F3666BEDB206FA05F51D4321F4804303
:1075F00023F002032B43D360E36B012B0FD1256CE7
:10760000636C11692B43A56C43F001032B43E56CBC
:107610001D4321F4FF6323F005032B4302E01369AC
:1076200023F0010313612369012B08BF216A136B47
:1076300003BF01F1FF3123F00F030B4323F00F03CE
:107640001363A36D23F0030343F00103A365F8BDA7
:10765000A36D43F01003A3650120F8BD19498B68A1
:1076600003F00303012B20D10B681BE08B68AA42B7
:1076700003F0030309D1012B03D10968CE073FF5BD
:107680005CAF10498B6803F00303012B03D1096839
:10769000C9073FF552AFAB6803F00303012B04D1D8
:1076A000054B1B6803F0010347E7002345E700BFD4
:1076B000740900200000045000010450000304502D
:1076C00007C0F0FF0002045070470000F8B545699C
:1076D000082D04460E4622D002683F4B9A4203D042
:1076E00003F580739A426ED13C4B9968C9066AD003
:1076F000996801F01F01052965D0996801F01F0103
:10770000092960D09A6802F44042B2F5004F5DD07A
:107710009B6803F44043B3F5404F57D00425FFF76F
:10772000ABFE074623681A6815420ED1721CFAD0C8
:107730002EB9A36D43F00403A3650320F8BDFFF742
:107740009BFEC01B8642EDD2F3E7234E1968B3427D
:1077500001F0080112D0224A93420FD0D2F808015A
:10776000C70602F5807209D0906800F01F00052856
:1077700004D0926802F01F02092A01D1DA6800E001
:10778000F268082D01D11D6003E050045CBF0420A5
:107790001860A06D40F40070A06509B90020F8BD24
:1077A000DB6813F4406FF9D19204F7D4A36D23F48E
:1077B0008073A365A06D10F48050EFD1A36D43F0EA
:1077C0000103A365F8BDD368DB07A7D5A36D43F01C
:1077D0002003A3650120F8BD0000045000030450FD
:1077E000000204500368186C70470000F7B50023CE
:1077F000019390F85430012B00F06F810268936878
:1078000001245E0780F8544000F15E814E680C68E8
:10781000042E4FF4F86318D8D2F830E093FAA3F7A7
:10782000B7FA87F7FFB293FAA3F5B5FA85F51F23E8
:10783000EDB2774303FA07F706FB05F32EEA0707D5
:1078400004FA03F33B4313634DE0092E18D8576B3A
:1078500093FAA3F5B5FA85F5EDB2053E93FAA3F3D5
:10786000B3FA83F34FF01F0E7543DBB20EFA05F542
:107870005E4327EA050704FA06F63E43566332E004
:107880000E2E18D8976B93FAA3F5B5FA85F5EDB2DD
:107890000A3E93FAA3F3B3FA83F34FF01F0E754336
:1078A000DBB20EFA05F55E4327EA050704FA06F691
:1078B0003E43966317E0D76B93FAA3F5B5FA85F5C7
:1078C000EDB20F3E93FAA3F3B3FA83F34FF01F0E1A
:1078D0007543DBB20EFA05F55E4327EA050704FAA5
:1078E00006F63E43D663936813F00C0F40F0CE804B
:1078F000092C4FF038038F681CD9D2F818C093FABE
:10790000A3FEBEFA8EFE5FFA8EFEA4F10A0593FA7C
:10791000A3F6B6FA86F6072305FB0EFEF6B203FAC7
:107920000EFE6E432CEA0E0C07FA06F54CEA05052E
:10793000956116E0556993FAA3F6B6FA86F6F6B2A3
:1079400093FAA3F3B3FA83F34FF0070EDBB2664367
:107950000EFA06F6634325EA060607FA03F53543F1
:107960005561D3680D694E69C3F3C1035B00013DE6
:107970009E404FF0F843032D42D8DFE805F0021295
:107980002232176E93FAA3F5B5FA85F5B14B3B4059
:10799000EDB243F000431E4304FA05F52E4316668C
:1079A00074E0576E93FAA3F5B5FA85F5A94B3B4001
:1079B000EDB243F00043334304FA05F52B4353661D
:1079C00064E0976E93FAA3F5B5FA85F5A14B3B40B9
:1079D000EDB243F00043334304FA05F52B439366BD
:1079E00054E0D76E93FAA3F3B3FA83F3994D3D4075
:1079F000DBB245F000452E4304FA03F3334344E081
:107A0000156E93FAA3F3B3FA83F3DBB204FA03F32C
:107A100005F0F8459D4202BF136E23F00043136644
:107A2000556E4FF0F84393FAA3F3B3FA83F3DBB246
:107A300004FA03F305F0F8459D4202BF536E23F0AC
:107A400000435366956E4FF0F84393FAA3F3B3FAED
:107A500083F3DBB204FA03F305F0F8459D4202BF5D
:107A6000936E23F000439366D56E4FF0F84393FA7C
:107A7000A3F3B3FA83F3DBB205F0F84504FA03F39A
:107A80009D4203D1D36E23F00043D366936803F085
:107A90000303012B02D11368DD0713D4CB68B3F1C4
:107AA000804F4FF001031AD0D2F8B010A34021EA62
:107AB0000303C2F8B030112C51D1674B9B6813F40B
:107AC000000F5AD0002403E0836D43F02003836548
:107AD000002380F854302046D9E00220D7E0D2F8C5
:107AE000B0508E68A3402B43082CC2F8B0304FF042
:107AF00038031AD9D2F818E093FAA3F7B7FA87F740
:107B0000FFB2A4F1090193FAA3F5B5FA85F50723AD
:107B10004F43EDB203FA07F74D432EEA070E06FA7C
:107B200005F14EEA01019161C5E7516993FAA3F5A8
:107B3000B5FA85F5EDB2671C93FAA3F3B3FA83F3B4
:107B40004FF0070E7D43DBB20EFA05F521EA05057D
:107B500007FB03F106FA01F129435161ABE7122C4F
:107B600004D13D4B9B6813F0807FAAE7002CA9D17C
:107B7000394B9B6813F4800FA3E7936803F003036A
:107B8000012B02D11368D9070BD4344B34499A42E4
:107B900017D18B6803F00303012B08D10B68DB07B7
:107BA00005D5836D43F020038365012490E72D49BB
:107BB0008B6803F00303012B3DD10B68DF07F0D482
:107BC00039E09D688A4205F003050CD1012D02D1F0
:107BD0001B68DE07E5D4234DAB6803F00303012BDC
:107BE00006D12B6802E0012D02D11B68DD07D8D435
:107BF0008B6803F00303012B03D1194B1B68DB07D0
:107C0000CFD4112C1AD1174B9A427FF45BAF124A92
:107C1000936843F400039360134B144A1B68B3FB4F
:107C2000F2F2782353430193019B002B3FF44AAFB8
:107C3000019B013BF7E7112C1AD1E8E7122C19D16F
:107C4000084B9A427FF43EAF034A936843F0807337
:107C5000936037E700F0FF03000304500000045076
:107C600000010450000204507409002040420F003B
:107C7000122CE9D0002C7FF425AF064B9A427FF4FA
:107C800021AF054A936843F48003936020E703B073
:107C9000F0BD00BF0000045000030450806D704729
:107CA00003689A6812F00C0F70B5044601D10020E9
:107CB00070BDDA68900110D5E269012A0DD1A26980
:107CC000012A0AD1214A1968490602D4013AFAD197
:107CD00031E040221A600C2101E060290BD09A6843
:107CE000560706D59A6895075EBF9A6842F010025B
:107CF0009A600C2910D09A68100706D59A689207E6
:107D00005EBF9A6842F020029A60602902D06C2916
:107D100004D001E0082502E0042500E00C25FFF76F
:107D2000ABFB064623689B681D42C0D0FFF7A4FB4F
:107D3000801B0528F6D9A36D43F01003A365E36DFE
:107D400043F00103E365012070BD00BF01340A0068
:107D500038B503689A6802F00302012A044604D188
:107D60001A68D10701D5002038BD9968104A0A4029
:107D70009AB99A6842F001029A60FFF77DFB0546C6
:107D800023681A68D207EED49A6842F001029A601A
:107D9000FFF772FB401B0228F2D9A36D43F01003DA
:107DA000A365E36D43F00103E365012038BD00BF27
:107DB0003F00008038B503689B6813F00405044653
:107DC0006AD190F85430012B66D0012380F85430EA
:107DD000FFF7BEFF00285CD1A36D304A13F4805337
:107DE0001CBFE36D23F00603E365A36D23F470630A
:107DF00023F0010343F48073A3652368934208D002
:107E000002F50072934204D002F580729268D006A7
:107E100003D1A26D22F48012A26520481C22834265
:107E20001A6012D01E4A93420FD0D2F80811C90628
:107E300002F5807209D0916801F01F01052904D074
:107E4000926802F01F02092A10D1DA68920141BF3C
:107E5000A26D22F4405242F48052A2659A6800203A
:107E600042F0040284F854009A6038BDA36D43F4D4
:107E70008013A365C3689B0142BFA36D23F44053E5
:107E800043F480534FF0000048BFA36584F85400CA
:107E900038BD84F8545038BD022038BD000004506D
:107EA0000002045038B503680446986800F00300E7
:107EB000012801D0002038BD1A68D207FAD59A6887
:107EC00002F00D02012A09D19A6842F002029A607A
:107ED00003221A60FFF7D0FA054608E0A36D43F0CD
:107EE0001003A365E36D43F00103E36538BD236828
:107EF0009B68DB07DED5FFF7BFFA401B0228F6D9E7
:107F0000A36D43F01003A365E36D43F00103E36544
:107F1000012038BD10B50446002800F0A680836D0E
:107F200043F002036C218365FFF7BAFE2268D36831
:107F300043F40013D3602046FFF7B4FF23685A6868
:107F400022F4FF6222F007025A6040F2FF721A60C8
:107F50009A6822F0A0429A609A6842F000529A60B1
:107F6000D968564A0A40DA60DA6842F00042DA60BC
:107F70001A6922F4FF6222F007021A615A6902F0BC
:107F800040425A619A6902F078429A611A6A02F094
:107F9000F0221A625A6A02F0FF225A629A6A02F0CA
:107FA000FF229A62196B464A0A401A63596B454A86
:107FB0000A405A63996B434A0A409A63DA6B22F487
:107FC000FB6222F00702DA63196E3F4A0A401A6622
:107FD000596E3D4A0A405A66996E3B4A0A409A6673
:107FE000D96E394A0A40DA66D3F8A020D20CD204FE
:107FF000C3F8A020D3F8A420D20CD204C3F8A42044
:10800000D3F8B020D20CD204C3F8B020D3F8B420F7
:1080100022F07F12C3F8B4209A6802F00302012A0A
:1080200002D11A68D10715D4284A2949934226D18A
:108030008B6803F00303012B19D10A68D20716D508
:1080400083F0010303F0010323B1224A224B91681C
:108050000B4093602046FFF737FB0020E065206669
:108060006066A06584F8540010BD012010BD1B4A55
:10807000936803F00303012B1ED1136819E08B42B0
:10808000936803F0030308D1012B02D11268D007D3
:10809000D6D4124A936803F00303012B02D112686D
:1080A000D207CDD48B6803F00303012B04D1084B16
:1080B0001B6803F00103C3E70023C1E704800080CD
:1080C000300882E0200882E000F0FF030000045046
:1080D0000001045000030450E01000FE00020450B0
:1080E00090F85430012B10B5044616D0012380F8C7
:1080F00054306C21FFF7D4FD58B92046FFF7D2FE6B
:1081000038B9A36D23F4885323F0010343F001032E
:10811000A365002384F8543010BD022010BD90F8F0
:108120005430012B70B504460D4637D0012680F837
:108130005460FFF7B7FEA36D40BB23F4885323F0D0
:10814000020343F00203A3652368996821F080418C
:108150000D439D609A6842F000429A604FF47A4263
:10816000996800290BDA013AFAD1A36D84F85420FA
:1081700023F0120343F01003A365012070BDA36D2B
:1081800023F0030343F00103A36503E043F010036E
:10819000A3653046002384F8543070BD022070BDC2
:1081A000174BDB68C3F3022330B5C3F107041D1D71
:1081B000042C28BF0424062D4FF0010505FA04F411
:1081C00004F1FF348CBF033B00230C409C4005FAB4
:1081D00003F3013B1A40002842EA04024FEA02126C
:1081E000AFBF00F1604000F00F00064BD2B2A5BF58
:1081F00000F56140D2B21A5480F8002330BD00BFB0
:1082000000ED00E014ED00E04209012300F01F0042
:1082100003FA00F0014B43F82200704700E100E050
:108220004309012200F01F0002FA00F02033024A45
:1082300042F82300704700BF00E100E02DE9F04F55
:10824000D1F800B0DFF8AC81684C85B000233BFA70
:1082500003F200F0C78001269E401BEA060E00F0E4
:10826000BF804A6822F01009B9F1020F14D14FEA19
:10827000D30C00EB8C0C03F0070ADCF820704FEAFB
:108280008A0A0F2505FA0AF527EA05070D6905FA96
:108290000AF53D43CCF820504FEA430C032507680C
:1082A00005FA0CF5ED4302F0030A019509F1FF39D7
:1082B0003D400AFA0CF73D43B9F1010F056013D8B0
:1082C0008768019D05EA0709CF6807FA0CF747EAB6
:1082D000090787604768C2F3001927EA060709FA09
