:020000040800F2
:200000000080002089010008000000000000000000000000000000000000000000000000AE
:200020000000000000000000000000000000000000000000000000000000000000000000C0
:200040000000000000000000000000000000000000000000000000000000000000000000A0
:20006000000000000000000000000000000000000000000000000000000000000000000080
:20008000000000000000000000000000000000000000000000000000000000000000000060
:2000A000000000000000000000000000000000000000000000000000000000000000000040
:2000C000000000000000000000000000000000000000000000000000000000000000000020
:2000E000000000000000000000000000000000000000000000000000000000000000000000
:200100000000000000000000000000000000000000000000000000000000000000000000DF
:200120000000000000000000000000000000000000000000000000000000000000000000BF
:2001400000000000000000000000000000000000000000000000000000000000000000009F
:2001600000000000000000000000000000000000000000000000000000000000000000007F
:20018000000000000000000007B5074B074A99680190914201D1DB689847019803B05DF806
:2001A00004EB00F02DBF00BF0008000807B0ADDE0000000000000000000000000000000063
:2001C00000000000000000000000000000000000000000000000000000000000000000001F
:2001E0000000000000000000000000000000000000000000000000000000000000000000FF
:200200000000000000000000000000000000000000000000000000000000000000000000DE
:200220000000000000000000000000000000000000000000000000000000000000000000BE
:2010000082B00D4A0D4B0E4901908B4204D252F8040F43F8040BF8E70A4B0B4A002193423E
:2010200002D243F8041BFAE7084B094A9A60019802B002F0B9BA00BF9C27010800000020A6
:201040000000002000000020AC1A002000ED00E08010000800000000000000000000000005
:20106000000000000000000000000000000000000000000000000000000000000000000070
:201080000080002089010008397A00083B7A00083D7A00083F7A0008417A00080000000063
:2010A000000000000000000000000000437A0008457A0008000000004D390008012C0008E1
:2010C0004D3900084D3900084D3900084D3900084D3900084D3900084D3900084D390008A0
:2010E000012A00084D3900084D3900084D3900084D3900084D3900084D3900084D390008DB
:201100004D3900084D3900084D3900084D3900084D3900084D3900084D3900084D3900085F
:201120004D3900084D3900084D3900084D3900084D3900084D3900084D3900084D3900083F
:201140004D3900084D3900084D3900084D3900084D3900080D2800084D3900084D39000870
:20116000851200084D3900084D3900084D3900084D3900084D3900084D3900084D390008EE
:201180004D3900084D3900084D3900084D3900084D3900084D3900084D3900084D390008DF
:2011A0004D3900084D3900084D3900084D3900084D3900084D3900084D3900084D390008BF
:2011C0004D3900084D3900084D390008F52900084D3900084D3900084D3900084D39000807
:2011E0004D3900084D3900084D3900084D3900084D3900084D3900084D390008000000000D
:201200004D3900084D3900088007054B48BF41F48071D9609A689207FCD50020704700BF73
:2012200000380040F8B507460D4601202A2116461C46FFF7E9FF390A0220FFF7E5FFF9B2F7
:201240000220FFF7E1FF310A0220FFF7DDFFF1B20220FFF7D9FF2B210120FFF7D5FF290A6A
:201260000220FFF7D1FFE9B20220FFF7CDFF210A0220FFF7C9FFE1B20220BDE8F840FFF774
:20128000C3BF000030B58BB04FF48063009308230DEB03024C213A4803F00EFE9DF8083010
:2012A000522B66D19DF809403648FF2C0BD103881A045ED443881B045BD472B6324A136804
:2012C00043F4806353E021019DF80A309DF80C209DF80D5001F47061194324029DF80B3005
:2012E00004F470641C43130103F470632B431D054FEA02229DF80E5002F4706242EA05020A
:2013000044BF6FEA03536FEA1353150548BF6FEA02524FF0000548BF6FEA1252058103B944
:201320008AB10B4422441BB212B24025C3EB031302EB820293FBF5F3202592FBF5F201253D
:201340001BB212B20581C1EB011104EB84048911C3F5F0736411C1F5F0711BB204804180EE
:201360008280C38072B6084A136843F00203136062B6064B4FF400625A610BB030BD00BF58
:2013800024000020080C0020181A00200004014008B50E4B5A69120504D54FF400625A6115
:2013A000FFF770FF0A490B6840F202421A4062B9084B188900B240B11A819A881A80DA88C7
:2013C0005A800B6843F002030B6008BD00040140181A0020080C0020D04B2DE9F04F4FF6D8
:2013E000FF721A805A80CE4ACE4FDFF85C83CE4CDFF858B34FF0000AC2F800A0CB4A8DB02C
:20140000C2F800A020214FF480620646C84807F093FF01254FF4806207A938460792089578
:20142000CDF824A0CDF828A003F058FB4FF40063C04A079307A938460892099503F04EFB64
:2014400003234FF440720A9307A9042340464FF012090B930792CDF82090099503F03EFBA7
:20146000A26D42F40012A265A26D02F4001203925146039A58463C2207F05EFFAE4BAF4AEC
:20148000CBF80C5058468BE80C0003F0CAFC5146584603F091FD7B6923F480637B61002EB9
:2014A00040F01982E36C43F00203E364E36C03F002030493049BE36C43F00403E364E36CF7
:2014C00003F004030593059BA36D43F48043A365A36D099603F480430693069B4FF420437F
:2014E00002244FF0050B079307A9032340460A930894CDF82CB003F0F1FA4FF4804307A913
:2015000040460793089509960A9603F0E7FAD8F8143043F48043C8F8143007A93846079420
:20152000089509960A9603F0D9FA7B69844A854823F002037B61136823F0400313604FF40F
:20154000827343604FF40063C3604FF400734FF00A0A8361082300934363019202608660FE
:2015600006614661C661066246628662C0F82CA0066305F075FE019A116841F040011160F2
:201580007A6922437A613C2002F0FAF9D8F8142022F48042C8F8142011212120FFF734FE7C
:2015A000C82002F0EDF9B9212846FFF72DFEFF212046FFF729FE83212046FFF725FE5721C4
:2015C0002220FFF721FE504602F0DAF9B1212846FFF71AFE31462046FFF716FE494620462F
:2015E000FFF712FE49462046FFF70EFE49462046FFF70AFEC3212046FFF706FE4421222010
:20160000FFF702FE504602F0BBF9B4212846FFF7FBFD21462046FFF7F7FD40212046FFF7F3
:20162000F3FD31462046FFF7EFFD2A212046FFF7EBFD2A212046FFF7E7FD20212046FFF744
:20164000E3FD91212220FFF7DFFD504602F098F9B6212846FFF7D8FD38212220FFF7D4FD59
:20166000504602F08DF9B0212846FFF7CDFD68212046FFF7C9FDE3212846FFF7C5FD2F2138
:201680002046FFF7C1FD1F212046FFF7BDFDB5212846FFF7B9FD29462046FFF7B5FD2946FE
:2016A0002046FFF7B1FD67212046FFF7ADFDC0212846FFF7A9FD70212046FFF7A5FD702187
:2016C0002046FFF7A1FD29462046FFF79DFD3C212046FFF799FDC8212046FFF795FD009BEA
:2016E00022201946FFF790FD504602F049F9C2212846FFF789FD31462046FFF785FD009B3F
:2017000020461946FFF780FD04212220FFF77CFD504602F035F9CC21284619E0080C00207D
:2017200064040020000800480010024060040020600000200000211091297000005400408C
:20174000003800409C0F00200004004824000020FFF75AFD59462220FFF756FD504602F0B7
:201760000FF9E0212846FFF74FFD29462046FFF74BFD21462046FFF747FD03212046FFF716
:2017800043FD59462046FFF73FFD0E212046FFF73BFD22212046FFF737FD32212046FFF78D
:2017A00033FD3B212046FFF72FFD5C212046FFF72BFD54212046FFF727FD4C212046FFF756
:2017C00023FD41212046FFF71FFD3D212046FFF71BFD37212046FFF717FD31212046FFF7C7
:2017E00013FD21212046FFF70FFD29462046FFF70BFD21462046FFF707FD03212046FFF715
:2018000003FD59462046FFF7FFFC0E212046FFF7FBFC22212046FFF7F7FC32212046FFF70F
:20182000F3FC3B212046FFF7EFFC5C212046FFF7EBFC54212046FFF7E7FC4C212046FFF7D9
:20184000E3FC41212046FFF7DFFC3D212046FFF7DBFC37212046FFF7D7FC31212046FFF74A
:20186000D3FC21212046FFF7CFFC31462046FFF7CBFC29462046FFF7C7FC504602F080F808
:201880003A212846FFF7C0FC55212046FFF7BCFC36212846FFF7B8FC31462046FFF7B4FC51
:2018A000B0212846FFF7B0FC99212046FFF7ACFC29462046FFF7A8FC22212846FFF7A4FCD3
:2018C00029212120FFF7A0FC504602F059F8114800F072FF02E0C82002F052F80E4C63692C
:2018E00043F4806363610A2002F04AF8636923F4806363610A2002F043F8636943F48063E5
:201900006361064B4FF48072C3F884210DB0BDE8F08F00BFF9F9F9000008004800E100E081
:2019200013212120FFF770BC10B51D4B9AB0044618603C2200210BA807F0FEFC4FF08043B2
:201940000B930BA8174B0E9305F052FD10220021684607F0F1FC4FF4805369460BA80093FF
:2019600005F090FE0BA805F05DFD1C22002104A807F0E2FC40F6C41060436023002204A903
:201980000493059004230BA8089305F0CFFF0BA805F0BEFC00210BA805F03AFF1AB010BDE8
:2019A0000000002090D003002DE9F84F0C9F0B9CDDF83490DDF83880DFF8B0A00126BE4083
:2019C000A4F1040E013E00240A9DAC421DD0102C1BD05EF8045F4FEA154C2CF0070CC5F31A
:2019E00042354CEA05050AF81450DEF800504FEA551C0AEB440B2CF01F0CC5F3C4054CEAB8
:201A000005058BF801500134DEE7013B013A0B4402449BB292B2FFF705FC2C210120FFF7F6
:201A2000F3FB124CB8F1000F1DD019F801AB3D46EB1B2AFA03F333404FEA430BA34414F868
:201A400013100220FFF7E0FB9BF801100220FFF7DBFB072DC7EB0808E4D83D44B8F1000FF3
:201A6000E6D1BDE8F88FBDE8F88F00BF040000202DE9F84F01248440DFF848800546894675
:201A80001646013CE6B119F801AB2F467B1B2AFA03F323404FEA430BC34418F813100220EE
:201AA000FFF7B2FB9BF801100220FFF7ADFB072FA6EB0506E6D82F44002EE7D1BDE8F88F0A
:201AC000BDE8F88F04000020F8B50446270C1E4607F0F807C4F34233BDF818501F4363091B
:201AE00003F0E003C4F3C4041C436B1E084613441146721E02449BB292B2FFF793FB2C2175
:201B00000120FFF781FB7543FFB20026E4B2AE4209D039460220FFF777FB21460220FFF7BC
:201B200073FB0136F3E7F8BD30B5254C236887B005467BB12349244A00231360A1F14000A0
:201B40004FF47072236007F093FB402220211F4807F0F2FB0A2D15D14FF48062012304926E
:201B60001B4A23600392002340F25F104FF4A07181228DE807000593164A1946184600F00C
:201B8000E5F91AE00D2D07D110484022202107B0BDE8304007F0D0BBA5F120035F2B0CD8EB
:201BA00009490B4A0B681A4401333E2B0B6088BF012382F8C05388BF236007B030BD00BF80
:201BC00060040020A0000020640400202004002060000020F9F9F90038B504464518AC4208
:201BE00004D014F8010BFFF79FFFF8E738BD00000FB42DE9F04F87B0109C002C00F0778182
:201C000011ABB24DB24E01932378002B00F06F812346C4EB03091F4613F8012B252A08D1E7
:201C200049462046FFF7D8FF3B78252B04D03C46EAE7002AEDD1F3E70022019B781C9446CA
:201C40004FF0200E904617464FF00A0A0178582900F1010400F0DE8016D82E2957D00BD804
:201C60002A2967D02D2903D14FF0000C2046EDE7252940F035812FE13029C0F031813929CA
:201C800020D9482961D02BE1702916D007D864292DD068295ED0632940F022811DE07529FC
:201CA00000F0AD80782908D0732940F0198102B101934FF0000A0A2351E002B101934FF0B4
:201CC000000CABE0302903D1002F08BF4FF0300E0AFB0711A1F13007C8E702B10193019B55
:201CE00006A81A1D1B68019240F8183DF6E002B10193019B1A1D1B680192002B80F28580B4
:201D00005B4200934FF0000C01230A228DE041782A2940F0E5808178732904D001F0DF01B0
:201D2000482940F0DD800122D3F80080841C043394469BE74178732940F0D280D3F80080E2
:201D4000012204334FF0020C90E702B101934FF0010A03E002B101934FF0000A1023019A93
:201D6000BCF1010F02F104010191106818D0BCF1020F07D00246C0EB020812F8011B0029DB
:201D8000F9D10DE00378002B40F0AC8001215148FFF722FF434608F1FF38002BF6D122E00B
:201DA000102B02D10746804414E04146FFF714FFC14618E017F8019B4FEA191309F00F0960
:201DC000BAF1000F09D1F05CFFF7AEFE16F80900FFF7AAFE4745EDD116E7E85CFFF7A4FEA9
:201DE00015F80900F4E7B945BFF40EAFC9EB070701213848FFF7F0FE013FF9D104E702B194
:201E00000193019B1A1D1B6801924FF0000C009363467AE702B101934FF0010C019B1A1DF7
:201E20001B680192009310220023DDF80080012002FB00F1414502D943B9194613E0B1FBE5
:201E4000F2F94845F8D1013F0846F1E7BEF1300F04BF2D238DF8083007F1FF3707BF002306
:201E6000012101230021A7F10209B9F10D0F0DD801F1FF390DF1080B07F1FF3AD944BAF179
:201E8000010A09F801EFFAD1394401392BB106AB0B442D2703F8107C013102AB4F1C0B4474
:201EA000791E88B1B8FBF0F1B1FBF2FE02FB1E11BCF1000F01D1895D00E0495D1970B0FBC8
:201EC000F2F001370133EBE702A80DE0ED950008DC9500080C26010802B10193012103E0C1
:201EE00002B1019304480521FFF776FE8CE607B0BDE8F04F04B07047FE950008C0F30B00EE
:201F00000828F0B51FD8104C54F82040DCB1A778134400209A4213D012F8015BA688B54280
:201F20000FD3B4F806E075450BD8AD1BA66816F8355046198E4206DC3D44284480B2E9E727
:201F4000F0BD0020F0BDF0BDA4CA00082DE9F04FC0F30B0B8FB0BBF1080F9A46BDF860507F
:201F6000BDF870800C920D9160D8324951F82B30002B5BD0BDF864201E789B7809935244BF
:201F800092B20892BDF868201B9B0A912A4492B203F1FF39B3B2079254460B93B8F1000F09
:201FA00041D00A9A19F8013F52F82B2091888B4202D3D08883420AD9093B012B33D83544D7
:201FC000ADB2079A731993422DDC544626E0926808985B1A02EBC30112F8333049681A19E6
:201FE000824206DD3544ADB20798721982421ADC54469FB213FB06F30493012302930CAB85
:2020000001930223039100933A460B9B20462946FFF7CAFC099B1F443C44A4B208F1FF381C
:202020001FFA88F8BAE744EA054420460FB0BDE8F08F00BFA4CA00082DE9F04F8DB0914608
:202040000593059D9DF858300693179BC5F1010208920746EA1A1BB1002AD4BF002301236A
:20206000039393B20293029A8EB2731C9B1A9BB20A93C2F101039BB2079304930A9B099370
:20208000069B03F001034FF000080B9301244545C0F234810B9BFBB1039B09EB08021FFAA6
:2020A00085FB93B1079B00941FFA82FA5B449BB2524631461898FFF707FD0A9B00940BEBBD
:2020C00003015246029B89B203E000945B4692B231463846FFF7F8FC069B99071ED5039B7F
:2020E00005EB090293B1059BAB4206D00094049B189892B23146FFF7E7FC049B00949919E2
:2021000005EB0902029B92B289B204E000941FFA88F392B231463846FFF7D6FC069B5A0799
:2021200021D5039909EB0802ABB2A9B11FFA82FB079A0094C3EB060A1FFA8AFA13449BB28E
:202140005A4651461898FFF7BFFC079B00940AEB03015A46029B02E0F11A009492B289B27B
:202160003846FFF7B1FC069B1B071FD5039B05EB090293B1059BAB4208D0C8EB06010094F7
:20218000049B189892B289B2FFF79EFC05EB09020094029B099992B205E01FFA88F3F11A4B
:2021A000009492B289B23846FFF78EFC069BD8061FD5039B1FFA85FBC8EB090293B1079BC0
:2021C00000941FFA82FA5B449BB2524631461898FFF77AFC0A9B00940BEB03015246029B57
:2021E00089B203E000945B4692B231463846FFF76BFC069B99061ED5039BC5EB090293B126
:20220000059BAB4206D00094049B189892B23146FFF75AFC049B00949919C5EB0902029B34
:2022200092B289B204E000941FFA88F392B231463846FFF749FC069B5A0621D50399ABB2AF
:20224000C8EB0902A9B11FFA82FB079A0094C3EB060A1FFA8AFA13449BB25A4651461898B5
:20226000FFF732FC079B00940AEB03015A46029B02E0F11A009492B289B23846FFF724FC3A
:20228000069B1B061FD5039BC5EB090293B1059BAB4208D0C8EB06010094049B189892B2A5
:2022A00089B2FFF711FCC5EB09020094029B099992B205E01FFA88F3F11A009492B289B277
:2022C0003846FFF701FC089B0595002B08F10108C3BF089A05F1FF35C5EB080303EB4803E1
:2022E000C8BF02EB430301330893099B013B9BB20993049B01339BB20493C8E60DB0BDE8C5
:20230000F08F00002DE9F04F077889B004461546079327F08007894600294AD0002A4BD0FD
:20232000052F00F0D681068B06F44043B3F5804F11D0B3F5004F1BD1B0F80680079B009376
:202340003046D3B20A464146FFF7D8FDC0F34F00C0EB580A0EE0B0F806A0079B00933046EA
:20236000D3B20A465146FFF7C9FDC0EB0A0A01E04FF0000A06F44053B3F5805F0ED0B3F5B2
:20238000005F1CD1C6F30B06A54BB4F8088053F826305B785B08C3EB580812E0C6F30B0662
:2023A0009F4BB4F8088053F826305B78C3EB080807E088468A4604E09046924601E04FF096
:2023C0000008013F052F00F2EC81DFE817F019000600190073018201D401237B012B07D1AE
:2023E0002089E388A288618800906069FFF76CFBB9F1000F40F03581A37A002B00F0D181D7
:20240000E388E67A20895A08964202D8B6EB500F03D94608964228BF1646227B6188B7B200
:202420004FEA470B012ACBEB03033944A28800909BB289B25AD06069FFF746FB2389A2886B
:202440006188CBEB03039BB200933A443B4692B26069FFF739FBE3886188A288194423893A
:20246000CBEB03039BB2013900933A44C91B3B4692B289B26069FFF727FBE3886188A07AD5
:20248000A2880090CBEB030339449BB289B22069FFF71AFBA1882289E388A07A0A4461889D
:2024A0000090CBEB0303013A39449BB292B289B22069FFF709FB2089A288A37A6188CBEB3A
:2024C000000080B200903A4492B22069FFF7FCFA6088E188A288A37A01442089CBEB000BBC
:2024E0001FFA8BF03A44013900901CE02069FFF7EBFA2389A2886188CBEB03039BB2009345
:202500003A443B4692B22069FFF7DEFAE3886188A28819442389CBEB030B1FFA8BF30093AC
:202520003A44C91B3B4692B289B22069FFF7CCFA012E4AD9237B012B04D0A77ABE4201D909
:20254000F71B00E000276369A28861880293C023009301973346324431442069FFF76CFD94
:20256000E3886188A07AA288194463690293302300930197891B091A334632442069FFF752
:202580005BFD2389A28861881A44636902930C2300930197013A3346921B31442069FFF7B6
:2025A0004BFD2389A2886188A07A1A44E38819446369029303230093013A891B0197091A20
:2025C0003346921B2069FFF737FDB9F1000F00F08080002D7DD0237B22696169B4F804E07C
:2025E000E688A77A208B012B1EBF13460A4619466388B8F1020F2CBFC6440EF1020EBAF13C
:20260000020F2CBF53440233CAEB060A1FFA83FB1FFA8EFE1FFA8AFA27B17E00043602E0E2
:20262000A4CA00080626B4F808C0C6EB0A06C8EB0C08B6B21FFA88F817B17F00043700E099
:202640000627C7EB0807079B0593BFB20495CDF80C9002970196CDF800E05B46FFF776FC09
:2026600037E0002D3FF4C8AE079994F80AE06388208B05910495CDF80C9021894FEA4E07F9
:202680001FFA88F2C91B891A89B20291E1881FFA8AF6CF1B73443344BE1BB6B20196A18837
:2026A00071440A4492B200929BB262692169FFF74DFCA1E601232373E37A002B7FF4A0AED6
:2026C0002089E388A288618800902069FFF7FCF967E0A37E002B64D02278052A07D1079AC6
:2026E0002AB1314A126812B13049096811B9304A1168304A994254D91BB26DB103EB8301C1
:2027000002EB8101886804218140A94249D1AD0802D0B9F1000F0AD103EB830102EB810173
:2027200001208D68D1F80C9000FA05F5ADB203EB83039B00D6182089D258A1887368B768D8
:20274000B4F806E001EB5001608803FB02F47C4300EB5E00049434690394A1EB5301A0EB8F
:20276000520002978DE820029BB292B289B280B2FFF71AF915E0257BE37A6188A288206942
:20278000012D19441A4404D0A57AAB4201D95D1B00E0002564690294FF2401950094FFF773
:2027A0004BFC09B0BDE8F08F6804002070040020201F0108ACF8000810B588B004461C225C
:2027C000002101A806F0B8FD03238DF804300B4B05941C604FF4A073ADF80A304FF4F0735F
:2027E000ADF80C3001238DF8103000231A46194601A8FFF787FD08B010BD00BF6C04002036
:2028000000231A461946FFF77DBD0000184BF7B52022C3F88421174B17481B68174C184FE7
:202820006FF02001196217490E684FF49675D96989061BD51A62A6B90168B1F5967F10D2D7
:20284000D4F800E0998CC9B207F80E1021680131B1FBF5FE05FB1E11216001680131016009
:20286000E5E7998CC9B28DF80710E0E703B0F0BD00E100E0C4050020A4050020740400201E
:2028800078040020A8050020BFF34F8F0449054BCA6802F4E0621343CB60BFF34F8FFEE742
:2028A00000ED00E00400FA0570470000024B14201860FFF739B800BF980F002070B418B33C
:2028C000144C1549226847F22F539A422546134B134A09D81E6844F61F60864204D800200F
:2028E0000860206018600AE01C680C4844F61F639C424FF000030B602B60036002D813682C
:20290000462B04D04620106070BCFFF70DB870BC704700BF0C180020F80B0020400D00203F
:20292000980F002030B5002287B04FF400414FF0904002F0B7F9012300244FF400450293F8
:2029400001A903234FF0904004930195039402F0C5F8224629464FF0904002F0A3F9224649
:202960004FF40071024802F09DF907B030BD00BF0008004808B572B6FFF7D4FF00224FF40B
:202980008071024802F08EF9FFF77EFF0008004830B587B0012304468025029301A900232F
:2029A0000948019503930493059302F097F804F001022946044802F075F914B1034B19228A
:2029C0001A7007B030BD00BF00080048160D002040B1064B4FF47A701B68B3FBF0F0C00037
:2029E00001F09CBE024B1860704700BF0818002010E000E0014802F016BD00BF0C06002042
:202A000008B5194B5A6951072DD5042159614FF0904002F041F9154B78B1002201201A6018
:202A20009A601A6158605A61114A136843F480231360BDE80840FFF741BF5A689AB19A6899
:202A40001968D20605D541F28732914204D9FFF791FF40F6C312F8E700225A60044A136892
:202A600043F48023136008BD00040140AC050020181A002030B5ABB000240123402505A941
:202A80005C480693019405950794089402F026F822462946574802F005F9574B4FF47A724C
:202AA0001B68B3FBF2F30A22534340F6B832B3FBF2F30393039C631E0393002CFAD1202305
:202AC000059305A90B234B48069302F007F840F61C432146682210A8029306F02DFC21460C
:202AE00004F1804404F5043418220AA806F024FCD4F8883043F04053C4F88830E36C43F4A6
:202B00000053E364E36C03F400530493049B3B4B1093042315934FF480531E931C23012528
:202B2000209310A88023179518951A951B951F95219300F031FF014600284DD110A801F011
:202B40006CFD00284BD10E230A930D9006230E900F900AA910A80B950C9301F0C5F8002877
:202B600040D110A801F0A4FB00283ED142F2107110A801F029F810A801F00EFB83050CD52B
:202B800010A801F0ADF80190019A029B5343AB404FF6F072B3FBF2F3019310A801F01EFD0B
:202BA00010A801F035FCE36A124843F40053E362E36A23F40053E362E36C23F40053E364C9
:202BC000602305930323069305A900230793089301F084FF01980AE06FF0010007E06FF078
:202BE000020004E06FF0030001E06FF004002BB030BD00BF000800480818002000000450DE
:202C000070B58C4D2B6808332B608B4B187898B028B10138C0B2187008B9FFF7B9FE874B63
:202C20001B687BB1864B1A6808321A60854A19681268914206D384490A6842F400620A6027
:202C400000221A60814C6368002B5CD02368083323606369083363616369632B06D97A4AD8
:202C6000136843F48023136000236361A268774B12F0100F196840F2DC5222D0914209D930
:202C80009A68D20706D49A68714842F001029A60FEF7AEFF21686D4B40F6B832914209D9DD
:202CA0009A68960706D49A686A4842F002029A60FEF79EFF2168654B41F28832914222D931
:202CC00018E091420DD99A6850060AD4DA6862480132DA609A6842F040029A60D968FEF70E
:202CE00087FF2168594B40F6C41291420BD99A68D10608D49A68520705D49A6842F004023B
:202D00009A60FFF70FFE554A116891B15448036808330360E06860B142F21070834208D904
:202D2000012906D10223136003214E4A4E48FEF75FFF4E4A29681368994251D94C4B1B7882
:202D4000002B4DD0136801334AD06668002E47D1384B48491B68484D03F51C53103308A8C8
:202D6000136006F057FBFFF785FE0A234FF47A72B0FBF2F2B2FBF3F103FB112230328DF88B
:202D80002F202E228DF830206422B0FBF2F2B2FBF3F103FB11223032B0FBF3F08DF8312022
:202DA000B0FBF3F203FB1200303056238DF8320032498DF8333008A88DF8346006F00AFBBC
:202DC0000FCD01AC0FC495E8070084E8070008A806F096FB334682B208A901A8FFF792FAE0
:202DE000274B1A6808321A601A68264B9A4201D9FFF7C0FD244B1A6844F61F618A4207D879
:202E00001A6808321A601B688B4201D9FFF74EFD1E4B1A6847F22F518A4208D81A68083205
:202E20001A601B688B4202D90020FEF77DFD18B070BD00BF201A0020160D0020380D0020A8
:202E40001C1A0020440D0020181A0020AC0500209C250108AF250108BB250108141A0020AA
:202E6000000C002000180020D3250108FC0B002010180020FE250108382201080E260108B2
:202E8000F80B0020C0270900400D00200C1800202DE9F041B4B04FF48033079318230124D3
:202EA000022504274FF0030807260DEB0300129306940F95CDF84080119413961495159743
:202EC00002F092FD129A164BCDF808805343159AB3FBF2F3134A13600F23394601930DEB32
:202EE0000700002303930493059303F07BFA4FF4005316934FF080632D930C23179316A8C3
:202F00004FF480131B93189619951A9503F0A8FE16A81694209403F0A3FE34B0BDE8F081DF
:202F200000127A000818002030B5084D0B465C1AA24209DD13F8014B84EA102435F8144080
:202F400084EA002080B2F2E730BD00BF5C2301080A4601464FF6FF70FFF7E6BF70B586B063
:202F6000044601F071FC314B31494FF400421A61002302932F4B1B6813F4807F4FF6FF7242
:202F80000B8810D1934208D02B4A5802024002F10062944245D3022315E0284B9C4294BFFE
:202FA000012302230FE0934208D0234A5802024002F10062944236D3012304E01F4B9C429F
:202FC00094BF0223012303930B884FF6FF72934209D05A02184B134003F100639C4206D2A9
:202FE00004F1784304E0154B9C42F9D90133E31ADB0A049301A9012302A80593104D01F022
:2030000017FD05F50066B54207D22146F5E80223002001F079FC0834F5E701F027FC06B09B
:2030200070BD012200E002220392D2E700200240E075FF1F0000014000FE1F00FFFF0708AE
:20304000001000202DE9F0410E461546002A44D020F4FF6424F00704A0421CD0204BC4EB8E
:2030600000084FF4006218462146C8F5006706F0FFF8BFB2AF4228BF2F4631463A4610FA0E
:2030800088F006F0F5F82046FFF768FF3E44ED1BADB204F50064B5F5006F0DD931464FF413
:2030A00000620F4806F0E4F8204606F50066FFF755FFA5F50065EBE77DB121464FF4006269
:2030C000074806F0D5F82A463146054806F0D0F82046BDE8F041FFF741BFBDE8F08100BFE5
:2030E0000010002000B5ADF6040D00234FF40062694604480093FFF7A5FF0DF6040D5DF8DE
:2031000004FB00BF000800082DE9F04FADF6340D00254FF47F43ADF81E50ADF82050ADF8B1
:203120002230ADF81E50ADF82050ADF8223009958DF81D500A950B9505F0E6FAB24BDFF8A6
:20314000F8821D60B14D2E469DF81D00002105F0F9FBADF81E00F0B9AD4FFEF719F93B6838
:203160005A0306D53B68012023F480233B60FFF7A5FB3B68A64A5B05E6D5136823F4806345
:203180001360A44B1A6847F22F539A42DCD80120FFF794FBD8E70120FFF790FB0023ADF831
:2031A0002030BDF81E309BB213B946F682146FE12B78E02B40F05E816B78DBB2042B42D013
:2031C0000CD8012B55D071D3022B40F05F819DF81D3043F080038DF81D3054E0412B55D00A
:2031E000FF2B5DD0402B40F051818B4B4FF0FF321A6095F805E0A87995F807C0297A95F834
:203200000990AA7A95F80BB095F80CA06B7BBDF81E40DBB2A4B29F000E3CE41BE400049430
:20322000042402940E377D4C2F448DE8180003974AEA0B2342EA092241EA0C2140EA0E20BF
:20324000FEF7B2FB1FE06879A979EB792A7A41EA002142EA032343EA0143434502D14EF614
:203260001163CDE04FF47F43ADF8223046F684240EE10723ADF82030694B1A682A609A885D
:203280009B79AA80AB714FF4104401E1BDF81E20644992B2053AD2000420FEF7E9FBF7E092
:2032A000BDF81E309BB2ADF82030ECE72B79ADF81E30BDF822309BB2B3F57F4F00F0DD8048
:2032C0006B79053B092B00F2E18001A252F823F0F93200081D330008873200086333000859
:2032E000A53300083D3400088D3400088D3400088D3400085F340008BDF81E309BB2052BFF
:2033000040F0C180B079F179337A727A41EA002142EA032343EA01430993B4E7BDF81E30C7
:203320009BB2032B40F2AF80B479F379099A43EA04239C183C4B9C4240F2A28004213B480C
:20334000FFF706FE3A4B1B88834201D1FFF7CAFEBDF81E203749033A92B22046FFF772FE36
:2033600091E7BDF81E309BB2092B40F08C80B779F3790998317A747A96F80AE0F27A43EA2E
:20338000072342EA0E2244EA012142EA01411844FFF7DEFD327B737B43EA022398427FF482
:2033A00004AF70E7BDF81E309BB2052B6BD14FF4006200210CA805F0BFFFB079F179337ADA
:2033C000727A41EA002142EA032343EA01430DA804210D93FFF7BCFD4FF40062ADF830004F
:2033E0000CA91348FFF72EFE9DF81D3043F080038DF81D304FF0FF330A930B934FF47F4380
:20340000ADF822303FE700BF04180020120C0020181A00200C180020FC0B0020200C00204D
:2034200054230108170C0020A027010804080008000800081A0C002001000004BDF81E3087
:203440009BB2052B1FD1B079F179337A727A41EA002142EA032343EA0143002098470421A0
:203460001F48FFF775FD1F4B1B8883420ED1FFF739FE0BE04FF4DC440AE046F6851407E0AB
:2034800046F6841404E04FF4CE4401E04FF4DA44BDF820309BB2C4F30722EA54BDF8203068
:2034A0009BB20133E2B2EA54BDF8203002339BB2B4F5104FADF8203007D04FF0FF330A9350
:2034C0000B934FF47F43ADF822309DF81D00BDF8201040F0200089B205F034FA34E600BF34
:2034E000040800080008000838B50C4C054604212046FFF72DFD34F8042C8242A4F10403B1
:203500000BD172B65B682846984772B6044B00221A60FFF7E7FDFFF7B7F938BD04080008FB
:20352000041800207047000010B5084C00231A4619462046FEF7E6FE04F1200000230C22F8
:203540000349BDE81040FEF7DDBE00BF5C250108102601082DE9F041114C0746884604F55A
:203560008076E569A5B1012D03D0022D06D1414600E039460B480B4D05F04CFF284605F076
:20358000BFFF002382B229462046FEF7BBFE02E02046FFF735F92034B442E2D1BDE8F08114
:2035A00054220108170D00202DE9F043B14DB24A2B68B24E43F001032B60B14B00241A6016
:2035C000AC602B6823F0A85323F410232B604FF40063EB602B6823F480232B60A94BAC619F
:2035E0008FB0B460746034601C60F46062B6AB6D43F08053AB65AB6D03F080530093009BEE
:203600002B6E43F001032B662B6E03F0010301934FF40070019B02F067F9EB6C43F00103F6
:20362000EB64EB6C0B9403F0010301274FF003084FF40049029309A94FF09040029BCDF898
:2036400024900A97CDF8308001F048FA224649464FF0904001F026FBEB6C8B4843F00403F1
:20366000EB64EB6C0B9403F004030393039B0C944FF4407309A909930A9701F02FFA3A46B8
:203680004FF48071804801F00DFB22464FF400717D4801F007FBFFF7FBFB40F2FF3309A95F
:2036A0004FF0904009930B940C94CDF8288001F015FAEB6C754843F00203EB64EB6C0B9422
:2036C00003F002034FF6FF79049309A9049B0C94CDF82490CDF8288001F000FAEB6C6A48D3
:2036E00043F00403EB64EB6C0B9403F004030593059B0C944FF6FF4309A90993CDF8288037
:2037000001F0ECF9EB6C624843F00803EB64EB6C0B9403F00803069309A9069B0C94CDF800
:203720002490CDF8288001F0D9F9EB6C594843F08003EB64EB6C0B9403F08003079309A9F0
:20374000079B0C94CDF82490CDF8288001F0C6F922464146432000F0A1FF224641466FF061
:20376000010000F09BFF22460221282000F096FF22460221172000F091FF22460221092070
:2037800000F08CFF22460221082000F087FF224639464FF0FF3000F081FF224621462520AC
:2037A00000F07CFF0423099309A93B4B0A934FF090400B940C9401F091F93A464FF4007109
:2037C000314801F06FFA082000F09CFF334B1C60334B1C60334B1C60334B1C60334B1C6081
:2037E000334B1C60334B38461C60FFF7F1F82046FDF7F2FD102337613460B360344677606C
:2038000004214FF0904001F047FA60B3B368590729D42368632BF3D9A36813F00807EFD1F5
:20382000FFF782FEFEF77CF8AB6D43F00103AB65AB6D03F0010308934620089BFEF774F836
:203840004FF40043099302230A930C9309A901234FF090400D930B9701F040F9A36843F056
:203860000803A360CCE7B268044B120724D4FFF781F800BF0010024000093D00AC05002076
:2038800008180020480D00200008004800040048000C0048001C0048000031101C1A002088
:2038A000380D0020FC0B0020040C0020F80B00200C180020400D002000225A601A6172B6F9
:2038C00019681A4D40F6B732914209D89A6812F0020205D12A709A6062B61868FFF704FE2B
:2038E00072B662B6124B012000241C60FDF774FDFEF7DAFF01234FF4FA702B7000F040F8A3
:203900000C490D48FFF726FE22460C490C4805F01FF80C490A4805F031F80B49084805F068
:20392000D1FB074805F031F8FFF7EEFB10180020141A00201D2601082D26010824270108DD
:20394000D40900204427010894270108FEE7704710B5044602F0D0FF4FF47A73B0FBF3F008
:2039600000F0DCFE002221464FF0FF3000F096FE002010BD014B1868704700BF201A002079
:2039800038B50446FFF7F6FF0546FFF7F3FF401BA042FAD338BD7047F8B50446002800F00D
:2039A000D980856D25B9FFF7F6FFE56584F85450226893689B0042BF936823F00053936014
:2039C0009368DF0005D4936843F080539360774B1B689368DE005FBFA36D43F01003A365A6
:2039E000E36D5CBF43F00103E365A36D54BF01200020DD0600F1AA809368590700F1A68009
:203A0000A36D43F00203A365936803F00303012B02D11368DB071AD46549664D8A4240F0BB
:203A2000A380AB6803F00303012B40F095802968CF0740F1918083F0010303F0010333B1EB
:203A40005D4DAB6823F47C1163680B43AB604FF4005797FAA7F7B7FA87F74FF480365FFA97
:203A600087FE96FAA6F6B6FA86F64FF46021F6B291FAA1F1B1FA81F1E368A76BCDB2616A1C
:203A80001F43A36801FA06F6A16A3B43E7690139A94007FA0EF7E56A3B433343012D43EA22
:203AA000010303D0216B09B129430B43D568434929400B43D360936813F00C0F31D14FF41E
:203AC000804393FAA3F3B3FA83F30225DBB295FAA5F5B5FA85F5A669D16806FA03F3666BC8
:203AE000EDB206FA05F51D4321F4804323F002032B43D360E36B012B0FD1256C636C116908
:203B00002B43A56C43F001032B43E56C1D4321F4FF6323F005032B4302E0136923F001035B
:203B200013612369012B08BF216A136B03BF01F1FF3123F00F030B4323F00F031363A36D87
:203B400023F0030343F00103A365F8BDA36D43F01003A3650120F8BD19498B6803F00303D6
:203B6000012B20D10B681BE08B68AA4203F0030309D1012B03D10968CE073FF55CAF10492A
:203B80008B6803F00303012B03D10968C9073FF552AFAB6803F00303012B04D1054B1B68E3
:203BA00003F0010347E7002345E700BF0818002000000450000104500003045007C0F0FFDC
:203BC0000002045070470000F8B54569082D04460E4622D002683F4B9A4203D003F580732A
:203BE0009A426ED13C4B9968C9066AD0996801F01F01052965D0996801F01F01092960D030
:203C00009A6802F44042B2F5004F5DD09B6803F44043B3F5404F57D00425FFF7ABFE074617
:203C200023681A6815420ED1721CFAD02EB9A36D43F00403A3650320F8BDFFF79BFEC01B6E
:203C40008642EDD2F3E7234E1968B34201F0080112D0224A93420FD0D2F80801C70602F589
:203C6000807209D0906800F01F00052804D0926802F01F02092A01D1DA6800E0F268082DAE
:203C800001D11D6003E050045CBF04201860A06D40F40070A06509B90020F8BDDB6813F450
:203CA000406FF9D19204F7D4A36D23F48073A365A06D10F48050EFD1A36D43F00103A36518
:203CC000F8BDD368DB07A7D5A36D43F02003A3650120F8BD00000450000304500002045051
:203CE0000368186C70470000F7B50023019390F85430012B00F06F810268936801245E07B4
:203D000080F8544000F15E814E680C68042E4FF4F86318D8D2F830E093FAA3F7B7FA87F7AD
:203D2000FFB293FAA3F5B5FA85F51F23EDB2774303FA07F706FB05F32EEA070704FA03F3DB
:203D40003B4313634DE0092E18D8576B93FAA3F5B5FA85F5EDB2053E93FAA3F3B3FA83F3E3
:203D60004FF01F0E7543DBB20EFA05F55E4327EA050704FA06F63E43566332E00E2E18D860
:203D8000976B93FAA3F5B5FA85F5EDB20A3E93FAA3F3B3FA83F34FF01F0E7543DBB20EFAED
:203DA00005F55E4327EA050704FA06F63E43966317E0D76B93FAA3F5B5FA85F5EDB20F3E64
:203DC00093FAA3F3B3FA83F34FF01F0E7543DBB20EFA05F55E4327EA050704FA06F63E43B1
:203DE000D663936813F00C0F40F0CE80092C4FF038038F681CD9D2F818C093FAA3FEBEFAD0
:203E00008EFE5FFA8EFEA4F10A0593FAA3F6B6FA86F6072305FB0EFEF6B203FA0EFE6E43A3
:203E20002CEA0E0C07FA06F54CEA0505956116E0556993FAA3F6B6FA86F6F6B293FAA3F34F
:203E4000B3FA83F34FF0070EDBB266430EFA06F6634325EA060607FA03F535435561D3688E
:203E60000D694E69C3F3C1035B00013D9E404FF0F843032D42D8DFE805F002122232176EB7
:203E800093FAA3F5B5FA85F5B14B3B40EDB243F000431E4304FA05F52E43166674E0576EE9
:203EA00093FAA3F5B5FA85F5A94B3B40EDB243F00043334304FA05F52B43536664E0976E52
:203EC00093FAA3F5B5FA85F5A14B3B40EDB243F00043334304FA05F52B43936654E0D76ECA
:203EE00093FAA3F3B3FA83F3994D3D40DBB245F000452E4304FA03F3334344E0156E93FA03
:203F0000A3F3B3FA83F3DBB204FA03F305F0F8459D4202BF136E23F000431366556E4FF043
:203F2000F84393FAA3F3B3FA83F3DBB204FA03F305F0F8459D4202BF536E23F000435366DD
:203F4000956E4FF0F84393FAA3F3B3FA83F3DBB204FA03F305F0F8459D4202BF936E23F037
:203F600000439366D56E4FF0F84393FAA3F3B3FA83F3DBB205F0F84504FA03F39D4203D19C
:203F8000D36E23F00043D366936803F00303012B02D11368DD0713D4CB68B3F1804F4FF033
:203FA00001031AD0D2F8B010A34021EA0303C2F8B030112C51D1674B9B6813F4000F5AD0A7
:203FC000002403E0836D43F020038365002380F854302046D9E00220D7E0D2F8B0508E68D5
:203FE000A3402B43082CC2F8B0304FF038031AD9D2F818E093FAA3F7B7FA87F7FFB2A4F1D7
:20400000090193FAA3F5B5FA85F507234F43EDB203FA07F74D432EEA070E06FA05F14EEA07
:2040200001019161C5E7516993FAA3F5B5FA85F5EDB2671C93FAA3F3B3FA83F34FF0070E1C
:204040007D43DBB20EFA05F521EA050507FB03F106FA01F129435161ABE7122C04D13D4BC9
:204060009B6813F0807FAAE7002CA9D1394B9B6813F4800FA3E7936803F00303012B02D16A
:204080001368D9070BD4344B34499A4217D18B6803F00303012B08D10B68DB0705D5836D16
:2040A00043F020038365012490E72D498B6803F00303012B3DD10B68DF07F0D439E09D684F
:2040C0008A4205F003050CD1012D02D11B68DE07E5D4234DAB6803F00303012B06D12B6806
:2040E00002E0012D02D11B68DD07D8D48B6803F00303012B03D1194B1B68DB07CFD4112C35
:204100001AD1174B9A427FF45BAF124A936843F400039360134B144A1B68B3FBF2F2782309
:2041200053430193019B002B3FF44AAF019B013BF7E7112C1AD1E8E7122C19D1084B9A425E
:204140007FF43EAF034A936843F08073936037E700F0FF030003045000000450000104508E
:20416000000204500818002040420F00122CE9D0002C7FF425AF064B9A427FF421AF054AEF
:20418000936843F48003936020E703B0F0BD00BF0000045000030450806D704703689A6895
:2041A00012F00C0F70B5044601D1002070BDDA68900110D5E269012A0DD1A269012A0AD137
:2041C000214A1968490602D4013AFAD131E040221A600C2101E060290BD09A68560706D52F
:2041E0009A6895075EBF9A6842F010029A600C2910D09A68100706D59A6892075EBF9A6801
:2042000042F020029A60602902D06C2904D001E0082502E0042500E00C25FFF7ABFB06467A
:2042200023689B681D42C0D0FFF7A4FB801B0528F6D9A36D43F01003A365E36D43F00103F0
:20424000E365012070BD00BF01340A0038B503689A6802F00302012A044604D11A68D107D5
:2042600001D5002038BD9968104A0A409AB99A6842F001029A60FFF77DFB054623681A6864
:20428000D207EED49A6842F001029A60FFF772FB401B0228F2D9A36D43F01003A365E36DF1
:2042A00043F00103E365012038BD00BF3F00008038B503689B6813F0040504466AD190F877
:2042C0005430012B66D0012380F85430FFF7BEFF00285CD1A36D304A13F480531CBFE36D41
:2042E00023F00603E365A36D23F4706323F0010343F48073A3652368934208D002F5007276
:20430000934204D002F580729268D00603D1A26D22F48012A26520481C2283421A6012D0E2
:204320001E4A93420FD0D2F80811C90602F5807209D0916801F01F01052904D0926802F0F5
:204340001F02092A10D1DA68920141BFA26D22F4405242F48052A2659A68002042F0040233
:2043600084F854009A6038BDA36D43F48013A365C3689B0142BFA36D23F4405343F4805310
:204380004FF0000048BFA36584F8540038BD84F8545038BD022038BD000004500002045034
:2043A00038B503680446986800F00300012801D0002038BD1A68D207FAD59A6802F00D022C
:2043C000012A09D19A6842F002029A6003221A60FFF7D0FA054608E0A36D43F01003A365B6
:2043E000E36D43F00103E36538BD23689B68DB07DED5FFF7BFFA401B0228F6D9A36D43F090
:204400001003A365E36D43F00103E365012038BD10B50446002800F0A680836D43F0020327
:204420006C218365FFF7BAFE2268D36843F40013D3602046FFF7B4FF23685A6822F4FF6244
:2044400022F007025A6040F2FF721A609A6822F0A0429A609A6842F000529A60D968564A19
:204460000A40DA60DA6842F00042DA601A6922F4FF6222F007021A615A6902F040425A6146
:204480009A6902F078429A611A6A02F0F0221A625A6A02F0FF225A629A6A02F0FF229A62C8
:2044A000196B464A0A401A63596B454A0A405A63996B434A0A409A63DA6B22F4FB6222F025
:2044C0000702DA63196E3F4A0A401A66596E3D4A0A405A66996E3B4A0A409A66D96E394AC4
:2044E0000A40DA66D3F8A020D20CD204C3F8A020D3F8A420D20CD204C3F8A420D3F8B0201B
:20450000D20CD204C3F8B020D3F8B42022F07F12C3F8B4209A6802F00302012A02D11A6812
:20452000D10715D4284A2949934226D18B6803F00303012B19D10A68D20716D583F001035B
:2045400003F0010323B1224A224B91680B4093602046FFF737FB0020E06520666066A0653C
:2045600084F8540010BD012010BD1B4A936803F00303012B1ED1136819E08B42936803F00D
:20458000030308D1012B02D11268D007D6D4124A936803F00303012B02D11268D207CDD4FF
:2045A0008B6803F00303012B04D1084B1B6803F00103C3E70023C1E704800080300882E02E
:2045C000200882E000F0FF03000004500001045000030450E01000FE0002045090F854300F
:2045E000012B10B5044616D0012380F854306C21FFF7D4FD58B92046FFF7D2FE38B9A36DE8
:2046000023F4885323F0010343F00103A365002384F8543010BD022010BD90F85430012B3B
:2046200070B504460D4637D0012680F85460FFF7B7FEA36D40BB23F4885323F0020343F06B
:204640000203A3652368996821F080410D439D609A6842F000429A604FF47A429968002909
:204660000BDA013AFAD1A36D84F8542023F0120343F01003A365012070BDA36D23F0030362
:2046800043F00103A36503E043F01003A3653046002384F8543070BD022070BD174BDB68F0
:2046A000C3F3022330B5C3F107041D1D042C28BF0424062D4FF0010505FA04F404F1FF346B
:2046C0008CBF033B00230C409C4005FA03F3013B1A40002842EA04024FEA0212AFBF00F175
:2046E000604000F00F00064BD2B2A5BF00F56140D2B21A5480F8002330BD00BF00ED00E046
:2047000014ED00E04209012300F01F0003FA00F0014B43F82200704700E100E0B0F1807F8C
:204720000BD2074B074A0138F021586082F823100020072298601A6070470120704700BF41
:2047400010E000E000ED00E0324B1A69920741BF31494A6842F001024A601B691B0741BF72
:204760002D4A536843F0020353602A4B1A69D00641BF29494A6842F004024A601B69990625
:2047800041BF254A536843F008035360214B1A69520641BF20494A6842F010024A601B692A
:2047A0001B0641BF1C4A536843F020035360194B1A69D00541BF18494A6842F040024A60C1
:2047C0001B69990541BF144A536843F080035360104B1A69520441BF0F494A6842F48072CF
:2047E0004A601B691B0441BF0B4A536843F400735360084B9A69002ABFBF07494A6842F4C9
:2048000080624A609A6942F000429A614CF2FA321A61704700200240241A0020094A53692F
:2048200043F4802330B5536172B601F58073401AD1E900450A1808319942C2E90045F7D1AD
:2048400062B630BD00200240064B5A69002ABFBF054A9A6002F188320020B4BF9A60012091
:20486000704700BF0020024023016745034A536943F0004353610020704700BF0020024065
:2048800070B50446FFF776F81E4D06192A691D4BD00307D5631CF9D0FFF76CF88642F5D8DA
:2048A000032070BD1A6991071FD41A6912071CD41A69D60619D41A69950616D41A695406DD
:2048C00013D41A69100610D41A69D1050DD41A6992050AD41B695B0407D40A4A106910F4B3
:2048E000004002D19369002B03DAFFF72DFF012070BD136913F0010302D00123136170BD17
:20490000184670BD002002402DE9F8431B4D99462B78012B06460F4690462CD001244CF26D
:2049200050302C70FFF7ACFF08BB686046B9144A506920435061C7F80080C7F804900CE087
:20494000731E012B01D9002407E041463846FFF765FF022EF7D14FF480244CF25030FFF7C3
:204960008FFF24B1064A536923EA0404546100232B70BDE8F8830220BDE8F883241A002080
:2049800000200240094B10F0010F1EBF5A6942F004025A61820742BF5A6942F400425A613E
:2049A0005A6942F480325A61704700BF002002400C4B5A6911F0010F14BF22F4006242F40D
:2049C00000625A615A6922F4FF6242EAC00058615A6942F002025A615A6942F480325A61C1
:2049E000704700BF00200240104B1A6891050BD51A6822F400721A601A6842F400621A6074
:204A00001A6842F400721A60084B1A6852050BD51A6822F480621A601A6842F480521A60EE
:204A20001A6842F480621A60704700BF002002402DE9F843274D2B78012B0646884646D0C6
:204A400001234CF250302B70FFF71AFF0446002838D133686860012B0FD17068FFF792FF81
:204A60004CF25030FFF70CFF1B4A536923F4004323F004030446536122E04FF0FF33C8F8B1
:204A80000030B768DFF85090B268F36813449F4216D271683846FFF78BFF4CF25030FFF7F0
:204AA000EFFED9F8143023F4FF6323F00203C9F8143018B1C8F80070044601E00137E3E738
:204AC000FFF792FF00232B702046BDE8F8830220BDE8F883241A0020002002402DE9F04FB4
:204AE000D1F800B0DFF8AC81684C85B000233BFA03F200F0C78001269E401BEA060E00F0BE
:204B0000BF804A6822F01009B9F1020F14D14FEAD30C00EB8C0C03F0070ADCF820704FEA9D
:204B20008A0A0F2505FA0AF527EA05070D6905FA0AF53D43CCF820504FEA430C032507684B
:204B400005FA0CF5ED4302F0030A019509F1FF393D400AFA0CF73D43B9F1010F056013D850
:204B60008768019D05EA0709CF6807FA0CF747EA090787604768C2F3001927EA060709FAA8
:204B800003F949EA07074760BAF1030F07D1C76A27EA0606C2F3C0079F403E43C662C6681C
:204BA000019D35408E6806FA0CF63543C560D50066D5D8F8605045F00105C8F86050D8F842
:204BC000605023F0030707F1804705F0010507F58037039503F0030C039DBE684FEA8C0C6A
:204BE0000F2505FA0CF5B0F1904F26EA050619D0274DA84218D005F58065A84216D005F50E
:204C00008065A84214D005F58065A84212D005F58065A84210D005F58065A84214BF0725C5
:204C200006250AE0002508E0012506E0022504E0032502E0042500E0052505FA0CF5354386
:204C4000BD60124D2D686FEA0E06D70354BF35404EEA050525606568970354BF35404EEA86
:204C600005056560A568D70254BF35404EEA0505A560E568920254BF35404EEA0505E560C0
:204C8000013334E705B0BDE8F08F00BF0004014000040048001002400369194214BF01208F
:204CA000002070470AB18161704781627047000030B50568064C6868044003982043034333
:204CC000C1F309010B4343EA02426A6030BD00BF009800FC70B504460D46FEF74BFE2368C2
:204CE0000646986910F0100038D094F83520122A07D094F83520522A03D094F83520622ABE
:204D000012D15A6890010FD45A6842F480425A600AE09A69920611D4691CFAD035B1FEF772
:204D200029FE801B854201D32368F2E7012384F83530002384F83430032070BD1022DA61ED
:204D40002022DA615968064A0A405A600423A3630120002384F8350084F8343070BD00BFD3
:204D600000E800FE2DE9F04104460E4690461D46FEF700FE0746B8F1000F29D122689369B7
:204D8000DB43C3F31003334210D0691CF7D08DB1FEF7F0FDC01B8542F0D20BE06B1C08D1BC
:204DA0009369DB43C3F310033342F7D00020BDE8F08145B9012384F83530002384F8343098
:204DC0000320BDE8F081FEF7D5FDC01B8542F1D32268E5E770B504460D46FEF7CBFD06464C
:204DE00023689B699B0617D429462046FFF772FFA0B95DB9A36B43F02003A363012384F8E3
:204E00003530002384F83430032070BDFEF7B2FD801B8542E4D2EDE7002070BD012070BDAF
:204E2000704710B50446002844D090F8353003F0FF021BB980F83420FFF7F2FF022384F867
:204E400035302368E1681A6822F001021A60626822F070621A619A6822F400429A60A26881
:204E600042B1012903D142F400429A6007E042F404429A60022904BF4FF400625A605A6863
:204E8000216942F0007242F400425A6062690A43A16942EA0122DA60E169226A0A431A606A
:204EA0001A6842F001021A6000200123A06384F8353010BD012010BD2DE9F341174690F8AF
:204EC0003520D2B2012A044688461D466DD10FB901206BE0002BFBD003689B6913F4004332
:204EE00063D190F83460012E5FD080F83420222280F83520FF2D83634FF41053009307D9FC
:204F00004FF08073FF22FFF7D3FEFF26013F21E04FF00073EAB2FFF7CBFE2E46F6E7236828
:204F2000013D5B6A07F8013F013EADB224D12DB3089B324680212046FFF714FF30BBFF2D7A
:204F4000009610D94FF08073FF2241462046FFF7AFFEFF26089B002204212046FFF702FF83
:204F60000028DCD012E04FF00073EAB241462046FFF79EFE2E46EDE7002DEBD119212046CD
:204F8000FFF728FF20B1A36B042BA1D003200DE023682022DA615968064A0A405A60012324
:204FA00084F8353084F8340000E0022002B0BDE8F08100BF00E800FE90F83530DBB2022B4A
:204FC00002462DD090F83530122B2BD090F83530222B27D090F83530322B23D090F835300C
:204FE000422B4FF002001ED092F83430012B1AD0136882F83500186820F00100186018685E
:2050000020F480501860186801431960196841F001011960012382F83530002382F83430C6
:205020001846704702207047F0B504468BB000287DD090F8813303F0FF021BB980F88023C4
:2050400003F05CF92546032355F8100B84F8813302F028FD0FCD6E460FC60FCD0FC695E835
:20506000030086E80300271D97E80E00206802F0EBFC0021206802F01BFD0022666804F1F2
:20508000390304F1100501201146B24203F11C030FD003F81D2C23F8172C03F81C0C03F8AC
:2050A0001A1C43F8151C43F8111C43F8091C0132EBE7002223461146B24203F11C0314D0B4
:2050C00083F8C02183F8C11183F8C311C3F8CC1120685A8402F1400E00EB8E00C3F8C8118C
:2050E000C3F8D41101324160E6E70FCD6E460FC60FCD0FC695E8030086E8030097E80E00DB
:20510000206802F0EBFC012384F88133636A012B02D1204600F0C3FBA36A012B02D1204688
:2051200000F0D0FB206803F06CF8002000E001200BB0F0BD90F88033012B10B504460CD0FA
:20514000012380F88033006803F04FF8206802F0A3FC002084F8800310BD022010BD90F8E2
:205160008033012B10B5044609D0012380F88033006803F02AF8002084F8800310BD02208E
:2051800010BD70B54EB2002E04464FF01C0501F07F00B5BF05FB004105FB0141383101F57F
:2051A000EE71C0B2002EB8BFC880022BCB704FEAD67504BF00230B7108704D7094F880336F
:2051C0008A60012B09D0012384F88033206802F044FD002084F8800370BD022070BD4BB23A
:2051E000002B10B54FF01C02044601F07F00B5BF02FB004102FB0141383101F5EE71DB0F0F
:2052000008704B7094F88033012B09D0012384F88033206802F062FD002084F8800310BDFF
:20522000022010BD10B501F07F0104461C2000FB0140C0F8F0310023C0F8E821C0F8F431ED
:2052400080F8DD3180F8DC112369012B08BFC0F8EC2194F88023012A16D01C2202FB014261
:20526000012002F5EE7284F88003DBB221B92168204602F087FE03E02168204602F066FDC3
:20528000002084F8800310BD022010BD10B501F07F0104461C2000FB0140C3640023036589
:2052A0000123426480F8393080F838102369012B08BF826494F88023012A15D01C2202FBA4
:2052C00001420120383284F88003DBB221B92168204602F057FE03E02168204602F036FD6D
:2052E000002084F8800310BD022010BD38B54BB2002B01F07F054FF01C02B5BF02FB050175
:2053000002FB0101383101F5EE710122DB0FEDB28A700D704B7090F88033934204460FD0B9
:2053200080F88023006802F000FF2DB904F56172217C206802F0BEFF002084F8800338BD5F
:20534000022038BD38B54BB2002B05464FF01C0201F07F00B5BF02FB005102FB015138318F
:2053600001F5EE71DB0F00248C7008704B7095F88033012B09D0012385F88033286802F080
:2053800006FF85F88043204638BD022038BD2DE9F3471C2404FB01040768266DE36C9B1BBB
:2053A000266C07F5106A9E4228BF1E46814688460AEB411AF51C042395FBF3F5DAF818300B
:2053C0009BB29D420BD9002E29DCD7F83428012303FA08F822EA0803C7F834381FE0226D6E
:2053E000E36C9A42EFD2002BEDD0266C9B1A9E4228BF1E46F51C042395FBF3F599F81030E6
:2054000000935FFA88F2B3B2616C384602F06AFE636C33446364236D33442365CEE70020AB
:2054200002B0BDE8F0872DE9F74F06680446304602F021FF002840F00A82206802F0EDFEB9
:20544000002800F00482206802F0E7FE800748BF2268206842BF536903F00203536102F054
:20546000DCFE10F400205BD0206802F0DAFE06F530698046A3464F460025B8F1000F50D0DC
:2054800018F0010F45D0EAB211462068019202F0D8FE10F0010F82462ED00123BB60D9F823
:2054A0000810090420D42169019A99420CD13969DBF8E401C1F31201411ACBF8F411DBF8DF
:2054C000E8110844CBF8E8011146204602F06CFF2169012908D13DB9D4F8F02122B904F58D
:2054E0006172206802F0E6FED9F8082042F4004242F02002C9F808201AF0080F04D0204672
:2055000002F03EFF0823BB601AF0100F1CBF1023BB6001354FEA580820370BF11C0BACE7E8
:205520000546206802F079FE42035CD5206802F080FE06F510678146A2460025B9F1000FC2
:2055400051D019F0010F47D05FFA85FB5946206802F081FE10F0010F804622D00120D6F8D2
:20556000341800FA05FC21EA0C01C6F834182169B860814201BFDAF84400DAF84010091844
:20558000CAF844102046594602F038FF2169012907D135B9E26C22B904F56172206802F0DE
:2055A00089FE18F0080F1CBF0822BA6018F0100F1CBF1023BB6018F0400F1CBF4023BB6026
:2055C00018F0020F1CBF0223BB6018F0800F03D029462046FFF7DBFE01354FEA5909203761
:2055E0000AF11C0AAAE7206802F017FE002818DAD6F8043823F00103C6F8043894F8B433C2
:20560000012B06D1002184F8B413204603F04AF802E0204602F06AFF2268536903F0004369
:205620005361206802F0F9FD03050BD5D6F80838DF0702D5204602F035FF2268536903F4CA
:2056400000635361206802F0E8FD000116D523685A6902F000625A6194F8B4235AB95B6D4D
:205660000121C3F3830384F8B413C4F8B833204603F018F802E0204602F014FF206802F0B2
:20568000CCFDC10443D506F500677B68206823F001037B60002102F0B7FA606806F51063AB
:2056A0000022FF21824205D099600132C3F808122033F7E74FF0FF33BB61FB6943F00113A5
:2056C000FB61236B53B1D7F8843043F00B03C7F884307B6C43F00B037B6407E07B6943F0A0
:2056E0000B037B613B6943F00B033B61D6F80038217C206823F4FE63C6F8003804F56172DA
:2057000002F0D8FD2268536903F480535361206802F083FD820417D5206802F0B0FD2368E0
:20572000DA6822F47052DA600322E26040226261DA6842F4A052DA60204602F09BFE22686A
:20574000536903F400535361206802F066FDC30637D52268936923F010039361376AC7F3E2
:205760004343022B07F00F0814D147F6F0733B4013B31C2303FB0848C7F30A173A46D8F8EA
:20578000E811304602F0C1FCD8F8E8313B44C8F8E8310CE0062B0FD1082204F56171304642
:2057A00002F0B3FC1C2303FB0848C7F30A17D8F8F4311F44C8F8F4712268936943F0100397
:2057C0009361206802F029FD070707D5204602F03FFE2268536903F008035361206802F044
:2057E0001CFDC60208D5E9B2204602F0B1FE2268536903F480135361206802F00EFD8002BE
:2058000008D5E9B2204602F099FE2268536903F400135361206802F000FD410007D5204623
:2058200002F0A0FE2268536903F080435361206802F0F3FC42070AD523685D686B0702D5FE
:20584000204602F093FE226853682B43536003B0BDE8F08F70B50468606A19B940EA024386
:20586000A36216E0A36A002500EB13434E1EE8B2B04205F1010506DA403004EB800040685F
:2058800003EB1043F3E73F3104EB810443EA02436360002070BD0368002059627047026820
:2058A00003460121C0F8BC13002083F8B403936943F000639361536D43F0805343F003031F
:2058C0005365704702680123C0F8C033936B43F40033936300207047024B186800F4C0600A
:2058E000704700BF00700040174B1A68B0F5007F02F4C0621AD1B2F5007F20D01A68134983
:2059000022F4C06242F400721A60114A1268B2FBF1F132224A4322B15969490501D5013AF4
:20592000F9E7094B5B695B050BD408E0B2F5806F1FBF1A6822F4C06242F480621A60002068
:2059400070470320704700BF0070004040420F00401A0020024A536843F4806353607047B1
:205960000070004037B51E4DAB6DD900044602D5FFF7B2FF0EE0AB6D43F08053AB65AB6D33
:2059800003F080530193019BFFF7A6FFAB6D23F08053AB65B0F5007F06D1802C0CD9A02C10
:2059A0008CBF022301230CE0802C07D808D0A4F170025342534104E0002302E0032300E0E5
:2059C000022308490A6822F007021A430A60086800F00700C01A18BF012003B030BD00BF65
:2059E000001002400020024003682DE9F743DC06054640F1ED80B74CA36813F00C0F68D108
:205A0000022393FAA3F2B2FA82F2C2F3421242F00102012A01D1226810E093FAA3F2B2FA9C
:205A200082F293FAA3F3B3FA83F3C3F3421343F00103032B0CBFD4F89420E269022393FAF4
:205A4000A3F3B3FA83F303F01F0322FA03F3D80704D5AB6913B9012000F0BEBC22689D4BD1
:205A6000286A110756BFD3F894301B681B0903F0F003834215D2FFF775FF0028EBD12368C6
:205A800043F008032360236823F0F0022B6A134323606368EA6923F47F4343EA022363603B
:205AA00013E0236843F008032360236823F0F003034323606368EA6923F47F4343EA022304
:205AC0006360FFF74FFF0028C5D10120FDF740FF7EE08369002B47D0236843F001032360DC
:205AE000FDF748FF0226074696FAA6F3B3FA83F3C3F3421343F00103012B01D1236810E0EF
:205B000096FAA6F3B3FA83F396FAA6F3B3FA83F3C3F3421343F00103032B0CBFD4F8943022
:205B2000E36996FAA6F2B2FA82F202F01F02D340DA0707D4FDF71EFFC01B6428D4D90320A7
:205B400000F04ABC236843F008032360236823F0F0022B6A134323606368EA6923F47F430E
:205B600043EA0223636033E0236823F001032360FDF700FF0226074696FAA6F3B3FA83F324
:205B8000C3F3421343F00103012B01D1236810E096FAA6F3B3FA83F396FAA6F3B3FA83F3B2
:205BA000C3F3421343F00103032B0CBFD4F89430E36996FAA6F2B2FA82F202F01F02D34060
:205BC000DB0705D5FDF7D6FEC01B6428D4D9B6E72B68DC0704D42B68980700F10281BCE1FF
:205BE0003C4CA36803F00C03082B09D0A36803F00C030C2B33D1E36803F00303032B2ED14B
:205C00004FF4003393FAA3F2B2FA82F2C2F3421242F00102012A01D1226810E093FAA3F2F5
:205C2000B2FA82F293FAA3F3B3FA83F3C3F3421343F00103032B0CBFD4F89420E2694FF4B5
:205C4000003393FAA3F3B3FA83F303F01F0322FA03F3D907BFD56B68002BBCD1FBE6236839
:205C600023F480332360236823F480232360FDF781FE4FF40036074641F2883896FAA6F3BA
:205C8000B3FA83F3C3F3421343F00103012B01D1236810E096FAA6F3B3FA83F396FAA6F3B1
:205CA000B3FA83F3C3F3421343F00103032B0CBFD4F89430E36996FAA6F2B2FA82F202F070
:205CC0001F02D340DA0707D5FDF754FEC01B4045D4D934E7001002406B68B3F5803F0AD0FF
:205CE000B3F5A02F0CD1236823F480332360236843F480232360236843F48033236008E0B0
:205D0000226822F480322260226822F4802222609BB3FDF72FFE4FF40036074641F28838C3
:205D200096FAA6F3B3FA83F3C3F3421343F00103012B01D1236810E096FAA6F3B3FA83F310
:205D400096FAA6F3B3FA83F3C3F3421343F00103032B0CBFD4F89430E36996FAA6F2B2FA0C
:205D600082F202F01F02D340DB073FF534AFFDF701FEC01B4045D3D9E1E6FDF7FBFD4FF49B
:205D80000036074641F2883896FAA6F3B3FA83F3C3F3421343F00103012B01D1236810E086
:205DA00096FAA6F3B3FA83F396FAA6F3B3FA83F3C3F3421343F00103032B0CBFD4F8943080
:205DC000E36996FAA6F2B2FA82F202F01F02D340D8077FF500AFFDF7CDFDC01B4045D3D93D
:205DE000ADE6C74CA36803F00C03042B09D0A36803F00C030C2B33D1E36803F00303022B2F
:205E00002ED14FF4806393FAA3F2B2FA82F2C2F3421242F00102012A01D1226810E093FAD9
:205E2000A3F2B2FA82F293FAA3F3B3FA83F3C3F3421343F00103032B0CBFD4F89420E26961
:205E40004FF4806393FAA3F3B3FA83F303F01F0322FA03F3D9073BD5EB68002B38D1FAE559
:205E6000EB68002B44D0236843F480732360FDF781FD4FF48066074696FAA6F3B3FA83F324
:205E8000C3F3421343F00103012B01D1236810E096FAA6F3B3FA83F396FAA6F3B3FA83F3AF
:205EA000C3F3421343F00103032B0CBFD4F89430E36996FAA6F2B2FA82F202F01F02D3405D
:205EC000DA0705D4FDF756FDC01B6428D4D936E662684FF0F85393FAA3F3B3FA83F3296965
:205EE000DBB201FA03F322F0F8521343636034E0236823F480732360FDF73CFD4FF480662D
:205F0000074696FAA6F3B3FA83F3C3F3421343F00103012B01D1236810E096FAA6F3B3FA57
:205F200083F396FAA6F3B3FA83F3C3F3421343F00103032B0CBFD4F89430E36996FAA6F260
:205F4000B2FA82F202F01F02D340DB0705D5FDF711FDC01B6428D4D9F1E52B68180703D4CA
:205F60002B68590765D465E16B69654C83B3D4F8943043F00103C4F89430FDF7FBFC02269A
:205F80008046374696FAA6F3B3FA83F396FAA6F3B3FA83F396FAA6F3B3FA83F3C3F34213CF
:205FA00043F00303032B0CBFD4F89420E26997FAA7F3B3FA83F303F01F0322FA03F3DA078E
:205FC000CED4FDF7D7FCC8EB00006428DAD9B6E5D4F8943023F00103C4F89430FDF7CAFCEA
:205FE00002268046374696FAA6F3B3FA83F396FAA6F3B3FA83F396FAA6F3B3FA83F3C3F39C
:20600000421343F00303032B0CBFD4F89420E26997FAA7F3B3FA83F303F01F0322FA03F3B9
:20602000DB079DD5FDF7A6FCC8EB00006428DAD985E5334CA36DDE000AD4A36D43F08053B9
:20604000A365A36D03F080530193019B012600E000262C4F3B68D80512D5D4F8903023F084
:206060000103C4F89030D4F8903023F00403C4F89030FDF77FFC0227804641F288392DE01F
:206080003B6843F480733B60FDF774FC80463B68D905E2D4FDF76EFCC8EB00006428F6D9CB
:2060A0004DE597FAA7F3B3FA83F3C3F3421343F00203032B0CBFD4F89430E36997FAA7F21E
:2060C000B2FA82F202F01F02D340DA071CD5FDF751FCC8EB000048453FF631AD97FAA7F3E9
:2060E000B3FA83F397FAA7F3B3FA83F3C3F3421343F00203022BD4D1D4F89030DEE700BF0A
:206100000010024000700040AB68012B21D093B9D4F8903023F00103C4F89030D4F8903056
:2061200023F00403C4F89030FDF724FC0227804641F2883951E0052BD4F8903023F00103CE
:20614000C4F89030D4F8903008D143F00403C4F89030D4F8903043F0010301E023F00403EA
:20616000C4F89030FDF706FC0227814641F2883897FAA7F3B3FA83F397FAA7F3B3FA83F32E
:20618000C3F3421343F00203022B02D1D4F890300CE097FAA7F3B3FA83F3C3F3421343F0B8
:2061A0000203032B0CBFD4F89430E36997FAA7F2B2FA82F202F01F02D340DB0726D4FDF7C5
:2061C000D9FBC9EB00004045D2D9B8E4FDF7D2FBC8EB000048453FF6B2AC97FAA7F3B3FAFF
:2061E00083F397FAA7F3B3FA83F3C3F3421343F00203022B10D1D4F8903097FAA7F2B2FA28
:2062000082F202F01F02D340D807DFD496B1A36D23F08053A3650DE097FAA7F3B3FA83F3D2
:20622000C3F3421343F00203032B0CBFD4F89430E369E2E76A6A0AB90020CDE0684CA3685A
:2062400003F00C030C2B3FF406AC2368022A23F08073236040F08380FDF78CFB4FF000767D
:20626000074696FAA6F3B3FA83F3C3F3421343F00103012B01D1236810E096FAA6F3B3FAF4
:2062800083F396FAA6F3B3FA83F3C3F3421343F00103032B0CBFD4F89430E36996FAA6F2FD
:2062A000B2FA82F202F01F02D340D90705D5FDF761FBC01B6428D4D941E4296BAB6A6A6BD7
:2062C00043EA0123E96A013943EA0113120943EA4241AB6B5B08013B41EA4352EB6B5B08A6
:2062E000013B42EA4363E360236843F080732360E36843F08073E360FDF73CFB4FF0007586
:20630000064695FAA5F3B3FA83F3C3F3421343F00103012B01D1236810E095FAA5F3B3FA58
:2063200083F395FAA5F3B3FA83F3C3F3421343F00103032B0CBFD4F89430E36995FAA5F260
:20634000B2FA82F202F01F02D340DA073FF574AFFDF710FB801B6428D3D9FFF7F0BBE36801
:2063600023F00303E360E36823F0887323F48033E360FDF7FFFA4FF00075064695FAA5F347
:20638000B3FA83F3C3F3421343F00103012B01D1236810E095FAA5F3B3FA83F395FAA5F3AE
:2063A000B3FA83F3C3F3421343F00103032B0CBFD4F89430E36995FAA5F2B2FA82F202F06B
:2063C0001F02D340DB077FF537AFFDF7D3FA801B6428D3D9FFF7B3BB03B0BDE8F08300BFCB
:2063E00000100240C44B1A6802F007028A422DE9F04105460E4680F0FE801A6804299CBF15
:2064000022F007020A431A601B6803F00703994202D00120BDE8F08101688A0706D5B74862
:20642000836823F0F002AB6813438360CB070BD429684F0740F1E081B048836823F4E062BA
:20644000EB6813438360D7E16A68AC4C022A21D14FF4003393FAA3F1B1FA81F1C1F3421155
:2064600041F00101012901D1216810E093FAA3F1B1FA81F193FAA3F3B3FA83F3C3F34213E5
:2064800043F00103032B0CBFD4F89410E1694FF4003365E0032A21D14FF0007393FAA3F165
:2064A000B1FA81F1C1F3421141F00101012901D1216810E093FAA3F1B1FA81F193FAA3F3AF
:2064C000B3FA83F3C3F3421343F00103032B0CBFD4F89410E1694FF0007341E0FAB90223F9
:2064E00093FAA3F1B1FA81F1C1F3421141F00101012901D1216810E093FAA3F1B1FA81F171
:2065000093FAA3F3B3FA83F3C3F3421343F00103032B0CBFD4F89410E169022320E04FF4D8
:20652000806393FAA3F1B1FA81F1C1F3421141F00101012901D1216810E093FAA3F1B1FABF
:2065400081F193FAA3F3B3FA83F3C3F3421343F00103032B0CBFD4F89410E1694FF4806368
:2065600093FAA3F3B3FA83F303F01F0321FA03F3DE077FF54EAFA36823F003031A43A260D6
:20658000FDF7F8F96B68022B064641F288370DD1A36803F00C03082B3FF44AAFFDF7EAF9B7
:2065A000801BB842F4D90320BDE8F081032B0BD1A36803F00C030C2B3FF43AAFFDF7DAF90F
:2065C000801BB842F4D9EEE77BB9A36813F00C0F3FF42EAFFDF7CEF9801BB842F5D9E2E730
:2065E000FDF7C8F9801BB842DDD8A36803F00C03042BF5D11CE701688C0706D53F4883684E
:2066000023F0F002AB6813438360C80708D4042E394A00F2E880136823F007033343E3E09E
:206620006A68364C022A21D14FF4003393FAA3F1B1FA81F1C1F3421141F00101012901D1FE
:20664000216810E093FAA3F1B1FA81F193FAA3F3B3FA83F3C3F3421343F00103032B0CBF02
:20666000D4F89410E1694FF400336AE0FAB9022393FAA3F1B1FA81F1C1F3421141F0010150
:20668000012901D1216810E093FAA3F1B1FA81F193FAA3F3B3FA83F3C3F3421343F00103BF
:2066A000032B0CBFD4F89410E169022349E0032A26D14FF0007393FAA3F1B1FA81F1C1F311
:2066C000421141F00101012901D1216810E093FAA3F1B1FA81F193FAA3F3B3FA83F3C3F385
:2066E000421343F00103032B0CBFD4F89410E1694FF0007325E000BF002002400010024031
:206700004FF4806393FAA3F1B1FA81F1C1F3421141F00101012901D1216810E093FAA3F145
:20672000B1FA81F193FAA3F3B3FA83F3C3F3421343F00103032B0CBFD4F89410E1694FF4BE
:20674000806393FAA3F3B3FA83F303F01F0321FA03F3D9077FF55DAEA36823F003031A430A
:20676000A260FDF707F96B68022B07460DD141F28838A36803F00C03082B3FF448AFFDF7A7
:20678000F9F8C01B4045F4D90DE7032B0DD141F28838A36803F00C030C2B3FF438AFFDF796
:2067A000E9F8C01B4045F4D9FDE613B941F2873808E041F2883810E0FDF7DCF8C01B404537
:2067C0003FF6F1AEA36813F00C0FF5D11FE7FDF7D1F8C01B40453FF6E6AEA36803F00C03FD
:2067E000042BF4D113E713681360136803F007039E427FF40EAE1BE60B0707D5064A296965
:20680000936823F4605343EAC10393600120FDF79FF80020BDE8F0810010024032498B682D
:2068200003F00C03042B10B528D08B6803F00C03082B25D08B6813F00C0F09D08B6803F07D
:206840000C030C2B1FD1CB6803F00303012B1AD10A68254B120754BFD3F894301B68234A32
:2068600054BFC3F30323C3F3031352F823408B6813F00C0F0CBF2046002006E01C4800E024
:206880001C48002401E0002004468A68164B02F00C020C2A26D1DA68D86802F00302C0F379
:2068A0000210022A00F1010006D0032A0CD1DB68104AC3F3062303E0DB680D4AC3F30623F0
:2068C000B2FBF0F0434306E0DA68B4FBF0F0C2F3062200FB02F3C868C0F34160013040002C
:2068E000B3FBF0F010BD00BF00100240682601080024F40000127A0008B5FFF78FFF094B5C
:206900009A68F02393FAA3F3B3FA83F302F0F002DBB222FA03F3044AD35CD840034B18603E
:2069200008BD00BF0010024055260108401A0020F8B5424C236823F0806323600546FDF705
:2069400019F84FF00066074696FAA6F3B3FA83F3C3F3421343F00103012B01D1236810E02D
:2069600096FAA6F3B3FA83F396FAA6F3B3FA83F3C3F3421343F00103032B0CBFD4F89430B4
:20698000E36996FAA6F2B2FA82F202F01F02D340DA0706D5FCF7EEFFC01BB0F57A7FD3D97C
:2069A00031E023692A6823F4FE4343EA0223236123696A6823F40033120943EA4243236181
:2069C000236843F080632360FCF7D4FF4FF00066074696FAA6F3B3FA83F3C3F3421343F051
:2069E0000103012B11D1236896FAA6F2B2FA82F202F01F02D340DB0719D4FCF7BBFFC01B35
:206A0000B0F57A7FE5D90320F8BD96FAA6F3B3FA83F396FAA6F3B3FA83F3C3F3421343F06C
:206A20000103032B0CBFD4F89430E369DCE722692B69134323610020F8BD00BF00100240DB
:206A4000F8B5424C236823F0805323600546FCF791FF4FF00056074696FAA6F3B3FA83F30B
:206A6000C3F3421343F00103012B01D1236810E096FAA6F3B3FA83F396FAA6F3B3FA83F3C3
:206A8000C3F3421343F00103032B0CBFD4F89430E36996FAA6F2B2FA82F202F01F02D34071
:206AA000DA0706D5FCF766FFC01BB0F57A7FD3D931E063692A6823F4FE4343EA02236361C0
:206AC00063696A6823F40033120943EA42436361236843F080532360FCF74CFF4FF0005656
:206AE000074696FAA6F3B3FA83F3C3F3421343F00103012B11D1236896FAA6F2B2FA82F2DA
:206B000002F01F02D340DB0719D4FCF733FFC01BB0F57A7FE5D90320F8BD96FAA6F3B3FA76
:206B200083F396FAA6F3B3FA83F3C3F3421343F00103032B0CBFD4F89430E369DCE76269EE
:206B4000EB68134363610020F8BD00BF00100240F8B5424C236823F0806323600546FCF765
:206B600009FF4FF00066074696FAA6F3B3FA83F3C3F3421343F00103012B01D1236810E014
:206B800096FAA6F3B3FA83F396FAA6F3B3FA83F3C3F3421343F00103032B0CBFD4F8943092
:206BA000E36996FAA6F2B2FA82F202F01F02D340DA0706D5FCF7DEFEC01BB0F57A7FD3D96B
:206BC00032E023692A6823F4FE4343EA02232361AA6823695208013A23F4C00343EA425388
:206BE0002361236843F080632360FCF7C3FE4FF00066074696FAA6F3B3FA83F3C3F34213F0
:206C000043F00103012B11D1236896FAA6F2B2FA82F202F01F02D340DB0719D4FCF7AAFECC
:206C2000C01BB0F57A7FE5D90320F8BD96FAA6F3B3FA83F396FAA6F3B3FA83F3C3F34213A2
:206C400043F00103032B0CBFD4F89430E369DCE722692B69134323610020F8BD0010024045
:206C60002DE9F347056815F40065044627D0436DB3F5800F12D004D803BB0430FFF758FEC5
:206C80000FE0B3F5000F03D0B3F5400F0BD015E0AE4AD36843F48033D36004E01830FFF742
:206CA000CFFE054658B9A949D1F8883023F44002636D1343C1F88830002500E00125236892
:206CC000D80429D5A36DB3F1807F12D004D813BB201DFFF72DFE10E0B3F1007F03D0B3F1B3
:206CE000407F0CD017E0994AD36843F48033D36005E004F11800FFF7A3FE064600E02E469E
:206D000066B99249D1F8883023F04072A36D1343C1F8883003E001252E4600E035462368F9
:206D2000990340F18480894FBB6DDA000BD4BB6D43F08053BB65BB6D03F080530193019B5D
:206D40004FF0010801E04FF00008DFF80492D9F8003043F48073C9F80030FCF70BFE824676
:206D6000D9F80030DB0506D4FCF704FECAEB00006428F5D952E0002E51D1D7F89020616F83
:206D8000724B02F440728A4211D0D3F89060D3F8902042F48032C3F89020D3F8902026F4C3
:206DA000407622F48032C3F89020C3F89060B00740F1CC81FCF7DEFD0226814641F2883A58
:206DC00096FAA6F3B3FA83F396FAA6F3B3FA83F3C3F3421343F00203022B02D1D7F8903049
:206DE0000CE096FAA6F3B3FA83F3C3F3421343F00203032B0CBFD7F89430FB6996FAA6F200
:206E0000B2FA82F202F01F02D340D90700F19E81FCF7B0FDC9EB00005045D1D90326B8F1D7
:206E2000000F05D0BB6D23F08053BB6500E02E462368DA0708D54548D0F8882022F0030190
:206E4000A26A0A43C0F888209F0708D53F48D0F8882022F00C01E26A0A43C0F888205D0783
:206E600008D53A48D0F8882022F03001226B0A43C0F88820180708D53448D0F8882022F0CC
:206E8000C001626B0A43C0F88820D90608D52F48D0F8882022F44071A26B0A43C0F8882093
:206EA0009A0608D52948D0F8882022F44061E26B0A43C0F888209F0508D52448D0F8882066
:206EC00022F44021E26C0A43C0F888205D0508D51E48D0F8882022F44011226D0A43C0F830
:206EE0008820580608D51948D0F8882022F44051226C0A43C0F88820190608D51348D0F8DD
:206F0000882022F44041626C0A43C0F88820DA0508D50E48D0F8882022F44031A26C0A4353
:206F2000C0F888209F041ED5084AE16DD2F8883023F040630B43B1F1006FC2F8883009D1D8
:206F4000D36843F48013D3600DE000BF0010024000700040B1F1806F05D1201DFFF7F8FDBC
:206F6000002818BF064623681D0319D5BB4A216ED2F8883023F040630B43B1F1006FC2F848
:206F8000883004D1D36843F48013D36008E0B1F1806F05D1201DFFF7DBFD002818BF064687
:206FA0002368580319D5AD4A616ED2F8883023F040630B43B1F1006FC2F8883004D1D3681E
:206FC00043F48013D36008E0B1F1806F05D1201DFFF7BEFD002818BF06462368590440F113
:206FE0009C809E4DA76ED5F8883023F040533B43B7F1805FC5F8883037D12B6823F080633F
:207000002B60FCF7B7FC4FF00067804697FAA7F3B3FA83F3C3F3421343F00103012B01D145
:207020002B6810E097FAA7F3B3FA83F397FAA7F3B3FA83F3C3F3421343F00103032B0CBFF6
:20704000D5F89430EB6997FAA7F2B2FA82F202F01F02D340DA0740F18380FCF78BFCC8EB99
:207060000000B0F57A7FD1D9DAE0B7F1005F54D12B6823F080532B60FCF77CFC804697FA1C
:20708000A7F3B3FA83F3C3F3421343F00103012B01D12B6810E097FAA7F3B3FA83F397FA91
:2070A000A7F3B3FA83F3C3F3421343F00103032B0CBFD5F89430EB6997FAA7F2B2FA82F2A9
:2070C00002F01F02D340D80776D5FCF753FCC8EB0000B0F57A7FD2D9A2E0FCF74BFCC8EBB3
:2070E0000000B0F57A7F00F29B8097FAA7F3B3FA83F3C3F3421343F00103012B4AD12B687B
:2071000097FAA7F2B2FA82F202F01F02D340DB07E3D52A69636913432B6121680A0408D5B0
:207120004E48D0F8883023F08042E36E1343C0F88830CB0340F18D804849D1F8883023F01C
:207140000042236F1343C1F8883082E0D7F8903023F44072636F1343C7F890302E465EE67B
:207160002B69626823F4FE4343EA02232B6122692B695208013A23F0C06343EA42632B6133
:207180002B6843F080632B60FCF7F4FB4FF000678046AAE797FAA7F3B3FA83F397FAA7F363
:2071A000B3FA83F3C3F3421343F00103032B0CBFD5F89430EB69A3E76B69A26923F4FE43CB
:2071C00043EA02236B61226A6B695208013A23F0C06343EA42636B612B6843F080532B60A4
:2071E000FCF7C8FB4FF00057804697FAA7F3B3FA83F3C3F3421343F00103012B12D12B684B
:2072000097FAA7F2B2FA82F202F01F02D340D9071AD4FCF7AFFBC8EB0000B0F57A7FE4D985
:2072200003267AE797FAA7F3B3FA83F397FAA7F3B3FA83F3C3F3421343F00103032B0CBFED
:20724000D5F89430EB69DBE76A69636A13436B6163E7304602B0BDE8F08700BF0010024026
:2072600070B50446002850D090F85D301BB980F85C30FCF76CFB2168E268022384F85D300F
:207280000B68B2F5E06F23F040030B604FF0000303D91846B2F5706F01E04FF4805018BFF7
:2072A000A362236B2BB9B2F5E06F8CBF022301232363A5686668A3692E4325692E43656922
:2072C0002E43E5692E43256A2E43A56A2E4303F4007535430D60256B022D02BF0D6845F47F
:2072E00000650D60656A2A43656B1B0C154303F0040245EA020303434B60E36A0B6100203A
:207300000123206684F85D3070BD012070BD70470268022380F83930136843F001031360F3
:20732000012380F839300020704770472E4A0368904212D0B0F1804F0FD0A2F594329042A5
:207340000BD002F58062904207D002F58062904203D002F59432904219D14A6823F07003A1
:207360001343214A90421DD0B0F1804F1AD0A2F59432904216D002F58062904212D002F59A
:20738000806290420ED002F5943290420AD0174A904207D002F58062904203D002F5806291
:2073A000904203D1CA6823F44073134303608B68C3620B6883620C4B98420FD003F5006397
:2073C00098420BD003F54063984207D003F58063984203D003F58063984201D10B690363C3
:2073E00001234361704700BF002C01400040014010B50446A0B190F8393003F0FF021BB948
:2074000080F83820FFF783FF022384F839302068211DFFF78BFF012384F83930002010BDDE
:20742000012010BD10B50446A0B190F8393003F0FF021BB980F83820FFF777FF022384F868
:2074400039302068211DFFF771FF012384F83930002010BD012010BD036A23F001030362CA
:20746000036A426870B584690D6824F4803424F073042C438D6823F002032B431B4DA842DB
:207480000FD005F50065A8420BD005F54065A84207D005F58065A84203D005F58065A84224
:2074A0001ED1CD6823F008032B43104DA84223F004030FD005F50065A8420BD005F5406519
:2074C000A84207D005F58065A84203D005F58065A84205D14E698D6922F4407235432A4356
:2074E00042604A6884614263036270BD002C0140036A23F010030362036A30B544688269CE
:207500000D6822F0807222F4E64242EA05228D6823F0200343EA0513164DA84203D005F5D7
:207520000065A8420DD1CD6823F0800343EA0513104DA84223F040030ED005F50065A8424A
:207540000AD00D4DA84207D005F58065A84203D005F58065A84207D14D6924F4406444EA59
:2075600085048D6944EA8504446082614A688263036230BD002C014000400140036A23F4F3
:2075800080730362036A30B54468C2690D6822F4803222F073022A438D6823F4007343EA8D
:2075A0000523174DA84203D005F50065A8420DD1CD6823F4006343EA0523114DA84223F4F8
:2075C00080630ED005F50065A8420AD00D4DA84207D005F58065A84203D005F58065A84247
:2075E00007D14D6924F4405444EA05148D6944EA05144460C2614A68C263036230BD00BF1E
:20760000002C014000400140036A23F480530362036A30B54468C2690D6822F0807222F408
:20762000E64242EA05228D6823F4005343EA05330E4DA8420FD005F50065A8420BD005F5C9
:207640004065A84207D005F58065A84203D005F58065A84204D14D6924F4804444EA851431
:207660004460C2614A680264036230BD002C014010B5846824F47F4421430A4342EA0323DD
:20768000836010BD90F83830012B70B504464FF0020000F0AB8084F839002068012384F876
:2076A00038308268524B134083600B68402B74D018D8102B00F0888008D8002B40F0908015
:2076C000836823F0700343F0070388E0202B00F08180302B40F08480836823F0700343F025
