:020000040801F1
:103000000080002089310108719801087398010837
:103010007598010877980108799801080000000068
:103020000000000000000000000000007B98010884
:103030007D980108000000005159010891540108D1
:1030400051590108515901085159010851590108B4
:1030500051590108515901085159010851590108A4
:10306000A552010851590108515901085159010847
:103070005159010851590108515901085159010884
:103080005159010851590108515901085159010874
:103090005159010851590108515901085159010864
:1030A0005159010851590108515901085159010854
:1030B0005159010851590108515901085159010844
:1030C0005159010851590108515901085159010834
:1030D00051590108D95001085159010851590108A5
:1030E000493C010851590108515901085159010839
:1030F0005159010851590108515901085159010804
:1031000051590108515901085159010851590108F3
:1031100051590108515901085159010851590108E3
:1031200051590108515901085159010851590108D3
:1031300051590108515901085159010851590108C3
:103140005159010851590108515901089952010872
:1031500051590108515901085159010851590108A3
:103160005159010851590108515901085159010893
:103170005159010851590108515901080000000036
:10318000515901085159010807B5104B104A996867
:103190000190914201D1DB6898470E4A0E4B0F49CE
:1031A0008B4204D252F8040F43F8040BF8E70C4B9F
:1031B0000C4A0021934202D243F8041BFAE701981B
:1031C00003B05DF804EB00F01BBB00BF0008000873
:1031D00007B0ADDE0C010308000000200000002055
:1031E00000000020B91400200000000000000000D2
:1031F00000000000000000000000000000000000CF
:1032000000000000000000000000000000000000BE
:1032100000000000000000000000000000000000AE
:10322000000000000000000000000000000000009E
:103800002DE9F04FB34BDFF814A39A68B24BDFF801
:103810001093B24E9A428FB040F08F81B04D2B681A
:1038200043F001032B600024AE4BCAF80030AC60BB
:103830002B6823F0A85323F410232B604FF400636C
:10384000EB602B6823F480232B60A74BAC61C3F89B
:103850000890B4607460346062B6AB6D43F080531E
:10386000AB65AB6D03F080530093009B2B6E43F070
:1038700001032B662B6E03F0010301934FF40070DC
:10388000019B03F055FFEB6C43F00103EB64EB6C21
:103890000B9403F0010301274FF003084FF4004B92
:1038A000029309A94FF09040029BCDF824B00A97EB
:1038B000CDF8308003F014F9224659464FF090407D
:1038C00003F0F2F9EB6C894843F00403EB64EB6C12
:1038D0000B9403F004030393039B0C944FF4407385
:1038E00009A909930A9703F0FBF83A464FF480714F
:1038F0007E4803F0D9F922464FF400717B4803F06B
:10390000D3F901F0BBFE40F2FF3309A94FF090401C
:1039100009930B940C94CDF8288003F0E1F8EB6C3C
:10392000734843F00203EB64EB6C0B9403F0020367
:103930004FF6FF7B049309A9049B0C94CDF824B0A7
:10394000CDF8288003F0CCF8EB6C684843F0040312
:10395000EB64EB6C0B9403F004030593059B0C9450
:103960004FF6FF4309A90993CDF8288003F0B8F872
:10397000EB6C604843F00803EB64EB6C0B9403F0D2
:103980000803069309A9069B0C94CDF824B0CDF842
:10399000288003F0A5F8EB6C574843F08003EB64F4
:1039A000EB6C0B9403F08003079309A9079B0C941D
:1039B000CDF824B0CDF8288003F092F82246414695
:1039C000432002F06DFE224641466FF0010002F0F6
:1039D00067FE22460221282002F062FE22460221D2
:1039E000172002F05DFE22460221092002F058FE57
:1039F00022460221082002F053FE224639464FF0AB
:103A0000FF3002F04DFE22462146252002F048FEFE
:103A10000423099309A9394B0A934FF090400B9462
:103A20000C9403F05DF83A464FF400712F4803F010
:103A30003BF9082002F068FE314B1C60314B1C60E2
:103A4000314B1C60314B1C60314B1C60314B1C6096
:103A5000314B38461C6001F00DFC204600F050F957
:103A60001023F7603460B3603446776004214FF070
:103A7000904003F013F9002854D0B368580751D48C
:103A80002368632BF2D9A36813F00807EED101F085
:103A90001FFF00F0D9FBAB6D43F00103AB65AB6DCD
:103AA00003F0010308934620089B00F0D1FB4FF47C
:103AB0000043099302230A930C9309A901234FF0B1
:103AC00090400D930B9703F00BF8A36843F00803A5
:103AD000A360CBE70008000807B0ADDEAC0500200E
:103AE0000010024000093D0000ED00E00008004821
:103AF00000040048000C0048001C00480000311081
:103B000090140020080A0020D8090020D4090020C1
:103B1000CC090020801200200C0A00207C1200201A
:103B200000300108B268234B110701D401F074FB87
:103B300000225A60DA6072B602E0012001F0ACFEA9
:103B40000023F3607360B36072B61B4BCAF8003099
:103B50001A4BC3F8089062B619481A491A4C01F07A
:103B6000CDFE4FF400654FF000602A46083504F1A1
:103B700008012C4401F042FE20786378257943EA5D
:103B80000022A078E37843EA002343EA0240637905
:103B900043EA0522A579E37943EA052343EA02458E
:103BA000421C01D06B1CE0D1002001F075FE01F039
:103BB000D1FA00BFAC050020006CDC0200ED00E093
:103BC000A00003088B000308E8D701088007054B15
:103BD00048BF41F48071D9609A689207FCD50020F3
:103BE000704700BF00380040F8B507460D46012079
:103BF0002A2116461C46FFF7E9FF390A0220FFF783
:103C0000E5FFF9B20220FFF7E1FF310A0220FFF7DA
:103C1000DDFFF1B20220FFF7D9FF2B210120FFF7D2
:103C2000D5FF290A0220FFF7D1FFE9B20220FFF7F2
:103C3000CDFF210A0220FFF7C9FFE1B20220BDE853
:103C4000F840FFF7C3BF000000B58BB04FF48063AE
:103C5000009308230DEB03024C21254803F02EF9B5
:103C60009DF80830522B3BD19DF809302149FF2B9C
:103C70000BD10B881A0433D44B881B0430D472B692
:103C80001D4A136843F4806328E09DF80C309DF8CA
:103C90000D001A0102F47062024310054FEA03237B
:103CA0009DF80E0003F4706343EA000344BF6FEA1B
:103CB00002526FEA1252180548BF6FEA03534FF0E1
:103CC000000048BF6FEA1353088102B90BB101230A
:103CD0000B8172B6084A136843F00203136062B6A0
:103CE000064B4FF400625A610BB05DF804FB00BF55
:103CF00024000020DC0900208C1400200004014076
:103D00002DE9F04FD24BD34FDFF87083D24EDFF85E
:103D100070B34FF000094FF6FF72A3F808901A80B5
:103D20005A80CE4BC3F80090CD4B8DB04FF48062DB
:103D300020210546CB48C3F80090012406F080FD01
:103D40004FF4806307A9384607930894CDF8249070
:103D5000CDF8289002F0C4FE4FF40063079307A942
:103D6000C14B08933846099402F0BAFE4FF44073F1
:103D7000079303230A9307A9042340464FF0120A2E
:103D80000B93CDF820A0099402F0AAFEB36D43F482
:103D90000013B365B36D03F40013494603933C224B
:103DA0005846039B06F04CFDB04BB14ACBF80C4093
:103DB00058468BE80C0003F036F84946584603F0A5
:103DC000FDF87B6923F480637B61002D40F017824E
:103DD000F36C43F00203F364F36C03F00203049307
:103DE000049BF36C43F00403F364F36C03F00403EB
:103DF0000593059BB36D43F48043B365B36D09959B
:103E000003F480430693069B4FF420430793032358
:103E100002260A9307A9052340460B9301930896AF
:103E200002F05EFE4FF4804207A9404607920894D4
:103E300009950A9502F054FED8F8142042F4804205
:103E4000C8F8142007A938460796089409950A95DA
:103E500002F046FE7A69874822F002027A61864AB9
:103E6000116821F0400111604FF482714FF400633A
:103E70004FF00A094FF0080B41604FF40071C36026
:103E8000009202608560056145618161C5610562DE
:103E900045628562C0F82C900563C0F834B005F027
:103EA000FBF8009A116841F0400111607A693243D1
:103EB0007A613C2001F066FDD8F8142022F480429B
:103EC000C8F8142011212120FFF780FEC82001F03E
:103ED00059FDB9212046FFF779FEFF213046FFF753
:103EE00075FE83213046FFF771FE57212220FFF730
:103EF0006DFE484601F046FDB1212046FFF766FE03
:103F000029463046FFF762FE51463046FFF75EFE17
:103F100051463046FFF75AFE51463046FFF756FEEF
:103F2000C3213046FFF752FE44212220FFF74EFE08
:103F3000484601F027FDB4212046FFF747FE3146F1
:103F40003046FFF743FE40213046FFF73FFE29464B
:103F50003046FFF73BFE2A213046FFF737FE2A2185
:103F60003046FFF733FE20213046FFF72FFE912128
:103F70002220FFF72BFE484601F004FDB621204623
:103F8000FFF724FE38212220FFF720FE484601F0EB
:103F9000F9FCB0212046FFF719FE68213046FFF7F3
:103FA00015FEE3212046FFF711FE2F213046FFF7D3
:103FB0000DFE1F213046FFF709FEB5212046FFF711
:103FC00005FE21463046FFF701FE21463046FFF749
:103FD000FDFD67213046FFF7F9FDC0212046FFF7C0
:103FE000F5FD70213046FFF7F1FD70213046FFF7F7
:103FF000EDFD21463046FFF7E9FD3C213046FFF755
:10400000E5FDC8213046FFF7E1FD59462220FFF7C4
:10401000DDFD484601F0B6FCC2212046FFF7D6FD83
:1040200029463046FFF7D2FD59463046FFF7CEFD10
:1040300004212220FFF7CAFD484601F0A3FCCC2151
:104040002046FFF7C3FD484601F09CFC1AE000BF84
:10405000DC09002000080048001002406404002031
:1040600060040020600000200000211091297000F1
:1040700000540040180A00200038004000040048A6
:1040800024000020E0212046FFF7A0FD2146304615
:10409000FFF79CFD31463046FFF798FD032130467F
:1040A000FFF794FD019B009319463046FFF78EFD04
:1040B0000E213046FFF78AFD22213046FFF786FDAC
:1040C00032213046FFF782FD3B213046FFF77EFD6F
:1040D0005C213046FFF77AFD54213046FFF776FD2C
:1040E0004C213046FFF772FD41213046FFF76EFD4F
:1040F0003D213046FFF76AFD37213046FFF766FD68
:1041000031213046FFF762FD21213046FFF75EFD89
:1041100021463046FFF75AFD31463046FFF756FD3F
:1041200003213046FFF752FD009B30461946FFF74A
:104130004DFD0E213046FFF749FD22213046FFF7A5
:1041400045FD32213046FFF741FD3B213046FFF768
:104150003DFD5C213046FFF739FD54213046FFF725
:1041600035FD4C213046FFF731FD41213046FFF748
:104170002DFD3D213046FFF729FD37213046FFF761
:1041800025FD31213046FFF721FD21213046FFF783
:104190001DFD29463046FFF719FD21463046FFF741
:1041A00015FD484601F0EEFB3A212046FFF70EFDD3
:1041B00055213046FFF70AFD36212046FFF706FD60
:1041C00029463046FFF702FDB0212046FFF7FEFCEE
:1041D00099213046FFF7FAFC21463046FFF7F6FCFE
:1041E00022212046FFF7F2FC29212120FFF7EEFCD7
:1041F000484601F0C7FB114800F044FF02E0C82028
:1042000001F0C0FB0E4C636943F4806363610A20D4
:1042100001F0B8FB636923F4806363610A2001F055
:10422000B1FB636943F480636361064B4FF48072B2
:10423000C3F884210DB0BDE8F08F00BFF9F9F90093
:104240000008004800E100E013212120FFF7BEBC78
:1042500010B51D4B9AB0044618603C2200210BA8F3
:1042600006F0EEFA4FF080430B930BA8174B0E931A
:1042700004F0DAFF10220021684606F0E1FA4FF45C
:10428000805369460BA8009305F018F90BA804F0B9
:10429000E5FF1C22002104A806F0D2FA40F6C41063
:1042A00060436023002204A90493059004230BA813
:1042B000089305F057FA0BA804F046FF00210BA85D
:1042C00005F0C2F91AB010BD0000002090D0030024
:1042D0002DE9F84F00280C9EDDF834800E9F5ADB44
:1042E000002958DB0B9CDFF8B4C0A4F1040E0024B5
:1042F0000A9DAC421DD0102C1BD05EF8045F4FEA23
:10430000154929F00709C5F3423549EA05050CF8B6
:104310001450DEF800504FEA551A0CEB44092AF00D
:104320001F0AC5F3C4054AEA050589F8015001349E
:10433000DEE780B289B2013B013A0B4402449BB2F2
:1043400092B2FFF751FC2C2101200124FFF73EFC23
:10435000B440124D013CF7B118F801ABB146C6EBC1
:1043600009032AFA03F323404FEA430BAB4415F841
:1043700013100220FFF72AFC9BF801100220FFF720
:1043800025FCB9F1070FA7EB0607E4D8B144002FCD
:10439000E5D1BDE8F88FBDE8F88F00BF040000202C
:1043A000F8B5069C050C46091F4605F0F805C0F354
:1043B000423306F0E006C0F3C4001D430643631E0B
:1043C00088B291B27A1E0B4402449BB292B2FFF7BC
:1043D0000BFC2C210120FFF7F9FB7C43EDB2F6B278
:1043E0004CB129460220FFF7F1FB31460220FFF7CE
:1043F000EDFB013CF4E7F8BD30B5254C236887B0F0
:1044000005467BB12349244A00231360A1F14000F3
:104410004FF47072236006F0AFF9402220211F484C
:1044200006F00EFA0A2D15D14FF480620123049292
:104430001B4A23600392002340F25F104FF4A071E7
:1044400081228DE807000593164A1946184600F0A8
:10445000E7F91AE00D2D07D110484022202107B0BE
:10446000BDE8304006F0ECB9A5F120035F2B0CD875
:1044700009490B4A0B681A4401333E2B0B6088BF75
:10448000012382F8C05388BF236007B030BD00BF4E
:1044900060040020A000002064040020200400200C
:1044A00060000020F9F9F90038B504464518AC421F
:1044B00004D014F8010BFFF79FFFF8E738BD0000A8
:1044C0000FB42DE9F04F87B0109C002C00F07781DD
:1044D00011ABB24DB24E01932378002B00F06F81E7
:1044E0002346C4EB03091F4613F8012B252A08D1E4
:1044F00049462046FFF7D8FF3B78252B04D03C46A1
:10450000EAE7002AEDD1F3E70022019B781C9446EC
:104510004FF0200E904617464FF00A0A01785829AE
:1045200000F1010400F0DE8016D82E2957D00BD8F8
:104530002A2967D02D2903D14FF0000C2046EDE742
:10454000252940F035812FE13029C0F0318139290A
:1045500020D9482961D02BE1702916D007D86429C9
:104560002DD068295ED0632940F022811DE0752995
:1045700000F0AD80782908D0732940F0198102B18C
:1045800001934FF0000A0A2351E002B101934FF06A
:10459000000CABE0302903D1002F08BF4FF0300EE4
:1045A0000AFB0711A1F13007C8E702B10193019B93
:1045B00006A81A1D1B68019240F8183DF6E002B1EA
:1045C0000193019B1A1D1B680192002B80F28580CC
:1045D0005B4200934FF0000C01230A228DE04178EA
:1045E0002A2940F0E5808178732904D001F0DF01A9
:1045F000482940F0DD800122D3F80080841C043378
:1046000094469BE74178732940F0D280D3F800802C
:10461000012204334FF0020C90E702B101934FF0F6
:10462000010A03E002B101934FF0000A1023019A3E
:10463000BCF1010F02F104010191106818D0BCF126
:10464000020F07D00246C0EB020812F8011B002936
:10465000F9D10DE00378002B40F0AC8001215148E6
:10466000FFF722FF434608F1FF38002BF6D122E086
:10467000102B02D10746804414E04146FFF714FF97
:10468000C14618E017F8019B4FEA191309F00F090A
:10469000BAF1000F09D1F05CFFF7AEFE16F8090081
:1046A000FFF7AAFE4745EDD116E7E85CFFF7A4FE49
:1046B00015F80900F4E7B945BFF40EAFC9EB0707D9
:1046C00001213848FFF7F0FE013FF9D104E702B1BC
:1046D0000193019B1A1D1B6801924FF0000C00937F
:1046E00063467AE702B101934FF0010C019B1A1D5A
:1046F0001B680192009310220023DDF80080012046
:1047000002FB00F1414502D943B9194613E0B1FB60
:10471000F2F94845F8D1013F0846F1E7BEF1300F04
:1047200004BF2D238DF8083007F1FF3707BF0023A2
:10473000012101230021A7F10209B9F10D0F0DD8C4
:1047400001F1FF390DF1080B07F1FF3AD944BAF135
:10475000010A09F801EFFAD1394401392BB106AB4E
:104760000B442D2703F8107C013102AB4F1C0B4486
:10477000791E88B1B8FBF0F1B1FBF2FE02FB1E110D
:10478000BCF1000F01D1895D00E0495D1970B0FBFB
:10479000F2F001370133EBE702A80DE0EDAA0108C2
:1047A000DCAA01087500030802B10193012103E0AE
:1047B00002B1019304480521FFF776FE8CE607B0AD
:1047C000BDE8F04F04B07047FEAA0108C0F30B002B
:1047D0000A28F0B51ED8114C54F82050E5B1AF7836
:1047E000134400209A4214D012F8014BAE88B44210
:1047F00013D3B5F806E074450FD8A41BAE6816F8BD
:10480000244011B106198E4207DC3C440444A0B296
:10481000E8E7F0BD0020F0BD2846F0BD34AB01084C
:104820002DE9F04FC0F30B0B8DB0BBF10A0F9A4688
:10483000169D0A920B9155D82C4B53F82B0000284B
:1048400051D0179ADDF86480067809935244069295
:10485000189A05EB0209827807921A9A4244089244
:104860005446089B984539D0099A18F8013B52F8EC
:104870002B2091888B4202D3D088834208D9093BF0
:10488000012B2BD835447319994527D35446E8E7B3
:104890009068D2685B1A00EB830110F82370498896
:1048A0000A440699E319994204D23544731999458B
:1048B00014D3544617FB06F30493012302930AAB67
:1048C00001930223039200933A4633462046294639
:1048D000FFF7FEFC079B1F443C44C2E7A4B244EA36
:1048E000054000E000200DB0BDE8F08F34AB0108BA
:1048F0002DE9F04F8DB091460593059C9DF85830F9
:104900000693179BC4F1010280460E460792C3EB43
:10491000040B23B1BBF1000FD4BF0023012302938A
:104920000BF1FF330393F31A0893CBF101030493C4
:1049300009F1FF330993069B03F0010300270B9352
:104940000125BC42C0F205810B9BCBB1029B83B118
:10495000039B1898009507EB090AE31A5246314663
:10496000FFF71EFD03980095A1195B465246091AF0
:1049700003E0099A0095234631464046FFF710FDB3
:10498000069B99071AD5029B04EB09027BB1059B94
:10499000A34205D00095049B18983146FFF700FD0F
:1049A000049900955B4604EB0902711803E0009539
:1049B0003B46013A31464046FFF7F2FC069B5A0758
:1049C0001BD5331B0A93029B83B1039B1898009558
:1049D00007EB090AE31A5246311BFFF7E1FC039883
:1049E0000095311B5B465246091A03E0099A00956F
:1049F0002346311B4046FFF7D3FC069B1B0719D506
:104A0000029B04EB090273B1059BA34205D00095FC
:104A1000049B1898F11BFFF7C3FC00955B4604EB61
:104A20000902089903E000953B46013AF11B404614
:104A3000FFF7B6FC069BD80618D5029B0095C7EB7E
:104A4000090A6BB1039B1898E31A52463146FFF7E7
:104A5000A7FC03980095A1195B465246091A02E08B
:104A60002346524631464046FFF79AFC069B99067C
:104A700019D5029BC4EB09027BB1059BA34205D06B
:104A80000095049B18983146FFF78AFC049900951D
:104A90005B46C4EB0902711802E000953B463146C3
:104AA0004046FFF77DFC069B5A061BD5C7EB090362
:104AB0000A93029B0095C4EB060A6BB1039B0A9A0A
:104AC0001898E31A5146FFF76BFC039900955B4673
:104AD0000A9AC1EB0A0102E00A9A2346514640466F
:104AE000FFF75EFC069B1B0618D5029BC4EB090270
:104AF00073B1059BA34205D00095049B1898F11B48
:104B0000FFF74EFC00955B46C4EB0902089902E0F2
:104B100000953B46F11B4046FFF742FC079B05947E
:104B2000002B07F10107C3BF079A04F1FF343B1BB9
:104B300003EB4703C8BF02EB430301330793089B12
:104B4000013B0893049B01330493099B01330993B0
:104B5000F7E60DB0BDE8F08F2DE9F04F90F800A01A
:104B60008DB0044615469B462AF0800A0F46002960
:104B70003CD0002A3FD0BAF1050F00F0DC81068B53
:104B8000B54BB0F80680C6F30B02304653F822301E
:104B900093F801901B7807930A46EBB2CDF800B06A
:104BA0004146FFF713FE06F44043B3F5804F06D0AD
:104BB000B3F5004F06D14008C0EB580804E0C0EB45
:104BC000080801E04FF0000806F44056B6F5805F93
:104BD00008D0B6F5005F13D126897608013EA6EB12
:104BE00059060EE02689C9EB06060AE007918946B8
:104BF0000E46884605E0079291461646904600E02C
:104C000000260AF1FF33062B00F23182DFE813F0B1
:104C100007003F0107008201930117023F01E3886B
:104C20002089E17A4FEA53094208914528BF91460D
:104C30008945227B28BF8946B4F90210012A4FEA30
:104C4000490AB4F904200090CAEB0303494459D03F
:104C50006069FFF7A5FB2389B4F90420B4F90210B9
:104C6000CAEB030300934A444B466069FFF798FB85
:104C7000E388B4F90210B4F9042019442389CAEB7B
:104C80000303009301394B464A44C9EB01016069B3
:104C9000FFF786FBE388B4F90210A07AB4F9042088
:104CA0000090CAEB030349442069FFF779FBB4F98C
:104CB00004102289E388A07A0A44B4F90210009013
:104CC000CAEB0303013A49442069FFF769FB2089D5
:104CD000B4F90420A37AB4F90210CAEB00000090E2
:104CE0004A442069FFF75CFBB4F90200E188B4F99B
:104CF0000420A37A01442089CAEB000000904A44B2
:104D000001391DE02069FFF74BFB2389B4F904202A
:104D1000B4F90210CAEB030300934A444B462069DE
:104D2000FFF73EFBE388B4F90210B4F904201944FC
:104D30002389CAEB030300934A444B46C9EB0101A4
:104D40002069FFF72DFBB9F1010F5ED9237B012B01
:104D500006D094F80AA0D14502D9CAEB090A01E0AD
:104D60004FF0000A6369B4F90420B4F90210029309
:104D7000C0230093CDF804A04B464A44494420691F
:104D8000FFF7B6FDE388B4F90210A07AB4F9042065
:104D900019446369029330230093CDF804A0C9EB52
:104DA0000101091A4B464A442069FFF7A1FD2389F6
:104DB000B4F90420A07AB4F902101A44636902938A
:104DC0000C230093CDF804A0C9EB0202121A4B4643
:104DD00049442069FFF78CFD2389B4F90420B4F914
:104DE0000210A07A1A44E3881944636902930323EA
:104DF0000093C9EB0202C9EB0101CDF804A0121A1D
:104E0000091A4B462069FFF773FD002F36D0002D9D
:104E100034D0237B22696169B4F902C0B4F90490EB
:104E2000208B012B1EBF13460A461946E388C44453
:104E3000C8EB0308A37AB14413B14FEA430E01E073
:104E40004FF0020ECEEB0808B4F808E0C6EB0E06F1
:104E500023B14FEA430E03E034AB01084FF0020EDA
:104E6000CEEB06030293CDF814B004950397CDF86A
:104E70000480CDF800906346FFF7D2FCA37E002BA0
:104E800000F0F580B4F90200B4F904105AE0237B75
:104E9000012B14D1BAF1070FB4F9043014BFB4F8E0
:104EA00008E0DDF81CE06069B4F902100CBF4A4666
:104EB00000229A1AE388CDF800E0FFF771FA002F7C
:104EC00000F0D580002D00F0D280B4F904E0216913
:104ED0006269B4F90230208BBAF1070F14BFB146F2
:104EE000C9F10009F144BAF1070FB4F806E02489CA
:104EF000CDF814B008BF00264344A61BC8EB0E082B
:104F0000049503970296CDF80480CDF80090FFF742
:104F100087FCACE001232373E37A002B7FF47FAEA0
:104F20002089E388B4F90420B4F9021000902069C4
:104F3000FFF736FA9BE0A37EB4F90200B4F904103F
:104F4000002B4AD02278052A08D1BBF1000F05D0EA
:104F5000484A166816B1484A126812B9474A484E7C
:104F600012689A4240F283801BB26DB103EB830258
:104F700006EB8202D2F808E0042202FA0EF2AA42FC
:104F800075D1AD0800D047B903EB830206EB82026E
:104F900001259768BD40D768ADB203EB83039B0042
:104FA00006EB030CF258DCF80430B4F808E0DCF847
:104FB00008805E08C6EB5E0EE6885408C4EB560611
:104FC00003FB02F408FB04F40494DCF8104003949F
:104FD0008DE8A0017144304416E03D78022D0DF1BA
:104FE000200E14D9E2882389029503FB02F46C4356
:104FF00004940424AC4001342744012404FA05F548
:105000000397CDF804E00095FFF762F92FE0012344
:10501000AB4007EB8302013B5E1CA2F10402E1D02E
:10502000967892F8018092F804C046EA0828D6786B
:105030004CEA062646EA08464EF82360EBE7257B55
:10504000E37AB4F90210B4F904202069012D19445F
:105050001A4404D0A57AAB4201D95D1B00E00025BB
:1050600064690294FF2401950094FFF741FC0DB0A0
:10507000BDE8F08F6804002070040020A8C5010876
:105080002CAE010810B588B004461C22002101A8EE
:1050900005F0D6FB03238DF804300B4B05941C6000
:1050A0004FF4A073ADF80A304FF4F073ADF80C3044
:1050B00001238DF8103000231A46194601A8FFF786
:1050C0004BFD08B010BD00BF6C04002000231A4641
:1050D0001946FFF741BD0000184BF7B52022C3F871
:1050E0008421174B17481B68174C184F6FF020018D
:1050F000196217490E684FF49675D96989061BD550
:105100001A62A6B90168B1F5967F10D2D4F800E012
:10511000998CC9B207F80E1021680131B1FBF5FE78
:1051200005FB1E112160016801310160E5E7998CE2
:10513000C9B28DF80710E0E703B0F0BD00E100E070
:10514000BC050020A4050020740400207804002081
:10515000A8050020BFF34F8F0449054BCA6802F42D
:10516000E0621343CB60BFF34F8FFEE700ED00E03A
:105170000400FA05024B14201860FFF769B800BF5D
:10518000140A002010B490B10B4A0C4C11680C4862
:1051900044F61F6399424FF00003236009490360FE
:1051A000136002D80B68462B04D04620086010BC60
:1051B000FFF74EB810BC70470C0A0020CC09002045
:1051C00080120020140A002030B5002287B04FF46E
:1051D00000414FF0904001F067FD012300244FF49F
:1051E0000045029301A903234FF0904004930195D9
:1051F000039401F075FC224629464FF0904001F0DF
:1052000053FD22464FF40071024801F04DFD07B0F6
:1052100030BD00BF0008004808B572B6FFF7D4FFE4
:1052200000224FF48071024801F03EFDFFF792FF2B
:105230000008004830B587B001230446802502935A
:1052400001A900230948019503930493059301F0F4
:1052500047FC04F001022946044801F025FD14B181
:10526000034B19221A7007B030BD00BF0008004878
:10527000E609002040B1064B4FF47A701B68B3FB7F
:10528000F0F0C00001F04CBA024B1860704700BF4C
:105290007C12002010E000E0014802F008B800BFD6
:1052A0000406002008B5144B5A69520722D5042180
:1052B00059614FF0904001F0F1FC104B48B10022D1
:1052C000012058601A609A60DA60BDE80840FFF774
:1052D00059BF5A6872B19A68196841F2873291428F
:1052E00001D9FFF799FF00225A60054A136843F479
:1052F0008023136008BD00BF00040140AC050020FE
:105300008C14002030B5ABB000240123402505A942
:105310005C480693019405950794089401F0E0FB1E
:1053200022462946574801F0BFFC574B4FF47A728A
:105330001B68B3FBF2F30A22534340F6B832B3FBC7
:10534000F2F30393039C631E0393002CFAD12023F2
:10535000059305A90B234B48069301F0C1FB40F6CA
:105360001C432146682210A8029305F069FA2146E1
:1053700004F1804404F5043418220AA805F060FA08
:10538000D4F8883043F04053C4F88830E36C43F4D9
:105390000053E364E36C03F400530493049B3B4B1E
:1053A0001093042315934FF480531E931C2301255F
:1053B000209310A88023179518951A951B951F9573
:1053C000219300F0EBFA014600284DD110A801F01E
:1053D00026F900284BD10E230A930D9006230E9038
:1053E0000F900AA910A80B950C9300F07FFC0028E1
:1053F00040D110A800F05EFF00283ED142F21071AB
:1054000010A800F0E3FB10A800F0C8FE83050CD53F
:1054100010A800F067FC0190019A029B5343AB4037
:105420004FF6F072B3FBF2F3019310A801F0D8F835
:1054300010A800F0EFFFE36A124843F40053E36260
:10544000E36A23F40053E362E36C23F40053E36460
:10545000602305930323069305A90023079308936C
:1054600001F03EFB01980AE06FF0010007E06FF0E9
:10547000020004E06FF0030001E06FF004002BB0C5
:1054800030BD00BF000800487C120020000004501E
:1054900070B5694D2B6808332B60684B187898B04D
:1054A00028B10138C0B2187008B9FFF7C3FE644BC9
:1054B0001B687BB1634B1A6808321A60624A19682C
:1054C0001268914206D361490A6842F400620A6098
:1054D00000221A605E4C6368002B42D023680833B8
:1054E0002360A3682268DB062BD540F2DC539A4286
:1054F00009D9A368DE0706D4A368564843F0010320
:10550000A360FEF7DDFF2168514B40F6B8329142AF
:1055100009D99A68900706D49A684F4842F0020267
:105520009A60FEF7CDFF2168494B41F288329142E3
:1055300017D99A68510714D49A6842F004029A6005
:105540000DE041F288339A420BD9A368DA0608D4F9
:10555000A3685B0705D4A36843F00403A360FFF7C7
:1055600033FE3E4B1B681BB13D4A13680833136082
:105570003C4A2968136899424ED93B4B1B78002B53
:105580004AD06668002E47D12B4B38491B68384DEE
:1055900003F51C53103308A8136005F0BFF9FFF79B
:1055A000B1FE0A234FF47A72B0FBF2F2B2FBF3F1D0
:1055B00003FB112230328DF82F202E228DF830205F
:1055C0006422B0FBF2F2B2FBF3F103FB11223032A2
:1055D000B0FBF3F08DF83120B0FBF3F203FB1200C7
:1055E000303056238DF8320022498DF8333008A828
:1055F0008DF8346005F072F90FCD01AC0FC495E859
:10560000070084E8070008A805F0FAF9334682B2DB
:1056100008A901A8FFF7A0FA174B1A6844F61F6102
:105620008A4207D81A6808321A601B688B4201D96F
:10563000FFF7A0FD18B070BD94140020E60900200B
:10564000080A002090140020100A00208C1400206A
:10565000AC050020480003085B0003088814002004
:10566000D0090020D8090020841200206700030818
:10567000CCD60108770003080C0A00202DE9F04180
:10568000B4B04FF480330793182301240225042774
:105690004FF0030807260DEB0300129306940F95B5
:1056A000CDF84080119413961495159702F0B8F830
:1056B000129A164BCDF808805343159AB3FBF2F3B8
:1056C000134A13600F23394601930DEB07000023A3
:1056D00003930493059302F0A1FD4FF40053169336
:1056E0004FF080632D930C23179316A84FF480136B
:1056F0001B93189619951A9503F0CEF916A81694CF
:10570000209403F0C9F934B0BDE8F08100127A00AA
:105710007C12002070B586B0044601F097F8314B3A
:1057200031494FF400421A61002302932F4B1B684A
:1057300013F4807F4FF6FF720B8810D1934208D08C
:105740002B4A5802024002F10062944245D30223E0
:1057500015E0284B9C4294BF012302230FE09342A3
:1057600008D0234A5802024002F10062944236D324
:10577000012304E01F4B9C4294BF022301230393A7
:105780000B884FF6FF72934209D05A02184B134010
:1057900003F100639C4206D204F1784304E0154B08
:1057A0009C42F9D90133E31ADB0A049301A90123CE
:1057B00002A80593104D01F03DF905F50066B542CC
:1057C00007D22146F5E80223002001F09FF80834B3
:1057D000F5E701F04DF806B070BD012200E00222AD
:1057E0000392D2E700200240E075FF1F0000014055
:1057F00000FE1F00FFFF07087C0A00202DE9F84388
:1058000088461646002A43D020F4FF6424F007049B
:10581000A04218D01F4B051B214618464FF40062CA
:1058200004F0AAFFC5F50067B74228BF37464146D6
:105830003A46284404F0A0FF2046FFF76BFFB84427
:10584000F61B04F500643546771BB5F5006F04EBD5
:10585000070947440BD94FF4006239460D4804F05C
:105860008BFF4846FFF756FFA5F50065ECE77DB1D5
:1058700049464FF40062074804F07EFF2A46394645
:10588000044804F079FF4846BDE8F843FFF742BFFB
:10589000BDE8F8837C0A00201FB5044610220021D1
:1058A000684604F0CDFF1CB1054B0293054B0393F2
:1058B000102269460448FFF7A1FF04B010BD00BFE5
:1058C00007B0ADDE8931010800080008704700000C
:1058D00010B5084C00231A4619462046FFF73CF93C
:1058E00004F12000002311220349BDE81040FFF716
:1058F00033B900BF08000308790003082DE9F0411F
:10590000114C0746884604F58076E569A5B1012D5E
:1059100003D0022D06D1414600E039460B480B4D1D
:1059200004F0FCFF284605F06BF8002382B22946FC
:105930002046FFF711F902E02046FFF7C7FB2034AD
:10594000B442E2D1BDE8F081E8D60108E7090020C1
:10595000FEE7704710B5044602F0EAFE4FF47A7392
:10596000B0FBF3F000F0DCFE002221464FF0FF30E8
:1059700000F096FE002010BD014B1868704700BF74
:105980009414002038B50446FFF7F6FF0546FFF7EC
:10599000F3FF401BA042FAD338BD7047F8B5044668
:1059A000002800F0D980856D25B9FFF7F6FFE56581
:1059B00084F85450226893689B0042BF936823F098
:1059C000005393609368DF0005D4936843F08053DD
:1059D0009360774B1B689368DE005FBFA36D43F055
:1059E0001003A365E36D5CBF43F00103E365A36DA2
:1059F00054BF01200020DD0600F1AA8093685907FA
:105A000000F1A680A36D43F00203A365936803F041
:105A10000303012B02D11368DB071AD46549664DD5
:105A20008A4240F0A380AB6803F00303012B40F0EF
:105A300095802968CF0740F1918083F0010303F03E
:105A4000010333B15D4DAB6823F47C1163680B43F4
:105A5000AB604FF4005797FAA7F7B7FA87F74FF400
:105A600080365FFA87FE96FAA6F6B6FA86F64FF407
:105A70006021F6B291FAA1F1B1FA81F1E368A76B66
:105A8000CDB2616A1F43A36801FA06F6A16A3B43DF
:105A9000E7690139A94007FA0EF7E56A3B4333434A
:105AA000012D43EA010303D0216B09B129430B43C4
:105AB000D568434929400B43D360936813F00C0F1A
:105AC00031D14FF4804393FAA3F3B3FA83F3022561
:105AD000DBB295FAA5F5B5FA85F5A669D16806FA9F
:105AE00003F3666BEDB206FA05F51D4321F480431E
:105AF00023F002032B43D360E36B012B0FD1256C02
:105B0000636C11692B43A56C43F001032B43E56CD7
:105B10001D4321F4FF6323F005032B4302E01369C7
:105B200023F0010313612369012B08BF216A136B62
:105B300003BF01F1FF3123F00F030B4323F00F03E9
:105B40001363A36D23F0030343F00103A365F8BDC2
:105B5000A36D43F01003A3650120F8BD19498B68BC
:105B600003F00303012B20D10B681BE08B68AA42D2
:105B700003F0030309D1012B03D10968CE073FF5D8
:105B80005CAF10498B6803F00303012B03D1096854
:105B9000C9073FF552AFAB6803F00303012B04D1F3
:105BA000054B1B6803F0010347E7002345E700BFEF
:105BB0007C12002000000450000104500003045037
:105BC00007C0F0FF0002045070470000F8B54569B7
:105BD000082D04460E4622D002683F4B9A4203D05D
:105BE00003F580739A426ED13C4B9968C9066AD01E
:105BF000996801F01F01052965D0996801F01F011E
:105C0000092960D09A6802F44042B2F5004F5DD095
:105C10009B6803F44043B3F5404F57D00425FFF78A
:105C2000ABFE074623681A6815420ED1721CFAD0E3
:105C30002EB9A36D43F00403A3650320F8BDFFF75D
:105C40009BFEC01B8642EDD2F3E7234E1968B34298
:105C500001F0080112D0224A93420FD0D2F8080175
:105C6000C70602F5807209D0906800F01F00052871
:105C700004D0926802F01F02092A01D1DA6800E01C
:105C8000F268082D01D11D6003E050045CBF0420C0
:105C90001860A06D40F40070A06509B90020F8BD3F
:105CA000DB6813F4406FF9D19204F7D4A36D23F4A9
:105CB0008073A365A06D10F48050EFD1A36D43F005
:105CC0000103A365F8BDD368DB07A7D5A36D43F037
:105CD0002003A3650120F8BD000004500003045018
:105CE000000204500368186C70470000F7B50023E9
:105CF000019390F85430012B00F06F810268936893
:105D000001245E0780F8544000F15E814E680C6803
:105D1000042E4FF4F86318D8D2F830E093FAA3F7C2
:105D2000B7FA87F7FFB293FAA3F5B5FA85F51F2303
:105D3000EDB2774303FA07F706FB05F32EEA0707F0
:105D400004FA03F33B4313634DE0092E18D8576B55
:105D500093FAA3F5B5FA85F5EDB2053E93FAA3F3F0
:105D6000B3FA83F34FF01F0E7543DBB20EFA05F55D
:105D70005E4327EA050704FA06F63E43566332E01F
:105D80000E2E18D8976B93FAA3F5B5FA85F5EDB2F8
:105D90000A3E93FAA3F3B3FA83F34FF01F0E754351
:105DA000DBB20EFA05F55E4327EA050704FA06F6AC
:105DB0003E43966317E0D76B93FAA3F5B5FA85F5E2
:105DC000EDB20F3E93FAA3F3B3FA83F34FF01F0E35
:105DD0007543DBB20EFA05F55E4327EA050704FAC0
:105DE00006F63E43D663936813F00C0F40F0CE8066
:105DF000092C4FF038038F681CD9D2F818C093FAD9
:105E0000A3FEBEFA8EFE5FFA8EFEA4F10A0593FA97
:105E1000A3F6B6FA86F6072305FB0EFEF6B203FAE2
:105E20000EFE6E432CEA0E0C07FA06F54CEA050549
:105E3000956116E0556993FAA3F6B6FA86F6F6B2BE
:105E400093FAA3F3B3FA83F34FF0070EDBB2664382
:105E50000EFA06F6634325EA060607FA03F535430C
:105E60005561D3680D694E69C3F3C1035B00013D01
:105E70009E404FF0F843032D42D8DFE805F00212B0
:105E80002232176E93FAA3F5B5FA85F5B14B3B4074
:105E9000EDB243F000431E4304FA05F52E431666A7
:105EA00074E0576E93FAA3F5B5FA85F5A94B3B401C
:105EB000EDB243F00043334304FA05F52B43536638
:105EC00064E0976E93FAA3F5B5FA85F5A14B3B40D4
:105ED000EDB243F00043334304FA05F52B439366D8
:105EE00054E0D76E93FAA3F3B3FA83F3994D3D4090
:105EF000DBB245F000452E4304FA03F3334344E09C
:105F0000156E93FAA3F3B3FA83F3DBB204FA03F347
:105F100005F0F8459D4202BF136E23F0004313665F
:105F2000556E4FF0F84393FAA3F3B3FA83F3DBB261
:105F300004FA03F305F0F8459D4202BF536E23F0C7
:105F400000435366956E4FF0F84393FAA3F3B3FA08
:105F500083F3DBB204FA03F305F0F8459D4202BF78
:105F6000936E23F000439366D56E4FF0F84393FA97
:105F7000A3F3B3FA83F3DBB205F0F84504FA03F3B5
:105F80009D4203D1D36E23F00043D366936803F0A0
:105F90000303012B02D11368DD0713D4CB68B3F1DF
:105FA000804F4FF001031AD0D2F8B010A34021EA7D
:105FB0000303C2F8B030112C51D1674B9B6813F426
:105FC000000F5AD0002403E0836D43F02003836563
:105FD000002380F854302046D9E00220D7E0D2F8E0
:105FE000B0508E68A3402B43082CC2F8B0304FF05D
:105FF00038031AD9D2F818E093FAA3F7B7FA87F75B
:10600000FFB2A4F1090193FAA3F5B5FA85F50723C8
:106010004F43EDB203FA07F74D432EEA070E06FA97
:1060200005F14EEA01019161C5E7516993FAA3F5C3
:10603000B5FA85F5EDB2671C93FAA3F3B3FA83F3CF
:106040004FF0070E7D43DBB20EFA05F521EA050598
:1060500007FB03F106FA01F129435161ABE7122C6A
:1060600004D13D4B9B6813F0807FAAE7002CA9D197
:10607000394B9B6813F4800FA3E7936803F0030385
:10608000012B02D11368D9070BD4344B34499A42FF
:1060900017D18B6803F00303012B08D10B68DB07D2
:1060A00005D5836D43F020038365012490E72D49D6
:1060B0008B6803F00303012B3DD10B68DF07F0D49D
:1060C00039E09D688A4205F003050CD1012D02D10B
:1060D0001B68DE07E5D4234DAB6803F00303012BF7
:1060E00006D12B6802E0012D02D11B68DD07D8D450
:1060F0008B6803F00303012B03D1194B1B68DB07EB
:10610000CFD4112C1AD1174B9A427FF45BAF124AAD
:10611000936843F400039360134B144A1B68B3FB6A
:10612000F2F2782353430193019B002B3FF44AAFD3
:10613000019B013BF7E7112C1AD1E8E7122C19D18A
:10614000084B9A427FF43EAF034A936843F0807352
:10615000936037E700F0FF03000304500000045091
:1061600000010450000204507C12002040420F0045
:10617000122CE9D0002C7FF425AF064B9A427FF415
:1061800021AF054A936843F48003936020E703B08E
:10619000F0BD00BF0000045000030450806D704744
:1061A00003689A6812F00C0F70B5044601D1002004
:1061B00070BDDA68900110D5E269012A0DD1A2699B
:1061C000012A0AD1214A1968490602D4013AFAD1B2
:1061D00031E040221A600C2101E060290BD09A685E
:1061E000560706D59A6895075EBF9A6842F0100276
:1061F0009A600C2910D09A68100706D59A68920701
:106200005EBF9A6842F020029A60602902D06C2931
:1062100004D001E0082502E0042500E00C25FFF78A
:10622000ABFB064623689B681D42C0D0FFF7A4FB6A
:10623000801B0528F6D9A36D43F01003A365E36D19
:1062400043F00103E365012070BD00BF01340A0083
:1062500038B503689A6802F00302012A044604D1A3
:106260001A68D10701D5002038BD9968104A0A4044
:106270009AB99A6842F001029A60FFF77DFB0546E1
:1062800023681A68D207EED49A6842F001029A6035
:10629000FFF772FB401B0228F2D9A36D43F01003F5
:1062A000A365E36D43F00103E365012038BD00BF42
:1062B0003F00008038B503689B6813F0040504466E
:1062C0006AD190F85430012B66D0012380F8543005
:1062D000FFF7BEFF00285CD1A36D304A13F4805352
:1062E0001CBFE36D23F00603E365A36D23F4706325
:1062F00023F0010343F48073A3652368934208D01D
:1063000002F50072934204D002F580729268D006C2
:1063100003D1A26D22F48012A26520481C22834280
:106320001A6012D01E4A93420FD0D2F80811C90643
:1063300002F5807209D0916801F01F01052904D08F
:10634000926802F01F02092A10D1DA68920141BF57
:10635000A26D22F4405242F48052A2659A68002055
:1063600042F0040284F854009A6038BDA36D43F4EF
:106370008013A365C3689B0142BFA36D23F4405300
:1063800043F480534FF0000048BFA36584F85400E5
:1063900038BD84F8545038BD022038BD0000045088
:1063A0000002045038B503680446986800F0030002
:1063B000012801D0002038BD1A68D207FAD59A68A2
:1063C00002F00D02012A09D19A6842F002029A6095
:1063D00003221A60FFF7D0FA054608E0A36D43F0E8
:1063E0001003A365E36D43F00103E36538BD236843
:1063F0009B68DB07DED5FFF7BFFA401B0228F6D902
:10640000A36D43F01003A365E36D43F00103E3655F
:10641000012038BD10B50446002800F0A680836D29
:1064200043F002036C218365FFF7BAFE2268D3684C
:1064300043F40013D3602046FFF7B4FF23685A6883
:1064400022F4FF6222F007025A6040F2FF721A60E3
:106450009A6822F0A0429A609A6842F000529A60CC
:10646000D968564A0A40DA60DA6842F00042DA60D7
:106470001A6922F4FF6222F007021A615A6902F0D7
:1064800040425A619A6902F078429A611A6A02F0AF
:10649000F0221A625A6A02F0FF225A629A6A02F0E5
:1064A000FF229A62196B464A0A401A63596B454AA1
:1064B0000A405A63996B434A0A409A63DA6B22F4A2
:1064C000FB6222F00702DA63196E3F4A0A401A663D
:1064D000596E3D4A0A405A66996E3B4A0A409A668E
:1064E000D96E394A0A40DA66D3F8A020D20CD20419
:1064F000C3F8A020D3F8A420D20CD204C3F8A4205F
:10650000D3F8B020D20CD204C3F8B020D3F8B42012
:1065100022F07F12C3F8B4209A6802F00302012A25
:1065200002D11A68D10715D4284A2949934226D1A5
:106530008B6803F00303012B19D10A68D20716D523
:1065400083F0010303F0010323B1224A224B916837
:106550000B4093602046FFF737FB0020E065206684
:106560006066A06584F8540010BD012010BD1B4A70
:10657000936803F00303012B1ED1136819E08B42CB
:10658000936803F0030308D1012B02D11268D007EE
:10659000D6D4124A936803F00303012B02D1126888
:1065A000D207CDD48B6803F00303012B04D1084B31
:1065B0001B6803F00103C3E70023C1E704800080E8
:1065C000300882E0200882E000F0FF030000045061
:1065D0000001045000030450E01000FE00020450CB
:1065E00090F85430012B10B5044616D0012380F8E2
:1065F00054306C21FFF7D4FD58B92046FFF7D2FE86
:1066000038B9A36D23F4885323F0010343F0010349
:10661000A365002384F8543010BD022010BD90F80B
:106620005430012B70B504460D4637D0012680F852
:106630005460FFF7B7FEA36D40BB23F4885323F0EB
:10664000020343F00203A3652368996821F08041A7
:106650000D439D609A6842F000429A604FF47A427E
:10666000996800290BDA013AFAD1A36D84F8542015
:1066700023F0120343F01003A365012070BDA36D46
:1066800023F0030343F00103A36503E043F0100389
:10669000A3653046002384F8543070BD022070BDDD
:1066A000174BDB68C3F3022330B5C3F107041D1D8C
:1066B000042C28BF0424062D4FF0010505FA04F42C
:1066C00004F1FF348CBF033B00230C409C4005FACF
:1066D00003F3013B1A40002842EA04024FEA021287
:1066E000AFBF00F1604000F00F00064BD2B2A5BF73
:1066F00000F56140D2B21A5480F8002330BD00BFCB
:1067000000ED00E014ED00E04209012300F01F005D
:1067100003FA00F0014B43F82200704700E100E06B
:10672000B0F1807F0BD2074B074A0138F021586047
:1067300082F823100020072298601A607047012019
:10674000704700BF10E000E000ED00E0324B1A6936
:10675000920741BF31494A6842F001024A601B6911
:106760001B0741BF2D4A536843F0020353602A4B75
:106770001A69D00641BF29494A6842F004024A60BA
:106780001B69990641BF254A536843F008035360CB
:10679000214B1A69520641BF20494A6842F0100253
:1067A0004A601B691B0641BF1C4A536843F0200323
:1067B0005360194B1A69D00541BF18494A6842F025
:1067C00040024A601B69990541BF144A536843F06F
:1067D00080035360104B1A69520441BF0F494A6845
:1067E00042F480724A601B691B0441BF0B4A536824
:1067F00043F400735360084B9A69002ABFBF0749EE
:106800004A6842F480624A609A6942F000429A61A2
:106810004CF2FA321A6170470020024098140020AE
:10682000094A536943F4802330B5536172B601F5C8
:106830008073401AD1E900450A1808319942C2E92B
:106840000045F7D162B630BD00200240064B5A69C0
:10685000002ABFBF054A9A6002F188320020B4BF07
:106860009A600120704700BF002002402301674565
:10687000034A536943F0004353610020704700BF4F
:106880000020024070B50446FFF776F81E4D061949
:106890002A691D4BD00307D5631CF9D0FFF76CF8AC
:1068A0008642F5D8032070BD1A6991071FD41A6972
:1068B00012071CD41A69D60619D41A69950616D47B
:1068C0001A69540613D41A69100610D41A69D1052E
:1068D0000DD41A6992050AD41B695B0407D40A4ACD
:1068E000106910F4004002D19369002B03DAFFF71E
:1068F0002DFF012070BD136913F0010302D00123A5
:10690000136170BD184670BD002002402DE9F843A8
:106910001B4D99462B78012B06460F4690462CD0EE
:1069200001244CF250302C70FFF7ACFF08BB6860BC
:1069300046B9144A506920435061C7F80080C7F82F
:1069400004900CE0731E012B01D9002407E041469E
:106950003846FFF765FF022EF7D14FF480244CF242
:106960005030FFF78FFF24B1064A536923EA04042D
:10697000546100232B70BDE8F8830220BDE8F88342
:106980009814002000200240094B10F0010F1EBF98
:106990005A6942F004025A61820742BF5A6942F4BE
:1069A00000425A615A6942F480325A61704700BF0E
:1069B000002002400C4B5A6911F0010F14BF22F461
:1069C000006242F400625A615A6922F4FF6242EAAC
:1069D000C00058615A6942F002025A615A6942F491
:1069E00080325A61704700BF00200240104B1A6885
:1069F00091050BD51A6822F400721A601A6842F4E5
:106A000000621A601A6842F400721A60084B1A6831
:106A100052050BD51A6822F480621A601A6842F493
:106A200080521A601A6842F480621A60704700BF90
:106A3000002002402DE9F843274D2B78012B064614
:106A4000884646D001234CF250302B70FFF71AFFD6
:106A50000446002838D133686860012B0FD1706874
:106A6000FFF792FF4CF25030FFF70CFF1B4A5369BF
:106A700023F4004323F004030446536122E04FF063
:106A8000FF33C8F80030B768DFF85090B268F36899
:106A900013449F4216D271683846FFF78BFF4CF2C1
:106AA0005030FFF7EFFED9F8143023F4FF6323F0E2
:106AB0000203C9F8143018B1C8F80070044601E0A8
:106AC0000137E3E7FFF792FF00232B702046BDE874
:106AD000F8830220BDE8F8839814002000200240CB
:106AE0002DE9F04FD1F800B0DFF8AC81684C85B0EB
:106AF00000233BFA03F200F0C78001269E401BEA08
:106B0000060E00F0BF804A6822F01009B9F1020FAA
:106B100014D14FEAD30C00EB8C0C03F0070ADCF81D
:106B200020704FEA8A0A0F2505FA0AF527EA0507B9
:106B30000D6905FA0AF53D43CCF820504FEA430CA5
:106B40000325076805FA0CF5ED4302F0030A0195E9
:106B500009F1FF393D400AFA0CF73D43B9F1010F45
:106B6000056013D88768019D05EA0709CF6807FA11
:106B70000CF747EA090787604768C2F3001927EA5C
:106B8000060709FA03F949EA07074760BAF1030F54
:106B900007D1C76A27EA0606C2F3C0079F403E43F3
:106BA000C662C668019D35408E6806FA0CF635430C
:106BB000C560D50066D5D8F8605045F00105C8F825
:106BC0006050D8F8605023F0030707F1804705F0C4
:106BD000010507F58037039503F0030C039DBE689C
:106BE0004FEA8C0C0F2505FA0CF5B0F1904F26EA10
:106BF000050619D0274DA84218D005F58065A84292
:106C000016D005F58065A84214D005F58065A84228
:106C100012D005F58065A84210D005F58065A84220
:106C200014BF072506250AE0002508E0012506E037
:106C3000022504E0032502E0042500E0052505FA0D
:106C40000CF53543BD60124D2D686FEA0E06D70373
:106C500054BF35404EEA050525606568970354BF6B
:106C600035404EEA05056560A568D70254BF35403A
:106C70004EEA0505A560E568920254BF35404EEA2C
:106C80000505E560013334E705B0BDE8F08F00BFCE
:106C9000000401400004004800100240036919424A
:106CA00014BF0120002070470AB1816170478162E2
:106CB0007047000030B50568064C686804400398CA
:106CC00020430343C1F309010B4343EA02426A60D4
:106CD00030BD00BF009800FC70B504460D46FEF7BD
:106CE0004BFE23680646986910F0100038D094F8DF
:106CF0003520122A07D094F83520522A03D094F870
:106D00003520622A12D15A6890010FD45A6842F491
:106D100080425A600AE09A69920611D4691CFAD03E
:106D200035B1FEF729FE801B854201D32368F2E7C7
:106D3000012384F83530002384F83430032070BDFB
:106D40001022DA612022DA615968064A0A405A6044
:106D50000423A3630120002384F8350084F8343031
:106D600070BD00BF00E800FE2DE9F04104460E466C
:106D700090461D46FEF700FE0746B8F1000F29D1E8
:106D800022689369DB43C3F31003334210D0691CBC
:106D9000F7D08DB1FEF7F0FDC01B8542F0D20BE0BD
:106DA0006B1C08D19369DB43C3F310033342F7D064
:106DB0000020BDE8F08145B9012384F83530002377
:106DC00084F834300320BDE8F081FEF7D5FDC01B08
:106DD0008542F1D32268E5E770B504460D46FEF71B
:106DE000CBFD064623689B699B0617D4294620469F
:106DF000FFF772FFA0B95DB9A36B43F02003A36353
:106E0000012384F83530002384F83430032070BD2A
:106E1000FEF7B2FD801B8542E4D2EDE7002070BD95
:106E2000012070BD704710B50446002844D090F88A
:106E3000353003F0FF021BB980F83420FFF7F2FF72
:106E4000022384F835302368E1681A6822F00102D1
:106E50001A60626822F070621A619A6822F4004235
:106E60009A60A26842B1012903D142F400429A60BB
:106E700007E042F404429A60022904BF4FF4006222
:106E80005A605A68216942F0007242F400425A6026
:106E900062690A43A16942EA0122DA60E169226A71
:106EA0000A431A601A6842F001021A6000200123A6
:106EB000A06384F8353010BD012010BD2DE9F341E9
:106EC000174690F83520D2B2012A044688461D465E
:106ED0006DD10FB901206BE0002BFBD003689B69DB
:106EE00013F4004363D190F83460012E5FD080F832
:106EF0003420222280F83520FF2D83634FF4105375
:106F0000009307D94FF08073FF22FFF7D3FEFF26CF
:106F1000013F21E04FF00073EAB2FFF7CBFE2E46AF
:106F2000F6E72368013D5B6A07F8013F013EADB219
:106F300024D12DB3089B324680212046FFF714FF51
:106F400030BBFF2D009610D94FF08073FF224146D1
:106F50002046FFF7AFFEFF26089B002204212046B3
:106F6000FFF702FF0028DCD012E04FF00073EAB216
:106F700041462046FFF79EFE2E46EDE7002DEBD161
:106F800019212046FFF728FF20B1A36B042BA1D0C5
:106F900003200DE023682022DA615968064A0A407E
:106FA0005A60012384F8353084F8340000E0022070
:106FB00002B0BDE8F08100BF00E800FE90F8353077
:106FC000DBB2022B02462DD090F83530122B2BD09D
:106FD00090F83530222B27D090F83530322B23D043
:106FE00090F83530422B4FF002001ED092F834302A
:106FF000012B1AD0136882F83500186820F00100C0
:107000001860186820F480501860186801431960EF
:10701000196841F001011960012382F8353000231D
:1070200082F83430184670470220704790F8803359
:10703000012B10B5044609D0012380F88033006885
:1070400002F0B1FE002084F8800310BD022010BDC4
:1070500070B54EB2002E04464FF01C0501F07F00C3
:10706000B5BF05FB004105FB0141383101F5EE716B
:10707000C0B2002EB8BFC880022BCB704FEAD675C5
:1070800004BF00230B7108704D7094F880338A6040
:10709000012B09D0012384F88033206802F002FC20
:1070A000002084F8800370BD022070BD10B501F08F
:1070B0007F0104461C2000FB0140C0F8F031002392
:1070C000C0F8E821C0F8F43180F8DD3180F8DC1137
:1070D0002369012B08BFC0F8EC2194F88023012A12
:1070E00016D01C2202FB0142012002F5EE7284F848
:1070F0008003DBB221B92168204602F031FD03E0B4
:107100002168204602F010FC002084F8800310BDA6
:10711000022010BD10B501F07F0104461C2000FBC9
:107120000140C364002303650123426480F83930C1
:1071300080F838102369012B08BF826494F88023FB
:10714000012A15D01C2202FB01420120383284F8AA
:107150008003DBB221B92168204602F001FD03E083
:107160002168204602F0E0FB002084F8800310BD77
:10717000022010BD38B54BB2002B01F07F054FF057
:107180001C02B5BF02FB050102FB0101383101F50C
:10719000EE710122DB0FEDB28A700D704B7090F82A
:1071A0008033934204460FD080F88023006802F0B9
:1071B000AAFD2DB904F56172217C206802F050FE11
:1071C000002084F8800338BD022038BD38B54BB2AA
:1071D000002B05464FF01C0201F07F00B5BF02FBFB
:1071E000005102FB0151383101F5EE71DB0F002433
:1071F0008C7008704B7095F88033012B09D00123F7
:1072000085F88033286802F0B0FD85F88043204679
:1072100038BD022038BD2DE9F3471C2404FB0104CE
:107220000768266DE36C9B1B266C07F5106A9E426F
:1072300028BF1E46814688460AEB411AF51C0423E6
:1072400095FBF3F5DAF818309BB29D420BD9002E6E
:1072500029DCD7F83428012303FA08F822EA0803C6
:10726000C7F834381FE0226DE36C9A42EFD2002B4E
:10727000EDD0266C9B1A9E4228BF1E46F51C0423A7
:1072800095FBF3F599F8103000935FFA88F2B3B2EA
:10729000616C384602F014FD636C33446364236D03
:1072A00033442365CEE7002002B0BDE8F0872DE926
:1072B000F74F06680446304602F0B3FD002840F060
:1072C0000A82206802F07FFD002800F00482206816
:1072D00002F079FD800748BF2268206842BF5369E9
:1072E00003F00203536102F06EFD10F400205BD046
:1072F000206802F06CFD06F530698046A3464F46D3
:107300000025B8F1000F50D018F0010F45D0EAB2B7
:1073100011462068019202F06AFD10F0010F8246CA
:107320002ED00123BB60D9F80810090420D42169AC
:10733000019A99420CD13969DBF8E401C1F31201D9
:10734000411ACBF8F411DBF8E8110844CBF8E80156
:107350001146204602F0BCFD2169012908D13DB942
:10736000D4F8F02122B904F56172206802F078FDAA
:10737000D9F8082042F4004242F02002C9F808205F
:107380001AF0080F04D0204602F08EFD0823BB60DF
:107390001AF0100F1CBF1023BB6001354FEA5808CC
:1073A00020370BF11C0BACE70546206802F00BFD03
:1073B00042035CD5206802F012FD06F51067814695
:1073C000A2460025B9F1000F51D019F0010F47D0A6
:1073D0005FFA85FB5946206802F013FD10F0010F9B
:1073E000804622D00120D6F8341800FA05FC21EAA4
:1073F0000C01C6F834182169B860814201BFDAF87F
:107400004400DAF840100918CAF8441020465946DA
:1074100002F088FD2169012907D135B9E26C22B952
:1074200004F56172206802F01BFD18F0080F1CBF04
:107430000822BA6018F0100F1CBF1023BB6018F0B0
:10744000400F1CBF4023BB6018F0020F1CBF02237B
:10745000BB6018F0800F03D029462046FFF7DBFE03
:1074600001354FEA590920370AF11C0AAAE72068BA
:1074700002F0A9FC002818DAD6F8043823F001033A
:10748000C6F8043894F8B433012B06D1002184F8EF
:10749000B413204602F05CFE02E0204602F0BAFD82
:1074A0002268536903F000435361206802F08BFCAB
:1074B00003050BD5D6F80838DF0702D5204602F0C1
:1074C00085FD2268536903F400635361206802F06C
:1074D0007AFC000116D523685A6902F000625A61ED
:1074E00094F8B4235AB95B6D0121C3F3830384F884
:1074F000B413C4F8B833204602F02AFE02E0204656
:1075000002F064FD206802F05EFCC10443D506F57C
:1075100000677B68206823F001037B60002102F094
:10752000AFF9606806F510630022FF21824205D0A2
:1075300099600132C3F808122033F7E74FF0FF33A8
:10754000BB61FB6943F00113FB61236B53B1D7F8B7
:10755000843043F00B03C7F884307B6C43F00B039B
:107560007B6407E07B6943F00B037B613B6943F07D
:107570000B033B61D6F80038217C206823F4FE63BE
:10758000C6F8003804F5617202F06AFC226853699B
:1075900003F480535361206802F015FC820417D570
:1075A000206802F042FC2368DA6822F47052DA6044
:1075B0000322E26040226261DA6842F4A052DA609B
:1075C000204602F0EBFC2268536903F40053536138
:1075D000206802F0F8FBC30637D52268936923F0D0
:1075E00010039361376AC7F34343022B07F00F0878
:1075F00014D147F6F0733B4013B31C2303FB084838
:10760000C7F30A173A46D8F8E811304602F06BFB88
:10761000D8F8E8313B44C8F8E8310CE0062B0FD12C
:10762000082204F56171304602F05DFB1C2303FB68
:107630000848C7F30A17D8F8F4311F44C8F8F471A2
:107640002268936943F010039361206802F0BBFB4A
:10765000070707D5204602F08FFC2268536903F024
:1076600008035361206802F0AEFBC60208D5E9B2F8
:10767000204602F001FD2268536903F48013536130
:10768000206802F0A0FB800208D5E9B2204602F093
:10769000E9FC2268536903F400135361206802F087
:1076A00092FB410007D5204602F0F0FC22685369A6
:1076B00003F080435361206802F085FB42070AD53E
:1076C00023685D686B0702D5204602F0E3FC226860
:1076D00053682B43536003B0BDE8F08F70B5046866
:1076E000606A19B940EA0243A36216E0A36A002562
:1076F00000EB13434E1EE8B2B04205F1010506DA75
:10770000403004EB8000406803EB1043F3E73F3167
:1077100004EB810443EA02436360002070BD000073
:10772000024B186800F4C060704700BF0070004052
:10773000174B1A68B0F5007F02F4C0621AD1B2F597
:10774000007F20D01A68134922F4C06242F400720C
:107750001A60114A1268B2FBF1F132224A4322B197
:107760005969490501D5013AF9E7094B5B695B05A0
:107770000BD408E0B2F5806F1FBF1A6822F4C06214
:1077800042F480621A60002070470320704700BFF7
:107790000070004040420F00B414002037B51E4D69
:1077A000AB6DD900044602D5FFF7BAFF0EE0AB6D12
:1077B00043F08053AB65AB6D03F080530193019BA5
:1077C000FFF7AEFFAB6D23F08053AB65B0F5007FE4
:1077D00006D1802C0CD9A02C8CBF022301230CE0F5
:1077E000802C07D808D0A4F170025342534104E022
:1077F000002302E0032300E0022308490A6822F084
:1078000007021A430A60086800F00700C01A18BF90
:10781000012003B030BD00BF001002400020024034
:1078200003682DE9F743DC06054640F1ED80B74CCF
:10783000A36813F00C0F68D1022393FAA3F2B2FAF3
:1078400082F2C2F3421242F00102012A01D12268FF
:1078500010E093FAA3F2B2FA82F293FAA3F3B3FA26
:1078600083F3C3F3421343F00103032B0CBFD4F89B
:107870009420E269022393FAA3F3B3FA83F303F0AB
:107880001F0322FA03F3D80704D5AB6913B901200B
:1078900000F0BEBC22689D4B286A110756BFD3F882
:1078A00094301B681B0903F0F003834215D2FFF7E5
:1078B00075FF0028EBD1236843F008032360236899
:1078C00023F0F0022B6A134323606368EA6923F410
:1078D0007F4343EA0223636013E0236843F0080315
:1078E0002360236823F0F003034323606368EA699D
:1078F00023F47F4343EA02236360FFF74FFF00282E
:10790000C5D10120FEF726F87EE08369002B47D021
:10791000236843F001032360FEF72EF80226074692
:1079200096FAA6F3B3FA83F3C3F3421343F00103C9
:10793000012B01D1236810E096FAA6F3B3FA83F382
:1079400096FAA6F3B3FA83F3C3F3421343F00103A9
:10795000032B0CBFD4F89430E36996FAA6F2B2FA7E
:1079600082F202F01F02D340DA0707D4FEF704F8D0
:10797000C01B6428D4D9032000F04ABC236843F01C
:1079800008032360236823F0F0022B6A134323606B
:107990006368EA6923F47F4343EA0223636033E0C8
:1079A000236823F001032360FDF7E6FF0226074664
:1079B00096FAA6F3B3FA83F3C3F3421343F0010339
:1079C000012B01D1236810E096FAA6F3B3FA83F3F2
:1079D00096FAA6F3B3FA83F3C3F3421343F0010319
:1079E000032B0CBFD4F89430E36996FAA6F2B2FAEE
:1079F00082F202F01F02D340DB0705D5FDF7BCFF82
:107A0000C01B6428D4D9B6E72B68DC0704D42B68E4
:107A1000980700F10281BCE13C4CA36803F00C0321
:107A2000082B09D0A36803F00C030C2B33D1E368B7
:107A300003F00303032B2ED14FF4003393FAA3F288
:107A4000B2FA82F2C2F3421242F00102012A01D1DB
:107A5000226810E093FAA3F2B2FA82F293FAA3F347
:107A6000B3FA83F3C3F3421343F00103032B0CBFB8
:107A7000D4F89420E2694FF4003393FAA3F3B3FAF5
:107A800083F303F01F0322FA03F3D907BFD56B6812
:107A9000002BBCD1FBE6236823F4803323602368EA
:107AA00023F480232360FDF767FF4FF40036074679
:107AB00041F2883896FAA6F3B3FA83F3C3F342137C
:107AC00043F00103012B01D1236810E096FAA6F3DD
:107AD000B3FA83F396FAA6F3B3FA83F3C3F342132C
:107AE00043F00103032B0CBFD4F89430E36996FAFA
:107AF000A6F2B2FA82F202F01F02D340DA0707D5EB
:107B0000FDF73AFFC01B4045D4D934E700100240CE
:107B10006B68B3F5803F0AD0B3F5A02F0CD1236872
:107B200023F480332360236843F480232360236895
:107B300043F48033236008E0226822F4803222601C
:107B4000226822F4802222609BB3FDF715FF4FF4D8
:107B50000036074641F2883896FAA6F3B3FA83F363
:107B6000C3F3421343F00103012B01D1236810E05A
:107B700096FAA6F3B3FA83F396FAA6F3B3FA83F36D
:107B8000C3F3421343F00103032B0CBFD4F894302A
:107B9000E36996FAA6F2B2FA82F202F01F02D3402B
:107BA000DB073FF534AFFDF7E7FEC01B4045D3D9F7
:107BB000E1E6FDF7E1FE4FF40036074641F2883872
:107BC00096FAA6F3B3FA83F3C3F3421343F0010327
:107BD000012B01D1236810E096FAA6F3B3FA83F3E0
:107BE00096FAA6F3B3FA83F3C3F3421343F0010307
:107BF000032B0CBFD4F89430E36996FAA6F2B2FADC
:107C000082F202F01F02D340D8077FF500AFFDF7E4
:107C1000B3FEC01B4045D3D9ADE6C74CA36803F003
:107C20000C03042B09D0A36803F00C030C2B33D1F5
:107C3000E36803F00303022B2ED14FF4806393FA21
:107C4000A3F2B2FA82F2C2F3421242F00102012A16
:107C500001D1226810E093FAA3F2B2FA82F293FA09
:107C6000A3F3B3FA83F3C3F3421343F00103032BEB
:107C70000CBFD4F89420E2694FF4806393FAA3F325
:107C8000B3FA83F303F01F0322FA03F3D9073BD5BA
:107C9000EB68002B38D1FAE5EB68002B44D0236861
:107CA00043F480732360FDF767FE4FF48066074658
:107CB00096FAA6F3B3FA83F3C3F3421343F0010336
:107CC000012B01D1236810E096FAA6F3B3FA83F3EF
:107CD00096FAA6F3B3FA83F3C3F3421343F0010316
:107CE000032B0CBFD4F89430E36996FAA6F2B2FAEB
:107CF00082F202F01F02D340DA0705D4FDF73CFE02
:107D0000C01B6428D4D936E662684FF0F85393FA62
:107D1000A3F3B3FA83F32969DBB201FA03F322F088
:107D2000F8521343636034E0236823F480732360C4
:107D3000FDF722FE4FF48066074696FAA6F3B3FAE3
:107D400083F3C3F3421343F00103012B01D12368F2
:107D500010E096FAA6F3B3FA83F396FAA6F3B3FA11
:107D600083F3C3F3421343F00103032B0CBFD4F896
:107D70009430E36996FAA6F2B2FA82F202F01F0298
:107D8000D340DB0705D5FDF7F7FDC01B6428D4D928
:107D9000F1E52B68180703D42B68590765D465E112
:107DA0006B69654C83B3D4F8943043F00103C4F895
:107DB0009430FDF7E1FD02268046374696FAA6F399
:107DC000B3FA83F396FAA6F3B3FA83F396FAA6F31B
:107DD000B3FA83F3C3F3421343F00303032B0CBF43
:107DE000D4F89420E26997FAA7F3B3FA83F303F087
:107DF0001F0322FA03F3DA07CED4FDF7BDFDC8EB6B
:107E000000006428DAD9B6E5D4F8943023F00103F1
:107E1000C4F89430FDF7B0FD02268046374696FA46
:107E2000A6F3B3FA83F396FAA6F3B3FA83F396FABA
:107E3000A6F3B3FA83F3C3F3421343F00303032B14
:107E40000CBFD4F89420E26997FAA7F3B3FA83F34E
:107E500003F01F0322FA03F3DB079DD5FDF78CFD2A
:107E6000C8EB00006428DAD985E5334CA36DDE0049
:107E70000AD4A36D43F08053A365A36D03F0805330
:107E80000193019B012600E000262C4F3B68D8059A
:107E900012D5D4F8903023F00103C4F89030D4F810
:107EA000903023F00403C4F89030FDF765FD0227FD
:107EB000804641F288392DE03B6843F480733B6093
:107EC000FDF75AFD80463B68D905E2D4FDF754FD25
:107ED000C8EB00006428F6D94DE597FAA7F3B3FA8A
:107EE00083F3C3F3421343F00203032B0CBFD4F814
:107EF0009430E36997FAA7F2B2FA82F202F01F0215
:107F0000D340DA071CD5FDF737FDC8EB0000484524
:107F10003FF631AD97FAA7F3B3FA83F397FAA7F3D5
:107F2000B3FA83F3C3F3421343F00203022BD4D119
:107F3000D4F89030DEE700BF00100240007000402F
:107F4000AB68012B21D093B9D4F8903023F0010312
:107F5000C4F89030D4F8903023F00403C4F8903083
:107F6000FDF70AFD0227804641F2883951E0052BD2
:107F7000D4F8903023F00103C4F89030D4F8903056
:107F800008D143F00403C4F89030D4F8903043F0A3
:107F9000010301E023F00403C4F89030FDF7ECFC8A
:107FA0000227814641F2883897FAA7F3B3FA83F3A0
:107FB00097FAA7F3B3FA83F3C3F3421343F0020330
:107FC000022B02D1D4F890300CE097FAA7F3B3FA61
:107FD00083F3C3F3421343F00203032B0CBFD4F823
:107FE0009430E36997FAA7F2B2FA82F202F01F0224
:107FF000D340DB0726D4FDF7BFFCC9EB00004045AA
:10800000D2D9B8E4FDF7B8FCC8EB000048453FF60C
:10801000B2AC97FAA7F3B3FA83F397FAA7F3B3FADC
:1080200083F3C3F3421343F00203022B10D1D4F8BD
:10803000903097FAA7F2B2FA82F202F01F02D34010
:10804000D807DFD496B1A36D23F08053A3650DE06C
:1080500097FAA7F3B3FA83F3C3F3421343F002038F
:10806000032B0CBFD4F89430E369E2E76A6A0AB9DB
:108070000020CDE0684CA36803F00C030C2B3FF408
:1080800006AC2368022A23F08073236040F08380CB
:10809000FDF772FC4FF00076074696FAA6F3B3FAA6
:1080A00083F3C3F3421343F00103012B01D123688F
:1080B00010E096FAA6F3B3FA83F396FAA6F3B3FAAE
:1080C00083F3C3F3421343F00103032B0CBFD4F833
:1080D0009430E36996FAA6F2B2FA82F202F01F0235
:1080E000D340D90705D5FDF747FCC01B6428D4D978
:1080F00041E4296BAB6A6A6B43EA0123E96A0139FF
:1081000043EA0113120943EA4241AB6B5B08013BAE
:1081100041EA4352EB6B5B08013B42EA4363E36095
:10812000236843F080732360E36843F08073E36067
:10813000FDF722FC4FF00075064695FAA5F3B3FA59
:1081400083F3C3F3421343F00103012B01D12368EE
:1081500010E095FAA5F3B3FA83F395FAA5F3B3FA11
:1081600083F3C3F3421343F00103032B0CBFD4F892
:108170009430E36995FAA5F2B2FA82F202F01F0296
:10818000D340DA073FF574AFFDF7F6FB801B642898
:10819000D3D9FFF7F0BBE36823F00303E360E368A0
:1081A00023F0887323F48033E360FDF7E5FB4FF0A1
:1081B0000075064695FAA5F3B3FA83F3C3F34213A9
:1081C00043F00103012B01D1236810E095FAA5F3D8
:1081D000B3FA83F395FAA5F3B3FA83F3C3F3421327
:1081E00043F00103032B0CBFD4F89430E36995FAF4
:1081F000A5F2B2FA82F202F01F02D340DB077FF54C
:1082000037AFFDF7B9FB801B6428D3D9FFF7B3BBA9
:1082100003B0BDE8F08300BF00100240C44B1A68F1
:1082200002F007028A422DE9F04105460E4680F031
:10823000FE801A6804299CBF22F007020A431A60D4
:108240001B6803F00703994202D00120BDE8F081CA
:1082500001688A0706D5B748836823F0F002AB6847
:1082600013438360CB070BD429684F0740F1E081AB
:10827000B048836823F4E062EB6813438360D7E17E
:108280006A68AC4C022A21D14FF4003393FAA3F16F
:10829000B1FA81F1C1F3421141F00101012901D18B
:1082A000216810E093FAA3F1B1FA81F193FAA3F3F4
:1082B000B3FA83F3C3F3421343F00103032B0CBF60
:1082C000D4F89410E1694FF4003365E0032A21D11A
:1082D0004FF0007393FAA3F1B1FA81F1C1F34211A7
:1082E00041F00101012901D1216810E093FAA3F1C5
:1082F000B1FA81F193FAA3F3B3FA83F3C3F3421310
:1083000043F00103032B0CBFD4F89410E1694FF044
:10831000007341E0FAB9022393FAA3F1B1FA81F1B3
:10832000C1F3421141F00101012901D1216810E09E
:1083300093FAA3F1B1FA81F193FAA3F3B3FA83F3B9
:10834000C3F3421343F00103032B0CBFD4F8941082
:10835000E169022320E04FF4806393FAA3F1B1FABC
:1083600081F1C1F3421141F00101012901D12168DC
:1083700010E093FAA3F1B1FA81F193FAA3F3B3FAFF
:1083800083F3C3F3421343F00103032B0CBFD4F870
:108390009410E1694FF4806393FAA3F3B3FA83F383
:1083A00003F01F0321FA03F3DE077FF54EAFA36846
:1083B00023F003031A43A260FDF7DEFA6B68022B79
:1083C000064641F288370DD1A36803F00C03082B51
:1083D0003FF44AAFFDF7D0FA801BB842F4D903202E
:1083E000BDE8F081032B0BD1A36803F00C030C2B29
:1083F0003FF43AAFFDF7C0FA801BB842F4D9EEE77C
:108400007BB9A36813F00C0F3FF42EAFFDF7B4FA5D
:10841000801BB842F5D9E2E7FDF7AEFA801BB842FF
:10842000DDD8A36803F00C03042BF5D11CE7016829
:108430008C0706D53F48836823F0F002AB681343EE
:108440008360C80708D4042E394A00F2E880136814
:1084500023F007033343E3E06A68364C022A21D154
:108460004FF4003393FAA3F1B1FA81F1C1F3421151
:1084700041F00101012901D1216810E093FAA3F133
:10848000B1FA81F193FAA3F3B3FA83F3C3F342137E
:1084900043F00103032B0CBFD4F89410E1694FF4AF
:1084A00000336AE0FAB9022393FAA3F1B1FA81F139
:1084B000C1F3421141F00101012901D1216810E00D
:1084C00093FAA3F1B1FA81F193FAA3F3B3FA83F328
:1084D000C3F3421343F00103032B0CBFD4F89410F1
:1084E000E169022349E0032A26D14FF0007393FA91
:1084F000A3F1B1FA81F1C1F3421141F00101012967
:1085000001D1216810E093FAA3F1B1FA81F193FA55
:10851000A3F3B3FA83F3C3F3421343F00103032B32
:108520000CBFD4F89410E1694FF0007325E000BF50
:1085300000200240001002404FF4806393FAA3F140
:10854000B1FA81F1C1F3421141F00101012901D1D8
:10855000216810E093FAA3F1B1FA81F193FAA3F341
:10856000B3FA83F3C3F3421343F00103032B0CBFAD
:10857000D4F89410E1694FF4806393FAA3F3B3FA4B
:1085800083F303F01F0321FA03F3D9077FF55DAEF0
:10859000A36823F003031A43A260FDF7EDF96B68AB
:1085A000022B07460DD141F28838A36803F00C0373
:1085B000082B3FF448AFFDF7DFF9C01B4045F4D965
:1085C0000DE7032B0DD141F28838A36803F00C03AB
:1085D0000C2B3FF438AFFDF7CFF9C01B4045F4D961
:1085E000FDE613B941F2873808E041F2883810E01F
:1085F000FDF7C2F9C01B40453FF6F1AEA36813F08A
:108600000C0FF5D11FE7FDF7B7F9C01B40453FF64A
:10861000E6AEA36803F00C03042BF4D113E7136850
:108620001360136803F007039E427FF40EAE1BE64F
:108630000B0707D5064A2969936823F4605343EA78
:10864000C10393600120FDF785F90020BDE8F081AA
:108650000010024032498B6803F00C03042B10B564
:1086600028D08B6803F00C03082B25D08B6813F0FF
:108670000C0F09D08B6803F00C030C2B1FD1CB68B7
:1086800003F00303012B1AD10A68254B120754BFCC
:10869000D3F894301B68234A54BFC3F30323C3F3B6
:1086A000031352F823408B6813F00C0F0CBF2046C5
:1086B000002006E01C4800E01C48002401E00020E7
:1086C00004468A68164B02F00C020C2A26D1DA689E
:1086D000D86802F00302C0F30210022A00F1010080
:1086E00006D0032A0CD1DB68104AC3F3062303E04B
:1086F000DB680D4AC3F30623B2FBF0F0434306E008
:10870000DA68B4FBF0F0C2F3062200FB02F3C8689B
:10871000C0F3416001304000B3FBF0F010BD00BF7A
:1087200000100240DC0003080024F40000127A006C
:1087300008B5FFF78FFF094B9A68F02393FAA3F36C
:10874000B3FA83F302F0F002DBB222FA03F3044A35
:10875000D35CD840034B186008BD00BF0010024036
:10876000CA000308B4140020F8B5424C236823F073
:10877000806323600546FDF7FFF84FF0006607466B
:1087800096FAA6F3B3FA83F3C3F3421343F001035B
:10879000012B01D1236810E096FAA6F3B3FA83F314
:1087A00096FAA6F3B3FA83F3C3F3421343F001033B
:1087B000032B0CBFD4F89430E36996FAA6F2B2FA10
:1087C00082F202F01F02D340DA0706D5FDF7D4F893
:1087D000C01BB0F57A7FD3D931E023692A6823F42E
:1087E000FE4343EA0223236123696A6823F40033CA
:1087F000120943EA42432361236843F08063236004
:10880000FDF7BAF84FF00066074696FAA6F3B3FAFA
:1088100083F3C3F3421343F00103012B11D1236807
:1088200096FAA6F2B2FA82F202F01F02D340DB07F8
:1088300019D4FDF7A1F8C01BB0F57A7FE5D9032064
:10884000F8BD96FAA6F3B3FA83F396FAA6F3B3FA51
:1088500083F3C3F3421343F00103032B0CBFD4F89B
:108860009430E369DCE722692B691343236100201C
:10887000F8BD00BF00100240F8B5424C236823F059
:10888000805323600546FDF777F84FF00056074602
:1088900096FAA6F3B3FA83F3C3F3421343F001034A
:1088A000012B01D1236810E096FAA6F3B3FA83F303
:1088B00096FAA6F3B3FA83F3C3F3421343F001032A
:1088C000032B0CBFD4F89430E36996FAA6F2B2FAFF
:1088D00082F202F01F02D340DA0706D5FDF74CF80A
:1088E000C01BB0F57A7FD3D931E063692A6823F4DD
:1088F000FE4343EA0223636163696A6823F4003339
:10890000120943EA42436361236843F080532360C2
:10891000FDF732F84FF00056074696FAA6F3B3FA81
:1089200083F3C3F3421343F00103012B11D12368F6
:1089300096FAA6F2B2FA82F202F01F02D340DB07E7
:1089400019D4FDF719F8C01BB0F57A7FE5D90320DB
:10895000F8BD96FAA6F3B3FA83F396FAA6F3B3FA40
:1089600083F3C3F3421343F00103032B0CBFD4F88A
:108970009430E369DCE76269EB68134363610020CC
:10898000F8BD00BF00100240F8B5424C236823F048
:10899000806323600546FCF7EFFF4FF00066074653
:1089A00096FAA6F3B3FA83F3C3F3421343F0010339
:1089B000012B01D1236810E096FAA6F3B3FA83F3F2
:1089C00096FAA6F3B3FA83F3C3F3421343F0010319
:1089D000032B0CBFD4F89430E36996FAA6F2B2FAEE
:1089E00082F202F01F02D340DA0706D5FCF7C4FF7B
:1089F000C01BB0F57A7FD3D932E023692A6823F40B
:108A0000FE4343EA02232361AA6823695208013A1C
:108A100023F4C00343EA42532361236843F0806395
:108A20002360FCF7A9FF4FF00066074696FAA6F30D
:108A3000B3FA83F3C3F3421343F00103012B11D1C3
:108A4000236896FAA6F2B2FA82F202F01F02D3402D
:108A5000DB0719D4FCF790FFC01BB0F57A7FE5D98E
:108A60000320F8BD96FAA6F3B3FA83F396FAA6F3B9
:108A7000B3FA83F3C3F3421343F00103032B0CBF98
:108A8000D4F89430E369DCE722692B69134323614E
:108A90000020F8BD001002402DE9F347056815F4E9
:108AA0000065044627D0436DB3F5800F12D004D87B
:108AB00003BB0430FFF758FE0FE0B3F5000F03D0FF
:108AC000B3F5400F0BD015E0AE4AD36843F48033C2
:108AD000D36004E01830FFF7CFFE054658B9A94926
:108AE000D1F8883023F44002636D1343C1F8883015
:108AF000002500E001252368D80429D5A36DB3F132
:108B0000807F12D004D813BB201DFFF72DFE10E08C
:108B1000B3F1007F03D0B3F1407F0CD017E0994A46
:108B2000D36843F48033D36005E004F11800FFF705
:108B3000A3FE064600E02E4666B99249D1F8883079
:108B400023F04072A36D1343C1F8883003E0012580
:108B50002E4600E035462368990340F18480894F12
:108B6000BB6DDA000BD4BB6D43F08053BB65BB6DAE
:108B700003F080530193019B4FF0010801E04FF097
:108B80000008DFF80492D9F8003043F48073C9F884
:108B90000030FCF7F1FE8246D9F80030DB0506D440
:108BA000FCF7EAFECAEB00006428F5D952E0002E7B
:108BB00051D1D7F89020616F724B02F440728A4213
:108BC00011D0D3F89060D3F8902042F48032C3F8EB
:108BD0009020D3F8902026F4407622F48032C3F817
:108BE0009020C3F89060B00740F1CC81FCF7C4FE40
:108BF0000226814641F2883A96FAA6F3B3FA83F345
:108C000096FAA6F3B3FA83F3C3F3421343F00203D5
:108C1000022B02D1D7F890300CE096FAA6F3B3FA03
:108C200083F3C3F3421343F00203032B0CBFD7F8C3
:108C30009430FB6996FAA6F2B2FA82F202F01F02B1
:108C4000D340D90700F19E81FCF796FEC9EB0000E6
:108C50005045D1D90326B8F1000F05D0BB6D23F0E4
:108C60008053BB6500E02E462368DA0708D54548E7
:108C7000D0F8882022F00301A26A0A43C0F88820B5
:108C80009F0708D53F48D0F8882022F00C01E26AFF
:108C90000A43C0F888205D0708D53A48D0F88820F4
:108CA00022F03001226B0A43C0F88820180708D54B
:108CB0003448D0F8882022F0C001626B0A43C0F823
:108CC0008820D90608D52F48D0F8882022F4407192
:108CD000A26B0A43C0F888209A0608D52948D0F824
:108CE000882022F44061E26B0A43C0F888209F0587
:108CF00008D52448D0F8882022F44021E26C0A43A9
:108D0000C0F888205D0508D51E48D0F8882022F4D8
:108D10004011226D0A43C0F88820580608D519482A
:108D2000D0F8882022F44051226C0A43C0F88820F1
:108D3000190608D51348D0F8882022F44041626C07
:108D40000A43C0F88820DA0508D50E48D0F88820F4
:108D500022F44031A26C0A43C0F888209F041ED53B
:108D6000084AE16DD2F8883023F040630B43B1F13B
:108D7000006FC2F8883009D1D36843F48013D36000
:108D80000DE000BF0010024000700040B1F1806FA4
:108D900005D1201DFFF7F8FD002818BF06462368FF
:108DA0001D0319D5BB4A216ED2F8883023F04063E9
:108DB0000B43B1F1006FC2F8883004D1D36843F49B
:108DC0008013D36008E0B1F1806F05D1201DFFF75B
:108DD000DBFD002818BF06462368580319D5AD4AA5
:108DE000616ED2F8883023F040630B43B1F1006F1D
:108DF000C2F8883004D1D36843F48013D36008E00C
:108E0000B1F1806F05D1201DFFF7BEFD002818BF0E
:108E100006462368590440F19C809E4DA76ED5F804
:108E2000883023F040533B43B7F1805FC5F888306A
:108E300037D12B6823F080632B60FCF79DFD4FF04A
:108E40000067804697FAA7F3B3FA83F3C3F342139C
:108E500043F00103012B01D12B6810E097FAA7F32F
:108E6000B3FA83F397FAA7F3B3FA83F3C3F3421386
:108E700043F00103032B0CBFD5F89430EB6997FA4C
:108E8000A7F2B2FA82F202F01F02D340DA0740F1F1
:108E90008380FCF771FDC8EB0000B0F57A7FD1D973
:108EA000DAE0B7F1005F54D12B6823F080532B60D8
:108EB000FCF762FD804697FAA7F3B3FA83F3C3F396
:108EC000421343F00103012B01D12B6810E097FA04
:108ED000A7F3B3FA83F397FAA7F3B3FA83F3C3F3D1
:108EE000421343F00103032B0CBFD5F89430EB6918
:108EF00097FAA7F2B2FA82F202F01F02D340D80723
:108F000076D5FCF739FDC8EB0000B0F57A7FD2D9F1
:108F1000A2E0FCF731FDC8EB0000B0F57A7F00F26B
:108F20009B8097FAA7F3B3FA83F3C3F3421343F09A
:108F30000103012B4AD12B6897FAA7F2B2FA82F209
:108F400002F01F02D340DB07E3D52A6963691343AC
:108F50002B6121680A0408D54E48D0F8883023F0E8
:108F60008042E36E1343C0F88830CB0340F18D801C
:108F70004849D1F8883023F00042236F1343C1F8E9
:108F8000883082E0D7F8903023F44072636F134347
:108F9000C7F890302E465EE62B69626823F4FE43E4
:108FA00043EA02232B6122692B695208013A23F01C
:108FB000C06343EA42632B612B6843F080632B60FC
:108FC000FCF7DAFC4FF000678046AAE797FAA7F3B0
:108FD000B3FA83F397FAA7F3B3FA83F3C3F3421315
:108FE00043F00103032B0CBFD5F89430EB69A3E7E2
:108FF0006B69A26923F4FE4343EA02236B61226A90
:109000006B695208013A23F0C06343EA42636B6123
:109010002B6843F080532B60FCF7AEFC4FF00057F9
:10902000804697FAA7F3B3FA83F3C3F3421343F0EE
:109030000103012B12D12B6897FAA7F2B2FA82F240
:1090400002F01F02D340D9071AD4FCF795FCC8EBF5
:109050000000B0F57A7FE4D903267AE797FAA7F300
:10906000B3FA83F397FAA7F3B3FA83F3C3F3421384
:1090700043F00103032B0CBFD5F89430EB69DBE719
:109080006A69636A13436B6163E7304602B0BDE807
:10909000F08700BF0010024070B50446002850D091
:1090A00090F85D301BB980F85C30FCF752FC216809
