:020000040800F2
:200000000080002089010008000000000000000000000000000000000000000000000000AE
:200020000000000000000000000000000000000000000000000000000000000000000000C0
:200040000000000000000000000000000000000000000000000000000000000000000000A0
:20006000000000000000000000000000000000000000000000000000000000000000000080
:20008000000000000000000000000000000000000000000000000000000000000000000060
:2000A000000000000000000000000000000000000000000000000000000000000000000040
:2000C000000000000000000000000000000000000000000000000000000000000000000020
:2000E000000000000000000000000000000000000000000000000000000000000000000000
:200100000000000000000000000000000000000000000000000000000000000000000000DF
:200120000000000000000000000000000000000000000000000000000000000000000000BF
:2001400000000000000000000000000000000000000000000000000000000000000000009F
:2001600000000000000000000000000000000000000000000000000000000000000000007F
:20018000000000000000000007B5074B074A99680190914201D1DB689847019803B05DF806
:2001A00004EB00F02DBF00BF0008000807B0ADDE0000000000000000000000000000000063
:2001C00000000000000000000000000000000000000000000000000000000000000000001F
:2001E0000000000000000000000000000000000000000000000000000000000000000000FF
:200200000000000000000000000000000000000000000000000000000000000000000000DE
:200220000000000000000000000000000000000000000000000000000000000000000000BE
:2010000082B00D4A0D4B0E4901908B4204D252F8040F43F8040BF8E70A4B0B4A002193423E
:2010200002D243F8041BFAE7084B094A9A60019802B002F001BA00BFDC1001080000002035
:2010400000000020000000200019002000ED00E080100008000000000000000000000000B2
:20106000000000000000000000000000000000000000000000000000000000000000000070
:201080000080002089010008997F00089B7F00089D7F00089F7F0008A17F0008000000006A
:2010A000000000000000000000000000A37F0008A57F000800000000212A0008612C0008F2
:2010C000ED390008ED390008ED390008ED390008ED390008ED390008ED390008ED390008A0
:2010E000312A0008ED390008ED390008ED390008ED390008ED390008ED390008ED3900084B
:20110000ED390008ED390008ED390008ED390008ED390008ED390008ED390008B52A0008A6
:20112000ED390008ED390008ED390008ED390008ED390008ED390008ED390008ED3900083F
:20114000ED390008ED390008ED390008ED390008ED39000889280008ED390008ED39000894
:2011600085120008ED390008ED390008ED390008ED390008ED390008ED390008ED3900088E
:20118000ED390008ED390008ED390008ED390008ED390008ED390008ED390008ED390008DF
:2011A000ED390008ED390008ED390008ED390008ED390008ED390008ED390008ED390008BF
:2011C000ED390008ED390008ED390008252A0008ED390008ED390008ED390008ED39000876
:2011E000ED390008ED390008ED390008ED390008ED390008ED390008ED39000800000000AD
:20120000ED390008ED3900088007054B48BF41F48071D9609A689207FCD50020704700BF33
:2012200000380040F8B507460D4601202A2116461C46FFF7E9FF390A0220FFF7E5FFF9B2F7
:201240000220FFF7E1FF310A0220FFF7DDFFF1B20220FFF7D9FF2B210120FFF7D5FF290A6A
:201260000220FFF7D1FFE9B20220FFF7CDFF210A0220FFF7C9FFE1B20220BDE8F840FFF774
:20128000C3BF000070B58AB04FF48063009308230DEB03024C213B4803F0D4FE9DF808300A
:2012A000522B68D19DF80930374DFF2B0BD12B881E0460D46B881D045DD472B6334A1368B2
:2012C00043F4806355E01A019DF80A609DF80C109DF80D0002F4706216431B029DF80B2054
:2012E00003F470631A430B0103F47063184309029DF80E30040501F4706143EA010344BFB5
:201300006FEA00506FEA1050190548BF6FEA03534FF0000148BF6FEA1353298100B92BB152
:2013200030441344012100B21BB2298102EB8201C6EB06129211C2F5F072491129806A80B5
:201340002A89114C12B27AB103EB8302202392FBF3F212B2A280C0EB0013402293FBF2F3ED
:20136000C3F5F0731BB2E38072B6084A136843F00203136062B6064B4FF400625A610AB0FF
:2013800070BD00BF24000020580F002030060020000401400E490B6840F202421A406AB93E
:2013A0000C4B188900B248B11A819A881A80DA885A800B6843F002030B607047064B5A6916
:2013C000120504D54FF400625A61FFF75BBF704730060020580F0020000401402DE9F04F7F
:2013E000D04BD14FDFF86883D04CDFF868A34FF0000B4FF6FF72A3F808B01A805A80CC4B14
:20140000C3F800B0CB4B8DB04FF4806220210646C948C3F800B0012508F084FA4FF480631E
:2014200007A9384607930895CDF824B0CDF828B003F01AFC4FF40063079307A9BF4B089373
:201440003846099503F010FC4FF44073079303230A9307A9042340464FF012090B93CDF804
:201460002090099503F000FCA36D43F40013A365A36D03F40013594603933C225046039BEC
:2014800008F050FAAE4BAF4ACAF80C5050468AE80C0003F08CFD5946504603F053FE7B690D
:2014A00023F480637B61002E40F01982E36C43F00203E364E36C03F002030493049BE36CC3
:2014C00043F00403E364E36C03F004030593059BA36D43F48043A365A36D099603F480438F
:2014E0000693069B4FF4204302244FF0050B079307A9032340460A930894CDF82CB003F0D4
:20150000B3FB4FF4804307A940460793089509960A9603F0A9FBD8F8143043F48043C8F806
:20152000143007A938460794089509960A9603F09BFB7B69844A854823F002037B6113684B
:2015400023F0400313604FF4827343604FF40063C3604FF400734FF00A0A83610823009373
:20156000436301920260866006614661C661066246628662C0F82CA0066305F0E4FF019A5D
:20158000116841F0400111607A6922437A613C2002F0AEFAD8F8142022F48042C8F8142006
:2015A00011212120FFF730FEC82002F0A1FAB9212846FFF729FEFF212046FFF725FE832177
:2015C0002046FFF721FE57212220FFF71DFE504602F08EFAB1212846FFF716FE314620468E
:2015E000FFF712FE49462046FFF70EFE49462046FFF70AFE49462046FFF706FEC3212046C2
:20160000FFF702FE44212220FFF7FEFD504602F06FFAB4212846FFF7F7FD21462046FFF75B
:20162000F3FD40212046FFF7EFFD31462046FFF7EBFD2A212046FFF7E7FD2A212046FFF724
:20164000E3FD20212046FFF7DFFD91212220FFF7DBFD504602F04CFAB6212846FFF7D4FD95
:2016600038212220FFF7D0FD504602F041FAB0212846FFF7C9FD68212046FFF7C5FDE321A3
:201680002846FFF7C1FD2F212046FFF7BDFD1F212046FFF7B9FDB5212846FFF7B5FD294615
:2016A0002046FFF7B1FD29462046FFF7ADFD67212046FFF7A9FDC0212846FFF7A5FD7021A9
:2016C0002046FFF7A1FD70212046FFF79DFD29462046FFF799FD3C212046FFF795FDC821F4
:2016E0002046FFF791FD009B22201946FFF78CFD504602F0FDF9C2212846FFF785FD314687
:201700002046FFF781FD009B20461946FFF77CFD04212220FFF778FD504602F0E9F9CC21F7
:20172000284619E0580F00200008004800100240640400206004002060000020000021105C
:20174000912970000054004000380040C80500200004004824000020FFF756FD59462220AC
:20176000FFF752FD504602F0C3F9E0212846FFF74BFD29462046FFF747FD21462046FFF761
:2017800043FD03212046FFF73FFD59462046FFF73BFD0E212046FFF737FD22212046FFF7BC
:2017A00033FD32212046FFF72FFD3B212046FFF72BFD5C212046FFF727FD54212046FFF770
:2017C00023FD4C212046FFF71FFD41212046FFF71BFD3D212046FFF717FD37212046FFF7AC
:2017E00013FD31212046FFF70FFD21212046FFF70BFD29462046FFF707FD21462046FFF7E7
:2018000003FD03212046FFF7FFFC59462046FFF7FBFC0E212046FFF7F7FC22212046FFF73E
:20182000F3FC32212046FFF7EFFC3B212046FFF7EBFC5C212046FFF7E7FC54212046FFF7F3
:20184000E3FC4C212046FFF7DFFC41212046FFF7DBFC3D212046FFF7D7FC37212046FFF72F
:20186000D3FC31212046FFF7CFFC21212046FFF7CBFC31462046FFF7C7FC29462046FFF75A
:20188000C3FC504602F034F93A212846FFF7BCFC55212046FFF7B8FC36212846FFF7B4FC6C
:2018A00031462046FFF7B0FCB0212846FFF7ACFC99212046FFF7A8FC29462046FFF7A4FCA7
:2018C00022212846FFF7A0FC29212120FFF79CFC504602F00DF9114800F070FF02E0C8209C
:2018E00002F006F90E4C636943F4806363610A2002F0FEF8636923F4806363610A2002F03B
:20190000F7F8636943F480636361064B4FF48072C3F884210DB0BDE8F08F00BFF9F9F900BD
:201920000008004800E100E013212120FFF76CBC10B51D4B9AB0044618603C2200210BA898
:2019400007F0F0FF4FF080430B930BA8174B0E9305F0FEFF10220021684607F0E3FF4FF43C
:20196000805369460BA8009306F03CF90BA806F009F81C22002104A807F0D4FF40F6C410EB
:2019800060436023002204A90493059004230BA8089306F07BFA0BA805F069FF00210BA862
:2019A00006F0E6F91AB010BD0000002090D003002DE9F84F00280C9EDDF834800E9F5ADB9E
:2019C000002958DB0B9CDFF8B4C0A4F1040E00240A9DAC421DD0102C1BD05EF8045F4FEA53
:2019E000154929F00709C5F3423549EA05050CF81450DEF800504FEA551A0CEB44092AF060
:201A00001F0AC5F3C4054AEA050589F801500134DEE780B289B2013B013A0B4402449BB24C
:201A200092B2FFF7FFFB2C2101200124FFF7ECFBB440124D013CF7B118F801ABB146C6EB66
:201A400009032AFA03F323404FEA430BAB4415F813100220FFF7D8FB9BF801100220FFF7B0
:201A6000D3FBB9F1070FA7EB0607E4D8B144002FE5D1BDE8F88FBDE8F88F00BF0400002068
:201A80002DE9F84F01248440DFF84880054689461646013CE6B119F801AB2F467B1B2AFA2B
:201AA00003F323404FEA430BC34418F813100220FFF7AAFB9BF801100220FFF7A5FB072FBD
:201AC000A6EB0506E6D82F44002EE7D1BDE8F88FBDE8F88F04000020F8B5069C050C460928
:201AE0001F4605F0F805C0F3423306F0E006C0F3C4001D430643631E88B291B27A1E0B4486
:201B000002449BB292B2FFF78DFB2C210120FFF77BFB7C43EDB2F6B24CB129460220FFF70C
:201B200073FB31460220FFF76FFB013CF4E7F8BD30B5254C236887B005467BB12349244A08
:201B400000231360A1F140004FF47072236007F085FE402220211F4807F0E4FE0A2D15D1FB
:201B60004FF48062012304921B4A23600392002340F25F104FF4A07181228DE8070005933A
:201B8000164A1946184600F0E7F91AE00D2D07D110484022202107B0BDE8304007F0C2BE0E
:201BA000A5F120035F2B0CD809490B4A0B681A4401333E2B0B6088BF012382F8C05388BF3F
:201BC000236007B030BD00BF60040020A0000020640400202004002060000020F9F9F900A4
:201BE00038B504464518AC4204D014F8010BFFF79FFFF8E738BD00000FB42DE9F04F87B0C0
:201C0000109C002C00F0778111ABB24DB24E01932378002B00F06F812346C4EB03091F4686
:201C200013F8012B252A08D149462046FFF7D8FF3B78252B04D03C46EAE7002AEDD1F3E797
:201C40000022019B781C94464FF0200E904617464FF00A0A0178582900F1010400F0DE8027
:201C600016D82E2957D00BD82A2967D02D2903D14FF0000C2046EDE7252940F035812FE198
:201C80003029C0F03181392920D9482961D02BE1702916D007D864292DD068295ED063294D
:201CA00040F022811DE0752900F0AD80782908D0732940F0198102B101934FF0000A0A23FD
:201CC00051E002B101934FF0000CABE0302903D1002F08BF4FF0300E0AFB0711A1F1300730
:201CE000C8E702B10193019B06A81A1D1B68019240F8183DF6E002B10193019B1A1D1B6857
:201D00000192002B80F285805B4200934FF0000C01230A228DE041782A2940F0E5808178BC
:201D2000732904D001F0DF01482940F0DD800122D3F80080841C043394469BE7417873296E
:201D400040F0D280D3F80080012204334FF0020C90E702B101934FF0010A03E002B10193DD
:201D60004FF0000A1023019ABCF1010F02F104010191106818D0BCF1020F07D00246C0EB1D
:201D8000020812F8011B0029F9D10DE00378002B40F0AC8001215148FFF722FF434608F1DD
:201DA000FF38002BF6D122E0102B02D10746804414E04146FFF714FFC14618E017F8019BAB
:201DC0004FEA191309F00F09BAF1000F09D1F05CFFF7AEFE16F80900FFF7AAFE4745EDD10C
:201DE00016E7E85CFFF7A4FE15F80900F4E7B945BFF40EAFC9EB070701213848FFF7F0FE63
:201E0000013FF9D104E702B10193019B1A1D1B6801924FF0000C009363467AE702B101936E
:201E20004FF0010C019B1A1D1B680192009310220023DDF80080012002FB00F1414502D9C0
:201E400043B9194613E0B1FBF2F94845F8D1013F0846F1E7BEF1300F04BF2D238DF8083023
:201E600007F1FF3707BF0023012101230021A7F10209B9F10D0F0DD801F1FF390DF1080B5B
:201E800007F1FF3AD944BAF1010A09F801EFFAD1394401392BB106AB0B442D2703F8107C14
:201EA000013102AB4F1C0B44791E88B1B8FBF0F1B1FBF2FE02FB1E11BCF1000F01D1895DE9
:201EC00000E0495D1970B0FBF2F001370133EBE702A80DE0AD9B00089C9B00082C0E0108BF
:201EE00002B10193012103E002B1019304480521FFF776FE8CE607B0BDE8F04F04B07047FB
:201F0000BE9B0008C0F30B000A28F0B51ED8114C54F82050E5B1AF78134400209A4214D0C8
:201F200012F8014BAE88B44213D3B5F806E074450FD8A41BAE6816F8244011B106198E420E
:201F400007DC3C440444A0B2E8E7F0BD0020F0BD2846F0BDC8DF00082DE9F04FC0F30B0B53
:201F60008DB0BBF10A0F9A46169D0A920B9155D82C4B53F82B00002851D0179ADDF86480C7
:201F80000678099352440692189A05EB0209827807921A9A424408925446089B984539D0C2
:201FA000099A18F8013B52F82B2091888B4202D3D088834208D9093B012B2BD8354473196C
:201FC000994527D35446E8E79068D2685B1A00EB830110F8237049880A440699E31999427A
:201FE00004D235447319994514D3544617FB06F30493012302930AAB0193022303920093B6
:202000003A46334620462946FFF7D2FC079B1F443C44C2E7A4B244EA054000E000200DB07A
:20202000BDE8F08FC8DF00082DE9F04F8DB091460593059C9DF858300693179BC4F101020B
:2020400080460E460792C3EB040B23B1BBF1000FD4BF0023012302930BF1FF330393F31A41
:202060000893CBF10103049309F1FF330993069B03F0010300270B930125BC42C0F20581ED
:202080000B9BCBB1029B83B1039B1898009507EB090AE31A52463146FFF71EFD0398009518
:2020A000A1195B465246091A03E0099A0095234631464046FFF710FD069B99071AD5029BB9
:2020C00004EB09027BB1059BA34205D00095049B18983146FFF700FD049900955B4604EB70
:2020E0000902711803E000953B46013A31464046FFF7F2FC069B5A071BD5331B0A93029BBD
:2021000083B1039B1898009507EB090AE31A5246311BFFF7E1FC03980095311B5B4652463A
:20212000091A03E0099A00952346311B4046FFF7D3FC069B1B0719D5029B04EB090273B1F5
:20214000059BA34205D00095049B1898F11BFFF7C3FC00955B4604EB0902089903E0009537
:202160003B46013AF11B4046FFF7B6FC069BD80618D5029B0095C7EB090A6BB1039B18989C
:20218000E31A52463146FFF7A7FC03980095A1195B465246091A02E0234652463146404674
:2021A000FFF79AFC069B990619D5029BC4EB09027BB1059BA34205D00095049B189831462D
:2021C000FFF78AFC049900955B46C4EB0902711802E000953B4631464046FFF77DFC069B68
:2021E0005A061BD5C7EB09030A93029B0095C4EB060A6BB1039B0A9A1898E31A5146FFF7AB
:202200006BFC039900955B460A9AC1EB0A0102E00A9A234651464046FFF75EFC069B1B060C
:2022200018D5029BC4EB090273B1059BA34205D00095049B1898F11BFFF74EFC00955B4676
:20224000C4EB0902089902E000953B46F11B4046FFF742FC079B0594002B07F10107C3BF7D
:20226000079A04F1FF343B1B03EB4703C8BF02EB430301330793089B013B0893049B013332
:202280000493099B01330993F7E60DB0BDE8F08F2DE9F04F90F800A08DB0044615469B4635
:2022A0002AF0800A0F4600293CD0002A3FD0BAF1050F00F0DC81068BB54BB0F80680C6F333
:2022C0000B02304653F8223093F801901B7807930A46EBB2CDF800B04146FFF713FE06F4AB
:2022E0004043B3F5804F06D0B3F5004F06D14008C0EB580804E0C0EB080801E04FF0000826
:2023000006F44056B6F5805F08D0B6F5005F13D126897608013EA6EB59060EE02689C9EB30
:2023200006060AE0079189460E46884605E0079291461646904600E000260AF1FF33062B33
:2023400000F23182DFE813F007003F0107008201930117023F01E3882089E17A4FEA53094C
:202360004208914528BF91468945227B28BF8946B4F90210012A4FEA490AB4F90420009087
:20238000CAEB0303494459D06069FFF7A5FB2389B4F90420B4F90210CAEB030300934A4455
:2023A0004B466069FFF798FBE388B4F90210B4F9042019442389CAEB0303009301394B461D
:2023C0004A44C9EB01016069FFF786FBE388B4F90210A07AB4F904200090CAEB030349448C
:2023E0002069FFF779FBB4F904102289E388A07A0A44B4F902100090CAEB0303013A4944D9
:202400002069FFF769FB2089B4F90420A37AB4F90210CAEB000000904A442069FFF75CFBDA
:20242000B4F90200E188B4F90420A37A01442089CAEB000000904A4401391DE02069FFF71F
:202440004BFB2389B4F90420B4F90210CAEB030300934A444B462069FFF73EFBE388B4F9BD
:202460000210B4F9042019442389CAEB030300934A444B46C9EB01012069FFF72DFBB9F1FC
:20248000010F5ED9237B012B06D094F80AA0D14502D9CAEB090A01E04FF0000A6369B4F9C3
:2024A0000420B4F902100293C0230093CDF804A04B464A4449442069FFF7B6FDE388B4F9CF
:2024C0000210A07AB4F9042019446369029330230093CDF804A0C9EB0101091A4B464A44FA
:2024E0002069FFF7A1FD2389B4F90420A07AB4F902101A44636902930C230093CDF804A07F
:20250000C9EB0202121A4B4649442069FFF78CFD2389B4F90420B4F90210A07A1A44E38892
:2025200019446369029303230093C9EB0202C9EB0101CDF804A0121A091A4B462069FFF7EE
:2025400073FD002F36D0002D34D0237B22696169B4F902C0B4F90490208B012B1EBF1346F5
:202560000A461946E388C444C8EB0308A37AB14413B14FEA430E01E04FF0020ECEEB080822
:20258000B4F808E0C6EB0E0623B14FEA430E03E0C8DF00084FF0020ECEEB06030293CDF887
:2025A00014B004950397CDF80480CDF800906346FFF7D2FCA37E002B00F0F580B4F90200B9
:2025C000B4F904105AE0237B012B14D1BAF1070FB4F9043014BFB4F808E0DDF81CE06069AE
:2025E000B4F902100CBF4A4600229A1AE388CDF800E0FFF771FA002F00F0D580002D00F0E9
:20260000D280B4F904E021696269B4F90230208BBAF1070F14BFB146C9F10009F144BAF1CA
:20262000070FB4F806E02489CDF814B008BF00264344A61BC8EB0E08049503970296CDF82E
:202640000480CDF80090FFF787FCACE001232373E37A002B7FF47FAE2089E388B4F90420D5
:20266000B4F9021000902069FFF736FA9BE0A37EB4F90200B4F90410002B4AD02278052A42
:2026800008D1BBF1000F05D0484A166816B1484A126812B9474A484E12689A4240F2838071
:2026A0001BB26DB103EB830206EB8202D2F808E0042202FA0EF2AA4275D1AD0800D047B9BC
:2026C00003EB830206EB820201259768BD40D768ADB203EB83039B0006EB030CF258DCF825
:2026E0000430B4F808E0DCF808805E08C6EB5E0EE6885408C4EB560603FB02F408FB04F46F
:202700000494DCF8104003948DE8A0017144304416E03D78022D0DF1200E14D9E28823891E
:20272000029503FB02F46C4304940424AC4001342744012404FA05F50397CDF804E000951E
:20274000FFF736F92FE00123AB4007EB8302013B5E1CA2F10402E1D0967892F8018092F81C
:2027600004C046EA0828D6784CEA062646EA08464EF82360EBE7257BE37AB4F90210B4F903
:2027800004202069012D19441A4404D0A57AAB4201D95D1B00E0002564690294FF24019550
:2027A0000094FFF741FC0DB0BDE8F08F68040020700400203CFA0008C0E2000810B588B06C
:2027C00004461C22002101A807F0ACF803238DF804300B4B05941C604FF4A073ADF80A308D
:2027E0004FF4F073ADF80C3001238DF8103000231A46194601A8FFF74BFD08B010BD00BF5C
:202800006C04002000231A461946FFF741BD000038B50F4C0023C4F88430254640210D4856
:2028200002F000FB012812D1D4F884307BB98021094801F0EBF8C5F8840001F035F9074A74
:20284000536843F08053536001F032F9E6E738BD640F002000040048680F002000ED00E0E3
:20286000074BD3F884304BB1064B1A68520705D472B61A6842F004021A6062B6704700BF9C
:20288000640F002030060020154BF7B52022C3F88421144B14491B681448154F4FF0FF362E
:2028A0004FF49675DA69920618D51E620A68B2F5967F0ED204689A8CD2B23A550268013232
:2028C000B2FBF5F405FB142202600A6801320A60E8E79A8CD2B28DF80720E3E703B0F0BD6C
:2028E00000E100E05C070020A40500207404002078040020BFF34F8F0449054BCA6802F442
:20290000E0621343CB60BFF34F8FFEE700ED00E00400FA0570470000024B14201860FFF709
:2029200007B800BF3C07002070B418B3144C1549226847F22F539A422546134B134A09D8E1
:202940001E6844F61F60864204D800200860206018600AE01C680C4844F61F639C424FF079
:2029600000030B602B60036002D81368462B04D04620106070BCFEF7DBBF70BC704700BF2E
:2029800008100020FC0F0020001000203C07002030B5002287B04FF400414FF0904002F07E
:2029A00047FA012300244FF40045029301A903234FF0904004930195039402F055F9224626
:2029C00029464FF0904002F033FA22464FF40071024802F02DFA07B030BD00BF0008004828
:2029E00008B572B6FFF7D4FF00224FF48071024802F01EFAFFF77EFF0008004840B1064B7A
:202A00004FF47A701B68B3FBF0F0C00001F04CBF024B1860704700BF2C06002010E000E05F
:202A2000FFF71EBF014802F0C4BD00BFA407002008B51D4B5A69510734D5042159614FF016
:202A4000904002F0EFF9194B90B172B6002119605A6842F001025A60154A5961136843F4E9
:202A60008023136062B60120BDE80840FFF75CBF5A68BAB19A681968D20605D541F28732BB
:202A8000914204D9FFF7ACFF40F6C312F8E772B65A6822F001025A60054A136843F480239E
:202AA000136062B608BD00BF00040140400700203006002008B5054B1B695B0601D5FFF747
:202AC000A7FE034B40225A6108BD00BF000400480004014030B5ABB000240123402505A936
:202AE0005C480693019405950794089402F0BCF822462946574802F09BF9574B4FF47A72C0
:202B00001B68B3FBF2F30A22534340F6B832B3FBF2F30393039C631E0393002CFAD12023A4
:202B2000059305A90B234B48069302F09DF840F61C432146682210A8029306F0F3FE21464D
:202B400004F1804404F5043418220AA806F0EAFED4F8883043F04053C4F88830E36C43F47D
:202B60000053E364E36C03F400530493049B3B4B1093042315934FF480531E931C230125C8
:202B8000209310A88023179518951A951B951F95219300F0B9FF014600284DD110A801F029
:202BA000F4FD00284BD10E230A930D9006230E900F900AA910A80B950C9301F04DF9002806
:202BC00040D110A801F02CFC00283ED142F2107110A801F0B1F810A801F096FB83050CD532
:202BE00010A801F035F90190019A029B5343AB404FF6F072B3FBF2F3019310A801F0A6FD9A
:202C000010A801F0BDFCE36A124843F40053E362E36A23F40053E362E36C23F40053E364E0
:202C2000602305930323069305A900230793089302F01AF801980AE06FF0010007E06FF087
:202C4000020004E06FF0030001E06FF004002BB030BD00BF000800482C060020000004506B
:202C600070B5814D2B6808332B60804B1B6898B08BB17F4B1A6808321A607E4A1968126873
:202C8000914208D372B67C490A6842F400620A6000221A6062B6794C6368002B4ED023680D
:202CA00008332360A368226813F0100F40F2DC5322D09A4209D9A368DB0706D4A368704804
:202CC00043F00103A360FEF797FF21686B4B40F6B832914209D99A68960706D49A686948EF
:202CE00042F002029A60FEF787FF2168634B41F28832914222D918E09A420DD9A368580614
:202D00000AD4E36860480133E360A36843F04003A360E168FEF770FF2168584B40F6C41202
:202D200091420BD99A68D10608D49A68520705D49A6842F004029A60FFF72AFE534A11688B
:202D400091B15348036808330360E06860B142F21070834208D9012906D10223136003211D
:202D60004C4A4D48FEF748FF4C4A29681368994251D94B4B1B78002B4DD0136801334AD00B
:202D80006668002E47D1384B46491B68464D03F51C53103308A8136006F032FEFFF79AFE76
:202DA0000A234FF47A72B0FBF2F2B2FBF3F103FB112230328DF82F202E228DF83020642285
:202DC000B0FBF2F2B2FBF3F103FB11223032B0FBF3F08DF83120B0FBF3F203FB12003030DC
:202DE00056238DF8320031498DF8333008A88DF8346006F0E5FD0FCD01AC0FC495E80700C0
:202E000084E8070008A806F05BFE334682B208A901A8FFF73DFA264B1A6808321A601A68E3
:202E2000244B9A4201D9FFF7DBFD234B1A6844F61F618A4207D81A6808321A601B688B42C4
:202E400001D9FFF769FD1D4B1A6847F22F518A4208D81A6808321A601B688B4202D900206C
:202E6000FEF766FD18B070BD7418002004100020F40F0020EC0F002030060020400700202A
:202E8000BC0D0108CF0D0108DB0D0108740B0020F00F0020700B0020F30D01086C0B002091
:202EA000340600201E0E0108600B01082E0E0108FC0F0020C0270900001000200810002047
:202EC0002DE9F041B4B04FF48033079318230124022504274FF0030807260DEB03001293EE
:202EE00006940F95CDF84080119413961495159702F040FE129A164BCDF808805343159A9D
:202F0000B3FBF2F3134A13600F23394601930DEB0700002303930493059303F029FB4FF4C8
:202F2000005316934FF080632D930C23179316A84FF480131B93189619951A9503F056FF45
:202F400016A81694209403F051FF34B0BDE8F08100127A002C06002030B5084D0B465C1A39
:202F6000A24209DD13F8014B84EA102435F8144084EA002080B2F2E730BD00BF7C0B010838
:202F80000A4601464FF6FF70FFF7E6BF08B54FF400620021034800F03BFCBDE8084000F079
:202FA0009BBC00BF000800082DE9F04FADF6340D00234FF47F42ADF81E30B94DADF820309D
:202FC000ADF82220ADF81E30ADF82030ADF8222009938DF81D300A930B9305F057FE00F058
:202FE00011FCDFF8E8822E469DF81D00002105F06DFFADF81E00F0B9AA4FFEF7CBF93B681A
:203000005A0306D53B68012023F480233B60FFF78BFC3B68A34A5B05E6D5136823F48063C2
:203020001360A14B1A6847F22F539A42DCD80120FFF77AFCD8E70120FFF776FC0021ADF8C9
:203040002010BDF81E309BB213B946F6821469E12B78E02B40F058816B78DBB2042B4FD093
:203060000CD8012B3FD071D3022B40F059819DF81D3043F080038DF81D300DE1412B55D0CD
:20308000FF2B5DD0402B40F04B81884B4FF0FF321A6095F805E0A87995F807C0297A95F89E
:2030A0000990AA7A95F80BB095F80CA06B7BBDF81E40DBB2A4B29F000E3CE41BE400049492
:2030C000042402940E377A4C2F448DE8180003974AEA0B2342EA092241EA0C2140EA0E2024
:2030E000FEF766FCD8E00422ADF820202A706970A970EB706F4B2A711A686F4B1A60CBE019
:203100006879A979EB792A7A41EA002142EA032343EA0143434502D14EF61163BAE04FF4A5
:203120007F43ADF8223046F68424FBE0BDF81E20614992B2053AD2000420FEF7A1FCF1E09E
:20314000BDF81E309BB2ADF82030A5E02B79ADF81E30BDF822309BB2B3F57F4F00F0D780FD
:203160006B79053B092B00F2DB80DFE813F00A001C003F0042006300B100D900D900D9009A
:20318000C200BDF81E309BB2052B40F0C680B079F179337A727A41EA002142EA032343EA80
:2031A0000143099378E0BDF81E309BB2032B40F2B480B479F379099A43EA04239C183F4B25
:2031C0009C42C0F0A78004213D48FFF7D9FE3D4B1B88834201D1FFF7D9FEBDF81E203A49BE
:2031E000033A92B2204600F013FB55E000F074FB52E0BDF81E309BB2092B40F08E80B77932
:20320000F3790998317A747A96F80AE0F27A43EA072342EA0E2244EA012142EA0141184457
:20322000FFF7AEFE327B737B43EA022398427FF40CAF31E0BDF81E309BB2052B6DD14FF4E5
:20324000006200210CA806F06DFBB079F179337A727A41EA002142EA032343EA01430DA8E9
:2032600004210D93FFF78CFE4FF40062ADF830000CA9144800F0CCFA00F02EFB9DF81D30CD
:2032800043F080038DF81D304FF0FF330A930B934FF47F43ADF822304FF4104442E000BF86
:2032A0003506002030060020081000206C0B002043060020390E01083A0600200018010854
:2032C00004080008000800083D06002001000004BDF81E309BB2052B1FD1B079F179337AB2
:2032E000727A41EA002142EA032343EA01430020984704211F48FFF743FE1F4B1B8883423F
:203300000ED1FFF743FE0BE04FF4DC440AE046F6851407E046F6841404E04FF4CE4401E0B5
:203320004FF4DA44BDF820309BB2C4F30722EA54BDF820309BB20133E2B2EA54BDF820305F
:2033400002339BB2B4F5104FADF8203007D04FF0FF330A930B934FF47F43ADF822309DF8DA
:203360001D00BDF8201040F0200089B205F0AEFD3AE600BF040800080008000838B50C4CD8
:20338000054604212046FFF7FBFD34F8042C8242A4F104030AD172B65B682846984772B672
:2033A00000F030FAFFF7F2FDFFF7A4FA38BD00BF040800087047000010B5084C00231A465F
:2033C00019462046FEF764FF04F1200000230C220349BDE81040FEF75BBF00BF7C0D0108C9
:2033E000300E01082DE9F041114C0746884604F58076E569A5B1012D03D0022D06D14146A6
:2034000000E039460B480B4D06F0FAFA284606F057FB002382B229462046FEF739FF02E0C7
:203420002046FFF7EFF92034B442E2D1BDE8F0818C0E0108A80500202DE9F043AF4DB04A86
:203440002B68B04E43F001032B60AF4B00241A60AC602B6823F0A85323F410232B604FF4BC
:203460000063EB602B6823F480232B60A74BAC610127B4608FB0746034601C60F76062B6F9
:20348000AB6D43F08053AB65AB6D03F080530093009B2B6E3B432B662B6E3B4001934FF45F
:2034A0000070019B02F0E6FAEB6C3B43EB64EB6C0B943B404FF003084FF40049029309A97C
:2034C0004FF09040029BCDF824900A97CDF8308001F0CAFB224649464FF0904001F0A8FC60
:2034E000EB6C8B4843F00403EB64EB6C0B9403F004030393039B0C944FF4407309A9099311
:203500000A9701F0B1FB3A464FF48071804801F08FFC22464FF400717D4801F089FCFFF728
:20352000CFFC40F2FF3309A94FF0904009930B940C94CDF8288001F097FBEB6C754843F089
:203540000203EB64EB6C0B9403F002034FF6FF79049309A9049B0C94CDF82490CDF82880FE
:2035600001F082FBEB6C6A4843F00403EB64EB6C0B9403F004030593059B0C944FF6FF43FC
:2035800009A90993CDF8288001F06EFBEB6C624843F00803EB64EB6C0B9403F008030693FB
:2035A00009A9069B0C94CDF82490CDF8288001F05BFBEB6C594843F08003EB64EB6C0B94F8
:2035C00003F08003079309A9079B0C94CDF82490CDF8288001F048FB22464146432001F08A
:2035E00015F9224641466FF0010001F00FF922460221282001F00AF922460221172001F0FB
:2036000005F922460221092001F000F922460221082001F0FBF8224639464FF0FF3001F031
:20362000F5F822462146252001F0F0F8042309A909934FF090403A4B0A930B940C9401F0DA
:2036400013FB082001F016F9364B1C60364B1C60364B1C60364B1C60364B1C60364B1C6046
:20366000364B38461C60FFF7C9F93A464FF40071274801F0DDFB2046FDF7B0FE10233761D8
:203680003460B3603446776004214FF0904001F0C9FB60B3B368590729D42368632BF3D9D9
:2036A000A36813F00807EFD1FFF786FEFEF73CF9AB6D43F00103AB65AB6D03F00103089380
:2036C0004620089BFEF734F94FF40043099302230A930C9309A901234FF090400D930B9715
:2036E00001F0C2FAA36843F00803A360CCE7B268044B120724D4FFF773F900BF0010024031
:2037000000093D00400700202C060020640F00200008004800040048000C0048001C0048C3
:2037200000003110F40F0020041000206C0B0020540F0020FC0F0020081000200010002044
:2037400000225A601A6172B619681A4D40F6B732914209D89A6812F0020205D12A709A60BD
:2037600062B61868FFF70AFE72B662B6124B012000241C60FDF732FEFFF7CCF801234FF410
:20378000FA702B7000F0B4F90C490D48FFF72AFE22460C490C4805F09FFB0C490A4805F083
:2037A000B1FB0B49084805F051FF074805F0B1FBFFF7FAFB34060020740B0020540E010835
:2037C000640E010858100108300D002078100108C8100108094B1A68824270B505460E46D0
:2037E0001C4609D000F078F82EB14FF400622946034805F099FF256070BD00BF0C100020B6
:2038000010100020014B00221A6070470C1000202DE9F0410C461546002A58D020F4FF66CE
:2038200026F00706B0421CD0C6EB0008C8F50067BFB201213046FFF7CDFFAF42254B28BF97
:203840002F461FFA88F03A46214618441CB105F06BFF3C4401E006F065F8ED1BADB206F5DD
:20386000006606EB050837461FFA88F8C7EB08039BB2B3F5006F12D300213846FFF7AAFF8A
:203880004FF400622146134824B105F04DFF04F5006401E006F046F807F50067E6E7E80A17
:2038A000C0EB401205EBC225ADB206EBC02075B10121FFF78FFF2A46214606481CB1BDE8A1
:2038C000F04105F031BFBDE8F04106F02BB8BDE8F08100BF101000202DE9F0413C4D2C68AA
:2038E00086B0002C71D001F05FF83A4B3A494FF400421A6100230293384B1B6813F4807F11
:2039000026464FF6FF720B8810D1934208D0344A5802024002F10062944251D3022315E0E1
:20392000304B9C4294BF012302230FE0934208D02B4A5802024002F10062944242D3012381
:2039400004E0284B9C4294BF0223012303930B884FF6FF72934209D05A02214B134003F1FA
:2039600000639C4206D204F1784304E01D4B9C42F9D90133E31ADB0A049301A9012302A85D
:20398000059301F01BF918B9174F07F5006800E0FEE7474507D22146F7E80223002001F049
:2039A00079F80834F5E74FF400620F49304605F089FE044600B1FEE701F008F82C6004E04E
:2039C000012200E002220392C6E706B0BDE8F0810C10002000200240E075FF1F0000014060
:2039E00000FE1F00FFFF070810100020BFF34F8F0449054BCA6802F4E0621343CB60BFF393
:203A00004F8FFEE700ED00E00400FA05F0B5002489B00B23224606460D4621488DF81030AE
:203A200080210F278DF811408DF812408DF813408DF8144001F0FCF90523009706AA04A94F
:203A4000184803F0D7FD9DF81830022B16D19DF81C409DF81B1051EA04240FD0AC4228BF86
:203A60002C462246FF21304605F05CFF23460097324631460B4803F0BDFDE4B2012280213D
:203A8000074801F0D5F900230393039B012B03DC00BF039B0133F7E7204609B0F0BD00BFBC
:203AA0000004004810180020172000F0EFBE0000014B40225A61704700040140704710B5BD
:203AC000044602F0DFFF4FF47A73B0FBF3F000F0EBFE002221464FF0FF3000F097FE002099
:203AE00010BD0000014B1868704700BF7418002038B50446FFF7F6FF0546FFF7F3FF401B5B
:203B0000A042FAD338BD7047F8B50446002800F0D980856D25B9FFF7F6FFE56584F85450BD
:203B2000226893689B0042BF936823F0005393609368DF0005D4936843F080539360774BA7
:203B40001B689368DE005FBFA36D43F01003A365E36D5CBF43F00103E365A36D54BF01205F
:203B60000020DD0600F1AA809368590700F1A680A36D43F00203A365936803F00303012B45
:203B800002D11368DB071AD46549664D8A4240F0A380AB6803F00303012B40F09580296879
:203BA000CF0740F1918083F0010303F0010333B15D4DAB6823F47C1163680B43AB604FF4D3
:203BC000005797FAA7F7B7FA87F74FF480365FFA87FE96FAA6F6B6FA86F64FF46021F6B295
:203BE00091FAA1F1B1FA81F1E368A76BCDB2616A1F43A36801FA06F6A16A3B43E76901396D
:203C0000A94007FA0EF7E56A3B433343012D43EA010303D0216B09B129430B43D568434977
:203C200029400B43D360936813F00C0F31D14FF4804393FAA3F3B3FA83F30225DBB295FAF0
:203C4000A5F5B5FA85F5A669D16806FA03F3666BEDB206FA05F51D4321F4804323F00203A9
:203C60002B43D360E36B012B0FD1256C636C11692B43A56C43F001032B43E56C1D4321F485
:203C8000FF6323F005032B4302E0136923F0010313612369012B08BF216A136B03BF01F114
:203CA000FF3123F00F030B4323F00F031363A36D23F0030343F00103A365F8BDA36D43F066
:203CC0001003A3650120F8BD19498B6803F00303012B20D10B681BE08B68AA4203F0030342
:203CE00009D1012B03D10968CE073FF55CAF10498B6803F00303012B03D10968C9073FF5AB
:203D000052AFAB6803F00303012B04D1054B1B6803F0010347E7002345E700BF2C0600203D
:203D200000000450000104500003045007C0F0FF0002045070470000F8B54569082D0446E6
:203D40000E4622D002683F4B9A4203D003F580739A426ED13C4B9968C9066AD0996801F0F1
:203D60001F01052965D0996801F01F01092960D09A6802F44042B2F5004F5DD09B6803F4B5
:203D80004043B3F5404F57D00425FFF7ABFE074623681A6815420ED1721CFAD02EB9A36D9B
:203DA00043F00403A3650320F8BDFFF79BFEC01B8642EDD2F3E7234E1968B34201F008013D
:203DC00012D0224A93420FD0D2F80801C70602F5807209D0906800F01F00052804D092687D
:203DE00002F01F02092A01D1DA6800E0F268082D01D11D6003E050045CBF04201860A06DB0
:203E000040F40070A06509B90020F8BDDB6813F4406FF9D19204F7D4A36D23F48073A3651C
:203E2000A06D10F48050EFD1A36D43F00103A365F8BDD368DB07A7D5A36D43F02003A365D6
:203E40000120F8BD0000045000030450000204500368186C70470000F7B50023019390F8FA
:203E60005430012B00F06F810268936801245E0780F8544000F15E814E680C68042E4FF448
:203E8000F86318D8D2F830E093FAA3F7B7FA87F7FFB293FAA3F5B5FA85F51F23EDB277430D
:203EA00003FA07F706FB05F32EEA070704FA03F33B4313634DE0092E18D8576B93FAA3F5C5
:203EC000B5FA85F5EDB2053E93FAA3F3B3FA83F34FF01F0E7543DBB20EFA05F55E4327EA2C
:203EE000050704FA06F63E43566332E00E2E18D8976B93FAA3F5B5FA85F5EDB20A3E93FA80
:203F0000A3F3B3FA83F34FF01F0E7543DBB20EFA05F55E4327EA050704FA06F63E43966303
:203F200017E0D76B93FAA3F5B5FA85F5EDB20F3E93FAA3F3B3FA83F34FF01F0E7543DBB217
:203F40000EFA05F55E4327EA050704FA06F63E43D663936813F00C0F40F0CE80092C4FF0E2
:203F600038038F681CD9D2F818C093FAA3FEBEFA8EFE5FFA8EFEA4F10A0593FAA3F6B6FAA7
:203F800086F6072305FB0EFEF6B203FA0EFE6E432CEA0E0C07FA06F54CEA0505956116E0B5
:203FA000556993FAA3F6B6FA86F6F6B293FAA3F3B3FA83F34FF0070EDBB266430EFA06F675
:203FC000634325EA060607FA03F535435561D3680D694E69C3F3C1035B00013D9E404FF061
:203FE000F843032D42D8DFE805F002122232176E93FAA3F5B5FA85F5B14B3B40EDB243F0FC
:2040000000431E4304FA05F52E43166674E0576E93FAA3F5B5FA85F5A94B3B40EDB243F06F
:204020000043334304FA05F52B43536664E0976E93FAA3F5B5FA85F5A14B3B40EDB243F0D8
:204040000043334304FA05F52B43936654E0D76E93FAA3F3B3FA83F3994D3D40DBB245F064
:2040600000452E4304FA03F3334344E0156E93FAA3F3B3FA83F3DBB204FA03F305F0F84580
:204080009D4202BF136E23F000431366556E4FF0F84393FAA3F3B3FA83F3DBB204FA03F32C
:2040A00005F0F8459D4202BF536E23F000435366956E4FF0F84393FAA3F3B3FA83F3DBB20E
:2040C00004FA03F305F0F8459D4202BF936E23F000439366D56E4FF0F84393FAA3F3B3FA3D
:2040E00083F3DBB205F0F84504FA03F39D4203D1D36E23F00043D366936803F00303012BF4
:2041000002D11368DD0713D4CB68B3F1804F4FF001031AD0D2F8B010A34021EA0303C2F87B
:20412000B030112C51D1674B9B6813F4000F5AD0002403E0836D43F020038365002380F87B
:2041400054302046D9E00220D7E0D2F8B0508E68A3402B43082CC2F8B0304FF038031AD997
:20416000D2F818E093FAA3F7B7FA87F7FFB2A4F1090193FAA3F5B5FA85F507234F43EDB22E
:2041800003FA07F74D432EEA070E06FA05F14EEA01019161C5E7516993FAA3F5B5FA85F591
:2041A000EDB2671C93FAA3F3B3FA83F34FF0070E7D43DBB20EFA05F521EA050507FB03F1E9
:2041C00006FA01F129435161ABE7122C04D13D4B9B6813F0807FAAE7002CA9D1394B9B68DF
:2041E00013F4800FA3E7936803F00303012B02D11368D9070BD4344B34499A4217D18B68BF
:2042000003F00303012B08D10B68DB0705D5836D43F020038365012490E72D498B6803F04B
:204220000303012B3DD10B68DF07F0D439E09D688A4205F003050CD1012D02D11B68DE07F4
:20424000E5D4234DAB6803F00303012B06D12B6802E0012D02D11B68DD07D8D48B6803F0B7
:204260000303012B03D1194B1B68DB07CFD4112C1AD1174B9A427FF45BAF124A936843F45B
:2042800000039360134B144A1B68B3FBF2F2782353430193019B002B3FF44AAF019B013BC7
:2042A000F7E7112C1AD1E8E7122C19D1084B9A427FF43EAF034A936843F08073936037E7F3
:2042C00000F0FF03000304500000045000010450000204502C06002040420F00122CE9D0BC
:2042E000002C7FF425AF064B9A427FF421AF054A936843F48003936020E703B0F0BD00BFBE
:204300000000045000030450806D704703689A6812F00C0F70B5044601D1002070BDDA68F4
:20432000900110D5E269012A0DD1A269012A0AD1214A1968490602D4013AFAD131E0402218
:204340001A600C2101E060290BD09A68560706D59A6895075EBF9A6842F010029A600C2907
:2043600010D09A68100706D59A6892075EBF9A6842F020029A60602902D06C2904D001E0BC
:20438000082502E0042500E00C25FFF7ABFB064623689B681D42C0D0FFF7A4FB801B052812
:2043A000F6D9A36D43F01003A365E36D43F00103E365012070BD00BF01340A0038B503685D
:2043C0009A6802F00302012A044604D11A68D10701D5002038BD9968104A0A409AB99A685B
:2043E00042F001029A60FFF77DFB054623681A68D207EED49A6842F001029A60FFF772FB99
:20440000401B0228F2D9A36D43F01003A365E36D43F00103E365012038BD00BF3F0000808B
:2044200038B503689B6813F0040504466AD190F85430012B66D0012380F85430FFF7BEFF4F
:2044400000285CD1A36D304A13F480531CBFE36D23F00603E365A36D23F4706323F0010303
:2044600043F48073A3652368934208D002F50072934204D002F580729268D00603D1A26D24
:2044800022F48012A26520481C2283421A6012D01E4A93420FD0D2F80811C90602F58072EF
:2044A00009D0916801F01F01052904D0926802F01F02092A10D1DA68920141BFA26D22F4FC
:2044C000405242F48052A2659A68002042F0040284F854009A6038BDA36D43F48013A36540
:2044E000C3689B0142BFA36D23F4405343F480534FF0000048BFA36584F8540038BD84F8A1
:20450000545038BD022038BD000004500002045038B503680446986800F00300012801D0B2
:20452000002038BD1A68D207FAD59A6802F00D02012A09D19A6842F002029A6003221A6063
:20454000FFF7D0FA054608E0A36D43F01003A365E36D43F00103E36538BD23689B68DB07D6
:20456000DED5FFF7BFFA401B0228F6D9A36D43F01003A365E36D43F00103E365012038BD42
:2045800010B50446002800F0A680836D43F002036C218365FFF7BAFE2268D36843F4001374
:2045A000D3602046FFF7B4FF23685A6822F4FF6222F007025A6040F2FF721A609A6822F0EF
:2045C000A0429A609A6842F000529A60D968564A0A40DA60DA6842F00042DA601A6922F491
:2045E000FF6222F007021A615A6902F040425A619A6902F078429A611A6A02F0F0221A6224
:204600005A6A02F0FF225A629A6A02F0FF229A62196B464A0A401A63596B454A0A405A63BF
:20462000996B434A0A409A63DA6B22F4FB6222F00702DA63196E3F4A0A401A66596E3D4A6A
:204640000A405A66996E3B4A0A409A66D96E394A0A40DA66D3F8A020D20CD204C3F8A0206C
:20466000D3F8A420D20CD204C3F8A420D3F8B020D20CD204C3F8B020D3F8B42022F07F125C
:20468000C3F8B4209A6802F00302012A02D11A68D10715D4284A2949934226D18B6803F0BB
:2046A0000303012B19D10A68D20716D583F0010303F0010323B1224A224B91680B40936056
:2046C0002046FFF737FB0020E06520666066A06584F8540010BD012010BD1B4A936803F0B8
:2046E0000303012B1ED1136819E08B42936803F0030308D1012B02D11268D007D6D4124A35
:20470000936803F00303012B02D11268D207CDD48B6803F00303012B04D1084B1B6803F0FC
:204720000103C3E70023C1E704800080300882E0200882E000F0FF0300000450000104503D
:2047400000030450E01000FE0002045090F85430012B10B5044616D0012380F854306C21E4
:20476000FFF7D4FD58B92046FFF7D2FE38B9A36D23F4885323F0010343F00103A3650023C9
:2047800084F8543010BD022010BD90F85430012B70B504460D4637D0012680F85460FFF713
:2047A000B7FEA36D40BB23F4885323F0020343F00203A3652368996821F080410D439D6044
:2047C0009A6842F000429A604FF47A42996800290BDA013AFAD1A36D84F8542023F012032D
:2047E00043F01003A365012070BDA36D23F0030343F00103A36503E043F01003A36530460E
:20480000002384F8543070BD022070BD174BDB68C3F3022330B5C3F107041D1D042C28BF84
:204820000424062D4FF0010505FA04F404F1FF348CBF033B00230C409C4005FA03F3013BB4
:204840001A40002842EA04024FEA0212AFBF00F1604000F00F00064BD2B2A5BF00F561408A
:20486000D2B21A5480F8002330BD00BF00ED00E014ED00E04209012300F01F0003FA00F0E6
:20488000014B43F82200704700E100E04309012200F01F0002FA00F02033024A42F8230091
:2048A000704700BF00E100E0B0F1807F0BD2074B074A0138F021586082F8231000200722A9
:2048C00098601A6070470120704700BF10E000E000ED00E0324B1A69920741BF31494A68B6
:2048E00042F001024A601B691B0741BF2D4A536843F0020353602A4B1A69D00641BF2949D6
:204900004A6842F004024A601B69990641BF254A536843F008035360214B1A69520641BF7E
:2049200020494A6842F010024A601B691B0641BF1C4A536843F020035360194B1A69D005E3
:2049400041BF18494A6842F040024A601B69990541BF144A536843F080035360104B1A69A4
:20496000520441BF0F494A6842F480724A601B691B0441BF0B4A536843F400735360084BA2
:204980009A69002ABFBF07494A6842F480624A609A6942F000429A614CF2FA321A6170479A
:2049A0000020024078180020064B5A69002ABFBF054A9A6002F188320020B4BF9A60012085
:2049C000704700BF0020024023016745034A536943F0004353610020704700BF0020024004
:2049E00070B50446FFF77EF81E4D06192A691D4BD00307D5631CF9D0FFF774F88642F5D869
:204A0000032070BD1A6991071FD41A6912071CD41A69D60619D41A69950616D41A6954067B
:204A200013D41A69100610D41A69D1050DD41A6992050AD41B695B0407D40A4A106910F451
:204A4000004002D19369002B03DAFFF743FF012070BD136913F0010302D00123136170BD9F
:204A6000184670BD00200240094A536943F4802330B5536172B601F58073401AD1E900455D
:204A80000A1808319942C2E90045F7D162B630BD002002402DE9F8431B4D99462B78012B5A
:204AA00006460F4690462CD001244CF250302C70FFF796FF08BB686046B9144A5069204375
:204AC0005061C7F80080C7F804900CE0731E012B01D9002407E041463846FFF7C5FF022E16
:204AE000F7D14FF480244CF25030FFF779FF24B1064A536923EA0404546100232B70BDE8CD
:204B0000F8830220BDE8F8837818002000200240094B10F0010F1EBF5A6942F004025A61CF
:204B2000820742BF5A6942F400425A615A6942F480325A61704700BF002002400C4B5A699D
:204B400011F0010F14BF22F4006242F400625A615A6922F4FF6242EAC00058615A6942F0D2
:204B600002025A615A6942F480325A61704700BF00200240104B1A6891050BD51A6822F44D
:204B800000721A601A6842F400621A601A6842F400721A60084B1A6852050BD51A6822F44D
:204BA00080621A601A6842F480521A601A6842F480621A60704700BF002002402DE9F84358
:204BC000274D2B78012B0646884646D001234CF250302B70FFF704FF0446002838D13368D6
:204BE0006860012B0FD17068FFF792FF4CF25030FFF7F6FE1B4A536923F4004323F0040345
:204C00000446536122E04FF0FF33C8F80030B768DFF85090B268F36813449F4216D27168EF
:204C20003846FFF78BFF4CF25030FFF7D9FED9F8143023F4FF6323F00203C9F8143018B177
:204C4000C8F80070044601E00137E3E7FFF792FF00232B702046BDE8F8830220BDE8F883EA
:204C600078180020002002402DE9F04FD1F800B0DFF8AC81684C85B000233BFA03F200F02A
:204C8000C78001269E401BEA060E00F0BF804A6822F01009B9F1020F14D14FEAD30C00EB00
:204CA0008C0C03F0070ADCF820704FEA8A0A0F2505FA0AF527EA05070D6905FA0AF53D43E4
:204CC000CCF820504FEA430C0325076805FA0CF5ED4302F0030A019509F1FF393D400AFA09
:204CE0000CF73D43B9F1010F056013D88768019D05EA0709CF6807FA0CF747EA0907876038
:204D00004768C2F3001927EA060709FA03F949EA07074760BAF1030F07D1C76A27EA06062E
:204D2000C2F3C0079F403E43C662C668019D35408E6806FA0CF63543C560D50066D5D8F8B9
:204D4000605045F00105C8F86050D8F8605023F0030707F1804705F0010507F58037039556
:204D600003F0030C039DBE684FEA8C0C0F2505FA0CF5B0F1904F26EA050619D0274DA84284
:204D800018D005F58065A84216D005F58065A84214D005F58065A84212D005F58065A8425B
:204DA00010D005F58065A84214BF072506250AE0002508E0012506E0022504E0032502E008
:204DC000042500E0052505FA0CF53543BD60124D2D686FEA0E06D70354BF35404EEA050506
:204DE00025606568970354BF35404EEA05056560A568D70254BF35404EEA0505A560E56836
:204E0000920254BF35404EEA0505E560013334E705B0BDE8F08F00BF000401400004004877
:204E2000001002400369194214BF0120002070470AB18161704781627047000030B505684E
:204E4000064C68680440039820430343C1F309010B4343EA02426A6030BD00BF009800FC21
:204E600070B504460D46FEF73DFE23680646986910F0100038D094F83520122A07D094F8D0
:204E80003520522A03D094F83520622A12D15A6890010FD45A6842F480425A600AE09A6987
:204EA000920611D4691CFAD035B1FEF71BFE801B854201D32368F2E7012384F83530002370
:204EC00084F83430032070BD1022DA612022DA615968064A0A405A600423A3630120002332
:204EE00084F8350084F8343070BD00BF00E800FE2DE9F04104460E4690461D46FEF7F2FD4D
:204F00000746B8F1000F29D122689369DB43C3F31003334210D0691CF7D08DB1FEF7E2FD72
:204F2000C01B8542F0D20BE06B1C08D19369DB43C3F310033342F7D00020BDE8F08145B96F
:204F4000012384F83530002384F834300320BDE8F081FEF7C7FDC01B8542F1D32268E5E79B
:204F600070B504460D46FEF7BDFD064623689B699B0617D429462046FFF772FFA0B95DB9AE
:204F8000A36B43F02003A363012384F83530002384F83430032070BDFEF7A4FD801B854257
:204FA000E4D2EDE7002070BD012070BD704710B50446002844D090F8353003F0FF021BB915
:204FC00080F83420FFF7F2FF022384F835302368E1681A6822F001021A60626822F0706285
:204FE0001A619A6822F400429A60A26842B1012903D142F400429A6007E042F404429A6018
:20500000022904BF4FF400625A605A68216942F0007242F400425A6062690A43A16942EAD3
:205020000122DA60E169226A0A431A601A6842F001021A6000200123A06384F8353010BD50
:20504000012010BD2DE9F341174690F83520D2B2012A044688461D466DD10FB901206BE042
:20506000002BFBD003689B6913F4004363D190F83460012E5FD080F83420222280F83520F6
:20508000FF2D83634FF41053009307D94FF08073FF22FFF7D3FEFF26013F21E04FF00073B3
:2050A000EAB2FFF7CBFE2E46F6E72368013D5B6A07F8013F013EADB224D12DB3089B3246E9
:2050C00080212046FFF714FF30BBFF2D009610D94FF08073FF2241462046FFF7AFFEFF2622
:2050E000089B002204212046FFF702FF0028DCD012E04FF00073EAB241462046FFF79EFED6
:205100002E46EDE7002DEBD119212046FFF728FF20B1A36B042BA1D003200DE02368202245
:20512000DA615968064A0A405A60012384F8353084F8340000E0022002B0BDE8F08100BFE1
:2051400000E800FE90F83530DBB2022B02462DD090F83530122B2BD090F83530222B27D027
:2051600090F83530322B23D090F83530422B4FF002001ED092F83430012B1AD0136882F870
:205180003500186820F001001860186820F480501860186801431960196841F0010119608B
:2051A000012382F83530002382F834301846704702207047F0B504468BB000287DD090F8D6
:2051C000813303F0FF021BB980F8802303F046FB2546032355F8100B84F8813302F012FFD8
:2051E0000FCD6E460FC60FCD0FC695E8030086E80300271D97E80E00206802F0D5FE002169
:20520000206802F005FF0022666804F1390304F1100501201146B24203F11C030FD003F88C
:205220001D2C23F8172C03F81C0C03F81A1C43F8151C43F8111C43F8091C0132EBE7002218
:2052400023461146B24203F11C0314D083F8C02183F8C11183F8C311C3F8CC1120685A84AD
:2052600002F1400E00EB8E00C3F8C811C3F8D41101324160E6E70FCD6E460FC60FCD0FC689
:2052800095E8030086E8030097E80E00206802F0D5FE012384F88133636A012B02D12046BD
:2052A00000F0C3FBA36A012B02D1204600F0D0FB206803F056FA002000E001200BB0F0BDBF
:2052C00090F88033012B10B504460CD0012380F88033006803F039FA206802F08DFE00207A
:2052E00084F8800310BD022010BD90F88033012B10B5044609D0012380F88033006803F0FA
:2053000014FA002084F8800310BD022010BD70B54EB2002E04464FF01C0501F07F00B5BFC3
:2053200005FB004105FB0141383101F5EE71C0B2002EB8BFC880022BCB704FEAD67504BF1E
:2053400000230B7108704D7094F880338A60012B09D0012384F88033206802F02EFF002031
:2053600084F8800370BD022070BD4BB2002B10B54FF01C02044601F07F00B5BF02FB0041FC
:2053800002FB0141383101F5EE71DB0F08704B7094F88033012B09D0012384F880332068D4
:2053A00002F04CFF002084F8800310BD022010BD10B501F07F0104461C2000FB0140C0F825
:2053C000F0310023C0F8E821C0F8F43180F8DD3180F8DC112369012B08BFC0F8EC2194F830
:2053E0008023012A16D01C2202FB0142012002F5EE7284F88003DBB221B92168204603F0BB
:2054000071F803E02168204602F050FF002084F8800310BD022010BD10B501F07F010446B5
:205420001C2000FB0140C364002303650123426480F8393080F838102369012B08BF826472
:2054400094F88023012A15D01C2202FB01420120383284F88003DBB221B92168204603F0BC
:2054600041F803E02168204602F020FF002084F8800310BD022010BD38B54BB2002B01F02F
:205480007F054FF01C02B5BF02FB050102FB0101383101F5EE710122DB0FEDB28A700D70D4
:2054A0004B7090F88033934204460FD080F88023006803F0EAF82DB904F56172217C2068C9
:2054C00003F0A8F9002084F8800338BD022038BD38B54BB2002B05464FF01C0201F07F00E0
:2054E000B5BF02FB005102FB0151383101F5EE71DB0F00248C7008704B7095F88033012B34
:2055000009D0012385F88033286803F0F0F885F88043204638BD022038BD2DE9F3471C24B1
:2055200004FB01040768266DE36C9B1B266C07F5106A9E4228BF1E46814688460AEB411A48
:20554000F51C042395FBF3F5DAF818309BB29D420BD9002E29DCD7F83428012303FA08F8F2
:2055600022EA0803C7F834381FE0226DE36C9A42EFD2002BEDD0266C9B1A9E4228BF1E4615
:20558000F51C042395FBF3F599F8103000935FFA88F2B3B2616C384603F054F8636C3344EF
:2055A0006364236D33442365CEE7002002B0BDE8F0872DE9F74F06680446304603F00BF971
:2055C000002840F00A82206803F0D7F8002800F00482206803F0D1F8800748BF226820681B
:2055E00042BF536903F00203536103F0C6F810F400205BD0206803F0C4F806F530698046B1
:20560000A3464F460025B8F1000F50D018F0010F45D0EAB211462068019203F0C2F810F027
:20562000010F82462ED00123BB60D9F80810090420D42169019A99420CD13969DBF8E40134
:20564000C1F31201411ACBF8F411DBF8E8110844CBF8E8011146204603F058F921690129E7
:2056600008D13DB9D4F8F02122B904F56172206803F0D0F8D9F8082042F4004242F02002CF
:20568000C9F808201AF0080F04D0204603F028F90823BB601AF0100F1CBF1023BB600135E4
:2056A0004FEA580820370BF11C0BACE70546206803F063F842035CD5206803F06AF806F5D5
:2056C00010678146A2460025B9F1000F51D019F0010F47D05FFA85FB5946206803F06BF81F
:2056E00010F0010F804622D00120D6F8341800FA05FC21EA0C01C6F834182169B860814225
:2057000001BFDAF84400DAF840100918CAF844102046594603F026F92169012907D135B9C9
:20572000E26C22B904F56172206803F073F818F0080F1CBF0822BA6018F0100F1CBF10231B
:20574000BB6018F0400F1CBF4023BB6018F0020F1CBF0223BB6018F0800F03D0294620460B
:20576000FFF7DBFE01354FEA590920370AF11C0AAAE7206803F001F8002818DAD6F80438E8
:2057800023F00103C6F8043894F8B433012B06D1002184F8B413204603F046FA02E020463D
:2057A00003F064F92268536903F000435361206802F0E3FF03050BD5D6F80838DF0702D55A
:2057C000204603F027F92268536903F400635361206802F0D2FF000116D523685A6902F085
:2057E00000625A6194F8B4235AB95B6D0121C3F3830384F8B413C4F8B833204603F014FA9F
:2058000002E0204603F006F9206802F0B6FFC10443D506F500677B68206823F001037B6083
:20582000002102F0A1FC606806F510630022FF21824205D099600132C3F808122033F7E775
:205840004FF0FF33BB61FB6943F00113FB61236B53B1D7F8843043F00B03C7F884307B6C04
:2058600043F00B037B6407E07B6943F00B037B613B6943F00B033B61D6F80038217C206874
:2058800023F4FE63C6F8003804F5617202F0C2FF2268536903F480535361206802F06DFF71
:2058A000820417D5206802F09AFF2368DA6822F47052DA600322E26040226261DA6842F480
:2058C000A052DA60204603F08BF82268536903F400535361206802F050FFC30637D5226854
:2058E000936923F010039361376AC7F34343022B07F00F0814D147F6F0733B4013B31C2371
:2059000003FB0848C7F30A173A46D8F8E811304602F0ABFED8F8E8313B44C8F8E8310CE0D7
:20592000062B0FD1082204F56171304602F09DFE1C2303FB0848C7F30A17D8F8F4311F449E
:20594000C8F8F4712268936943F010039361206802F013FF070707D5204603F02DF82268E4
:20596000536903F008035361206802F006FFC60208D5E9B2204603F0ADF82268536903F4BF
:2059800080135361206802F0F8FE800208D5E9B2204603F095F82268536903F4001353616C
:2059A000206802F0EAFE410007D5204603F09CF82268536903F080435361206802F0DDFE76
:2059C00042070AD523685D686B0702D5204603F08FF8226853682B43536003B0BDE8F08FE9
:2059E00070B50468606A19B940EA0243A36216E0A36A002500EB13434E1EE8B2B04205F1AF
:205A0000010506DA403004EB8000406803EB1043F3E73F3104EB810443EA024363600020C5
:205A200070BD0368002059627047026803460121C0F8BC13002083F8B403936943F00063FC
:205A40009361536D43F0805343F003035365704702680123C0F8C033936B43F4003393634D
:205A600000207047024B186800F4C060704700BF00700040174B1A68B0F5007F02F4C06228
:205A80001AD1B2F5007F20D01A68134922F4C06242F400721A60114A1268B2FBF1F1322215
:205AA0004A4322B15969490501D5013AF9E7094B5B695B050BD408E0B2F5806F1FBF1A6850
:205AC00022F4C06242F480621A60002070470320704700BF0070004040420F00941800207F
:205AE000024A536843F48063536070470070004037B51E4DAB6DD900044602D5FFF7B2FF5B
:205B00000EE0AB6D43F08053AB65AB6D03F080530193019BFFF7A6FFAB6D23F08053AB65B2
:205B2000B0F5007F06D1802C0CD9A02C8CBF022301230CE0802C07D808D0A4F1700253428E
:205B4000534104E0002302E0032300E0022308490A6822F007021A430A60086800F0070091
:205B6000C01A18BF012003B030BD00BF001002400020024003682DE9F743DC06054640F127
:205B8000ED80B74CA36813F00C0F68D1022393FAA3F2B2FA82F2C2F3421242F00102012A63
:205BA00001D1226810E093FAA3F2B2FA82F293FAA3F3B3FA83F3C3F3421343F00103032BA1
:205BC0000CBFD4F89420E269022393FAA3F3B3FA83F303F01F0322FA03F3D80704D5AB69D1
:205BE00013B9012000F0BEBC22689D4B286A110756BFD3F894301B681B0903F0F00383423C
:205C000015D2FFF775FF0028EBD1236843F008032360236823F0F0022B6A1343236063683A
:205C2000EA6923F47F4343EA0223636013E0236843F008032360236823F0F003034323608A
:205C40006368EA6923F47F4343EA02236360FFF74FFF0028C5D10120FDF731FF7EE08369A7
:205C6000002B47D0236843F001032360FDF73AFF0226074696FAA6F3B3FA83F3C3F34213A4
:205C800043F00103012B01D1236810E096FAA6F3B3FA83F396FAA6F3B3FA83F3C3F34213B1
:205CA00043F00103032B0CBFD4F89430E36996FAA6F2B2FA82F202F01F02D340DA0707D4AE
:205CC000FDF710FFC01B6428D4D9032000F04ABC236843F008032360236823F0F0022B6A23
:205CE000134323606368EA6923F47F4343EA0223636033E0236823F001032360FDF7F2FEA3
:205D00000226074696FAA6F3B3FA83F3C3F3421343F00103012B01D1236810E096FAA6F3DE
:205D2000B3FA83F396FAA6F3B3FA83F3C3F3421343F00103032B0CBFD4F89430E36996FA4D
:205D4000A6F2B2FA82F202F01F02D340DB0705D5FDF7C8FEC01B6428D4D9B6E72B68DC07C8
:205D600004D42B68980700F10281BCE13C4CA36803F00C03082B09D0A36803F00C030C2B23
:205D800033D1E36803F00303032B2ED14FF4003393FAA3F2B2FA82F2C2F3421242F0010298
:205DA000012A01D1226810E093FAA3F2B2FA82F293FAA3F3B3FA83F3C3F3421343F00103A2
:205DC000032B0CBFD4F89420E2694FF4003393FAA3F3B3FA83F303F01F0322FA03F3D9073C
:205DE000BFD56B68002BBCD1FBE6236823F480332360236823F480232360FDF773FE4FF45B
:205E00000036074641F2883896FAA6F3B3FA83F3C3F3421343F00103012B01D1236810E005
:205E200096FAA6F3B3FA83F396FAA6F3B3FA83F3C3F3421343F00103032B0CBFD4F89430FF
:205E4000E36996FAA6F2B2FA82F202F01F02D340DA0707D5FDF746FEC01B4045D4D934E76B
:205E6000001002406B68B3F5803F0AD0B3F5A02F0CD1236823F480332360236843F480232B
:205E80002360236843F48033236008E0226822F480322260226822F4802222609BB3FDF7C5
:205EA00021FE4FF40036074641F2883896FAA6F3B3FA83F3C3F3421343F00103012B01D17E
:205EC000236810E096FAA6F3B3FA83F396FAA6F3B3FA83F3C3F3421343F00103032B0CBF74
:205EE000D4F89430E36996FAA6F2B2FA82F202F01F02D340DB073FF534AFFDF7F3FDC01BA0
:205F00004045D3D9E1E6FDF7EDFD4FF40036074641F2883896FAA6F3B3FA83F3C3F342139B
:205F200043F00103012B01D1236810E096FAA6F3B3FA83F396FAA6F3B3FA83F3C3F342130E
:205F400043F00103032B0CBFD4F89430E36996FAA6F2B2FA82F202F01F02D340D8077FF574
:205F600000AFFDF7BFFDC01B4045D3D9ADE6C74CA36803F00C03042B09D0A36803F00C03EE
:205F80000C2B33D1E36803F00303022B2ED14FF4806393FAA3F2B2FA82F2C2F3421242F0B3
:205FA0000102012A01D1226810E093FAA3F2B2FA82F293FAA3F3B3FA83F3C3F3421343F0A1
:205FC0000103032B0CBFD4F89420E2694FF4806393FAA3F3B3FA83F303F01F0322FA03F366
:205FE000D9073BD5EB68002B38D1FAE5EB68002B44D0236843F480732360FDF773FD4FF4DA
:206000008066074696FAA6F3B3FA83F3C3F3421343F00103012B01D1236810E096FAA6F31D
:20602000B3FA83F396FAA6F3B3FA83F3C3F3421343F00103032B0CBFD4F89430E36996FA4A
:20604000A6F2B2FA82F202F01F02D340DA0705D4FDF748FDC01B6428D4D936E662684FF036
:20606000F85393FAA3F3B3FA83F32969DBB201FA03F322F0F8521343636034E0236823F454
:2060800080732360FDF72EFD4FF48066074696FAA6F3B3FA83F3C3F3421343F00103012B3B
:2060A00001D1236810E096FAA6F3B3FA83F396FAA6F3B3FA83F3C3F3421343F00103032B8B
:2060C0000CBFD4F89430E36996FAA6F2B2FA82F202F01F02D340DB0705D5FDF703FDC01B20
:2060E0006428D4D9F1E52B68180703D42B68590765D465E16B69654C83B3D4F8943043F018
:206100000103C4F89430FDF7EDFC02268046374696FAA6F3B3FA83F396FAA6F3B3FA83F31B
:2061200096FAA6F3B3FA83F3C3F3421343F00303032B0CBFD4F89420E26997FAA7F3B3FA33
:2061400083F303F01F0322FA03F3DA07CED4FDF7C9FCC8EB00006428DAD9B6E5D4F8943049
:2061600023F00103C4F89430FDF7BCFC02268046374696FAA6F3B3FA83F396FAA6F3B3FA4F
:2061800083F396FAA6F3B3FA83F3C3F3421343F00303032B0CBFD4F89420E26997FAA7F30A
:2061A000B3FA83F303F01F0322FA03F3DB079DD5FDF798FCC8EB00006428DAD985E5334CDE
:2061C000A36DDE000AD4A36D43F08053A365A36D03F080530193019B012600E000262C4F27
:2061E0003B68D80512D5D4F8903023F00103C4F89030D4F8903023F00403C4F89030FDF703
:2062000071FC0227804641F288392DE03B6843F480733B60FDF766FC80463B68D905E2D466
:20622000FDF760FCC8EB00006428F6D94DE597FAA7F3B3FA83F3C3F3421343F00203032B0F
:206240000CBFD4F89430E36997FAA7F2B2FA82F202F01F02D340DA071CD5FDF743FCC8EB6F
:20626000000048453FF631AD97FAA7F3B3FA83F397FAA7F3B3FA83F3C3F3421343F002039F
:20628000022BD4D1D4F89030DEE700BF0010024000700040AB68012B21D093B9D4F8903012
:2062A00023F00103C4F89030D4F8903023F00403C4F89030FDF716FC0227804641F2883940
:2062C00051E0052BD4F8903023F00103C4F89030D4F8903008D143F00403C4F89030D4F857
:2062E000903043F0010301E023F00403C4F89030FDF7F8FB0227814641F2883897FAA7F33B
:20630000B3FA83F397FAA7F3B3FA83F3C3F3421343F00203022B02D1D4F890300CE097FAC0
:20632000A7F3B3FA83F3C3F3421343F00203032B0CBFD4F89430E36997FAA7F2B2FA82F23E
:2063400002F01F02D340DB0726D4FDF7CBFBC9EB00004045D2D9B8E4FDF7C4FBC8EB00009B
:2063600048453FF6B2AC97FAA7F3B3FA83F397FAA7F3B3FA83F3C3F3421343F00203022BF1
:2063800010D1D4F8903097FAA7F2B2FA82F202F01F02D340D807DFD496B1A36D23F0805351
:2063A000A3650DE097FAA7F3B3FA83F3C3F3421343F00203032B0CBFD4F89430E369E2E7B9
:2063C0006A6A0AB90020CDE0684CA36803F00C030C2B3FF406AC2368022A23F0807323603C
:2063E00040F08380FDF77EFB4FF00076074696FAA6F3B3FA83F3C3F3421343F00103012B41
:2064000001D1236810E096FAA6F3B3FA83F396FAA6F3B3FA83F3C3F3421343F00103032B27
:206420000CBFD4F89430E36996FAA6F2B2FA82F202F01F02D340D90705D5FDF753FBC01B70
:206440006428D4D941E4296BAB6A6A6B43EA0123E96A013943EA0113120943EA4241AB6B60
:206460005B08013B41EA4352EB6B5B08013B42EA4363E360236843F080732360E36843F001
:206480008073E360FDF72EFB4FF00075064695FAA5F3B3FA83F3C3F3421343F00103012BF1
:2064A00001D1236810E095FAA5F3B3FA83F395FAA5F3B3FA83F3C3F3421343F00103032B8B
:2064C0000CBFD4F89430E36995FAA5F2B2FA82F202F01F02D340DA073FF574AFFDF702FB80
:2064E000801B6428D3D9FFF7F0BBE36823F00303E360E36823F0887323F48033E360FDF727
:20650000F1FA4FF00075064695FAA5F3B3FA83F3C3F3421343F00103012B01D1236810E08B
:2065200095FAA5F3B3FA83F395FAA5F3B3FA83F3C3F3421343F00103032B0CBFD4F89430FC
:20654000E36995FAA5F2B2FA82F202F01F02D340DB077FF537AFFDF7C5FA801B6428D3D9C1
:20656000FFF7B3BB03B0BDE8F08300BF00100240C44B1A6802F007028A422DE9F0410546F1
:206580000E4680F0FE801A6804299CBF22F007020A431A601B6803F00703994202D001207F
:2065A000BDE8F08101688A0706D5B748836823F0F002AB6813438360CB070BD429684F071D
:2065C00040F1E081B048836823F4E062EB6813438360D7E16A68AC4C022A21D14FF400334B
:2065E00093FAA3F1B1FA81F1C1F3421141F00101012901D1216810E093FAA3F1B1FA81F170
:2066000093FAA3F3B3FA83F3C3F3421343F00103032B0CBFD4F89410E1694FF4003365E084
:20662000032A21D14FF0007393FAA3F1B1FA81F1C1F3421141F00101012901D1216810E09C
:2066400093FAA3F1B1FA81F193FAA3F3B3FA83F3C3F3421343F00103032B0CBFD4F894100B
:20666000E1694FF0007341E0FAB9022393FAA3F1B1FA81F1C1F3421141F00101012901D1B1
:20668000216810E093FAA3F1B1FA81F193FAA3F3B3FA83F3C3F3421343F00103032B0CBFC2
:2066A000D4F89410E169022320E04FF4806393FAA3F1B1FA81F1C1F3421141F00101012933
:2066C00001D1216810E093FAA3F1B1FA81F193FAA3F3B3FA83F3C3F3421343F00103032B7B
:2066E0000CBFD4F89410E1694FF4806393FAA3F3B3FA83F303F01F0321FA03F3DE077FF52A
:206700004EAFA36823F003031A43A260FDF7EAF96B68022B064641F288370DD1A36803F008
:206720000C03082B3FF44AAFFDF7DCF9801BB842F4D90320BDE8F081032B0BD1A36803F07F
:206740000C030C2B3FF43AAFFDF7CCF9801BB842F4D9EEE77BB9A36813F00C0F3FF42EAF7A
:20676000FDF7C0F9801BB842F5D9E2E7FDF7BAF9801BB842DDD8A36803F00C03042BF5D14D
:206780001CE701688C0706D53F48836823F0F002AB6813438360C80708D4042E394A00F20A
:2067A000E880136823F007033343E3E06A68364C022A21D14FF4003393FAA3F1B1FA81F17A
:2067C000C1F3421141F00101012901D1216810E093FAA3F1B1FA81F193FAA3F3B3FA83F386
:2067E000C3F3421343F00103032B0CBFD4F89410E1694FF400336AE0FAB9022393FAA3F1EB
:20680000B1FA81F1C1F3421141F00101012901D1216810E093FAA3F1B1FA81F193FAA3F34B
:20682000B3FA83F3C3F3421343F00103032B0CBFD4F89410E169022349E0032A26D14FF08F
:20684000007393FAA3F1B1FA81F1C1F3421141F00101012901D1216810E093FAA3F1B1FA0C
:2068600081F193FAA3F3B3FA83F3C3F3421343F00103032B0CBFD4F89410E1694FF00073B9
:2068800025E000BF00200240001002404FF4806393FAA3F1B1FA81F1C1F3421141F00101E2
:2068A000012901D1216810E093FAA3F1B1FA81F193FAA3F3B3FA83F3C3F3421343F001039D
:2068C000032B0CBFD4F89410E1694FF4806393FAA3F3B3FA83F303F01F0321FA03F3D90793
:2068E0007FF55DAEA36823F003031A43A260FDF7F9F86B68022B07460DD141F28838A36888
:2069000003F00C03082B3FF448AFFDF7EBF8C01B4045F4D90DE7032B0DD141F28838A36816
:2069200003F00C030C2B3FF438AFFDF7DBF8C01B4045F4D9FDE613B941F2873808E041F254
:20694000883810E0FDF7CEF8C01B40453FF6F1AEA36813F00C0FF5D11FE7FDF7C3F8C01B1A
:2069600040453FF6E6AEA36803F00C03042BF4D113E713681360136803F007039E427FF415
:206980000EAE1BE60B0707D5064A2969936823F4605343EAC10393600120FDF790F8002004
:2069A000BDE8F0810010024032498B6803F00C03042B10B528D08B6803F00C03082B25D0F6
:2069C0008B6813F00C0F09D08B6803F00C030C2B1FD1CB6803F00303012B1AD10A68254B8C
:2069E000120754BFD3F894301B68234A54BFC3F30323C3F3031352F823408B6813F00C0F73
:206A00000CBF2046002006E01C4800E01C48002401E0002004468A68164B02F00C020C2A9F
:206A200026D1DA68D86802F00302C0F30210022A00F1010006D0032A0CD1DB68104AC3F3D0
:206A4000062303E0DB680D4AC3F30623B2FBF0F0434306E0DA68B4FBF0F0C2F3062200FB0F
:206A600002F3C868C0F3416001304000B3FBF0F010BD00BF001002409C0F01080024F400F4
:206A800000127A0008B5FFF78FFF094B9A68F02393FAA3F3B3FA83F302F0F002DBB222FAED
:206AA00003F3044AD35CD840034B186008BD00BF001002408C0F010894180020F8B5424C04
:206AC000236823F0806323600546FDF70BF84FF00066074696FAA6F3B3FA83F3C3F3421327
:206AE00043F00103012B01D1236810E096FAA6F3B3FA83F396FAA6F3B3FA83F3C3F3421343
:206B000043F00103032B0CBFD4F89430E36996FAA6F2B2FA82F202F01F02D340DA0706D53F
:206B2000FCF7E0FFC01BB0F57A7FD3D931E023692A6823F4FE4343EA0223236123696A68A3
:206B400023F40033120943EA42432361236843F080632360FCF7C6FF4FF00066074696FA3C
:206B6000A6F3B3FA83F3C3F3421343F00103012B11D1236896FAA6F2B2FA82F202F01F0223
:206B8000D340DB0719D4FCF7ADFFC01BB0F57A7FE5D90320F8BD96FAA6F3B3FA83F396FA89
:206BA000A6F3B3FA83F3C3F3421343F00103032B0CBFD4F89430E369DCE722692B691343CA
:206BC00023610020F8BD00BF00100240F8B5424C236823F0805323600546FCF783FF4FF01D
:206BE0000056074696FAA6F3B3FA83F3C3F3421343F00103012B01D1236810E096FAA6F3C2
:206C0000B3FA83F396FAA6F3B3FA83F3C3F3421343F00103032B0CBFD4F89430E36996FA5E
:206C2000A6F2B2FA82F202F01F02D340DA0706D5FCF758FFC01BB0F57A7FD3D931E063696E
:206C40002A6823F4FE4343EA0223636163696A6823F40033120943EA42436361236843F0FD
:206C600080532360FCF73EFF4FF00056074696FAA6F3B3FA83F3C3F3421343F00103012BF2
:206C800011D1236896FAA6F2B2FA82F202F01F02D340DB0719D4FCF725FFC01BB0F57A7FBA
:206CA000E5D90320F8BD96FAA6F3B3FA83F396FAA6F3B3FA83F3C3F3421343F00103032B36
:206CC0000CBFD4F89430E369DCE76269EB68134363610020F8BD00BF00100240F8B5424CF1
:206CE000236823F0806323600546FCF7FBFE4FF00066074696FAA6F3B3FA83F3C3F3421310
:206D000043F00103012B01D1236810E096FAA6F3B3FA83F396FAA6F3B3FA83F3C3F3421320
:206D200043F00103032B0CBFD4F89430E36996FAA6F2B2FA82F202F01F02D340DA0706D51D
:206D4000FCF7D0FEC01BB0F57A7FD3D932E023692A6823F4FE4343EA02232361AA68236951
:206D60005208013A23F4C00343EA42532361236843F080632360FCF7B5FE4FF000660746A2
:206D800096FAA6F3B3FA83F3C3F3421343F00103012B11D1236896FAA6F2B2FA82F202F092
:206DA0001F02D340DB0719D4FCF79CFEC01BB0F57A7FE5D90320F8BD96FAA6F3B3FA83F3E8
:206DC00096FAA6F3B3FA83F3C3F3421343F00103032B0CBFD4F89430E369DCE722692B696E
:206DE000134323610020F8BD001002402DE9F347056815F40065044627D0436DB3F5800F3F
:206E000012D004D803BB0430FFF758FE0FE0B3F5000F03D0B3F5400F0BD015E0AE4AD36803
:206E200043F48033D36004E01830FFF7CFFE054658B9A949D1F8883023F44002636D1343F8
:206E4000C1F88830002500E001252368D80429D5A36DB3F1807F12D004D813BB201DFFF7BF
:206E60002DFE10E0B3F1007F03D0B3F1407F0CD017E0994AD36843F48033D36005E004F1B6
:206E80001800FFF7A3FE064600E02E4666B99249D1F8883023F04072A36D1343C1F888308C
:206EA00003E001252E4600E035462368990340F18480894FBB6DDA000BD4BB6D43F08053B7
:206EC000BB65BB6D03F080530193019B4FF0010801E04FF00008DFF80492D9F8003043F45F
:206EE0008073C9F80030FCF7FDFD8246D9F80030DB0506D4FCF7F6FDCAEB00006428F5D949
:206F000052E0002E51D1D7F89020616F724B02F440728A4211D0D3F89060D3F8902042F422
:206F20008032C3F89020D3F8902026F4407622F48032C3F89020C3F89060B00740F1CC81D6
:206F4000FCF7D0FD0226814641F2883A96FAA6F3B3FA83F396FAA6F3B3FA83F3C3F34213EA
:206F600043F00203022B02D1D7F890300CE096FAA6F3B3FA83F3C3F3421343F00203032BA1
:206F80000CBFD7F89430FB6996FAA6F2B2FA82F202F01F02D340D90700F19E81FCF7A2FD3F
:206FA000C9EB00005045D1D90326B8F1000F05D0BB6D23F08053BB6500E02E462368DA073A
:206FC00008D54548D0F8882022F00301A26A0A43C0F888209F0708D53F48D0F8882022F07C
:206FE0000C01E26A0A43C0F888205D0708D53A48D0F8882022F03001226B0A43C0F88820DB
:20700000180708D53448D0F8882022F0C001626B0A43C0F88820D90608D52F48D0F8882098
:2070200022F44071A26B0A43C0F888209A0608D52948D0F8882022F44061E26B0A43C0F868
:2070400088209F0508D52448D0F8882022F44021E26C0A43C0F888205D0508D51E48D0F84C
:20706000882022F44011226D0A43C0F88820580608D51948D0F8882022F44051226C0A4337
:20708000C0F88820190608D51348D0F8882022F44041626C0A43C0F88820DA0508D50E48A5
:2070A000D0F8882022F44031A26C0A43C0F888209F041ED5084AE16DD2F8883023F04063B0
:2070C0000B43B1F1006FC2F8883009D1D36843F48013D3600DE000BF00100240007000401F
:2070E000B1F1806F05D1201DFFF7F8FD002818BF064623681D0319D5BB4A216ED2F8883007
:2071000023F040630B43B1F1006FC2F8883004D1D36843F48013D36008E0B1F1806F05D18C
:20712000201DFFF7DBFD002818BF06462368580319D5AD4A616ED2F8883023F040630B43D9
:20714000B1F1006FC2F8883004D1D36843F48013D36008E0B1F1806F05D1201DFFF7BEFD62
:20716000002818BF06462368590440F19C809E4DA76ED5F8883023F040533B43B7F1805F5F
:20718000C5F8883037D12B6823F080632B60FCF7A9FC4FF00067804697FAA7F3B3FA83F30C
:2071A000C3F3421343F00103012B01D12B6810E097FAA7F3B3FA83F397FAA7F3B3FA83F370
:2071C000C3F3421343F00103032B0CBFD5F89430EB6997FAA7F2B2FA82F202F01F02D3401F
:2071E000DA0740F18380FCF77DFCC8EB0000B0F57A7FD1D9DAE0B7F1005F54D12B6823F087
:2072000080532B60FCF76EFC804697FAA7F3B3FA83F3C3F3421343F00103012B01D12B68CC
:2072200010E097FAA7F3B3FA83F397FAA7F3B3FA83F3C3F3421343F00103032B0CBFD5F8BA
:207240009430EB6997FAA7F2B2FA82F202F01F02D340D80776D5FCF745FCC8EB0000B0F5F0
:207260007A7FD2D9A2E0FCF73DFCC8EB0000B0F57A7F00F29B8097FAA7F3B3FA83F3C3F35A
:20728000421343F00103012B4AD12B6897FAA7F2B2FA82F202F01F02D340DB07E3D52A69EB
:2072A000636913432B6121680A0408D54E48D0F8883023F08042E36E1343C0F88830CB03DC
:2072C00040F18D804849D1F8883023F00042236F1343C1F8883082E0D7F8903023F44072F6
:2072E000636F1343C7F890302E465EE62B69626823F4FE4343EA02232B6122692B69520822
:20730000013A23F0C06343EA42632B612B6843F080632B60FCF7E6FB4FF000678046AAE799
:2073200097FAA7F3B3FA83F397FAA7F3B3FA83F3C3F3421343F00103032B0CBFD5F89430E5
:20734000EB69A3E76B69A26923F4FE4343EA02236B61226A6B695208013A23F0C06343EAA2
:2073600042636B612B6843F080532B60FCF7BAFB4FF00057804697FAA7F3B3FA83F3C3F370
:20738000421343F00103012B12D12B6897FAA7F2B2FA82F202F01F02D340D9071AD4FCF78E
:2073A000A1FBC8EB0000B0F57A7FE4D903267AE797FAA7F3B3FA83F397FAA7F3B3FA83F3FD
:2073C000C3F3421343F00103032B0CBFD5F89430EB69DBE76A69636A13436B6163E7304649
:2073E00002B0BDE8F08700BF001002402DE9F34104460F4616461D46FCF774FB8046216855
:207400008A683A40B2423DD0B7F5C06F06D12EB90B7BDBB28DF807309DF807306B1CEFD085
:207420004DB923685A6822F0E0025A606268B2F5827F12D106E0FCF755FBC8EB0000854253
:20744000DDD8EEE7A268B2F5004F02D0B2F5806F03D11A6822F040021A60A26AB2F5005F04
:2074600008D119684DF6FF720A401A601A6842F400521A60012384F85D30002384F85C305E
:20748000032000E0002002B0BDE8F0812DE9F04104460F4616461D46FCF724FB80462368F9
:2074A0009A683A40B24234D06A1CF9D04DB923685A6822F0E0025A606268B2F5827F12D1B3
:2074C00006E0FCF70FFBC8EB00008542E7D8EEE7A268B2F5004F02D0B2F5806F03D11A68FD
:2074E00022F040021A60A26AB2F5005F08D119684DF6FF720A401A601A6842F400521A6056
:20750000012384F85D30002384F85C300320BDE8F0810020BDE8F08138B500220B460D46F1
:207520004FF4C0510446FFF761FF024628B92B4680212046FFF7AAFF20B1236E43F020035F
:207540002366032038BD70B50446002850D090F85D301BB980F85C30FCF7B0FA2168E26876
:20756000022384F85D300B68B2F5E06F23F040030B604FF0000303D91846B2F5706F01E0D0
:207580004FF4805018BFA362236B2BB9B2F5E06F8CBF022301232363A5686668A3692E4322
:2075A00025692E4365692E43E5692E43256A2E43A56A2E4303F4007535430D60256B022D3E
:2075C00002BF0D6845F400650D60656A2A43656B1B0C154303F0040245EA020303434B60C1
:2075E000E36A0B6100200123206684F85D3070BD012070BD2DE9F74304461F4688469146E0
:207600000A9EFCF76FFA94F85C30012B054600F02581012384F85C3094F85D30012B40F0A0
:207620001081B8F1000F00F00A81B9F1000F00F00681002F00F00381052384F85D3000235F
:207640002366A36AC4F84090B3F5005FA4F84670A4F84470C4F83880E787A787226808D1EC
:2076600011684DF6FF730B401360136843F400531360E1685368B1F5E06F01D8012F02D9C9
:2076800023F4805301E043F480535360136858065EBF136843F040031360B1F5E06F40D9FA
:2076A000E38FB4F846005BB322689168890710D5A16B013B31F8027BD7609BB2A163E38780
:2076C0003BB9A36AB3F5005F02BF136843F48053136068B123689A68D20709D5DA68236CBB
