:020000040801F1
:2018000000800020891901080000000000000000000000000000000000000000000000007D
:201820000000000000000000000000000000000000000000000000000000000000000000A8
:20184000000000000000000000000000000000000000000000000000000000000000000088
:20186000000000000000000000000000000000000000000000000000000000000000000068
:20188000000000000000000000000000000000000000000000000000000000000000000048
:2018A000000000000000000000000000000000000000000000000000000000000000000028
:2018C000000000000000000000000000000000000000000000000000000000000000000008
:2018E0000000000000000000000000000000000000000000000000000000000000000000E8
:201900000000000000000000000000000000000000000000000000000000000000000000C7
:201920000000000000000000000000000000000000000000000000000000000000000000A7
:20194000000000000000000000000000000000000000000000000000000000000000000087
:20196000000000000000000000000000000000000000000000000000000000000000000067
:20198000000000000000000082B00190019802B000F000B882B00D4A0D4B0E4901908B42FB
:2019A00004D252F8040F43F8040BF8E70A4B0B4A0021934202D243F8041BFAE7084B094A76
:2019C0009A60019802B002F06BBB00BFBC0802080000002000000020000000205412002037
:2019E00000ED00E0001A0108000000000000000000000000000000000000000000000000F7
:201A000000800020891901080579010807790108097901080B7901080D79010800000000C4
:201A20000000000000000000000000000F79010811790108000000000D3B01084D3D01089E
:201A40007D4B01087D4B01087D4B01087D4B01087D4B01087D4B01087D4B01087D4B0108FE
:201A60001D3B01087D4B01087D4B01087D4B01087D4B01087D4B01087D4B01087D4B01084E
:201A80007D4B01087D4B01087D4B01087D4B01087D4B01087D4B01087D4B0108A13B0108AA
:201AA0007D4B01087D4B01087D4B01087D4B01087D4B01087D4B01087D4B01087D4B01089E
:201AC0007D4B01087D4B01087D4B01087D4B01087D4B0108593401087D4B01087D4B0108B9
:201AE000051C01087D4B01087D4B01087D4B01087D4B01087D4B01087D4B01087D4B010805
:201B00007D4B01087D4B01087D4B01087D4B01087D4B01087D4B01087D4B01087D4B01083D
:201B20007D4B01087D4B01087D4B01087D4B01087D4B01087D4B01087D4B01087D4B01081D
:201B40007D4B01087D4B01087D4B0108113B01087D4B01087D4B01087D4B01087D4B010879
:201B60007D4B01087D4B01087D4B01087D4B01087D4B01087D4B01087D4B010800000000AE
:201B80007D4B01087D4B01088007054B48BF41F48071D9609A689207FCD50020704700BF64
:201BA00000380040F8B507460D4601202A2116461C46FFF7E9FF390A0220FFF7E5FFF9B26E
:201BC0000220FFF7E1FF310A0220FFF7DDFFF1B20220FFF7D9FF2B210120FFF7D5FF290AE1
:201BE0000220FFF7D1FFE9B20220FFF7CDFF210A0220FFF7C9FFE1B20220BDE8F840FFF7EB
:201C0000C3BF000070B58AB04FF48063009308230DEB03024C213B4804F0BCF99DF808309C
:201C2000522B68D19DF80930374DFF2B0BD12B881E0460D46B881D045DD472B6334A136828
:201C400043F4806355E01A019DF80A609DF80C109DF80D0002F4706216431B029DF80B20CA
:201C600003F470631A430B0103F47063184309029DF80E30040501F4706143EA010344BF2B
:201C80006FEA00506FEA1050190548BF6FEA03534FF0000148BF6FEA1353298100B92BB1C9
:201CA00030441344012100B21BB2298102EB8201C6EB06129211C2F5F072491129806A802C
:201CC0002A89114C12B27AB103EB8302202392FBF3F212B2A280C0EB0013402293FBF2F364
:201CE000C3F5F0731BB2E38072B6084A136843F00203136062B6064B4FF400625A610AB076
:201D000070BD00BF24000020E205002074060020000401400E490B6840F202421A406AB9F0
:201D20000C4B188900B248B11A819A881A80DA885A800B6843F002030B607047064B5A698C
:201D4000120504D54FF400625A61FFF75BBF704774060020E2050020000401402DE9F04F31
:201D6000D04BD14FDFF86883D04CDFF868A34FF0000B4FF6FF72A3F808B01A805A80CC4B8A
:201D8000C3F800B0CB4B8DB04FF4806220210646C948C3F800B0012507F0A0FA4FF480637A
:201DA00007A9384607930895CDF824B0CDF828B003F002FF4FF40063079307A9BF4B0893FF
:201DC0003846099503F0F8FE4FF44073079303230A9307A9042340464FF012090B93CDF891
:201DE0002090099503F0E8FEA36D43F40013A365A36D03F40013594603933C225046039B79
:201E000007F06CFAAE4BAF4ACAF80C5050468AE80C0004F074F85946504604F03BF97B69A0
:201E200023F480637B61002E40F01982E36C43F00203E364E36C03F002030493049BE36C39
:201E400043F00403E364E36C03F004030593059BA36D43F48043A365A36D099603F4804305
:201E60000693069B4FF4204302244FF0050B079307A9032340460A930894CDF82CB003F04A
:201E80009BFE4FF4804307A940460793089509960A9603F091FED8F8143043F48043C8F8A7
:201EA000143007A938460794089509960A9603F083FE7B69844A854823F002037B611368D7
:201EC00023F0400313604FF4827343604FF40063C3604FF400734FF00A0A836108230093EA
:201EE000436301920260866006614661C661066246628662C0F82CA0066304F0E2FE019AD8
:201F0000116841F0400111607A6922437A613C2002F076FFD8F8142022F48042C8F81420AF
:201F200011212120FFF730FEC82002F069FFB9212846FFF729FEFF212046FFF725FE832120
:201F40002046FFF721FE57212220FFF71DFE504602F056FFB1212846FFF716FE3146204637
:201F6000FFF712FE49462046FFF70EFE49462046FFF70AFE49462046FFF706FEC321204638
:201F8000FFF702FE44212220FFF7FEFD504602F037FFB4212846FFF7F7FD21462046FFF705
:201FA000F3FD40212046FFF7EFFD31462046FFF7EBFD2A212046FFF7E7FD2A212046FFF79B
:201FC000E3FD20212046FFF7DFFD91212220FFF7DBFD504602F014FFB6212846FFF7D4FD3F
:201FE00038212220FFF7D0FD504602F009FFB0212846FFF7C9FD68212046FFF7C5FDE3214D
:202000002846FFF7C1FD2F212046FFF7BDFD1F212046FFF7B9FDB5212846FFF7B5FD29468B
:202020002046FFF7B1FD29462046FFF7ADFD67212046FFF7A9FDC0212846FFF7A5FD70211F
:202040002046FFF7A1FD70212046FFF79DFD29462046FFF799FD3C212046FFF795FDC8216A
:202060002046FFF791FD009B22201946FFF78CFD504602F0C5FEC2212846FFF785FD314630
:202080002046FFF781FD009B20461946FFF77CFD04212220FFF778FD504602F0B1FECC21A1
:2020A000284619E0E205002000080048001002406404002060040020600000200000211053
:2020C0009129700000540040003800400C0600200004004824000020FFF756FD59462220DE
:2020E000FFF752FD504602F08BFEE0212846FFF74BFD29462046FFF747FD21462046FFF70B
:2021000043FD03212046FFF73FFD59462046FFF73BFD0E212046FFF737FD22212046FFF732
:2021200033FD32212046FFF72FFD3B212046FFF72BFD5C212046FFF727FD54212046FFF7E6
:2021400023FD4C212046FFF71FFD41212046FFF71BFD3D212046FFF717FD37212046FFF722
:2021600013FD31212046FFF70FFD21212046FFF70BFD29462046FFF707FD21462046FFF75D
:2021800003FD03212046FFF7FFFC59462046FFF7FBFC0E212046FFF7F7FC22212046FFF7B5
:2021A000F3FC32212046FFF7EFFC3B212046FFF7EBFC5C212046FFF7E7FC54212046FFF76A
:2021C000E3FC4C212046FFF7DFFC41212046FFF7DBFC3D212046FFF7D7FC37212046FFF7A6
:2021E000D3FC31212046FFF7CFFC21212046FFF7CBFC31462046FFF7C7FC29462046FFF7D1
:20220000C3FC504602F0FCFD3A212846FFF7BCFC55212046FFF7B8FC36212846FFF7B4FC16
:2022200031462046FFF7B0FCB0212846FFF7ACFC99212046FFF7A8FC29462046FFF7A4FC1D
:2022400022212846FFF7A0FC29212120FFF79CFC504602F0D5FD114800F040FF02E0C82076
:2022600002F0CEFD0E4C636943F4806363610A2002F0C6FD636923F4806363610A2002F018
:20228000BFFD636943F480636361064B4FF48072C3F884210DB0BDE8F08F00BFF9F9F90067
:2022A0000008004800E100E010B51D4B9AB0044618603C2200210BA807F010F84FF08043A1
:2022C0000B930BA8174B0E9304F000FF10220021684607F003F84FF4805369460BA80093B9
:2022E00005F03EF80BA804F00BFF1C22002104A806F0F4FF40F6C41060436023002204A90F
:202300000493059004230BA8089305F07DF90BA804F06BFE00210BA805F0E8F81AB010BD61
:202320000000002090D003002DE9F84F00280C9EDDF834800E9F5ADB002958DB0B9CDFF8A6
:20234000B4C0A4F1040E00240A9DAC421DD0102C1BD05EF8045F4FEA154929F00709C5F364
:20236000423549EA05050CF81450DEF800504FEA551A0CEB44092AF01F0AC5F3C4054AEA37
:20238000050589F801500134DEE780B289B2013B013A0B4402449BB292B2FFF703FC2C211B
:2023A00001200124FFF7F0FBB440124D013CF7B118F801ABB146C6EB09032AFA03F32340D1
:2023C0004FEA430BAB4415F813100220FFF7DCFB9BF801100220FFF7D7FBB9F1070FA7EB88
:2023E0000607E4D8B144002FE5D1BDE8F88FBDE8F88F00BF04000020F8B5069C050C460950
:202400001F4605F0F805C0F3423306F0E006C0F3C4001D430643631E88B291B27A1E0B445C
:2024200002449BB292B2FFF7BDFB2C210120FFF7ABFB7C43EDB2F6B24CB129460220FFF783
:20244000A3FB31460220FFF79FFB013CF4E7F8BD30B5254C236887B005467BB12349244A7F
:2024600000231360A1F140004FF47072236006F0D1FE402220211F4806F030FF0A2D15D13B
:202480004FF48062012304921B4A23600392002340F25F104FF4A07181228DE80700059311
:2024A000164A1946184600F0E7F91AE00D2D07D110484022202107B0BDE8304006F00EBF99
:2024C000A5F120035F2B0CD809490B4A0B681A4401333E2B0B6088BF012382F8C05388BF16
:2024E000236007B030BD00BF60040020A0000020640400202004002060000020F9F9F9007B
:2025000038B504464518AC4204D014F8010BFFF79FFFF8E738BD00000FB42DE9F04F87B096
:20252000109C002C00F0778111ABB24DB24E01932378002B00F06F812346C4EB03091F465D
:2025400013F8012B252A08D149462046FFF7D8FF3B78252B04D03C46EAE7002AEDD1F3E76E
:202560000022019B781C94464FF0200E904617464FF00A0A0178582900F1010400F0DE80FE
:2025800016D82E2957D00BD82A2967D02D2903D14FF0000C2046EDE7252940F035812FE16F
:2025A0003029C0F03181392920D9482961D02BE1702916D007D864292DD068295ED0632924
:2025C00040F022811DE0752900F0AD80782908D0732940F0198102B101934FF0000A0A23D4
:2025E00051E002B101934FF0000CABE0302903D1002F08BF4FF0300E0AFB0711A1F1300707
:20260000C8E702B10193019B06A81A1D1B68019240F8183DF6E002B10193019B1A1D1B682D
:202620000192002B80F285805B4200934FF0000C01230A228DE041782A2940F0E580817893
:20264000732904D001F0DF01482940F0DD800122D3F80080841C043394469BE74178732945
:2026600040F0D280D3F80080012204334FF0020C90E702B101934FF0010A03E002B10193B4
:202680004FF0000A1023019ABCF1010F02F104010191106818D0BCF1020F07D00246C0EBF4
:2026A000020812F8011B0029F9D10DE00378002B40F0AC8001215148FFF722FF434608F1B4
:2026C000FF38002BF6D122E0102B02D10746804414E04146FFF714FFC14618E017F8019B82
:2026E0004FEA191309F00F09BAF1000F09D1F05CFFF7AEFE16F80900FFF7AAFE4745EDD1E3
:2027000016E7E85CFFF7A4FE15F80900F4E7B945BFF40EAFC9EB070701213848FFF7F0FE39
:20272000013FF9D104E702B10193019B1A1D1B6801924FF0000C009363467AE702B1019345
:202740004FF0010C019B1A1D1B680192009310220023DDF80080012002FB00F1414502D997
:2027600043B9194613E0B1FBF2F94845F8D1013F0846F1E7BEF1300F04BF2D238DF80830FA
:2027800007F1FF3707BF0023012101230021A7F10209B9F10D0F0DD801F1FF390DF1080B32
:2027A00007F1FF3AD944BAF1010A09F801EFFAD1394401392BB106AB0B442D2703F8107CEB
:2027C000013102AB4F1C0B44791E88B1B8FBF0F1B1FBF2FE02FB1E11BCF1000F01D1895DC0
:2027E00000E0495D1970B0FBF2F001370133EBE702A80DE06D9501085C950108CC05020888
:2028000002B10193012103E002B1019304480521FFF776FE8CE607B0BDE8F04F04B07047D1
:202820007E950108C0F30B000A28F0B51ED8114C54F82050E5B1AF78134400209A4214D0E4
:2028400012F8014BAE88B44213D3B5F806E074450FD8A41BAE6816F8244011B106198E42E5
:2028600007DC3C440444A0B2E8E7F0BD0020F0BD2846F0BD88D901082DE9F04FC0F30B0B6F
:202880008DB0BBF10A0F9A46169D0A920B9155D82C4B53F82B00002851D0179ADDF864809E
:2028A0000678099352440692189A05EB0209827807921A9A424408925446089B984539D099
:2028C000099A18F8013B52F82B2091888B4202D3D088834208D9093B012B2BD83544731943
:2028E000994527D35446E8E79068D2685B1A00EB830110F8237049880A440699E319994251
:2029000004D235447319994514D3544617FB06F30493012302930AAB01930223039200938C
:202920003A46334620462946FFF7FEFC079B1F443C44C2E7A4B244EA054000E000200DB025
:20294000BDE8F08F88D901082DE9F04F8DB091460593059C9DF858300693179BC4F1010227
:2029600080460E460792C3EB040B23B1BBF1000FD4BF0023012302930BF1FF330393F31A18
:202980000893CBF10103049309F1FF330993069B03F0010300270B930125BC42C0F20581C4
:2029A0000B9BCBB1029B83B1039B1898009507EB090AE31A52463146FFF71EFD03980095EF
:2029C000A1195B465246091A03E0099A0095234631464046FFF710FD069B99071AD5029B90
:2029E00004EB09027BB1059BA34205D00095049B18983146FFF700FD049900955B4604EB47
:202A00000902711803E000953B46013A31464046FFF7F2FC069B5A071BD5331B0A93029B93
:202A200083B1039B1898009507EB090AE31A5246311BFFF7E1FC03980095311B5B46524611
:202A4000091A03E0099A00952346311B4046FFF7D3FC069B1B0719D5029B04EB090273B1CC
:202A6000059BA34205D00095049B1898F11BFFF7C3FC00955B4604EB0902089903E000950E
:202A80003B46013AF11B4046FFF7B6FC069BD80618D5029B0095C7EB090A6BB1039B189873
:202AA000E31A52463146FFF7A7FC03980095A1195B465246091A02E023465246314640464B
:202AC000FFF79AFC069B990619D5029BC4EB09027BB1059BA34205D00095049B1898314604
:202AE000FFF78AFC049900955B46C4EB0902711802E000953B4631464046FFF77DFC069B3F
:202B00005A061BD5C7EB09030A93029B0095C4EB060A6BB1039B0A9A1898E31A5146FFF781
:202B20006BFC039900955B460A9AC1EB0A0102E00A9A234651464046FFF75EFC069B1B06E3
:202B400018D5029BC4EB090273B1059BA34205D00095049B1898F11BFFF74EFC00955B464D
:202B6000C4EB0902089902E000953B46F11B4046FFF742FC079B0594002B07F10107C3BF54
:202B8000079A04F1FF343B1B03EB4703C8BF02EB430301330793089B013B0893049B013309
:202BA0000493099B01330993F7E60DB0BDE8F08F2DE9F04F90F800A08DB0044615469B460C
:202BC0002AF0800A0F4600293CD0002A3FD0BAF1050F00F0DC81068BB54BB0F80680C6F30A
:202BE0000B02304653F8223093F801901B7807930A46EBB2CDF800B04146FFF713FE06F482
:202C00004043B3F5804F06D0B3F5004F06D14008C0EB580804E0C0EB080801E04FF00008FC
:202C200006F44056B6F5805F08D0B6F5005F13D126897608013EA6EB59060EE02689C9EB07
:202C400006060AE0079189460E46884605E0079291461646904600E000260AF1FF33062B0A
:202C600000F23182DFE813F007003F0107008201930117023F01E3882089E17A4FEA530923
:202C80004208914528BF91468945227B28BF8946B4F90210012A4FEA490AB4F9042000905E
:202CA000CAEB0303494459D06069FFF7A5FB2389B4F90420B4F90210CAEB030300934A442C
:202CC0004B466069FFF798FBE388B4F90210B4F9042019442389CAEB0303009301394B46F4
:202CE0004A44C9EB01016069FFF786FBE388B4F90210A07AB4F904200090CAEB0303494463
:202D00002069FFF779FBB4F904102289E388A07A0A44B4F902100090CAEB0303013A4944AF
:202D20002069FFF769FB2089B4F90420A37AB4F90210CAEB000000904A442069FFF75CFBB1
:202D4000B4F90200E188B4F90420A37A01442089CAEB000000904A4401391DE02069FFF7F6
:202D60004BFB2389B4F90420B4F90210CAEB030300934A444B462069FFF73EFBE388B4F994
:202D80000210B4F9042019442389CAEB030300934A444B46C9EB01012069FFF72DFBB9F1D3
:202DA000010F5ED9237B012B06D094F80AA0D14502D9CAEB090A01E04FF0000A6369B4F99A
:202DC0000420B4F902100293C0230093CDF804A04B464A4449442069FFF7B6FDE388B4F9A6
:202DE0000210A07AB4F9042019446369029330230093CDF804A0C9EB0101091A4B464A44D1
:202E00002069FFF7A1FD2389B4F90420A07AB4F902101A44636902930C230093CDF804A055
:202E2000C9EB0202121A4B4649442069FFF78CFD2389B4F90420B4F90210A07A1A44E38869
:202E400019446369029303230093C9EB0202C9EB0101CDF804A0121A091A4B462069FFF7C5
:202E600073FD002F36D0002D34D0237B22696169B4F902C0B4F90490208B012B1EBF1346CC
:202E80000A461946E388C444C8EB0308A37AB14413B14FEA430E01E04FF0020ECEEB0808F9
:202EA000B4F808E0C6EB0E0623B14FEA430E03E088D901084FF0020ECEEB06030293CDF8A3
:202EC00014B004950397CDF80480CDF800906346FFF7D2FCA37E002B00F0F580B4F9020090
:202EE000B4F904105AE0237B012B14D1BAF1070FB4F9043014BFB4F808E0DDF81CE0606985
:202F0000B4F902100CBF4A4600229A1AE388CDF800E0FFF771FA002F00F0D580002D00F0BF
:202F2000D280B4F904E021696269B4F90230208BBAF1070F14BFB146C9F10009F144BAF1A1
:202F4000070FB4F806E02489CDF814B008BF00264344A61BC8EB0E08049503970296CDF805
:202F60000480CDF80090FFF787FCACE001232373E37A002B7FF47FAE2089E388B4F90420AC
:202F8000B4F9021000902069FFF736FA9BE0A37EB4F90200B4F90410002B4AD02278052A19
:202FA00008D1BBF1000F05D0484A166816B1484A126812B9474A484E12689A4240F2838048
:202FC0001BB26DB103EB830206EB8202D2F808E0042202FA0EF2AA4275D1AD0800D047B993
:202FE00003EB830206EB820201259768BD40D768ADB203EB83039B0006EB030CF258DCF8FC
:203000000430B4F808E0DCF808805E08C6EB5E0EE6885408C4EB560603FB02F408FB04F445
:203020000494DCF8104003948DE8A0017144304416E03D78022D0DF1200E14D9E2882389F5
:20304000029503FB02F46C4304940424AC4001342744012404FA05F50397CDF804E00095F5
:20306000FFF762F92FE00123AB4007EB8302013B5E1CA2F10402E1D0967892F8018092F8C7
:2030800004C046EA0828D6784CEA062646EA08464EF82360EBE7257BE37AB4F90210B4F9DA
:2030A00004202069012D19441A4404D0A57AAB4201D95D1B00E0002564690294FF24019527
:2030C0000094FFF741FC0DB0BDE8F08F6804002070040020FCF3010880DC010810B588B0CE
:2030E00004461C22002101A806F0F8F803238DF804300B4B05941C604FF4A073ADF80A3019
:203100004FF4F073ADF80C3001238DF8103000231A46194601A8FFF74BFD08B010BD00BF32
:203120006C04002000231A461946FFF741BD00002DE9F043834E33688DB0054613B1002800
:2031400040F0FD80804C7F488822002106F0C6F8E36C43F00803E364E36C03F008030093FC
:20316000009BE36C43F00203E364E36C03F002030193019BE36C43F00203E364E36C03F05F
:2031800002030293029BE36C43F00203E364E36C03F002030393039BE36C43F00203E364E1
:2031A000E36C03F002030493049BE36C43F00203E364E36C03F002030593059B3560002D83
:2031C0006ED0236E614E43F480532366236E03F48053069301250024069B0895042307A98B
:2031E0003046079309940A940B9402F0E5FC7369574823F0040373614FF00208032605270B
:20320000082307A90793CDF8208009950A960B9702F0D2FC102307A94D480793CDF82080BD
:2032200009940A960B9702F0C7FC202307A9484807934FF08009CDF8208009950A960B97D0
:2032400002F0BAFC07A94248CDF81C90089509950A960B9402F0B0FC2A4649463C4802F08E
:203260008FFD402307A93A4807933A4B0893CDF824800A960B9402F09FFC374B4FF4000277
:20328000C3F88021302283F8172301F087FC01F0A3FC172002F076FC384601F0B1FD4EE0E1
:2032A000172002F07BFC236E23F480532366274C0A9504232046079307A901230893099524
:2032C0000B9502F079FC6369214823F00403636107A90824079402F06FFC2A4621461C48C5
:2032E00002F04EFD202607A91948079602F064FC2A463146164802F043FD802307A9144825
:20330000079302F059FC2A462146114802F038FD402407A90E48079402F04EFC2A4621465D
:203320000B4802F02DFD102407A909480895079402F042FC2A462146054802F021FD0DB090
:20334000BDE8F0839C0F002000100240000C0048000400480000111000E100E038B50F4C6E
:203360000023C4F88430254640210D4802F002FD012812D1D4F884307BB98021094801F005
:203380003FFCC5F8840001F0C0FC074A536843F08053536001F026FDE6E738BD9C0F00209E
:2033A00000040048A00F002000ED00E0074BD3F884304BB1064B1A68520705D472B61A68A9
:2033C00042F004021A6062B6704700BF9C0F00207406002008B5054B0022C3F8842001F0C9
:2033E00091FCBDE80840FFF7B9BF00BF9C0F00200D4B0E491A68136810B523F001030409C6
:203400001360138A31F8141000F00F00013841FA00F0DBB240005B004343D360136843F05D
:203420000103136010BD00BFA007002020050208084B1B681A6822F001021A601A8AD2B284
:20344000490052004A43DA601A6842F001021A60704700BFA0070020154BF7B52022C3F893
:203460008421144B14491B681448154F4FF0FF364FF49675DA69920618D51E620A68B2F585
:20348000967F0ED204689A8CD2B23A5502680132B2FBF5F405FB142202600A6801320A60B8
:2034A000E8E79A8CD2B28DF80720E3E703B0F0BD00E100E0A0070020D805002074040020A0
:2034C000A8040020014B186880B27047D8050020F0B5124E124CDFF84CC0014437464FF423
:2034E000967E884219D0336823B9531CFBD0013AF9D1F0BD8AB172B63B68013B3B6062B6AD
:2035000023681CF8033000F8013B23680133B3FBFEF50EFB15332360E3E7F0BDD8050020FD
:20352000A4040020A804002038B505464FF0FF320321FFF7CDFF6C78AB7843EA0424E81C09
:203540004FF0FF322146FFF7C3FFE01C80B238BD37B505460C46D9B1252002F01FFB0D4BFD
:203560001B684FF6FF71013CA4B28C420DD0DA691006FCD515F8012B1A85DA699206FCD527
:203580009A8CD2B28DF80720EDE7252002F0FAFA03B030BDA0070020FFF7DABF2DE9F04F8B
:2035A000914D924CDFF84C82914E002785B0282239464FF002098246284688F80070A4F89A
:2035C000009005F08BFE1120FFF712FF736923F480537361642001F013FC736943F48053A1
:2035E00073614FF4803249462846FFF771FF2B786E78A4F8009003F0FB033B2B40F0D38010
:203600008DF80C708DF80D70B946FBB2019316F0F00B4BD0F10615D520884FF0FF32012130
:203620002844FFF755FF019B012B08D86F4B6E4A1B880199D25C04AB0B4403F8042C23887B
:2036400001332380B20609D520884FF0FF3201212844FFF73DFF238801332380730609D54C
:2036600020884FF0FF3201212844FFF731FF23880133238073B20026B342C8DA20884FF033
:20368000FF3201212844FFF723FF2388EE5C01332380B9F1000F05D116F00F0918BF4FF0C4
:2036A000010901E04FF001090137AEE769784E4E012211F00F0188F800200BD020884FF0F6
:2036C000FF323044FFF704FF727802F00F0122880A442280022288F80020B9F1000F06D172
:2036E000032288F800209DF80D2092B917E020884FF0FF3201212844FFF7EAFE22880132A0
:2037000092B222800021C8B2824201F10101FAD8E6E7802A5ED0374A0421117060E09DF8FD
:203720000C30112B00D013B9BAF1000F56D03248324C304D4FEA1A120AF00F0130F8122057
:20374000013942FA01F11A0903F00F0330F812202B48013B42FA03F399424FF0FF03C8BFFB
:203760008DF80CA00370102343709DF80C308370042183F0EF03C370FFF7EAFE05234FF0F9
:20378000FF320221204688F80030FFF7A1FE2378FF2B08D111238DF80C30637833B1102B9D
:2037A0000DD006232B704FF0000B19E007234FF0FF320121A01C2B70FFF78AFE0AE0022187
:2037C00008234FF0FF3260182B70FFF781FEA3788DF80C309DF80C00FFF70AFE4FF0010B00
:2037E000584605B0BDE8F08F78040020E005002000080048A004002020050208D405002075
:20380000DC0500202DE9F0414E4C86B0002877D00323002502264FF48077049301A9072309
:203820004FF0904005934FF0010801970296039502F0C2F94FF4007301A94FF09040019321
:20384000CDF80C80029602F0B7F9CDF80880DFF80C8103964FF4805301A940460193049520
:20386000059502F0A9F9D8F8143023F48053C8F81430236E43F480432366236E324C03F4FE
:2038800080432946009348222046009B05F026FD2E4B23604FF44053E3604FF48063236121
:2038A00020460C236361276203F066FF23681A6822F001021A601A6842F480521A605A686C
:2038C00042F400625A609A6842F4401242F402629A601E821A6842F020021A60252002F051
:2038E00051F91B4B22681D601A4B1D601A4B1D60136843F0010313609820FFF74FFE1DE030
:20390000164D252002F04AF96B6923F480536B61236E23F4804323664FF44073019301A918
:2039200003234FF09040029302F046F94FF48053284601A9019302F03FF9012006B0BDE824
:20394000F08100BF00100240A007002000380140A404002074040020D805002000080048F8
:2039600004292DE9F74306460F4600D8FEE7234CDFF88C9090F8018005210025FFF7E8FDDB
:2039800025804FF0FF3201210DF10700FFF7A0FD65B1002DF5D023889DF80710184A581C23
:2039A00080B22080D15403B0BDE8F0839DF8073003F0F002602A01D0902A08D1602BE0D06B
:2039C0002288511C218009F802300125D9E7984512D1052F317903D0701DFFF7B9FDD0E7B5
:2039E00009B189B201E04FF480714FF0FF3204482180FFF76DFDC4E7FEE700BF6011002020
:203A000079060020BFF34F8F0449054BCA6802F4E0621343CB60BFF34F8FFEE700ED00E0AD
:203A20000400FA0570470000024B14201860FEF73BBC00BF8007002070B418B3144C1549D4
:203A4000226847F22F539A422546134B134A09D81E6844F61F60864204D800200860206053
:203A600018600AE01C680C4844F61F639C424FF000030B602B60036002D81368462B04D03D
:203A80004620106070BCFEF70FBC70BC704700BF781100206411002070110020800700203C
:203AA00030B5002287B04FF400414FF0904002F067F9012300244FF40045029301A90323AE
:203AC0004FF0904004930195039402F075F8224629464FF0904002F053F922464FF4007174
:203AE000024802F04DF907B030BD00BF0008004808B572B6FFF7D4FF00224FF48071024843
:203B000002F03EF9FFF77EFF00080048FFF74EBC014802F00EBD00BFE807002008B51D4BC0
:203B20005A69510734D5042159614FF0904002F021F9194B90B172B6002119605A6842F00C
:203B400001025A60154A5961136843F48023136062B60120BDE80840FFF76EBF5A68BAB151
:203B60009A681968D20605D541F28732914204D9FFF7BEFF40F6C312F8E772B65A6822F0DB
:203B800001025A60054A136843F48023136062B608BD00BF0004014084070020740600202B
:203BA00008B5054B1B695B0601D5FFF7D7FB034B40225A6108BD00BF0004004800040140F5
:203BC00030B5ABB000240123402505A95C480693019405950794089401F0EEFF22462946F2
:203BE000574802F0CDF8574B4FF47A721B68B3FBF2F30A22534340F6B832B3FBF2F303937D
:203C0000039C631E0393002CFAD12023059305A90B234B48069301F0CFFF40F61C43214659
:203C2000682210A8029305F059FB214604F1804404F5043418220AA805F050FBD4F8883063
:203C400043F04053C4F88830E36C43F40053E364E36C03F400530493049B3B4B10930423EB
:203C600015934FF480531E931C230125209310A88023179518951A951B951F95219301F051
:203C8000CBF8014600284DD110A801F006FF00284BD10E230A930D9006230E900F900AA95E
:203CA00010A80B950C9301F05FFA002840D110A801F03EFD00283ED142F2107110A801F011
:203CC000C3F910A801F0A8FC83050CD510A801F047FA0190019A029B5343AB404FF6F07297
:203CE000B3FBF2F3019310A801F0B8FE10A801F0CFFDE36A124843F40053E362E36A23F4EF
:203D00000053E362E36C23F40053E364602305930323069305A900230793089301F04CFFEF
:203D200001980AE06FF0010007E06FF0020004E06FF0030001E06FF004002BB030BD00BF47
:203D400000080048700600200000045070B5804D2B6808332B607F4B1B6898B08BB17E4B44
:203D60001A6808321A607D4A19681268914208D372B67B490A6842F400620A6000221A60A1
:203D800062B6784C6368002B4ED0236808332360A368226813F0100F40F2DC5322D09A4204
:203DA00009D9A368DB0706D4A3686F4843F00103A360FEF7B1FB21686A4B40F6B83291428C
:203DC00009D99A68960706D49A68684842F002029A60FEF7A1FB2168624B41F2883291421F
:203DE00022D918E09A420DD9A36858060AD4E3685F480133E360A36843F04003A360E16891
:203E0000FEF78AFB2168574B40F6C41291420BD99A68D10608D49A68520705D49A6842F01D
:203E200004029A60FFF73CFE524A116891B15248036808330360E06860B142F21070834286
:203E400008D9012906D10223136003214B4A4C48FEF762FB4B4A2968136899424ED94A4B11
:203E60001B78002B4AD06668002E47D1384B47491B68474D03F51C53103308A8136005F06A
:203E80009BFAFFF79DFE0A234FF47A72B0FBF2F2B2FBF3F103FB112230328DF82F202E22C9
:203EA0008DF830206422B0FBF2F2B2FBF3F103FB11223032B0FBF3F08DF83120B0FBF3F200
:203EC00003FB1200303056238DF8320031498DF8333008A88DF8346005F04EFA0FCD01AC51
:203EE0000FC495E8070084E8070008A805F0C8FA334682B208A901A8FEF75AFE264B1A684A
:203F000008321A601A68254B9A4201D9FFF7F0FD234B1A6844F61F618A4207D81A68083251
:203F20001A601B688B4201D9FFF77EFD1D4B1A6847F22F518A4208D81A6808321A601B6864
:203F40008B4202D90020FEF7AFF918B070BD00BFE4110020741100205C11002024100020AD
:203F600074060020840700205C0502086F0502087B050208BC0B002028100020B80B002067
:203F800093050208B40B002078060020BE05020840050208CE05020864110020C027090084
:203FA0007011002078110020704700002DE9F041114C0746884604F58076E569A5B1012D80
:203FC00003D0022D06D1414600E039460B480B4D05F0F2F9284605F053FA002382B2294621
:203FE0002046FEF7E5FD02E02046FFF79BF82034B442E2D1BDE8F08154060208EC0500202B
:2040000010B50D4CCCB0FFF75DFA90B14FF4967101A8FFF789FAE368002BF4D09DF8051028
:204020009DF80630054801AA43EA0121FEF774FAE9E74CB010BD00BF84070020DD0502081C
:2040400038B5124B00221A60114B01221A6004460D46032201460F4805F0DCF80E4BDB68BC
:20406000012B0BD923780E2B08D0FF2D224694BF29464FF480710948FEF74EFAFFF7C0FFB7
:2040800029462046BDE83840FFF786BA28100020BC0B0020B80B002084070020F405020828
:2040A0002DE9F04FB34B002401261C61ADB05C6007469C60DE6072B6AF4BB04A1A6062B697
:2040C000AF4BB04D1C603046FDF748FEFFF7AAFC214620462C70FFF72BF83046FFF792FBA6
:2040E000A94B1B88052B6AD04FF4FA702E7000F087FEA649A648FFF759FF2246A549A64890
:20410000A64C04F0C5FBA649A34804F0D7FBA549A14804F077FFA04804F0D7FB04F092FAEA
:204120002546A14E2368580306D52368012023F480232360FFF780FCFDF7ECFD2B689907F9
:2041400042BF236823F0020323602B685A050BD5236823F480632360326847F22F539A422D
:2041600002D80120FFF768FC0021084604F08AFB0028D7D00120FFF75FFC8C4B1A78FE2A30
:2041800012D15A78FE2A0FD19A78FE2A0CD1DA78FE2A09D190221A7002210022A0205A70EC
:2041A00004F070FBFFF72EFC814B8048198889B2FFF7D6FB0146202004F064FBB1E77D4D0D
:2041C000022000F01DFE0A232E706C70AB7040F2DB539F428CBF022700271723EF702C71DE
:2041E0006C71AE71EB7104232B72734B1B68C5F809300D212846FFF723FF704B704A1E60C5
:204200005460654A6F49C2F820426F4AC2EB01084FEA18620292C8F307420392C8F3072234
:20422000049299461F462C46D9F80030013B032BFAD8DFE813F09402040094029402FFF76F
:2042400041F9ADF81E00BDF81E309BB2022B36D94FF496715748574EFFF766F9ADF81E002F
:204260006278A378012043EA02230893FFF7E4FB2378662B02D106F1030B0FE03D4BDB68A8
:20428000EBB1089B4B4A51480333FF2B96BF08994FF480710331FEF73FF910E0089B5A1EBB
:2042A000089223B11BF8010BFEF7D2F8F6E70D220321404832707370B370FFF7C1FE374E18
:2042C000FDF728FD3368002BAED0432001F066FC00230B9333689B0208D53D4B19683D4B64
:2042E0001868FFF7A5F84FF4001340E033683368D80271D5DFF8C8B02E4812232370DBF87F
:204300000030C3F307236370DBF800300321DBB2A370FFF795FEDBF80430A3B9DBF8003004
:204320002448043BCBF800309DF8083023709DF80C3063709DF81030A37004215FFA88F3FA
:20434000E370FFF729F9DBF800201D4B32B15A681D481968104489B2FFF71EF9DBF800207D
:20436000DBF804301344CBF804304FF480130B93CFE100BF8407002070060020006CDC027A
:20438000BC0B002078060020E0050020FC0502080E0602083C080208780D002074060020DD
:2043A0005C080208AC08020878110020790600206011002030100020D90502087C11002003
:2043C00068110020B0FF0308000000081E0602082C100020B00B0020336813F004022CD07D
:2043E000DFF8D0B2AA4814232370DBF88430C3F307236370DBF884300321DBB2A370FFF72D
:204400001FFEA44BDB68012B5A4605D9DBF88410A1480432FEF780F8DBF884109F4889B227
:20442000FFF7BAF801233B6072B6336823F00403336062B6FEF7CEFF8DE1336813F400516A
:204440000CD04FF400530B934FF0010B0F232370627084F802B084F803B020E0336813F46B
:2044600000420CD04FF400430B930F2323704FF0010B6170042184F802B0E17010E03368EA
:2044800013F4803310D04FF480330B930F2323704FF0010B0823627084F802B0E37004213B
:2044A0007B48FFF7CDFD1AE0326891061AD520220B92102222704FF0080A0B22062174485B
:2044C00063704FF0010BA270E37084F804B084F805A0FFF7B5FD51467148FFF75DF8C7F806
:2044E00000B031E13368DA063CD56E4B1B68002B00F085806B4800234FF0010E0268DFF8AD
:20450000A4B10EFA03FA1AEA020FD9B226D0102028700020687041F080010320A870E970A5
:2045200002210B4429715BF823305948DBB206216B71FFF785FD01233B6072B6DBF8003036
:2045400023EA0A02CBF80020DBF80030002B40F00181554A136823F0100349E00133062BB1
:20456000CCD14CE033689B034CD54E4B5A681946002A44D04FF0000B4FF0010E4B68DFF8FE
:2045800024A10EFA0BF21A425FFA8BF032D00BF1080105925AF821601021F6B22170F11C39
:2045A000C1F3072EC9B284F801E0A1700421E0702171374866710621FFF742FD0AEB8B10E0
:2045C00031463830FEF7E8FF0121C9F8001072B6DAF80410059A21EA0202CAF80420DAF8B9
:2045E0000430002B40F0B6802F4A136823F400331360AFE00BF1010BBBF1060FBED14FF41B
:20460000003329E03368284A13F4804302D04FF4804321E01168480320D5244A116847F2D5
:204620002F52914203D90120FFF706FA12E0052222704FF0010B6370164B84F802B05B6818
:20464000134803FA0BF3DBB20421E370FFF7F8FCC7F800B04FF480230B9375E013685905F4
:204660002AD54FF480630B93104B1A6847F22F539A4262D80E4B1A8812B209925A8812B2C9
:204680000A920222E2704FF6FF721A805A8028E03010002084070020F4050208A00F0020F9
:2046A0006C0B0020C00B00207406002078110020E20500209C0F0020136813F002032AD0E6
:2046C00002230B93AE4B1A6847F22F539A4234D8AC4A13881BB2099353881BB20A93012396
:2046E000E3700C232370002363700523A370099BA548C3F307232371099BDBB263710A9BC5
:20470000C3F30723A3710A9B0821DBB2E371FFF797FC01230FE0126812057FF585AD4FF4E0
:2047200000620B9203210E22974822706370A370FFF786FC04233B6006E072B60B9A336847
:2047400023EA02033360D8E172B60B9A336823EA0203336062B60120FFF76EF964E5FEF71A
:20476000B1FEADF81E00BDF81E309BB2022B7FF65BAD4FF496718448834EFEF7D5FEADF879
:204780001E006278A37843EA022308937F4B002201201A60FFF750F97D4BDB68012B0ED935
:2047A0003B68042B0BD0089B774A7A480333FF2B96BF08994FF480710331FDF7ADFE33781E
:2047C000DBB24F2B00F0BC8012D8442B2AD007D8322B00F07081402B7FF426AD042640E03B
:2047E0004B2B49D04E2B49D0462B7FF41DAD43E0652B62D006D8502B00F02981602B00F097
:204800008B8011E5672B00F07B8108D3682B7FF40BAD0D23237000236370A37077E0DFF886
:2048200090B13EE0E078002100F00200FEF780FCE3789B077FF5F8AC574AD2F88430002BDE
:20484000FBD072B6554A136823F004031360524B0022C3F8842050E1013E16F0FF063FF4F2
:20486000E3AC089A4E48013A0023D2B2194600F04FFA0028F0D1D7E4FFF73AF9089B022B5A
:204880007FF4D2ACE278237943EA0223454A13601368454A003318BF012313600022434B82
:2048A00052E1089B5A1E089223B11BF8010BFDF7CFFDF6E70D22327027E0089B1B2B7FF64A
:2048C000B3AC089B019A9A4209D1089B3849802B94BF089A80220CA804F0D0FB90B1089BC8
:2048E0003349802B94BF089A80220CA804F0F8FB089B089A01931C3A002392B22D490CA89F
:20490000FEF756F90D23337000237370B37003211D48FFF795FB87E4DDF820B0BBF1020F7B
:204920007FF482ACE678237953EA06267FF47CAC432001F027F9204BC7F800B01E6073E4B5
:20494000E378013B032B3FF66FACDFE803F0020F39431A4E00233046C6F81432C6F82032E6
:2049600003F0A0FD304603F0C5FD5DE41348D0F82032002B3FF458AC03F0C3FD54E400BFBA
:2049800078110020E2050020301000202810002084070020340602089C0F0020740600205B
:2049A0003410002024100020741100205C110020331000204F100020BC0B0020780D00209F
:2049C0006348D0F82032002B3FF42EAC317903F0E1FD29E45E4BD3F82032002B3FF424AC5E
:2049E0000023DFF890B108933279089B9A427FF61BAC089B03EB43030633E35C43B9089B8D
:204A0000534803EB43030533E15C03F09BFD1AE0089B4F4803EB43030633E35C013BDBB21E
:204A2000032B98BF1BF80320089B03EB430303F1050388BFFF22F15C089B03EB4303073322
:204A4000F35C03F065FD089B01330893CCE74048D0F82032002B3FF4E7AB2379DBB2302B77
:204A60001DD00CD8102B1AD0202B7FF4DDABF178384A7379364803F094FDFFF7D5BB402B30
:204A800008D0802B7FF4D0ABF178314803F068FDFFF7CABBE17803F05CFDFFF7C5BBF1786C
:204AA00073792B48402BC9B294BF6279402203F087FDFFF7B9BB637927480BB10023436073
:204AC0004168DFF8B4E096F803C0244A3379714443EA0C26511AB14235BF1F4BE2785B686A
:204AE00023793ABF7344D31A43EA0223036072B61B4A136843F48013136062B6FFF794BB26
:204B00001323E17822792370032000236370A07008980228C9B2D2B20DD101236371114BB4
:204B20001960114B1A6072B60D4A136843F40013136062B600E0637106210C48FFF780FAB8
:204B400002233B600A4B00221A60FFF76DBB00BF780D00203610002068110020F8FF030821
:204B600074060020B00B00202C10002030100020BC0B00205006020800000008BFF34F8F25
:204B80000449054BCA6802F4E0621343CB60BFF34F8FFEE700ED00E00400FA050C480D4B9C
:204BA0004FF4E062C2604FF400724FF4827C8261072280E80810C2620023302283600361EC
:204BC000436103624362C261836202F07AB800BF801100200030014010B5084C636923F022
:204BE00004036361052000F00BF9636943F0040363610520BDE8104000F002B9000C0048EE
:204C0000F0B5002489B00B23224606460D4621488DF8103080210F278DF811408DF81240AB
:204C20008DF813408DF8144001F0AAF80523009706AA04A9184802F09BF89DF81830022B25
:204C400016D19DF81C409DF81B1051EA04240FD0AC4228BF2C462246FF21304604F03EFB08
:204C600023460097324631460B4802F081F8E4B201228021074801F083F800230393039B1B
:204C8000012B03DC00BF039B0133F7E7204609B0F0BD00BF000400488011002070B50A4C97
:204CA00086B0032340250126049301A90023204603930195029600F07FFF324629462046C3
:204CC00001F05EF806B070BD0004004830B587B040230193094C0A4B029303230225049328
:204CE00001A9002320460593039500F065FF01A92046039500F060FF07B030BD0004004816
:204D000000001110172000F03DBF172000F046BF2DE9F041C8B00A2615461C46AA22002388
:204D200080460F468DF811308DF812308DF813308DF814308DF818208DF819308DF81A30E0
:204D40008DF81B308DF81C308DF81060FFF7DDFFFFF7A4FF0396039A531E03930AB100BF9B
:204D6000F9E71D4B1D48402159610F26802101F007F8052306AA04A90096194801F0F8FF41
:204D8000FFF7A4FF9DF81830022B17D19DF819202B199A4214DB35B100962B4608AA414685
:204DA0000F4801F0E5FF64B10F23009308AA234639460B4801F0DCFF002402E0FB2400E02F
:204DC000FC2401228021054800F0DAFFFFF79AFF204648B0BDE8F081000401400004004845
:204DE00080110020014B40225A6170470004014070470000014B1868704700BFE41100208F
:204E000038B50446FFF7F6FF0546FFF7F3FF401BA042FAD338BD7047F8B50446002800F078
:204E2000D980856D25B9FFF7F6FFE56584F85450226893689B0042BF936823F0005393607F
:204E40009368DF0005D4936843F080539360774B1B689368DE005FBFA36D43F01003A36511
:204E6000E36D5CBF43F00103E365A36D54BF01200020DD0600F1AA809368590700F1A68074
:204E8000A36D43F00203A365936803F00303012B02D11368DB071AD46549664D8A4240F027
:204EA000A380AB6803F00303012B40F095802968CF0740F1918083F0010303F0010333B157
:204EC0005D4DAB6823F47C1163680B43AB604FF4005797FAA7F7B7FA87F74FF480365FFA03
:204EE00087FE96FAA6F6B6FA86F64FF46021F6B291FAA1F1B1FA81F1E368A76BCDB2616A88
:204F00001F43A36801FA06F6A16A3B43E7690139A94007FA0EF7E56A3B433343012D43EA8D
:204F2000010303D0216B09B129430B43D568434929400B43D360936813F00C0F31D14FF489
:204F4000804393FAA3F3B3FA83F30225DBB295FAA5F5B5FA85F5A669D16806FA03F3666B33
:204F6000EDB206FA05F51D4321F4804323F002032B43D360E36B012B0FD1256C636C116973
:204F80002B43A56C43F001032B43E56C1D4321F4FF6323F005032B4302E0136923F00103C7
:204FA00013612369012B08BF216A136B03BF01F1FF3123F00F030B4323F00F031363A36DF3
:204FC00023F0030343F00103A365F8BDA36D43F01003A3650120F8BD19498B6803F0030342
:204FE000012B20D10B681BE08B68AA4203F0030309D1012B03D10968CE073FF55CAF104996
:205000008B6803F00303012B03D10968C9073FF552AFAB6803F00303012B04D1054B1B684E
:2050200003F0010347E7002345E700BF7006002000000450000104500003045007C0F0FFF1
:205040000002045070470000F8B54569082D04460E4622D002683F4B9A4203D003F5807395
:205060009A426ED13C4B9968C9066AD0996801F01F01052965D0996801F01F01092960D09B
:205080009A6802F44042B2F5004F5DD09B6803F44043B3F5404F57D00425FFF7ABFE074683
:2050A00023681A6815420ED1721CFAD02EB9A36D43F00403A3650320F8BDFFF79BFEC01BDA
:2050C0008642EDD2F3E7234E1968B34201F0080112D0224A93420FD0D2F80801C70602F5F5
:2050E000807209D0906800F01F00052804D0926802F01F02092A01D1DA6800E0F268082D1A
:2051000001D11D6003E050045CBF04201860A06D40F40070A06509B90020F8BDDB6813F4BB
:20512000406FF9D19204F7D4A36D23F48073A365A06D10F48050EFD1A36D43F00103A36583
:20514000F8BDD368DB07A7D5A36D43F02003A3650120F8BD000004500003045000020450BC
:205160000368186C70470000F7B50023019390F85430012B00F06F810268936801245E071F
:2051800080F8544000F15E814E680C68042E4FF4F86318D8D2F830E093FAA3F7B7FA87F719
:2051A000FFB293FAA3F5B5FA85F51F23EDB2774303FA07F706FB05F32EEA070704FA03F347
:2051C0003B4313634DE0092E18D8576B93FAA3F5B5FA85F5EDB2053E93FAA3F3B3FA83F34F
:2051E0004FF01F0E7543DBB20EFA05F55E4327EA050704FA06F63E43566332E00E2E18D8CC
:20520000976B93FAA3F5B5FA85F5EDB20A3E93FAA3F3B3FA83F34FF01F0E7543DBB20EFA58
:2052200005F55E4327EA050704FA06F63E43966317E0D76B93FAA3F5B5FA85F5EDB20F3ECF
:2052400093FAA3F3B3FA83F34FF01F0E7543DBB20EFA05F55E4327EA050704FA06F63E431C
:20526000D663936813F00C0F40F0CE80092C4FF038038F681CD9D2F818C093FAA3FEBEFA3B
:205280008EFE5FFA8EFEA4F10A0593FAA3F6B6FA86F6072305FB0EFEF6B203FA0EFE6E430F
:2052A0002CEA0E0C07FA06F54CEA0505956116E0556993FAA3F6B6FA86F6F6B293FAA3F3BB
:2052C000B3FA83F34FF0070EDBB266430EFA06F6634325EA060607FA03F535435561D368FA
:2052E0000D694E69C3F3C1035B00013D9E404FF0F843032D42D8DFE805F002122232176E23
:2053000093FAA3F5B5FA85F5B14B3B40EDB243F000431E4304FA05F52E43166674E0576E54
:2053200093FAA3F5B5FA85F5A94B3B40EDB243F00043334304FA05F52B43536664E0976EBD
:2053400093FAA3F5B5FA85F5A14B3B40EDB243F00043334304FA05F52B43936654E0D76E35
:2053600093FAA3F3B3FA83F3994D3D40DBB245F000452E4304FA03F3334344E0156E93FA6E
:20538000A3F3B3FA83F3DBB204FA03F305F0F8459D4202BF136E23F000431366556E4FF0AF
:2053A000F84393FAA3F3B3FA83F3DBB204FA03F305F0F8459D4202BF536E23F00043536649
:2053C000956E4FF0F84393FAA3F3B3FA83F3DBB204FA03F305F0F8459D4202BF936E23F0A3
:2053E00000439366D56E4FF0F84393FAA3F3B3FA83F3DBB205F0F84504FA03F39D4203D108
:20540000D36E23F00043D366936803F00303012B02D11368DD0713D4CB68B3F1804F4FF09E
:2054200001031AD0D2F8B010A34021EA0303C2F8B030112C51D1674B9B6813F4000F5AD012
:20544000002403E0836D43F020038365002380F854302046D9E00220D7E0D2F8B0508E6840
:20546000A3402B43082CC2F8B0304FF038031AD9D2F818E093FAA3F7B7FA87F7FFB2A4F142
:20548000090193FAA3F5B5FA85F507234F43EDB203FA07F74D432EEA070E06FA05F14EEA73
:2054A00001019161C5E7516993FAA3F5B5FA85F5EDB2671C93FAA3F3B3FA83F34FF0070E88
:2054C0007D43DBB20EFA05F521EA050507FB03F106FA01F129435161ABE7122C04D13D4B35
:2054E0009B6813F0807FAAE7002CA9D1394B9B6813F4800FA3E7936803F00303012B02D1D6
:205500001368D9070BD4344B34499A4217D18B6803F00303012B08D10B68DB0705D5836D81
:2055200043F020038365012490E72D498B6803F00303012B3DD10B68DF07F0D439E09D68BA
:205540008A4205F003050CD1012D02D11B68DE07E5D4234DAB6803F00303012B06D12B6871
:2055600002E0012D02D11B68DD07D8D48B6803F00303012B03D1194B1B68DB07CFD4112CA0
:205580001AD1174B9A427FF45BAF124A936843F400039360134B144A1B68B3FBF2F2782375
:2055A00053430193019B002B3FF44AAF019B013BF7E7112C1AD1E8E7122C19D1084B9A42CA
:2055C0007FF43EAF034A936843F08073936037E700F0FF03000304500000045000010450FA
:2055E000000204507006002040420F00122CE9D0002C7FF425AF064B9A427FF421AF054A05
:20560000936843F48003936020E703B0F0BD00BF0000045000030450806D704703689A6800
:2056200012F00C0F70B5044601D1002070BDDA68900110D5E269012A0DD1A269012A0AD1A2
:20564000214A1968490602D4013AFAD131E040221A600C2101E060290BD09A68560706D59A
:205660009A6895075EBF9A6842F010029A600C2910D09A68100706D59A6892075EBF9A686C
:2056800042F020029A60602902D06C2904D001E0082502E0042500E00C25FFF7ABFB0646E6
:2056A00023689B681D42C0D0FFF7A4FB801B0528F6D9A36D43F01003A365E36D43F001035C
:2056C000E365012070BD00BF01340A0038B503689A6802F00302012A044604D11A68D10741
:2056E00001D5002038BD9968104A0A409AB99A6842F001029A60FFF77DFB054623681A68D0
:20570000D207EED49A6842F001029A60FFF772FB401B0228F2D9A36D43F01003A365E36D5C
:2057200043F00103E365012038BD00BF3F00008038B503689B6813F0040504466AD190F8E2
:205740005430012B66D0012380F85430FFF7BEFF00285CD1A36D304A13F480531CBFE36DAC
:2057600023F00603E365A36D23F4706323F0010343F48073A3652368934208D002F50072E1
:20578000934204D002F580729268D00603D1A26D22F48012A26520481C2283421A6012D04E
:2057A0001E4A93420FD0D2F80811C90602F5807209D0916801F01F01052904D0926802F061
:2057C0001F02092A10D1DA68920141BFA26D22F4405242F48052A2659A68002042F004029F
:2057E00084F854009A6038BDA36D43F48013A365C3689B0142BFA36D23F4405343F480537C
:205800004FF0000048BFA36584F8540038BD84F8545038BD022038BD00000450000204509F
:2058200038B503680446986800F00300012801D0002038BD1A68D207FAD59A6802F00D0297
:20584000012A09D19A6842F002029A6003221A60FFF7D0FA054608E0A36D43F01003A36521
:20586000E36D43F00103E36538BD23689B68DB07DED5FFF7BFFA401B0228F6D9A36D43F0FB
:205880001003A365E36D43F00103E365012038BD10B50446002800F0A680836D43F0020393
:2058A0006C218365FFF7BAFE2268D36843F40013D3602046FFF7B4FF23685A6822F4FF62B0
:2058C00022F007025A6040F2FF721A609A6822F0A0429A609A6842F000529A60D968564A85
:2058E0000A40DA60DA6842F00042DA601A6922F4FF6222F007021A615A6902F040425A61B2
:205900009A6902F078429A611A6A02F0F0221A625A6A02F0FF225A629A6A02F0FF229A6233
:20592000196B464A0A401A63596B454A0A405A63996B434A0A409A63DA6B22F4FB6222F090
:205940000702DA63196E3F4A0A401A66596E3D4A0A405A66996E3B4A0A409A66D96E394A2F
:205960000A40DA66D3F8A020D20CD204C3F8A020D3F8A420D20CD204C3F8A420D3F8B02086
:20598000D20CD204C3F8B020D3F8B42022F07F12C3F8B4209A6802F00302012A02D11A687E
:2059A000D10715D4284A2949934226D18B6803F00303012B19D10A68D20716D583F00103C7
:2059C00003F0010323B1224A224B91680B4093602046FFF737FB0020E06520666066A065A8
:2059E00084F8540010BD012010BD1B4A936803F00303012B1ED1136819E08B42936803F079
:205A0000030308D1012B02D11268D007D6D4124A936803F00303012B02D11268D207CDD46A
:205A20008B6803F00303012B04D1084B1B6803F00103C3E70023C1E704800080300882E099
:205A4000200882E000F0FF03000004500001045000030450E01000FE0002045090F854307A
:205A6000012B10B5044616D0012380F854306C21FFF7D4FD58B92046FFF7D2FE38B9A36D53
:205A800023F4885323F0010343F00103A365002384F8543010BD022010BD90F85430012BA7
:205AA00070B504460D4637D0012680F85460FFF7B7FEA36D40BB23F4885323F0020343F0D7
:205AC0000203A3652368996821F080410D439D609A6842F000429A604FF47A429968002975
:205AE0000BDA013AFAD1A36D84F8542023F0120343F01003A365012070BDA36D23F00303CE
:205B000043F00103A36503E043F01003A3653046002384F8543070BD022070BD174BDB685B
:205B2000C3F3022330B5C3F107041D1D042C28BF0424062D4FF0010505FA04F404F1FF34D6
:205B40008CBF033B00230C409C4005FA03F3013B1A40002842EA04024FEA0212AFBF00F1E0
:205B6000604000F00F00064BD2B2A5BF00F56140D2B21A5480F8002330BD00BF00ED00E0B1
:205B800014ED00E04209012300F01F0003FA00F0014B43F82200704700E100E04309012229
:205BA00000F01F0002FA00F02033024A42F82300704700BF00E100E02DE9F04FD1F800B0E9
:205BC000DFF8AC81684C85B000233BFA03F200F0C78001269E401BEA060E00F0BF804A6855
:205BE00022F01009B9F1020F14D14FEAD30C00EB8C0C03F0070ADCF820704FEA8A0A0F25D6
:205C000005FA0AF527EA05070D6905FA0AF53D43CCF820504FEA430C0325076805FA0CF522
:205C2000ED4302F0030A019509F1FF393D400AFA0CF73D43B9F1010F056013D88768019DD2
:205C400005EA0709CF6807FA0CF747EA090787604768C2F3001927EA060709FA03F949EA15
:205C600007074760BAF1030F07D1C76A27EA0606C2F3C0079F403E43C662C668019D354047
:205C80008E6806FA0CF63543C560D50066D5D8F8605045F00105C8F86050D8F8605023F0A1
:205CA000030707F1804705F0010507F58037039503F0030C039DBE684FEA8C0C0F2505FA09
:205CC0000CF5B0F1904F26EA050619D0274DA84218D005F58065A84216D005F58065A84281
:205CE00014D005F58065A84212D005F58065A84210D005F58065A84214BF072506250AE08F
:205D0000002508E0012506E0022504E0032502E0042500E0052505FA0CF53543BD60124D2E
:205D20002D686FEA0E06D70354BF35404EEA050525606568970354BF35404EEA0505656042
:205D4000A568D70254BF35404EEA0505A560E568920254BF35404EEA0505E560013334E74F
:205D600005B0BDE8F08F00BF0004014000040048001002400369194214BF01200020704716
:205D80000AB18161704781627047000030B50568064C68680440039820430343C1F309015B
:205DA0000B4343EA02426A6030BD00BF009800FC70B504460D46FFF71DF823680646986975
:205DC00010F0100038D094F83520122A07D094F83520522A03D094F83520622A12D15A6875
:205DE00090010FD45A6842F480425A600AE09A69920611D4691CFAD035B1FEF7FBFF801B92
:205E0000854201D32368F2E7012384F83530002384F83430032070BD1022DA612022DA6141
:205E20005968064A0A405A600423A3630120002384F8350084F8343070BD00BF00E800FE79
:205E40002DE9F04104460E4690461D46FEF7D2FF0746B8F1000F29D122689369DB43C3F305
:205E60001003334210D0691CF7D08DB1FEF7C2FFC01B8542F0D20BE06B1C08D19369DB43B1
:205E8000C3F310033342F7D00020BDE8F08145B9012384F83530002384F834300320BDE8F9
:205EA000F081FEF7A7FFC01B8542F1D32268E5E770B504460D46FEF79DFF064623689B69EC
:205EC0009B0617D429462046FFF772FFA0B95DB9A36B43F02003A363012384F835300023F9
:205EE00084F83430032070BDFEF784FF801B8542E4D2EDE7002070BD012070BD704710B5F7
:205F00000446002844D090F8353003F0FF021BB980F83420FFF7F2FF022384F83530236802
:205F2000E1681A6822F001021A60626822F070621A619A6822F400429A60A26842B1012963
:205F400003D142F400429A6007E042F404429A60022904BF4FF400625A605A68216942F0D3
:205F6000007242F400425A6062690A43A16942EA0122DA60E169226A0A431A601A6842F081
:205F800001021A6000200123A06384F8353010BD012010BD2DE9F341174690F83520D2B299
:205FA000012A044688461D466DD10FB901206BE0002BFBD003689B6913F4004363D190F85E
:205FC0003460012E5FD080F83420222280F83520FF2D83634FF41053009307D94FF0807395
:205FE000FF22FFF7D3FEFF26013F21E04FF00073EAB2FFF7CBFE2E46F6E72368013D5B6A67
:2060000007F8013F013EADB224D12DB3089B324680212046FFF714FF30BBFF2D009610D90D
:206020004FF08073FF2241462046FFF7AFFEFF26089B002204212046FFF702FF0028DCD03D
:2060400012E04FF00073EAB241462046FFF79EFE2E46EDE7002DEBD119212046FFF728FF93
:2060600020B1A36B042BA1D003200DE023682022DA615968064A0A405A60012384F835306F
:2060800084F8340000E0022002B0BDE8F08100BF00E800FE90F83530DBB2022B02462DD0F5
:2060A00090F83530122B2BD090F83530222B27D090F83530322B23D090F83530422B4FF0B4
:2060C00002001ED092F83430012B1AD0136882F83500186820F001001860186820F4805035
:2060E0001860186801431960196841F001011960012382F83530002382F8343018467047A5
:2061000002207047F0B504468BB000287DD090F8813303F0FF021BB980F8802302F074F88A
:206120002546032355F8100B84F8813301F020FC0FCD6E460FC60FCD0FC695E8030086E825
:206140000300271D97E80E00206801F0E3FB0021206801F013FC0022666804F1390304F155
:20616000100501201146B24203F11C030FD003F81D2C23F8172C03F81C0C03F81A1C43F87B
:20618000151C43F8111C43F8091C0132EBE7002223461146B24203F11C0314D083F8C021D8
:2061A00083F8C11183F8C311C3F8CC1120685A8402F1400E00EB8E00C3F8C811C3F8D41157
:2061C00001324160E6E70FCD6E460FC60FCD0FC695E8030086E8030097E80E00206801F011
:2061E000E3FB012384F88133636A012B02D1204600F0DBFBA36A012B02D1204600F0E8FB30
:20620000206801F085FF002000E001200BB0F0BD90F88033012B10B504460CD0012380F80A
:206220008033006801F068FF206801F09BFB002084F8800310BD022010BD90F88033012B9A
:2062400010B504460FD0012380F88033006801F08FFB206801F01FFF206801F059FF002096
:2062600084F8800310BD022010BD90F88033012B10B5044609D0012380F88033006801F06C
:206280002BFF002084F8800310BD022010BD70B54EB2002E04464FF01C0501F07F00B5BF18
:2062A00005FB004105FB0141383101F5EE71C0B2002EB8BFC880022BCB704FEAD67504BF8F
:2062C00000230B7108704D7094F880338A60012B09D0012384F88033206801F024FC0020B0
:2062E00084F8800370BD022070BD4BB2002B10B54FF01C02044601F07F00B5BF02FB00416D
:2063000002FB0141383101F5EE71DB0F08704B7094F88033012B09D0012384F88033206844
:2063200001F042FC002084F8800310BD022010BD10B501F07F0104461C2000FB0140C0F8A3
:20634000F0310023C0F8E821C0F8F43180F8DD3180F8DC112369012B08BFC0F8EC2194F8A0
:206360008023012A16D01C2202FB0142012002F5EE7284F88003DBB221B92168204601F02D
:2063800067FD03E02168204601F046FC002084F8800310BD022010BD10B501F07F01044639
:2063A0001C2000FB0140C364002303650123426480F8393080F838102369012B08BF8264E3
:2063C00094F88023012A15D01C2202FB01420120383284F88003DBB221B92168204601F02F
:2063E00037FD03E02168204601F016FC002084F8800310BD022010BD38B54BB2002B01F0B3
:206400007F054FF01C02B5BF02FB050102FB0101383101F5EE710122DB0FEDB28A700D7044
:206420004B7090F88033934204460FD080F88023006801F0E0FD2DB904F56172217C206840
:2064400001F0BFFE002084F8800338BD022038BD38B54BB2002B05464FF01C0201F07F0036
:20646000B5BF02FB005102FB0151383101F5EE71DB0F00248C7008704B7095F88033012BA4
:2064800009D0012385F88033286801F0E6FD85F88043204638BD022038BD2DE9F3471C2429
:2064A00004FB01040768266DE36C9B1B266C07F5106A9E4228BF1E46814688460AEB411AB9
:2064C000F51C042395FBF3F5DAF818309BB29D420BD9002E29DCD7F83428012303FA08F863
:2064E00022EA0803C7F834381FE0226DE36C9A42EFD2002BEDD0266C9B1A9E4228BF1E4686
:20650000F51C042395FBF3F599F8103000935FFA88F2B3B2616C384601F04AFD636C334466
:206520006364236D33442365CEE7002002B0BDE8F0872DE9F74F06680446304601F022FEC7
:20654000002840F00A82206801F0EEFD002800F00482206801F0E8FD800748BF2268206857
:2065600042BF536903F00203536101F0DDFD10F400205BD0206801F0DBFD06F530698046ED
:20658000A3464F460025B8F1000F50D018F0010F45D0EAB211462068019201F0D9FD10F07E
:2065A000010F82462ED00123BB60D9F80810090420D42169019A99420CD13969DBF8E401A5
:2065C000C1F31201411ACBF8F411DBF8E8110844CBF8E8011146204601F06EFE216901293F
:2065E00008D13DB9D4F8F02122B904F56172206801F0E7FDD9F8082042F4004242F0200226
:20660000C9F808201AF0080F04D0204601F03EFE0823BB601AF0100F1CBF1023BB6001353B
:206620004FEA580820370BF11C0BACE70546206801F07AFD42035CD5206801F081FD06F511
:2066400010678146A2460025B9F1000F51D019F0010F47D05FFA85FB5946206801F082FD75
:2066600010F0010F804622D00120D6F8341800FA05FC21EA0C01C6F834182169B860814295
:2066800001BFDAF84400DAF840100918CAF844102046594601F03CFE2169012907D135B921
:2066A000E26C22B904F56172206801F08AFD18F0080F1CBF0822BA6018F0100F1CBF102372
:2066C000BB6018F0400F1CBF4023BB6018F0020F1CBF0223BB6018F0800F03D0294620467C
:2066E000FFF7DBFE01354FEA590920370AF11C0AAAE7206801F018FD002818DAD6F804383F
:2067000023F00103C6F8043894F8B433012B06D1002184F8B413204601F062FF02E020468E
:2067200001F07AFE2268536903F000435361206801F0FAFC03050BD5D6F80838DF0702D59E
:20674000204601F03DFE2268536903F400635361206801F0E9FC000116D523685A6902F0C9
:2067600000625A6194F8B4235AB95B6D0121C3F3830384F8B413C4F8B833204601F030FFF0
:2067800002E0204601F01CFE206801F0CDFCC10443D506F500677B68206823F001037B60C8
:2067A000002101F097F9606806F510630022FF21824205D099600132C3F808122033F7E7F4
:2067C0004FF0FF33BB61FB6943F00113FB61236B53B1D7F8843043F00B03C7F884307B6C75
:2067E00043F00B037B6407E07B6943F00B037B613B6943F00B033B61D6F80038217C2068E5
:2068000023F4FE63C6F8003804F5617201F0D9FC2268536903F480535361206801F084FCBB
:20682000820417D5206801F0B1FC2368DA6822F47052DA600322E26040226261DA6842F4DD
:20684000A052DA60204601F0A1FD2268536903F400535361206801F067FCC30637D5226898
:20686000936923F010039361376AC7F34343022B07F00F0814D147F6F0733B4013B31C23E1
:2068800003FB0848C7F30A173A46D8F8E811304601F0A1FBD8F8E8313B44C8F8E8310CE056
:2068A000062B0FD1082204F56171304601F093FB1C2303FB0848C7F30A17D8F8F4311F441D
:2068C000C8F8F4712268936943F010039361206801F02AFC070707D5204601F043FD226829
:2068E000536903F008035361206801F01DFCC60208D5E9B2204601F0C3FD2268536903F404
:2069000080135361206801F00FFC800208D5E9B2204601F0ABFD2268536903F400135361AF
:20692000206801F001FC410007D5204601F0B2FD2268536903F080435361206801F0F4FBA6
:2069400042070AD523685D686B0702D5204601F0A5FD226853682B43536003B0BDE8F08F40
:2069600070B50468606A19B940EA0243A36216E0A36A002500EB13434E1EE8B2B04205F11F
:20698000010506DA403004EB8000406803EB1043F3E73F3104EB810443EA02436360002036
:2069A00070BD0368002059627047026803460121C0F8BC13002083F8B403936943F000636D
:2069C0009361536D43F0805343F003035365704702680123C0F8C033936B43F400339363BE
:2069E00000207047024A536843F48063536070470070004032498B6803F00C03042B10B521
:206A000028D08B6803F00C03082B25D08B6813F00C0F09D08B6803F00C030C2B1FD1CB6828
:206A200003F00303012B1AD10A68254B120754BFD3F894301B68234A54BFC3F30323C3F314
:206A4000031352F823408B6813F00C0F0CBF2046002006E01C4800E01C48002401E000205E
:206A600004468A68164B02F00C020C2A26D1DA68D86802F00302C0F30210022A00F10100F0
:206A800006D0032A0CD1DB68104AC3F3062303E0DB680D4AC3F30623B2FBF0F0434306E045
:206AA000DA68B4FBF0F0C2F3062200FB02F3C868C0F3416001304000B3FBF0F010BD00BF29
:206AC00000100240800702080024F40000127A0008B5FFF78FFF094B9A68F02393FAA3F362
:206AE000B3FA83F302F0F002DBB222FA03F3044AD35CD840034B186008BD00BF00100240BF
:206B00006D070208E811002008B5FFF7E1FF084B9A684FF4E06393FAA3F3B3FA83F302F434
:206B2000E062DBB222FA03F3024AD35CD84008BD001002405407020808B5FFF7C9FF084B97
:206B40009A684FF4605393FAA3F3B3FA83F302F46052DBB222FA03F3024AD35CD84008BD58
:206B600000100240540702082DE9F34104460F4616461D46FEF73EF9804621688A683A40CF
:206B8000B2423DD0B7F5C06F06D12EB90B7BDBB28DF807309DF807306B1CEFD04DB92368E9
:206BA0005A6822F0E0025A606268B2F5827F12D106E0FEF71FF9C8EB00008542DDD8EEE719
:206BC000A268B2F5004F02D0B2F5806F03D11A6822F040021A60A26AB2F5005F08D11968BD
:206BE0004DF6FF720A401A601A6842F400521A60012384F85D30002384F85C30032000E03E
:206C0000002002B0BDE8F0812DE9F04104460F4616461D46FEF7EEF8804623689A683A403F
:206C2000B24234D06A1CF9D04DB923685A6822F0E0025A606268B2F5827F12D106E0FEF7DC
:206C4000D9F8C8EB00008542E7D8EEE7A268B2F5004F02D0B2F5806F03D11A6822F0400243
:206C60001A60A26AB2F5005F08D119684DF6FF720A401A601A6842F400521A60012384F892
:206C80005D30002384F85C300320BDE8F0810020BDE8F08138B500220B460D464FF4C051C6
:206CA0000446FFF761FF024628B92B4680212046FFF7AAFF20B1236E43F020032366032090
:206CC00038BD70B50446002850D090F85D301BB980F85C30FEF78CF82168E268022384F82E
:206CE0005D300B68B2F5E06F23F040030B604FF0000303D91846B2F5706F01E04FF48050E7
:206D000018BFA362236B2BB9B2F5E06F8CBF022301232363A5686668A3692E4325692E43BE
:206D200065692E43E5692E43256A2E43A56A2E4303F4007535430D60256B022D02BF0D688F
:206D400045F400650D60656A2A43656B1B0C154303F0040245EA020303434B60E36A0B61C6
:206D600000200123206684F85D3070BD012070BD2DE9F74304461F46884691460A9EFEF784
:206D800039F894F85C30012B054600F02581012384F85C3094F85D30012B40F01081B8F1C2
:206DA000000F00F00A81B9F1000F00F00681002F00F00381052384F85D3000232366A36A8C
:206DC000C4F84090B3F5005FA4F84670A4F84470C4F83880E787A787226808D111684DF64F
:206DE000FF730B401360136843F400531360E1685368B1F5E06F01D8012F02D923F4805324
:206E000001E043F480535360136858065EBF136843F040031360B1F5E06F40D9E38FB4F84E
:206E200046005BB322689168890710D5A16B013B31F8027BD7609BB2A163E3873BB9A36A25
:206E4000B3F5005F02BF136843F48053136068B123689A68D20709D5DA68236C23F8022BFC
:206E60002364B4F84630013BA4F84630771CD5D0FDF7C0FF401B8642D0D880E00028E7D125
:206E8000A36AB3F5005F40F0828056E021688B68980708D4B4F846303BBB731C47D1E28F4F
:206EA000002AF3D11DE0012AA36B06D933F8020BC860023AA363E28706E05A1CA2631B78D0
:206EC0000B73E38F013BE387E38F002BE2D1A36AB3F5005F01BF2268136843F48053136076
:206EE000D8E7B4F84630002BCAD022689168C907D3D5012B236C10D9D16823F8021B236455
:206F0000B4F84630023B9BB2012BA4F84630C4D8536843F480535360BFE7127B591C216446
:206F20001A70B4F84630013BA4F84630B5E7FDF761FF401B8642B2D821E0012233461146C6
:206F40002046FFF761FEB0B9E368B3F5706F236802D1DB689BB216E01B7BADF80630BDF831
:206F60000630236B022B12D10122334611462046FFF74AFE28B1236E43F002032366032553
:206F80001EE023681B7BADF80630BDF806302268956815F0100507D0236E43F00203236642
:206FA0004FF6EF739360012531462046FFF772FE08B120232366236E13B1012500E00225C7
:206FC000012384F85D30002384F85C3035B129460448FBF7A1FA01E0022000E0284603B027
:206FE000BDE8F0838F05020870470268022380F83930136843F001031360012380F839308A
:2070000000207047704700002E4A0368904212D0B0F1804F0FD0A2F5943290420BD002F5FB
:207020008062904207D002F58062904203D002F59432904219D14A6823F070031343214AD5
:2070400090421DD0B0F1804F1AD0A2F59432904216D002F58062904212D002F580629042CA
:207060000ED002F5943290420AD0174A904207D002F58062904203D002F58062904203D1C2
:20708000CA6823F44073134303608B68C3620B6883620C4B98420FD003F5006398420BD0AB
:2070A00003F54063984207D003F58063984203D003F58063984201D10B69036301234361D3
:2070C000704700BF002C01400040014010B50446A0B190F8393003F0FF021BB980F8382063
:2070E000FFF782FF022384F839302068211DFFF78BFF012384F83930002010BD012010BDE5
:2071000010B50446A0B190F8393003F0FF021BB980F83820FFF776FF022384F83930206889
:20712000211DFFF771FF012384F83930002010BD012010BD036A23F001030362036A4268C7
:2071400070B584690D6824F4803424F073042C438D6823F002032B431B4DA8420FD005F53C
:207160000065A8420BD005F54065A84207D005F58065A84203D005F58065A8421ED1CD68FC
:2071800023F008032B43104DA84223F004030FD005F50065A8420BD005F54065A84207D09F
:2071A00005F58065A84203D005F58065A84205D14E698D6922F4407235432A4342604A68E6
:2071C00084614263036270BD002C0140036A23F010030362036A30B5446882690D6822F0BE
:2071E000807222F4E64242EA05228D6823F0200343EA0513164DA84203D005F50065A84233
:207200000DD1CD6823F0800343EA0513104DA84223F040030ED005F50065A8420AD00D4D88
:20722000A84207D005F58065A84203D005F58065A84207D14D6924F4406444EA85048D6931
:2072400044EA8504446082614A688263036230BD002C014000400140036A23F4807303623D
:20726000036A30B54468C2690D6822F4803222F073022A438D6823F4007343EA0523174D7C
:20728000A84203D005F50065A8420DD1CD6823F4006343EA0523114DA84223F480630ED0E6
:2072A00005F50065A8420AD00D4DA84207D005F58065A84203D005F58065A84207D14D699D
:2072C00024F4405444EA05148D6944EA05144460C2614A68C263036230BD00BF002C014062
:2072E00000400140036A23F480530362036A30B54468C2690D6822F0807222F4E64242EA45
:2073000005228D6823F4005343EA05330E4DA8420FD005F50065A8420BD005F54065A842B1
:2073200007D005F58065A84203D005F58065A84204D14D6924F4804444EA85144460C2611C
:207340004A680264036230BD002C014010B5846824F47F4421430A4342EA0323836010BD17
:2073600090F83830012B70B504464FF0020000F0AB8084F839002068012384F838308268F7
:20738000524B134083600B68402B74D018D8102B00F0888008D8002B40F09080836823F08C
:2073A000700343F0070388E0202B00F08180302B40F08480836823F0700343F037037CE0B0
:2073C000702B32D01BD8502B3ED0602B76D14D68CE68016A21F0100101628269036A22F479
:2073E000704223F0A00343EA051342EA063282610362836823F0700343F067035DE0B3F541
:20740000805F0CD0B3F5005F58D1CB684A688968FFF79CFF2268936843F4804312E08368BE
:2074200023F4803323F0070347E0CB684A688968FFF78CFF2268936823F4803323F077030B
:2074400043F07703936039E0036A4D68CE68016A21F001010162826923F00A0322F0F0022B
:207460002B4342EA061282610362836823F0700343F0570321E0036A4D68CE68016A21F03F
:2074800001010162826923F00A0322F0F0022B4342EA061282610362836823F0700343F0DA
:2074A00047030AE0836823F0700343F0170304E0836823F0700343F0270383600123002001
:2074C00084F8393084F8380070BD00BF8800FEFF10B50123046A8B4024EA03030362036A9A
:2074E0008A4042EA0301016210BD000010B5044601220068FFF7ECFF23680E4A93420FD050
:2075000002F5006293420BD002F54062934207D002F58062934203D002F58062934203D11A
:207520005A6C42F400425A641A6842F001021A60002010BD002C0140036A23F48033036228
:20754000036A426830B5446D0D6824F4803424F070042C438D6823F4003343EA05430F4D36
:20756000A8420FD005F50065A8420BD005F54065A84207D005F58065A84203D005F5806543
:20758000A84204D14D6922F4803242EA052242604A6844658265036230BD00BF002C0140F9
:2075A000036A23F480130362036A30B54468426D0D6822F0807222F4E04242EA05228D68A9
:2075C00023F4001343EA05530E4DA8420FD005F50065A8420BD005F54065A84207D005F55A
:2075E0008065A84203D005F58065A84204D14D6924F4802444EA8524446042654A68C265DE
:20760000036230BD002C014038B590F83830012B04460D464FF002007BD00123082A84F8A7
:20762000383084F839003CD013D84AB3042A6AD12068FFF7CBFD236829699A6942F40062D2
:207640009A619A6922F480629A619A6942EA012225E0102A36D0142A44D00C2A53D120686E
:20766000FFF740FE23682969DA6942F40062DA61DA6922F48062DA61DA6942EA01221FE09C
:207680002068FFF757FD23689A6942F008029A619A6922F004029A6199692A690A439A6160
:2076A00031E02068FFF7D8FD2368DA6942F00802DA61DA6922F00402DA61D9692A690A4369
:2076C000DA6120E02068FFF737FF23685A6D42F008025A655A6D22F004025A65596D2A6977
:2076E0000A430FE02068FFF75BFF236809695A6D42F400625A655A6D22F480625A655A6D16
:2077000042EA01225A650123002084F8393084F8380038BDF8B504460E461546FDF76AFB8A
:2077200007462268D36936EA030321D06B1CF9D0C5B923681A6822F080021A601A6822F0A2
:2077400020021A601A6822F480721A609A6822F001029A60012384F84130002384F8403058
:207760000320F8BDFDF746FBC01B8542D9D2E0E70020F8BD7047000010B5044608B901206B
:2077800010BD90F8413003F0FF021BB980F84020FFF7F0FF022384F841302368A1681A6876
:2077A00022F001021A60226918680A43616942F4004211434B4A02400A431A60A169E26959
:2077C0000A43216A42F4006242EA01005A68E16822F47C5201430A435A60434A934206D199
:2077E000424B434AD3F8883003F0030308E0414A93420FD13D4B404AD3F8883003F00C0334
:20780000D35C082B30D8DFE803F0171A1D2F202F2F2F2700394A934226D1344BD3F88830A2
:2078200003F03003102B10D001D82BB11CE0202B08D0302B10D017E0FFF766F907E0FFF7CF
:207840007BF904E060682E4B09E0FFF7D3F840006368B0FBF3F004E060684FF48033B3FBFC
:20786000F0F080B2002201E000200122C0F34201236820F00F000843D860002A7FF47FAFC2
:207880005A6822F480425A609A6822F02A029A601A6842F001021A60002262641B681A079D
:2078A00004D423681B685B0714D50AE04FF47A724FF400112046FFF72DFF0028F1D0032096
:2078C00010BD4FF47A724FF480012046FFF722FF0028F4D10123002084F8413084F8400091
:2078E00010BD00BFF369FFEF00380140001002405C070208004400406007020800480040FD
:207900000048E8017047FEE7FEE7FEE7FEE770477047000084B010B503AC84E80E00C36830
:2079200043F04003C3600E4B013B0CD00269002AFADA036943F001030361094B013B02D06B
:207940000269D207FAD44FF48033BDE810408363C36843F48073C36004B00020704700BF82
:20796000410D0300836843F00103836000207047836823F0010383600020704708B5C36836
:20798000012923F0C043C36004D1C36843F00053C36004E019B9C36843F08043C36032208F
:2079A000FDF72EFA002008BD84B02DE9F843044609A880E80E00A36B139FDDF8308043F454
:2079C00000138946A3635FB9A36B23F40013A363236843F040032360236843F08003236021
:2079E0000026C4F8006ED4F80038C4F800380321204600F091F81021204600F06BF804F559
:207A00000065204600F078F84FF0FF332E6132466E614FF09041AB61FF20EE6104F51063FE
:207A20004E450BD0D3F800E0BEF1000FB4BF19601A6001361A6198602033F1E7002204F519
:207A4000306311464FF09040FF264A450BD0D3F800E0BEF1000FB4BF186019600132196124
:207A60009E602033F1E72B69B8F1010F23F480732B6108D1154B2B632B6B43F4803343F080
:207A800003032B632B6B0023A3616FF080436361B8F1000F03D1A36943F01003A361A269C2
:207AA0000B4B1343A3610F9B1BB1A36943F00803A361012F01BFA36943F0804343F0040326
:207AC000A361BDE8F843002004B070470001800000383C80890141F02001064A0161013AF9
:207AE00005D0036913F02003F9D1184670470320704700BF410D03001023064A0361013A34
:207B000005D0036913F01003F9D1184670470320704700BF410D0300D0F800381943C0F831
:207B20000018002070474B7800F50062012B70B50E78D4691BD1B3409BB22343D3610E78DC
:207B40004FF4106505EB46152B581A042AD42C588A6844F0805343F40043C2F30A021A436E
:207B6000CB7842EA834343EA86532B501AE04FF4803505FA06F32343D3610C784FF4306371
:207B800003EB441423581B040CD422588B68C3F30A0542F0805343F40043CA782B4343EA97
:207BA00082432350002070BD30B54C780A78D0F83C5800F50063012C16D104FA02F292B217
:207BC00025EA0202DA630D78DA69AC40A4B222EA0404DC610A784FF4106303EB42131A580D
:207BE00022F400421A5014E0012404FA02F225EA0242DA630D78DA69AC4022EA0444DC61E3
:207C00000A784FF4306303EB42131A5822F400421A50002030BD00002DE9F3410846114699
:207C200052784C69012A4FF020050A7840F09A804FF4106615FB026202441769ACB927F0FB
:207C4000FF5727F4C01717610A7815FB02620244176947F4002717610A7815FB026505448C
:207C60002A69D20CD2042A613FE0FF0CFF0417610A78D1F808C015FB02620244176927F029
:207C8000FF5727F4C01717610F7815FB0767074404EB0C02013AB2FBFCF2DFF8B0C1D7F8EA
:207CA00010E0D20402EA0C0C4CEA0E023A610A7815FB02620244C4F3120E17694EEA070740
:207CC0001761CA78012A40F0B9800A7815FB02620244176927F0C04717610A7815FB02650B
:207CE00005442A6942F000522A61012B06D10A780D6900EB4212C2F814590BE0CA78012AE0
:207D00000BD03CB10F78D0F834580122BA402A43C0F83428CA78012A11D1D0F8082812F4D5
:207D2000807F0A784FF020054FF4106615FB026215580CBF45F0005545F0805515500D787B
:207D40004FF4106202EB4512855845F004458550CA78012A76D10A780093C968A3B200F0BB
:207D600027F96FE04FF4306615FB026202441769FF0CFF0417610A7815FB0262024417693F
:207D800027F0FF5727F4C01717610A788F6884B915FB02620244C7F312071469274317616A
:207DA0000A7815FB026505442A6942F400222A611DE015FB026202443C44DFF890C0D2F8E3
:207DC00010E0013CB4FBF7F44FEAC44808EA0C0C4CEA0E0EC2F810E00A7815FB026505444F
:207DE000A4B22A696743C7F3120717432F61012B01BF0B78CA6800EB4313C3F8142BCB7814
:207E0000012B11D1D0F8083813F4807F0B784FF020024FF4306412FB0343C2580CBF42F021
:207E2000005242F08052C2500A784FF4306303EB4213C25842F00442C25003E0012B7FF419
:207E400060AF54E7002002B0BDE8F0810000F81FF0B55078556901284FF02004107869D160
:207E60004FF4106614FB00600844B5B9056925F0FF5525F4C0150561107814FB00600844B2
:207E8000056945F400250561107814FB00640C442069C00CC004206126E00769FF0CFF0447
:207EA0000761107814FB00640C44206920F0FF5020F4C010206190688542157888BF50617E
:207EC00020244FF4106014FB05050D442E6946F400262E61157814FB0500084454690569A3
:207EE000C4F312042C430461012B10784FF020034FF410640CD113FB004008441569456179
:207F0000127813FB02435A5842F004425A504DE013FB0043585840F0044058505369002B7F
:207F200044D01278D1F83408012393400343C1F834383BE04FF4306714FB0070084406690D
:207F4000F60CF6040661107814FB00700844066926F0FF5626F4C0160661966805B15661CF
:207F600010784FF4306514FB00500844C6F31206076947F400270761107814FB00540C44B0
:207F8000012B206946EA0006266106D11378202010FB03530B44D068586112784FF43063CC
:207FA00003EB4213CA5842F00442CA500020F0BD10B59DF8084064B9033300F580509B1098
:207FC00000EB02329C4204D051F8240010600134F8E7002010BD10B503329210002300F53E
:207FE0008050934204D0046841F823400133F8E701EB830010BD4B78012B10B54FF020029C
:208000000C7814D14FF4106312FB0433C258002AA2BFC25822F08042C2500A784FF4106320
:2080200003EB4213C25842F40012C25013E04FF4306312FB0433C258002AA2BFC25822F0AB
:208040008042C2500A784FF4306303EB4213C25842F40012C250002010BD4B78012B0B78DE
:2080600030B54FF020020CBF4FF410654FF4306512FB03531C5824F400141C50CB78023B70
:20808000012B06D80B7812FB0352135843F080531350002030BD38B500F52E61044600F560
:2080A0001063FF229A60C3F8082220338B42F9D100254FF0FF32C4F818282046C4F8105848
:2080C000C4F81458C4F81C58FFF716FD10212046FFF700FD284638BDD0F8003823F4FE63DA
:2080E000C0F80038D0F80038090101F4FE610B43C0F800380020704708B5D0F8043823F049
:208100000203C0F804380320FCF77AFE002008BD08B5D0F8043843F00203C0F804380320E3
